:030000000259B2F0
:1059B200787FE4F6D8FD9000007FFF7E01E4F0A33B
:0A59C200DFFCDEFA758158025A0777
:10635B00E4F584D28453E6FD75CFEC75C0447584A7
:02636B000F22FF
:1046AD001511A811A605151115111511A811A6039F
:0C46BD0008A60208A60115111511151120
:1046C900A81108E4F608F6F584C2C3D2C2D2C5A877
:1046D90011F6E5112407F9A811E6C397400302472B
:1046E900C620C31BA811080806E61870010686062D
:1046F900D39420EE944E40E9D2C47FFE0247CBAF5B
:10470900C1EF12146D473000473708473F1047463D
:104719001847502847B5384754404796484762508C
:10472900479C58000047BBD2C47F000247CB75C2E3
:10473900A0C2C50247C175C2A1C2C5807BE51124CB
:1047490006F8E6F5C28071D2C5806DE5112407F837
:10475900E664017063C2C2805FE5112403F8860331
:1047690008E6FA08E6F9E5C2121217E5112403F87A
:104779000808740126F618E436F6A81106E511248E
:1047890007F8E614A81166702FC2C2802BD2C47F25
:1047990048802FE5112403F8860308E6FA08E6F9AC
:1047A900E5C2121217D2C4A81106800CD2C47F38F0
:1047B9008010D2C4AFC1800AC2C30246DB75840F20
:0247C9007FFD72
:0747CB00E5112408F511229D
:104A12001511A811A605151115111511A811A60336
:0C4A220008A60208A601151115111511B7
:104A2E00A81108E4F608F6C284F584C2C3D2C5A85C
:104A3E0011F6E5112407F8E62401FFE433FEA81170
:104A4E00E6C39FEE6480F87480984003024B052005
:104A5E00C31BA811080806E6187001068606D39433
:104A6E0020EE944E40E9D2C47FFE024B23AFC1EF3D
:104A7E0024F8601F24F0602224F8605E24F860247D
:104A8E0024F8605C24F8605E24387060D2C47F0025
:104A9E00024B2375C2A0C2C58058E5112406F8E664
:104AAE00F5C2804EE5112407F9A811E6677005D20C
:104ABE00C406803EE5112403F8860308E6FA08E6EC
:104ACE00F91211D1F5C2E5112403F8080874012674
:104ADE00F618E436F6A811068018D2C47F20803569
:104AEE00D2C47F30802FD2C47F388029D2C4AFC1C8
:104AFE008023C2C3024A4075840FA81108764E085F
:104B0E007620A8110808E6161886067001164E7053
:054B1E00F1D2847FFDCF
:074B2300E5112408F5112241
:10636D001511A811A62B1246ADBFFD037F13227F79
:01637D00839C
:01637E0022FC
:08001E00AC058B2B8A2C892D07
:100026001511A811A62F124A12EF64FD703A151188
:10003600A811A62FFB7A0079301246ADEF64FD7049
:1000460027FFEFC3952F501DAB2BAA2CA92D8F820E
:100056007583001211EAFE74302FF8E66E60037F96
:0A00660085220F80DD7F14227F84C5
:01007000226D
:105EAA00C0F9A4B0999282F880908883C6A7A18687
:105EBA008E898BC7ABC8A38CAF87C1BFFFB9F7EF79
:105ECA000000000000000000407924301912027816
:105EDA0000108883C627A1868E898BC7ABC8A38C7E
:105EEA00AF87C1BF7FB9F7EF0000000000000000D4
:0C5EFA001C1C1C1C1C1C1C1C1C1C1C1C4C
:0C00760075840FED42F88FE853F8C022AB
:084E52008F2A8E298D288C2780
:104E5A00E47F9C7EFEFDFCAB2AAA29A928A827D3B9
:104E6A001213A940067F011214AB227F787EEC7DD3
:104E7A00FF7CFFAB2AAA29A928A827C31213A95085
:104E8A00067F021214AB22AF2AAE29AD28AC27EC5A
:104E9A00334004C20D8015D20DAF2AAE29AD28AC1D
:104EAA002712139B8F2A8E298D288C27E49000E6DF
:104EBA00F0E47B0AFAF9F8AF2AAE29AD28AC27123A
:104ECA00610C9000E6E024E7F582E43400F583EB18
:104EDA00F0AF2AAE29AD28AC27E47B0AFAF9F8121A
:104EEA00610C8F2A8E298D288C279000E6E004F029
:104EFA00E0B406BD200D0B9000EBE07016741CF0B8
:104F0A008011300D089000EB741BF080067F86122A
:104F1A0014AB229000E8E0905EAA93FF7D01120094
:104F2A00769000E9E0905EAA93FF0D120076900059
:104F3A00EAE0905ED293FF7D041200769000EBE0E7
:0A4F4A00905EAA93FF7D0812007626
:014F5400223A
:0848F4008F2E8E2D8D2C8C2BD4
:1048FC0043F83F75E8FF53F8C0AF2EAE2DAD2CAC8E
:10490C002BEC334004C20E8015D20EAF2EAE2DAD63
:10491C002CAC2B12139B8F2E8E2D8D2C8C2BE4906C
:10492C0000F3F0E47B0AFAF9F8AF2EAE2DAD2CAC07
:10493C002B12610C9000F3E024F4F582E43400F5C2
:10494C0083EBF0AF2EAE2DAD2CAC2BE47B0AFAF939
:10495C00F812610C8F2E8E2D8D2C8C2B9000F3E089
:10496C0004F0E0B406BD200E179000F9E0703E9004
:10497C0000F8E07003741CF09000F9741CF0802DAA
:10498C00300E249000F9E070169000F8E070087476
:10499C001BF0A304F080169000F9741BF0800E90AD
:1049AC0000F9741DF080067F861214AB229000F47F
:1049BC00E0905EAA93FF7D011200769000F5E090E6
:1049CC005EAA93FF0D1200769000F6E0905EAA931B
:1049DC00FF7D041200769000F7E0905ED293FF7D8D
:1049EC00081200769000F8E0905EAA93FF7D1012FA
:1049FC0000769000F9E0905EAA93FF7D201200767D
:054A0C007F0112000310
:014A11002282
:0214AB008F2F81
:1014AD0078FA7C007D017BFF7A5E79FA7E007F06FB
:1014BD001211ABE52F12146D15BC0115CB0219FFDE
:1014CD001015D51115EA15161A1615FF17165618FB
:1014DD00163519175F20191B21191B22191B2319EA
:1014ED001B24191B25191B26191B27191B28191B12
:1014FD0029191B2A191B2B191B2C166B2D16F52EB2
:10150D00171A2F16A53116C03216DB33194E38199E
:10151D004E39173F40177F4117A44217BF4317DAC3
:10152D004417F545181046168455199B61199B6291
:10153D00199B63199B64199B6519B46619B46719D6
:10154D00B46819B46919B46A18E48018E48118E410
:10155D008218E48318E48418E48518E48618E48777
:10156D0018E48818E48918E48A18E48B18E48C18B8
:10157D00E48D18E48E18E48F1982911982921982E4
:10158D0093198294198295198296198297198298C6
:10159D00198299182BA01850A11875A2189AA31882
:1015AD00BFA419D0A51697AA1A52FF000019E790EB
:1015BD0000FD7416F09000FC7413F00219FF9000FA
:1015CD00FD741DF00219FF229000FF7405F09000CC
:1015DD00FE740FF09000FD7419F00219FF9000FFDA
:1015ED00740CF09000FE740AF09000FD7413F0027C
:1015FD0019FF9000FF7410F09000FE741AF0900027
:10160D00FD7415F09000FC740CF00219FF9000FFB2
:10161D007419F09000FE740FF09000FD7405F090B9
:10162D0000FC7419F00219FF9000FF740EF0900089
:10163D00FE7417F09000FD7405F09000FC740FF02F
:10164D009000FB7419F00219FF9000FF741AF090CE
:10165D0000FE740FF09000FD7418F00219FF900059
:10166D00FF7409F09000FE7416F09000FDF09000EC
:10167D00FC740EF00219FF9000FC7416F09000FB44
:10168D007410F09000FAF00219FF9000FB7416F040
:10169D009000FA14F00219FF9000FF7405F090000D
:1016AD00FE7417F09000FD740AF09000FC7415F0B4
:1016BD000219FF9000FF7419F09000FE740AF0906B
:1016CD0000FD7418F09000FC740FF00219FF9000EB
:1016DD00FF7409F09000FE04F09000FD741FF0906F
:1016ED0000FC7415F00219FF9000FF740FF09000CC
:1016FD00FE7418F09000FDF09000FC741BF090004B
:10170D00FB740CF09000FA7413F00219FF9000FFB7
:10171D00740FF09000FE7418F09000FDF09000FC36
:10172D00741BF09000FB7411F09000FA7413F0022A
:10173D0019FF9000FF741FF09000FE7415F09000DB
:10174D00FD7417F09000FC741AF09000FB14F00279
:10175D0019FF9000FF7415F09000FE04F09000FD4D
:10176D00741BF09000FC741FF09000FB7415F002D8
:10177D0019FF9000FF7416F09000FE741AF090009F
:10178D00FD14F09000FC7417F09000FB741AF090AB
:10179D0000FA14F00219FF9000FF740EF09000FE95
:1017AD007416F09000FD741BF09000FC7401F002B3
:1017BD0019FF9000FF740EF09000FE7416F090006B
:1017CD00FD741BF09000FC7402F00219FF9000FFF5
:1017DD00740EF09000FE7416F09000FD741BF090E6
:1017ED0000FC7403F00219FF9000FF740EF09000DE
:1017FD00FE7416F09000FD741BF09000FC7404F064
:10180D000219FF9000FF740EF09000FE7416F09018
:10181D0000FD741BF09000FC7405F00219FF9000A0
:10182D00FF740FF09000FE7418F09000FDF0900022
:10183D00FC741BF09000FB7405F09000FA7417F027
:10184D000219FF9000FF740FF09000FE7418F090D5
:10185D0000FDF09000FC741BF09000FB7413F090F1
:10186D0000FA7405F00219FF9000FF740FF090005C
:10187D00FE7418F09000FDF09000FC741BF09000C9
:10188D00FB7411F09000FA7417F00219FF9000FF2D
:10189D00740FF09000FE7418F09000FDF09000FCB5
:1018AD00741BF09000FB7416F09000FA7411F002A6
:1018BD0019FF9000FF740FF09000FE7418F0900067
:1018CD00FDF09000FC741BF09000FB7416F090007E
:1018DD00FA7413F00219FFE52F2480FBE434FFFAAC
:1018ED007C007D0AAF03FE1212299000FAEDF07C08
:1018FD00007D0AAF03AE02121229A3EFF0A3741BF1
:10190D00F0A37418F0A3F0A3740FF00219FFE52FE4
:10191D0024E0FBE434FFFA7C007D0AAF03FE1212D3
:10192D00299000FBEDF07C007D0AAF03AE02121290
:10193D0029A3EFF0A3741EF0A3F0A37410F0021905
:10194D00FFE52F24C9FBE434FFFA7C007D0AAF03C9
:10195D00FE1212299000FBEDF07C007D0AAF03AE64
:10196D0002121229A3EFF0A3741EF0A37417F0A3B3
:10197D00740EF0807D9000FA7415F0A304F0A3743A
:10198D001BF0E52F2470A3F0A3741FF0806490006A
:10199D00FA7415F0A304F0A3741BF0E52F24A0A393
:1019AD00F0A37416F0804B9000FA7410F0A3F0A31E
:1019BD007416F0A3741BF0E52F249BA3F0A37416EB
:1019CD00F0802F9000FA7419F0A304F0A37416F0B0
:1019DD00A3741BF0A37419F080189000FA740FF023
:1019ED00A314F0A37416F0A3740CF0A37416F0A353
:1019FD0014F09000FAE0905EAA93FF7D011200763C
:101A0D009000FBE0905EAA93FF0D1200769000FC13
:101A1D00E0905EAA93FF7D041200769000FDE090A9
:101A2D005EAA93FF7D081200769000FEE0905EAAFC
:101A3D0093FF7D101200769000FFE0905EAA93FF59
:051A4D007D201200766F
:011A52002271
:1061E3008F2A8E298D288C277F101214AB7F64127F
:1061F3000003AF2AAE29AD28AC271248F47F6412FE
:0362030000032273
:044F55008E2A8F2BE6
:104F590078E67C007D017BFF7A5F79007E007F0621
:104F69001211ABE49000E5F09000E5E0FBC3940674
:104F7900502EAE2AAF2B7C007D0A12122974E62B23
:104F8900F582E43400F583EDF0AE2AAF2B7C007D89
:104F99000A1212298E2A8F2B9000E5E004F080C8AE
:104FA9009000EBE07003741CF09000EAE0700BA332
:104FB900E0B41C069000EA741CF09000E9E0700B64
:104FC900A3E0B41C069000E9741CF09000E8E070BE
:104FD9000BA3E0B41C069000E8741CF09000E7E015
:104FE900700BA3E0B41C069000E7741CF09000E677
:104FF900E0905EAA93FF7D011200769000E7E090B1
:105009005EAA93FF0D1200769000E8E0905EAA93E5
:10501900FF7D041200769000E9E0905EAA93FF7D7F
:10502900081200769000EAE0905EAA93FF7D1012C4
:1050390000769000EBE0905EAA93FF7D2012007647
:055049007F01120003CD
:01504E00223F
:025A4C008F2B9E
:105A4E00E49000F4F0E59054F89000F3F0E52B129A
:105A5E00146D5A88075A920F5A92175A92275A9FC4
:105A6E00375A92475AB1785A92875AB1B85AB1D822
:105A7E005AB1E85AB1F000005ABC9000F3E0FF644E
:105A8E00F8702E22E52BF4FE9000F3E0FF6E7021ED
:105A9E00229000F3E0FEB4D8037FF822EEB4E811B2
:105AAE007FF8229000F3E0652B60067FF822AF2B83
:105ABE00227F1E1200039000F4E004F0E0C3940471
:105ACE0040837F78120003E52BB407069000F3E0C5
:045ADE00FF22AF2BC9
:015AE20022A1
:105AE300E49000E5F0E59020E0117F0312000390BD
:105AF30000E5E004F0E0C3940440EA9000E5E0B47C
:105B030004037F9622E49000E5F0E5A0B4FF037F51
:105B130020227F031200039000E5E004F0E0C39429
:105B23000440E79000E4E5A0F0E0FE20E0037F9965
:105B330022EE20E1037F98229000E4E0FE20E203BE
:105B43007F9722EE20E3037F94229000E4E0FE207F
:105B5300E4037F9322EE20E5037F91229000E4E0AB
:105B6300FE20E6037F9222EE20E7037F95227F202B
:015B7300220F
:106150004400D600000000410083004100CE004111
:1061600000C6004100B10041008200C101C100C170
:0D61700002C107C109C10BC106C108C185EC
:102AC700125DE6E49000AFF0A3F01257169000AF46
:102AD700EEF0A3EFF0D394ACEE6480948D400E7FBC
:102AE700A31214ABE49000AFF0A3F0801DC39000D5
:102AF700B0E094549000AFE064809472500C7FA4CF
:102B07001214ABE49000AFF0A3F0125B74123180A3
:042B1700D2B1D2B2B3
:102B1B00126334BFA518900083E004F0E0D3940354
:102B2B00400C9000AE7455F09000CE7401F0126022
:102B3B00C8125D7B125B741242F812318012571669
:102B4B009000AA12143020A00D905EB7E493FF7D85
:102B5B0020120076801E9000CEE0600D905EB9E4EE
:102B6B0093FF7D20120076800B905EC6E493FF7D71
:102B7B0020120076905EC6E493FF7D1012007690D3
:102B8B0000AAE0F8A3E0F9A3E0FAA3E0FB9000B9F8
:102B9B00E0FCA3E0FDA3E0FEA3E0C39BFFEE9AFEE7
:102BAB00ED99FDEC98FCE47BC8FAF9F8C31213A974
:102BBB005002D2059000B9E0F8A3E0F9A3E0FAA324
:102BCB00E0FB9000AAE0FCA3E0FDA3E0FEA3E0C3C2
:102BDB009BFFEE9AFEED99FDEC98FCE47BC8FAF9AD
:102BEB00F8C31213A95002D20530052C9000AAE0AD
:102BFB00FCA3E0FDA3E0FEA3E0FF9000B9121430AC
:102C0B009000B9E0FCA3E0FDA3E0FEA3E0FF124EB1
:102C1B0052E49000B4F0C205E47F887E13FDFC9073
:102C2B0000AAE0F8A3E0F9A3E0FAA3E0FBC31213B8
:102C3B00A95003022D4D9000CBE0B4AA3DE47F20B8
:102C4B007E4EFDFC9000AAE0F8A3E0A3E0A3E0C356
:102C5B001213A95004D2B280219000BEE0FEA3E073
:102C6B00FFE4FCFD9000AAE0F8A3E0F9A3E0FAA3CF
:102C7B00E0FBC31213A94002C2B29000C5E0244886
:102C8B00FF9000C4E034F4FEE4FCFD9000AAE0F8F1
:102C9B00A3E0F9A3E0FAA3E0FBD31213A94002C20D
:102CAB000B9000C4E0FEA3E0FFFBAA06E49000AA91
:102CBB00E0FCA3E0FDA3E0FEA3E0C39BFFEE9AFEC6
:102CCB00ED9400FDEC9400FC9000DC121430E47FDA
:102CDB00F47E01FDFC9000DCE0F8A3E0F9A3E0FA40
:102CEB00A3E0FBD31213A94006124060022B1BE496
:102CFB007FC8FEFDFC9000DCE0F8A3E0F9A3E0FA4E
:102D0B00A3E0FBD31213A94009300806124060025E
:102D1B002B1B9000DCE0FCA3E0FDA3E0FEA3E0FF97
:102D2B00EC334016D2089000CFE004F0E06403606F
:102D3B0003022B1B124060022B1BE49000CFF0020E
:052D4B002B1B12523B9E
:042D5000022B1B2215
:10523B0030010302532820000302532830A003023D
:10524B0053289000AFE0FFA3E09000E0CFF0A3EF76
:10525B00F0E49000AFF0A3F01257C29000AA121422
:10526B0030E47FAC7E0DFDFC9000AAE0F8A3E0F9E2
:10527B00A3E0FAA3E0FBD31213A950197F547EF2DB
:10528B007DFF7CFF9000AAE0F8A3E0A3E0A3E0C3BE
:10529B001213A950549000E0E0FFA3E09000AFCFB1
:1052AB00F0A3EFF0E47FAC7E0DFDFC9000AAE0F8DC
:1052BB00A3E0F9A3E0FAA3E0FBD31213A940077F05
:1052CB00A31214AB80527F547EF27DFF7CFF9000C3
:1052DB00AAE0F8A3E0F9A3E0FAA3E0FBC31213A939
:1052EB0050367FA41214AB802F905EB6E493FF7DF3
:1052FB00201200769000AAE0FCA3E0FDA3E0FEA341
:10530B00E0FF124E529000AAE0A3E0A3E0FFA3E05F
:0D531B009000AFCFF0A3EFF0C20030A0FD76
:015328002262
:104060009000CCE0FEA3E0FF7C007D05121229EF5A
:1040700025E0F524EE33F523D205C2B2C2B1D20B4E
:10408000E49000CFF0C208905EC693FF7D2012003E
:1040900076905EC6E493FF7D20120076AE23AF24B7
:1040A000E4FCFD9000AAE0F8A3E0F9A3E0FAA3E0A5
:1040B000FBC31213A950030241611257169000AAC4
:1040C000121430125D7B20A05E905EEEE493FF7DC3
:1040D000201200767F0A1262DDC20530A0FD905EDC
:1040E000C6E493FF7D201200769000AAE0A3E0A32F
:1040F000E0FEA3E0FF9000B2EEF0A3EFF09000B17D
:10410000E025E02488F582E43400F583EEF0A3EFA7
:10411000F09000B1E004F090009DE0FF9000B1E06D
:10412000B5070FE4F0800B905EC6E493FF7D20128C
:104130000076905EC6E493FF7D1012007630051184
:104140009000AAE0FCA3E0FDA3E0FEA3E0FF124E76
:104150005220030302409C1263A0C203D205024016
:104160009CD2B1D2B21263A0D2009000CAE0B4AA2D
:104170001F900180E0FCA3E0FDA3E0FEA3E024018A
:10418000FFE43EFEE43DFDE43CFC9001801214306F
:10419000C2019000D1E0B4AA09900084E0FF12624D
:1041A000C3229000A2E0B4AA0890009DE0FF125440
:0141B0000E00
:0141B10022EB
:10618D0075840F75A49075A50675A7FE759CE075B1
:10619D009EFF759FFF75E10575E3407590FF75A036
:1061AD00FF75B0FF75C8FF75D8FF75E8FF75F8FF6F
:0161BD0022BF
:0963B600C2AF75FFDE75FFAD22D8
:1062290075840F758C67E4FFFE0FBF00010EBE0B6E
:0F623900F8BFB8F5E58C30E7FB759701758A0360
:016248002233
:103C07007525AA9000AE7455F07B017A0079AE75E0
:103C17002F017D2512001E90009C7401F0FB7A0095
:103C2700799CF52F7D2412001E9000D07450F07BF4
:103C3700017A0079D0752F017D0612001E9000CC05
:103C470074C3F0A37450F07B017A0079CC752F020E
:103C5700E4FD12001E9000B512143C000557307B9E
:103C6700017A0079B5752F047D1512001E9000C0EA
:103C770012143C000086027B017A0079C0752F047C
:103C87007D2012001E9000A412143C00009C407B73
:103C9700017A0079A4752F047D1912001E90009DEA
:103CA7007405F07B017A00799D752F017D0D120057
:103CB7001E9000CB7455F07B017A0079CB752F01EC
:103CC7007D0912001E9000DA7413F0A37488F07B4C
:103CD700017A0079DA752F027D0712001EE4900041
:103CE700A8F0A3F07B017A0079A8752F027D0A124C
:103CF700001EE49000C7F0A3F07B017A0079C77536
:103D07002F027D0E12001EE4900085F0A3F07B01C8
:103D17007A007985752F027D1112001EE4900084C8
:103D2700F07B017A007984752F017D1312001E90B4
:103D370000A27455F07B017A0079A2752F017D0CE2
:103D470012001E9000D17455F07B017A0079D1756D
:103D57002F017D1012001E9000CA7455F07B017A66
:103D67000079CA752F017D1412001E7B007A007935
:093D770025752F017DFF12001ECD
:013D80002220
:101E600075262D7B017A0079AE752B017D251263D5
:101E70006D7B017A00799C752B017D2412636D9036
:101E8000009CE0FFD3943C5003EF700A7F8F121444
:101E9000AB125B7480E9E4F5259000AEE064AA70B3
:101EA00021C2AFE526B42D05123A6F8F26D2AFE5D9
:101EB00026B42D04800C80057F8B1214AB125B744A
:101EC00080D7D20B7B017A0079D0752B017D061269
:101ED000636D9000D0E0D3945A4011743CF07B01C4
:101EE0007A0079D0752F017D0612001E9000D0E097
:101EF000FCE41210267BCD7ACC798C783F120E76DA
:101F000012105A9000A3EFF07B017A0079CC752B68
:101F100002E4FD12636D9000CCE0FEA3E0FFC394E9
:101F2000F0EE9455400EE4FCFD7BE87AFDF9F812E2
:101F300013A9500A7FA01214AB125B7480D87B01E6
:101F40007A0079B5752B047D1512636D7FA07E86AE
:101F50007D017C009000B5E0F8A3E0F9A3E0FAA3CE
:101F6000E0FBC31213BF7003021FF37FF07E497DB5
:101F7000027C009000B5E0F8A3E0A3E0A3E0C31268
:101F800013BF606F7F407E0D7D037C009000B5E045
:101F9000F8A3E0A3E0A3E0C31213BF60567F907ED6
:101FA000D07D037C009000B5E0F8A3E0A3E0A3E0BF
:101FB000C31213BF603D7FE07E937D047C009000E0
:101FC000B5E0F8A3E0A3E0A3E0C31213BF60247F51
:101FD000307E577D057C009000B5E0F8A3E0A3E0DB
:101FE000A3E0C31213BF600B7FA11214AB125B748A
:101FF000021F4C7B017A0079C0752B047D2012638F
:102000006DE47F387E4AFDFC9000C0E0F8A3E0F963
:10201000A3E0FAA3E0FBC31213BF4018E47F307EB5
:10202000F2FDFC9000C0E0F8A3E0A3E0A3E0D3122F
:1020300013BF400A7F811214AB125B7480C37B0113
:102040007A0079A4752B047D1912636DE47F207EDC
:102050004EFDFC9000A4E0F8A3E0F9A3E0FAA3E0B1
:10206000FBC31213BF4018E47F607EEAFDFC9000C2
:10207000A4E0F8A3E0A3E0A3E0D31213BF400A7FDB
:10208000821214AB125B7480C37B017A00799D7558
:102090002B017D0D12636D90009DE0FF6005D394D0
:1020A0000A401490009D7405F07B017A00799D75BB
:1020B0002F017D0D12001E7B017A00799E752B0485
:1020C0007D0212636D7B017A0079CB752B017D094E
:1020D00012636D7B017A0079DA752B027D0712633A
:1020E0006D9000DAE0FEA3E0FFC39464EE9400403C
:1020F00009D3EF9410EE9427400A7FA21214AB127A
:102100005B7480DD7B017A0079A8752B027D0A1251
:10211000636D9000A8E0FEA3E0FFC3943CEE6480F2
:102120009476400BD3EF94C4EE64809489400A7F88
:10213000881214AB125B7480D97B017A0079C77561
:102140002B027D0E12636D9000C7E0FEA3E0FFC37B
:10215000943CEE64809476400BD3EF94C4EE64809C
:102160009489400A7F891214AB125B7480D97B0179
:102170007A007985752B027D1112636DD3900086EC
:10218000E094DC900085E09405400A7F8A1214AB4D
:10219000125B7480E77B017A007984752B017D13D3
:1021A00012636D7B017A0079A2752B017D0C12639D
:1021B0006D7B017A0079D1752B017D1012636D90D2
:1021C00000A2E0B4AA169000D1E0B4AA0F9000A239
:1021D0007455F09000D1F07F8C1214AB7B017A0023
:1021E00079CA752B017D1412636D9000A8E0FEA3DF
:1021F000E0FFC39000CDE09FFF9000CCE09EFE90FA
:1022000000C4F0A3EFF09000DAE0FCA3E0FDC3EF20
:102210009DFFEE9C9000BEF0A3EFF0E4F52590004A
:10222000C7E0FEA3E0FF9000CDE02FFF9000CCE0E0
:102230003EFEE52525E02488F582E43400F583EEB2
:0B224000F0A3EFF00525E525B40AD35C
:01224B002270
:10634800E4F584E5EF30E10A90018012143C000086
:0363580000002220
:105DE6001263B612622912634812618D1262F612AC
:105DF600635B12630B7F007EC27D017C00126082B2
:105E060012624912637F7FF0125A4CBFF005123CB2
:105E1600078003121E60E4F523E523905EAA93FF34
:105E26007D3F120076E49000AFF0A3F0F524125700
:105E3600160524E524C3941440F40523E523C394EE
:055E46000A40D6D20164
:015E4B002234
:02540E008F25E8
:105410009000E012143C00000000E4F526E526C3ED
:10542000952550399000E0E0F8A3E0F9A3E0FAA355
:10543000E0FBE52625E02488F582E43400F583E0EE
:10544000FEA3E0FFE4FCFDEB2FFFEA3EFEED39FD9D
:10545000EC38FC9000E0121430052680C09000E08B
:10546000E0FCA3E0FDA3E0FEA3E0FFC007AF25AB97
:1054700007E4FAF9F8D0071213099000E01214308B
:105480009000C7E0FEA3E0FF9000CDE02FFF90006A
:10549000CCE03EFEE49000E0E0F8A3E0F9A3E0FAFF
:1054A000A3E0FBC3EF9BFFEE9AFEE499FDE498FCBA
:1054B000E47B02FAF9F81213099000C5E02FF0908E
:1054C00000C4E03EF09000DAE0FEA3E0FFC39000ED
:1054D000C5E09FFF9000C4E09E9000BEF0A3EFF0F7
:0154E00022A9
:0763BF00302D3030313000B9
:1042F800C20CC2109000E0E5E6F0A3E5E7F0A3E504
:10430800A8F0E4F5A8F5A8F5E6F5E77F07125A4CFA
:104318009000E3EFF0BFD804D20C801F9000E3E0D8
:10432800B4E804D20C80149000E2E0FFF5A88FA84E
:104338009000E0E0F5E6A3E0F5E7229000CCE0FE8F
:10434800A3E0FFE4FCFD124E529000CCE0FFA3E096
:104358009000E4CFF0A3EFF0300C6B7F07125A4CBB
:104368009000E3EFF0BFD8109000CDE02464F09007
:1043780000CCE03400F0802A9000E3E0FFB4E810BD
:104388009000CDE0249CF09000CCE034FFF0801247
:10439800EFB4B804C20C800A2010077F0A1262DD4D
:1043A800D2103003117F07125A4CBFF802C20CC258
:1043B800101263A0C2039000CCE0FEA3E0FFE4FC6F
:1043C800FD124E5280929000CCE0FEA3E0FFE4FC88
:1043D800FD124E527B017A0079CC752F02E4FD1252
:1043E800001E9000CCE0FEA3E0FF9000C5E02FFF88
:1043F8009000C4E03EFE9000E4E0FCA3E0FDC3EFC3
:104408009DFFEE9CFE9000C4F0A3EFF09000DAE070
:10441800FCA3E0FDC3EF9DFFEE9C9000BEF0A3EF70
:10442800F09000E0E0F5E6A3E0F5E7A3E0FFF5A8EB
:024438008FA84B
:01443A00225F
:10318000C20C9000ECE5E6F0A3E5E7F0A3E5A8F0BB
:10319000E4F5A8F5A8F5E6F5E77F78125A4CEF6458
:1031A000786003023363200C077F141262DDD20CB7
:1031B0009000AFE0FEA3E0FFEE3395E0FDFC900051
:1031C000E8121430E49000AFF0A3F07F87125A4C5D
:1031D000EF6487601F20031C1257169000E0121442
:1031E000309000E0E0FCA3E0FDA3E0FEA3E0FF12CE
:1031F00048F480D720037CE47FC47E09FDFC900066
:10320000E0E0F8A3E0F9A3E0FAA3E0FBD31213A9EE
:1032100050197F3C7EF67DFF7CFF9000E0E0F8A334
:10322000E0A3E0A3E0C31213A950159000E8E0A3C7
:10323000E0A3E0FFA3E09000AFCFF0A3EFF0801396
:103240009000E0E0A3E0A3E0FFA3E09000AFCFF0A8
:10325000A3EFF01257169000E01214309000E0E057
:10326000FCA3E0FDA3E0FEA3E0FF1248F41263A07C
:103270000233631263A0C20C7F87125A4CEF64873B
:103280006008125E4C1248F480EE7F78125A4CEFC0
:1032900064786035200C077F141262DDD20C300395
:1032A000E99000E8E0A3E0A3E0FFA3E09000AFCF47
:1032B000F0A3EFF01263A09000ECE0F5E6A3E0F5D8
:1032C000E7A3E0FFF5A88FA8221263A07F87125A18
:1032D0004CBF87F87FB8125A4CEF64B86051200C8D
:1032E000077F141262DDD20C3003289000E8E0A3BF
:1032F000E0A3E0FFA3E09000AFCFF0A3EFF01263F4
:10330000A09000ECE0F5E6A3E0F5E7A3E0FFF5A868
:103310008FA822125E4C9000E41214309000E4E07A
:10332000FCA3E0FDA3E0FEA3E0FF1261E380A51291
:1033300063A07F47125A4CBF47F89000E4E0FCA31B
:10334000E0FDA3E0FEA3E0FF90009E121430E490A5
:1033500000AFF0A3F07B017A00799E752F047D0207
:1033600012001E9000ECE0F5E6A3E0F5E7A3E0FF15
:04337000F5A88FA885
:013374002236
:102D5400C20CC20DE4F5289000C6F01263A09000E6
:102D6400CCE0FEA3E0FF9000E4EEF0A3EFF0E4FC7F
:102D7400FD1248F47F0F125A4CBF0FF830030302C0
:102D84002EC6E52864B87003022EC6200C077FC83F
:102D94001262DDD20C7F07125A4C8F28E528B4F852
:102DA40003E4F527E52864D870651263A0C20CE536
:102DB40027C3942850020527E527C3940A5010908E
:102DC40000CDE004F070069000CCE004F0803CE517
:102DD40027C3941450109000CDE0240AF09000CC46
:102DE400E03400F08025E527C3941E50109000CDF8
:102DF400E02464F09000CCE03400F0800E9000CD2C
:102E0400E024F4F09000CCE03401F0D20D8069E5C8
:102E14002864E870631263A0C20CE527C3942850A9
:102E2400020527E527C3940A50109000CDE024FF43
:102E3400F09000CCE034FFF0803CE527C3941450BC
:102E4400109000CDE024F6F09000CCE034FFF08048
:102E540025E527C3941E50109000CDE0249CF090EB
:102E640000CCE034FFF0800E9000CDE0240CF09014
:102E740000CCE034FEF0D20D9000CCE0FEA3E0FFE5
:102E8400E4FCFD7BE87AFDF9F8C31213A9500C9019
:102E940000CC7455F0A374F0F08016C39000CDE01C
:102EA40094F09000CCE09455500774FDF0A374E8BE
:102EB400F09000CCE0FEA3E0FFE4FCFD1248F40235
:102EC4002D801263A0C20C7F47125A4CBF47F830C2
:102ED40003109000E4E0FFA3E09000CCCFF0A3EF58
:102EE400F022200D03022F7C7FC81262DD9000CCFB
:102EF400E0FEA3E0FF9000C5E02FFF9000C4E03E99
:102F0400FE9000E4E0FCA3E0FDC3EF9DFFEE9CFE19
:102F14009000C4F0A3EFF09000DAE0FCA3E0FDC35E
:102F2400EF9DFFEE9C9000BEF0A3EFF020033390E2
:102F340000C6E06414602B7B017A0079CC752F0203
:102F4400E4FD12001E9000C6EFF0BF84077F8412D8
:102F540014AB80D89000C6E0B485D17F851214AB41
:102F640080CA9000C6E0B4140F7F2D1214AB7FFA10
:082F74001200037FFA120003B2
:012F7C002232
:103D8100C20CC20DE4F5291263A0E49000C6F090C4
:103D910000D0E0FFF5277E00124F557F0F125A4CDD
:103DA100BF0FF8300303023E6DE52964B8700302CA
:103DB1003E6D200C077FC81262DDD20C7F07125ABC
:103DC1004C8F29E529B4F803E4F528E52964D87076
:103DD100381263A0C20CE528C3942850020528E5D7
:103DE10028C3940A50089000D0E004F08017E52819
:103DF100C3941450099000D0E02402F08007900091
:103E0100D0E02405F0D20D803CE52964E87036123B
:103E110063A0C20CE528C3942850020528E528C3F5
:103E2100940A50089000D0E014F08017E528C3945C
:103E31001450099000D0E024FEF080079000D0E0FB
:103E410024FBF0D20D9000D0E0FFD394C84005745C
:103E51005AF0800BEFD3945A4005E49000D0F090D3
:103E610000D0E0FF7E00124F55023DA41263A0C2B4
:103E71000C7F47125A4CBF47F83003079000D0E53A
:103E810027F022300D6D7FC81262DD20034F9000B4
:103E9100C6E0641460479000D0E0FCE41210267B79
:103EA100CD7ACC798C783F120E7612105A9000A3FD
:103EB100EFF07B017A0079D0752F017D0612001E8B
:103EC1009000C6EFF0BF84077F841214AB80BC90D2
:103ED10000C6E0B485B57F851214AB80AE9000C6F4
:103EE100E0B4140F7F2D1214AB7FFA1200037FFA96
:033EF100120003B9
:013EF40022AB
:10337500C20CC20DE4F5289000DAE0F529A3E0F5CA
:103385002A1263A0E49000C6F09000DAE0FEA3E004
:10339500FFE4FCFD1248F47F0F125A4CBF0FF830C2
:1033A50003030234BFE52864B870030234BF200C60
:1033B500077FC81262DDD20C7F07125A4C8F28E5B1
:1033C50028B4F803E4F527E52864D870551263A0FE
:1033D500C20CE527C3941E50020527E527C3940AAE
:1033E50050109000DBE004F070069000DAE004F085
:1033F500802CE527C3941450109000DBE0240AF0DC
:103405009000DAE03400F08015E527D3941E500EC5
:103415009000DBE02464F09000DAE03400F0D20D97
:103425008059E52864E870531263A0C20CE527C3F0
:10343500941E50020527E527C3940A50109000DB1F
:10344500E024FFF09000DAE034FFF0802CE527C39C
:10345500941450109000DBE024F6F09000DAE0348C
:10346500FFF08015E527D3941E500E9000DBE02475
:103475009CF09000DAE034FFF0D20D9000DAE0FE27
:10348500A3E0FFD39410EE9427400B9000DAE4F00C
:10349500A37464F08013C3EF9464EE9400500A9013
:1034A50000DA7427F0A37410F09000DAE0FEA3E0D0
:1034B500FFE4FCFD1248F40233A41263A0C20C7FA2
:1034C50047125A4CBF47F830030B9000DAE529F054
:1034D500A3E52AF022300D6C7FC81262DD2003338C
:1034E5009000C6E06414602B7B017A0079DA752FB1
:1034F500027D0712001E9000C6EFF0BF84077F848F
:103505001214AB80D89000C6E0B485D17F85121423
:10351500AB80CA9000C6E0B4140F7F2D1214AB7FA8
:10352500FA1200037FFA1200039000DAE0FEA3E02E
:10353500FFC39000C5E09FFF9000C4E09E9000BED1
:04354500F0A3EFF010
:01354900225F
:104D4D00C20CC20DE4F5279000CBE0F528E49000ED
:104D5D00C6F01263A09000CBE0FF1214AB7F0F12D0
:104D6D005A4CBF0FF8200371E52764B8606B200C17
:104D7D00077FC81262DDD20C7F07125A4C8F27E5D0
:104D8D0027B4D8241263A0C20C9000CBE0FF64AA14
:104D9D006004EFB45508EFF49000CBF0800690005E
:104DAD00CB74AAF0D20D8027E527B4E8221263A0B8
:104DBD00C20C9000CBE0FF64556004EFB4AA08EF7D
:104DCD00F49000CBF080069000CB7455F0D20D908E
:104DDD0000CBE0FF1214AB808C1263A0C20C7F4796
:104DED00125A4CBF47F83003079000CBE528F0224C
:104DFD00300D517FC81262DD2003339000C6E06490
:104E0D0014602B7B017A0079CB752F017D0912007F
:104E1D001E9000C6EFF0BF84077F841214AB80D8BC
:104E2D009000C6E0B485D17F851214AB80CA900086
:104E3D00C6E0B4140F7F2D1214AB7FFA1200037F5E
:044E4D00FA12000352
:014E5100223E
:102F7D00C20CC20DE4F5289000A8E0FFA3E090007C
:102F8D00E4CFF0A3EFF0E49000C6F01263A0900040
:102F9D00A8E0FEA3E0FFEE3395E0FDFC1248F47FC0
:102FAD000F125A4CBF0FF83003030230C9E52864E5
:102FBD00B870030230C9200C077FC81262DDD20C35
:102FCD007F07125A4C8F28E528B4F803E4F527E55E
:102FDD002864D8704E1263A0C20CE527C394285004
:102FED00020527E527C3940A50109000A9E004F0CC
:102FFD0070069000A8E004F08025E527C3941450D6
:10300D00109000A9E0240AF09000A8E03400F080B0
:10301D000E9000A9E02464F09000A8E03400F0D2F6
:10302D000D8052E52864E8704C1263A0C20CE527B0
:10303D00C3942850020527E527C3940A5010900029
:10304D00A9E024FFF09000A8E034FFF08025E527EB
:10305D00C3941450109000A9E024F6F09000A8E05D
:10306D0034FFF0800E9000A9E0249CF09000A8E0C1
:10307D0034FFF0D20D9000A8E0FEA3E0FFD394C47E
:10308D00EE64809489400C9000A874F6F0A3743C13
:10309D00F08015C3EF943CEE64809476500A900056
:1030AD00A87409F0A374C4F09000A8E0FEA3E0FF9B
:1030BD00EE3395E0FDFC1248F4022FB41263A0C26A
:1030CD000C7F47125A4CBF47F83003109000E4E0D4
:1030DD00FFA3E09000A8CFF0A3EFF022200D030294
:1030ED00317F7FC81262DD9000A8E0FEA3E0FF9063
:1030FD0000C5E02FFF9000C4E03EFE9000E4E0FC30
:10310D00A3E0FDC3EF9DFFEE9CFE9000C4F0A3EF86
:10311D00F09000DAE0FCA3E0FDC3EF9DFFEE9C9084
:10312D0000BEF0A3EFF02003339000C6E0641460FE
:10313D002B7B017A0079A8752F027D0A12001E9053
:10314D0000C6EFF0BF84077F841214AB80D89000C7
:10315D00C6E0B485D17F851214AB80CA9000C6E05D
:10316D00B4140F7F2D1214AB7FFA1200037FFA12E5
:02317D0000034D
:01317F00222D
:10443B00C20CC20DE4F5279000A2E0F5281263A090
:10444B00E49000C6F09000A2E0FF1214AB7F0F12B5
:10445B005A4CBF0FF8200371E52764B8606B200C32
:10446B00077FC81262DDD20C7F07125A4C8F27E5EB
:10447B0027B4D8241263A0C20C9000A2E0FF64AA58
:10448B006004EFB45508EFF49000A2F080069000A2
:10449B00A274AAF0D20D8027E527B4E8221263A0FC
:1044AB00C20C9000A2E0FF64556004EFB4AA08EFC1
:1044BB00F49000A2F080069000A27455F0D20D90FB
:1044CB0000A2E0FF1214AB808C1263A0C20C7F47DA
:1044DB00125A4CBF47F83003079000A2E528F02290
:1044EB00200D030245737FC81262DD200364900028
:1044FB00C6E06414605C9000D17455F07B017A00C7
:10450B0079A2752F017D0C12001E9000C6EFF0BF33
:10451B0084077F841214AB80D29000C6E0B4850769
:10452B007F851214AB80C47B017A0079D1752F0182
:10453B007D1012001E9000C6EFF0BF84077F84121F
:10454B0014AB80A79000C6E0B485A07F851214AB96
:10455B0080999000C6E0B4140F7F2D1214AB7FFA34
:08456B001200037FFA120003A5
:014573002225
:10504F00C20CC20D90009DE0F527E4F5281263A075
:10505F00E49000C6F090009DE0FF7E00124F557F58
:10506F000F125A4CBF0FF8200363E52864B8605D38
:10507F00200C077FC81262DDD20C7F07125A4C8FAB
:10508F0028E528B4D80F1263A0C20C90009DE0044D
:10509F00F0D20D8012E528B4E80D1263A0C20C9077
:1050AF00009DE014F0D20D90009DE0FFD394C84016
:1050BF0005740AF0800BEFD3940A4005E490009D2D
:1050CF00F090009DE0FF7E00124F55809A1263A072
:1050DF00C20C7F47125A4CBF47F830030790009D10
:1050EF00E527F022300D517FC81262DD2003339087
:1050FF0000C6E06414602B7B017A00799D752F0147
:10510F007D0D12001E9000C6EFF0BF84077F841242
:10511F0014AB80D89000C6E0B485D17F851214AB54
:10512F0080CA9000C6E0B4140F7F2D1214AB7FFA23
:08513F001200037FFA120003C5
:015147002245
:10354A00C20CC20DE4F5289000C7E0FFA3E090008A
:10355A00E4CFF0A3EFF0E49000C6F01263A090006D
:10356A00C7E0FEA3E0FFEE3395E0FDFC1248F47FCE
:10357A000F125A4CBF0FF8300303023696E528643F
:10358A00B87003023696200C077FC81262DDD20C8F
:10359A007F07125A4C8F28E528B4F803E4F527E58B
:1035AA002864D8704E1263A0C20CE527C394285031
:1035BA00020527E527C3940A50109000C8E004F0DA
:1035CA0070069000C7E004F08025E527C3941450E4
:1035DA00109000C8E0240AF09000C7E03400F080A0
:1035EA000E9000C8E02464F09000C7E03400F0D2E6
:1035FA000D8052E52864E8704C1263A0C20CE527DE
:10360A00C3942850020527E527C3940A5010900056
:10361A00C8E024FFF09000C7E034FFF08025E527DA
:10362A00C3941450109000C8E024F6F09000C7E04C
:10363A0034FFF0800E9000C8E0249CF09000C7E0B0
:10364A0034FFF0D20D9000C7E0FEA3E0FFD394C48C
:10365A00EE64809489400C9000C774F6F0A3743C21
:10366A00F08015C3EF943CEE64809476500A900083
:10367A00C77409F0A374C4F09000C7E0FEA3E0FF8A
:10368A00EE3395E0FDFC1248F40235811263A0C2C4
:10369A000C7F47125A4CBF47F83003109000E4E001
:1036AA00FFA3E09000C7CFF0A3EFF022300D517FC7
:1036BA00C81262DD2003339000C6E06414602B7BDD
:1036CA00017A0079C7752F027D0E12001E9000C67E
:1036DA00EFF0BF84077F841214AB80D89000C6E055
:1036EA00B485D17F851214AB80CA9000C6E0B414A9
:1036FA000F7F2D1214AB7FFA1200037FFA12000318
:01370A00229C
:10457400C20CC20DE4F5279000D1E0F5281263A027
:10458400E49000C6F09000D1E0FF1214AB7F0F124C
:104594005A4CBF0FF8200371E52764B8606B200CF8
:1045A400077FC81262DDD20C7F07125A4C8F27E5B1
:1045B40027B4D8241263A0C20C9000D1E0FF64AAEF
:1045C4006004EFB45508EFF49000D1F08006900039
:1045D400D174AAF0D20D8027E527B4E8221263A093
:1045E400C20C9000D1E0FF64556004EFB4AA08EF58
:1045F400F49000D1F080069000D17455F0D20D9063
:1046040000D1E0FF1214AB808C1263A0C20C7F4770
:10461400125A4CBF47F83003079000D1E528F02226
:10462400200D030246AC7FC81262DD2003649000B3
:10463400C6E06414605C9000A27455F07B017A00BB
:1046440079A2752F017D0C12001E9000C6EFF0BFF9
:1046540084077F841214AB80D29000C6E0B485072F
:104664007F851214AB80C47B017A0079D1752F0148
:104674007D1012001E9000C6EFF0BF84077F8412E5
:1046840014AB80A79000C6E0B485A07F851214AB5C
:1046940080999000C6E0B4140F7F2D1214AB7FFAFA
:0846A4001200037FFA1200036B
:0146AC0022EB
:10370B00C20CC20DE4F528900085E0FFA3E0900009
:10371B00E4CFF0A3EFF0E49000C6F01263A09000AA
:10372B0085E0FEA3E0FFE4FCFD1248F47F0F125A84
:10373B004CBF0FF830030302384AE52864B8700316
:10374B0002384A200C077FC81262DDD20C7F0712A9
:10375B005A4C8F28E528B4F803E4F527E52864D8FC
:10376B00704E1263A0C20CE527C3942850020527A4
:10377B00E527C3940A5010900086E004F070069081
:10378B000085E004F08025E527C3941450109000C9
:10379B0086E0240AF0900085E03400F0800E900063
:1037AB0086E02464F0900085E03400F0D20D805266
:1037BB00E52864E8704C1263A0C20CE527C394287B
:1037CB0050020527E527C3940A5010900086E02489
:1037DB00FFF0900085E034FFF08025E527C39414BB
:1037EB005010900086E024F6F0900085E034FFF056
:1037FB00800E900086E0249CF0900085E034FFF072
:10380B00D20D900085E0FEA3E0FFD394ACEE94269E
:10381B00400C9000857405F0A374DCF08010D3EF9E
:10382B0094DCEE94054007E4900085F0A3F0900043
:10383B0085E0FEA3E0FFE4FCFD1248F402373F12E3
:10384B0063A0C20C7F47125A4CBF47F8300310904D
:10385B0000E4E0FFA3E0900085CFF0A3EFF022306F
:10386B000D517FC81262DD2003339000C6E0641453
:10387B00602B7B017A007985752F027D1112001E5A
:10388B009000C6EFF0BF84077F841214AB80D890F2
:10389B0000C6E0B485D17F851214AB80CA9000C6F8
:1038AB00E0B4140F7F2D1214AB7FFA1200037FFAD2
:0338BB00120003F5
:0138BE0022E7
:1041B200C20CC20DE4F528900084E09000E4F0E423
:1041C2009000C6F01263A0900084E0FF7E00124FC0
:1041D200557F0F125A4CBF0FF830030302428AE593
:1041E2002864B8700302428A200C077FC81262DD7D
:1041F200D20C7F07125A4C8F28E528B4F803E4F555
:1042020027E52864D870381263A0C20CE527C3944E
:104212002850020527E527C3940A5008900084E03D
:1042220004F08017E527C394145009900084E02419
:1042320002F08007900084E02404F0D20D803CE577
:104242002864E870361263A0C20CE527C394285094
:10425200020527E527C3940A5008900084E014F071
:104262008017E527C394145009900084E024FEF0DF
:104272008007900084E024FCF0D20D900084E0FFDF
:104282007E00124F550241DB1263A0C20C7F47121F
:104292005A4CBF47F83003099000E4E0900084F0E4
:1042A20022300D517FC81262DD2003339000C6E038
:1042B2006414602B7B017A007984752F017D1312BF
:1042C200001E9000C6EFF0BF84077F841214AB80FB
:1042D200D89000C6E0B485D17F851214AB80CA9015
:1042E20000C6E0B4140F7F2D1214AB7FFA12000344
:0542F2007FFA12000339
:0142F70022A4
:104C3E00C20CC20DE4F5279000CAE0F528E49000FE
:104C4E00C6F01263A09000CAE0FF1214AB7F0F12E1
:104C5E005A4CBF0FF8200371E52764B8606B200C27
:104C6E00077FC81262DDD20C7F07125A4C8F27E5E0
:104C7E0027B4D8241263A0C20C9000CAE0FF64AA25
:104C8E006004EFB45508EFF49000CAF0800690006F
:104C9E00CA74AAF0D20D8027E527B4E8221263A0C9
:104CAE00C20C9000CAE0FF64556004EFB4AA08EF8E
:104CBE00F49000CAF080069000CA7455F0D20D90A0
:104CCE0000CAE0FF1214AB808C1263A0C20C7F47A7
:104CDE00125A4CBF47F83003079000CAE528F0225D
:104CEE00300D5B7FC81262DD90018012143C000013
:104CFE0000002003339000C6E06414602B7B017A21
:104D0E000079CA752F017D1412001E9000C6EFF0B7
:104D1E00BF84077F841214AB80D89000C6E0B485A0
:104D2E00D17F851214AB80CA9000C6E0B4140F7FF9
:0E4D3E002D1214AB7FFA1200037FFA1200034D
:014D4C002244
:102839002010077FC81262DDD210900102E0FF125A
:1028490014AB7F07125A4C9000E3EFF064F860056F
:102859001263A0C2109000E3E0FFB4B803D20F22C4
:10286900900102E024DFB40C004003022AC490283E
:102879008575F003A4C58325F0C583730228A902D1
:1028890028D5022904022933022962022991022941
:10289900C00229EF022A1E022A4C022A75022A9E28
:1028A900EFB4F006122D54022AC49000E3E0FFB4FD
:1028B900E8099001027422F0022AC4EF64D8600387
:1028C900022AC4900102742CF0022AC49000E3E0A9
:1028D900B4F006123D81022AC49000E3E0FFB4E897
:1028E900099001027423F0022AC4EF64D86003023C
:1028F9002AC49001027421F0022AC49000E3E0B4D2
:10290900F006123375022AC49000E3E0FFB4E80927
:102919009001027424F0022AC4EF64D86003022AE9
:10292900C49001027422F0022AC49000E3E0B4F0DA
:1029390006124D4D022AC49000E3E0FFB4E8099065
:1029490001027425F0022AC4EF64D86003022AC484
:102959009001027423F0022AC49000E3E0B4F00667
:10296900122F7D022AC49000E3E0FFB4E809900128
:10297900027426F0022AC4EF64D86003022AC490C4
:1029890001027424F0022AC49000E3E0B4F00612B4
:10299900443B022AC49000E3E0FFB4E80990010235
:1029A9007427F0022AC4EF64D86003022AC4900194
:1029B900027425F0022AC49000E3E0B4F006125034
:1029C9004F022AC49000E3E0FFB4E80990010274C1
:1029D90028F0022AC4EF64D86003022AC4900102D5
:1029E9007426F0022AC49000E3E0B4F00612354AD6
:1029F900022AC49000E3E0FFB4E8099001027429B7
:102A0900F0022AC4EF64D86003022AC49001027458
:102A190027F0022AC49000E3E0B4F00612457402DC
:102A29002AC49000E3E0FFB4E809900102742AF097
:102A3900022AC4EF64D86003022AC49001027428F0
:102A4900F080789000E3E0B4F00512370B806C90C9
:102A590000E3E0FFB4E808900102742BF0805CEF1A
:102A690064D870579001027429F0804F9000E3E018
:102A7900B4F0051241B280439000E3E0FFB4E808E6
:102A8900900102742CF08033EF64D8702E9001020B
:102A9900742AF080269000E3E0B4F005124C3E80E1
:102AA9001A9000E3E0FFB4E8089001027421F08075
:0D2AB9000AEFB4D806900102742BF0C20F92
:012AC60022ED
:10224C00C20CC20DE4F5279000B5E0FCA3E0FDA3A1
:10225C00E0FEA3E0FF9000E4121430E49000C6F01E
:10226C001263A09000B5E0FCA3E0FDA3E0FEA3E0A8
:10227C00FF1248F47F0F125A4CBF0FF830030302C1
:10228C0024DBE52764B870030224DB200C077FC82D
:10229C001262DDD20C7F07125A4C8F27E52764D8C7
:1022AC0060030223B81263A0C20C7FA07E867D015E
:1022BC007C009000B5E0F8A3E0F9A3E0FAA3E0FB02
:1022CC00C31213BF700D9000B512143C00055730AB
:1022DC000223B37FF07E497D027C009000B5E0F8CC
:1022EC00A3E0F9A3E0FAA3E0FBC31213BF700D90B7
:1022FC0000B512143C000186A00223B37F407E0D72
:10230C007D037C009000B5E0F8A3E0F9A3E0FAA30C
:10231C00E0FBC31213BF700D9000B512143C000209
:10232C0049F00223B37F907ED07D037C009000B5F2
:10233C00E0F8A3E0F9A3E0FAA3E0FBC31213BF702B
:10234C000C9000B512143C00030D40805A7FE07EC7
:10235C00937D047C009000B5E0F8A3E0F9A3E0FACB
:10236C00A3E0FBC31213BF700C9000B512143C0019
:10237C0003D09080327F307E577D057C009000B575
:10238C00E0F8A3E0F9A3E0FAA3E0FBC31213BF70DB
:10239C000C9000B512143C000493E0800A9000B538
:1023AC0012143C000186A0D20D0224C7E52764E874
:1023BC0060030224C71263A0C20CC20C7FA07E86ED
:1023CC007D017C009000B5E0F8A3E0F9A3E0FAA34E
:1023DC00E0FBC31213BF700D9000B512143C000249
:1023EC0049F00224C57FF07E497D027C009000B547
:1023FC00E0F8A3E0F9A3E0FAA3E0FBC31213BF706B
:10240C000D9000B512143C00030D400224C57F4012
:10241C007E0D7D037C009000B5E0F8A3E0F9A3E00D
:10242C00FAA3E0FBC31213BF700D9000B512143C5D
:10243C000003D0900224C57F907ED07D037C009059
:10244C0000B5E0F8A3E0F9A3E0FAA3E0FBC3121394
:10245C00BF700C9000B512143C000493E0805A7FBE
:10246C00E07E937D047C009000B5E0F8A3E0F9A336
:10247C00E0FAA3E0FBC31213BF700C9000B512146A
:10248C003C0005573080327F307E577D057C0090B4
:10249C0000B5E0F8A3E0F9A3E0FAA3E0FBC3121344
:1024AC00BF700C9000B512143C000186A0800A90FD
:1024BC0000B512143C00055730D20D9000B5E0FC6D
:1024CC00A3E0FDA3E0FEA3E0FF1248F40222881271
:1024DC0063A0C20C7F47125A4CBF47F830031590CB
:1024EC0000E4E0FCA3E0FDA3E0FEA3E0FF9000B558
:1024FC0012143022300D517FC81262DD200333904C
:10250C0000C6E06414602B7B017A0079B5752F044A
:10251C007D1512001E9000C6EFF0BF84077F841259
:10252C0014AB80D89000C6E0B485D17F851214AB73
:10253C0080CA9000C6E0B4140F7F2D1214AB7FFA42
:08254C001200037FFA120003E4
:012554002264
:1047D2009000AFE0FEA3E0FFEE3395E0FDFC900019
:1047E200E412143090009EE0FCA3E0FDA3E0FEA3DF
:1047F200E0FF9000E8121430C20C1263A0E49000B3
:10480200AFF0A3F07F0F125A4CEF640F6008125EF4
:104812004C1248F480EE7FC81262DD2003087F78D4
:10482200125A4CBF78F52003397FC81262DD20038B
:10483200087F87125A4CBF87F52003261263A01205
:104842005E4C90009E1214307FC81262DD7FB81257
:104852005A4CEF64B8600B2003081257161261E33A
:1048620080EB3003289000E8E0FCA3E0FDA3E0FE2B
:10487200A3E0FF90009E1214309000E4E0A3E0A3B6
:10488200E0FFA3E09000AFCFF0A3EFF0227F47124A
:104892005A4CBF47F81257161248F47F64120003AD
:1048A2007FC81262DD2003339000C6E06414602BDF
:1048B2007B017A00799E752F047D0212001E900002
:1048C200C6EFF0BF84077F841214AB80D89000C675
:1048D200E0B485D17F851214AB80CA9000C6E0B4E3
:1048E200140F7F2D1214AB7FFA1200037FFA12000D
:0148F20003C2
:0148F30022A2
:101A5300E49000E6F09000C0E0FCA3E0FDA3E0FE0C
:101A6300A3E0FF9000EB1214309000A4E0FCA3E08D
:101A7300FDA3E0FEA3E0FF9000EF1214301263A079
:101A8300C2039000C674FFF0E49000E4F0126268B1
:101A93009000E4E004F0E0C3941340F17F0F125A86
:101AA3004CBF0FF87FF0125A4CEF64F07003021B27
:101AB300689000C6E07003021B4E1262689000E754
:101AC300121430E47F387E4AFDFC9000E7E0F8A36F
:101AD300E0F9A3E0FAA3E0FBC31213BF50197F2E72
:101AE3001214AB9000C6742EF07FF0125A4CEF64C0
:101AF300F0603D80F48039E47F307EF2FDFC90009D
:101B0300E7E0F8A3E0F9A3E0FAA3E0FBD31213BFE5
:101B130040197F2F1214AB9000C6742FF07FF01280
:101B23005A4CEF64F0600980F48005E49000C6F03D
:101B33009000C6E07003021AB47F0F125A4CEF6490
:101B43000F7003021AB480F1021AB49000E7E0FCAC
:101B5300A3E0FDA3E0FEA3E0FF1248F49000C674E7
:101B6300FFF0021AA79000E7E0FCA3E0FDA3E0FE6C
:101B7300A3E0FF9000C01214309000C0E0FCA3E08B
:101B8300FDA3E0FEA3E0FF9000A41214309000A494
:101B9300E0FCA3E0FDA3E0FEA3E0FF1248F47F0F07
:101BA300125A4CBF0FF8E49000C6F0300303021D35
:101BB300C19000E6E064B87003021DC12010077FE6
:101BC300C81262DDD2107F07125A4C9000E6EFF084
:101BD300BFF805E49000E5F09000E6E064D8600308
:101BE300021C981263A0C2109000E5E0C394285031
:101BF30003E004F09000E5E0FBC3940A5021900059
:101C0300A4E0FCA3E0FDA3E0FEA3E02401FFE43E87
:101C1300FEE43DFDE43CFC9000A41214308071EB23
:101C2300C3941450219000A4E0FCA3E0FDA3E0FEC4
:101C3300A3E0240AFFE43EFEE43DFDE43CFC900007
:101C4300A4121430804A9000E5E0C3941E50219002
:101C530000A4E0FCA3E0FDA3E0FEA3E02464FFE412
:101C63003EFEE43DFDE43CFC9000A41214308020D1
:101C73009000A4E0FCA3E0FDA3E0FEA3E024F4FFB6
:101C8300EE3401FEE43DFDE43CFC9000A41214306C
:101C9300D20C021D619000E6E064E86003021D615E
:101CA3001263A0C2109000E5E0C394285003E0043F
:101CB300F09000E5E0FBC3940A50259000A4E0FCFB
:101CC300A3E0FDA3E0FEA3E0C39401FFEE9400FEB6
:101CD300ED9400FDEC9400FC9000A4121430807C81
:101CE300EBC3941450259000A4E0FCA3E0FDA3E013
:101CF300FEA3E0C3940AFFEE9400FEED9400FDEC16
:101D03009400FC9000A412143080519000E5E0C3CD
:101D1300941E50259000A4E0FCA3E0FDA3E0FEA3E5
:101D2300E0C39464FFEE9400FEED9400FDEC940098
:101D3300FC9000A412143080239000A4E0FCA3E0E4
:101D4300FDA3E0FEA3E0C394F4FFEE9401FEED9443
:101D530000FDEC9400FC9000A4121430D20CE47F3C
:101D6300607EEAFDFC9000A4E0F8A3E0F9A3E0FAAA
:101D7300A3E0FBD31213BF400C9000A412143C0049
:101D8300004E208025E47F207E4EFDFC9000A4E0E1
:101D9300F8A3E0F9A3E0FAA3E0FBC31213BF500AD0
:101DA3009000A412143C0000EA609000A4E0FCA39D
:101DB300E0FDA3E0FEA3E0FF1248F4021BAE1263B2
:101DC300A0C2107F47125A4CBF47F8300329900036
:101DD300EFE0FCA3E0FDA3E0FEA3E0FF9000A4126C
:101DE30014309000EBE0FCA3E0FDA3E0FEA3E0FFD2
:101DF3009000C012143022300C627FC81262DD20C2
:101E030003449000C6E06414603C7B017A0079A42B
:101E1300752F047D1912001E9000C6EFF064146044
:101E230007E0FF1214AB80D77B017A0079C0752FCE
:101E3300047D2012001E9000C6EFF0641460C0E021
:101E4300FF1214AB80B99000C6E0B4140F7F2D12BB
:0C1E530014AB7FFA1200037FFA120003A8
:011E5F002260
:1055AE002010077FC81262DDD210900100E0FF12BA
:1055BE0014AB7F07125A4C9000E3EFF064F86005CD
:1055CE001263A0C2109000E3E0FFB4B803D20F2222
:1055DE00900100E024CE602D14605324027075EF0C
:1055EE00B4F00512224C806C9000E3E0FFB4E808A2
:1055FE009001007432F0805CEF64D8705790010017
:10560E007433F0804F9000E3E0B4F0051247D2807F
:10561E00439000E3E0FFB4E8089001007433F0809B
:10562E0033EF64D8702E9001007431F08026900014
:10563E00E3E0B4F005121A53801A9000E3E0FFB4D1
:10564E00E8089001007431F0800AEFB4D80690019A
:06565E00007432F0C20FDF
:015664002223
:106206001263A07F0F125A4CBF0FF87F101214AB07
:106216007FB8125A4CEF64B86008125AE31214ABF6
:0362260080EE22E5
:0F6391007F0F125A4CBF0FF89001047442F02294
:105F0600E4F52743B03E7F0F125A4CBF0FF8E52742
:105F160064B8602D7F07125A4C8F27E52764D86036
:105F260005E527B4E80A7F37125A4CBF37F8B2B1F5
:105F360030B1077F661214AB80D47F611214AB8038
:0B5F4600CD7F47125A4CBF47F8D2B184
:015F5100222D
:105F5200E4F52743B03E7F0F125A4CBF0FF8E527F6
:105F620064B8602D7F07125A4C8F27E52764D860EA
:105F720005E527B4E80A7F37125A4CBF37F8B2B2A8
:105F820030B2077F671214AB80D47F621214AB80E9
:0B5F9200CD7F47125A4CBF47F8D2B237
:015F9D0022E1
:105F9E00E4F52743B03E7F0F125A4CBF0FF8E527AA
:105FAE0064B8602D7F07125A4C8F27E52764D8609E
:105FBE0005E527B4E80A7F37125A4CBF37F8B2B35B
:105FCE0030B3077F681214AB80D47F631214AB809A
:0B5FDE00CD7F47125A4CBF47F8D2B3EA
:015FE9002295
:105FEA00E4F52743B03E7F0F125A4CBF0FF8E5275E
:105FFA0064B8602D7F07125A4C8F27E52764D86052
:10600A0005E527B4E80A7F37125A4CBF37F8B2B40D
:10601A0030B4077F691214AB80D47F641214AB804A
:0B602A00CD7F47125A4CBF47F8D2B49C
:016035002248
:10603600E4F52743B03E7F0F125A4CBF0FF8E52711
:1060460064B8602D7F07125A4C8F27E52764D86005
:1060560005E527B4E80A7F37125A4CBF37F8B2B5C0
:1060660030B5077F6A1214AB80D47F651214AB80FB
:0B607600CD7F47125A4CBF47F8D2B54F
:0160810022FC
:1038BF002010077FC81262DDD210900104E0FF12C2
:1038CF0014AB7F07125A4C9000E3EFF064F86005D9
:1038DF001263A0C210900104E024C0B4070040039B
:1038EF00023A6E90390075F003A4C58325F0C583A5
:1038FF00730239150239450239750239A90239DDCA
:10390F00023A0E023A3F9000E3E0B4F0041262066E
:10391F00229000E3E0FFB4E8079001047441F02225
:10392F00EFB4D8079001047441F022EF64B860033C
:10393F00023A6ED20F229000E3E0B4F004126391CA
:10394F00229000E3E0FFB4E8079001047440F022F6
:10395F00EFB4D8079001047440F022EF64B860030D
:10396F00023A6ED20F229000E3E0B4F004125F0629
:10397F00229000E3E0FFB4E8079001047443F022C3
:10398F00EFB4D8079001047446F022EF64B86003D7
:10399F00023A6E9001047441F0229000E3E0B4F01B
:1039AF0004125F52229000E3E0FFB4E80790010495
:1039BF007444F022EFB4D8079001047442F022EF60
:1039CF0064B86003023A6E9001047441F0229000D3
:1039DF00E3E0B4F004125F9E229000E3E0FFB4E84E
:1039EF00079001047445F022EFB4D80790010474D6
:1039FF0043F022EF64B870679001047441F0229095
:103A0F0000E3E0B4F004125FEA229000E3E0FFB4B9
:103A1F00E8079001047446F022EFB4D80790010430
:103A2F007444F022EF64B870369001047441F022B0
:103A3F009000E3E0B4F004126036229000E3E0FF60
:103A4F00B4E8079001047442F022EFB4D807900154
:0F3A5F00047445F022EFB4B8069001047441F0EE
:013A6E002235
:103EF500C20CC20DE4F52890009CE09000E4F0E4CB
:103F05009000C6F01263A090009CE0FF7E00124F67
:103F1500557F0F125A4CBF0FF8300303023FE8E5F7
:103F25002864B87003023FE8200C077FC81262DDE1
:103F3500D20C7F07125A4C8F28E528B4F803E4F514
:103F450027E52864D870381263A0C20CE527C3940E
:103F55002850020527E527C3940A500890009CE0E5
:103F650004F08017E527C39414500990009CE024C1
:103F750005F0800790009CE0240AF0D20D803CE516
:103F85002864E870361263A0C20CE527C394285054
:103F9500020527E527C3940A500890009CE014F019
:103FA5008017E527C39414500990009CE024FBF08A
:103FB500800790009CE024F6F0D20D90009CE0FF75
:103FC500D394C84005743CF0800CEFD3943C400674
:103FD50090009C7401F090009CE0FF7E00124F550C
:103FE500023F1E1263A0C20C7F47125A4CBF47F80E
:103FF5003003099000E4E090009CF022300D5B7FD7
:10400500C81262DD2003339000C6E06414602B7B88
:10401500017A00799C752F017D2412001E9000C63F
:10402500EFF0BF84077F841214AB80D89000C6E000
:10403500B485D17F851214AB80CA9000C6E0B41454
:10404500197F2D1214AB9000AEE0B4AA03123A6F9B
:0A4055007FFA1200037FFA12000345
:01405F00223E
:104B2A00C20CC20DE4F5279000AEE0F528E490002F
:104B3A00C6F01263A09000AEE0FF1214AB7F0F1212
:104B4A005A4CBF0FF8200371E52764B8606B200C3C
:104B5A00077FC81262DDD20C7F07125A4C8F27E5F5
:104B6A0027B4D8241263A0C20C9000AEE0FF64AA56
:104B7A006004EFB45508EFF49000AEF080069000A0
:104B8A00AE74AAF0D20D8027E527B4E8221263A0FA
:104B9A00C20C9000AEE0FF64556004EFB4AA08EFBF
:104BAA00F49000AEF080069000AE7455F0D20D90ED
:104BBA0000AEE0FF1214AB808C1263A0C20C7F47D8
:104BCA00125A4CBF47F83003079000AEE528F0228E
:104BDA00300D60E49000CEF07FC81262DD2003330E
:104BEA009000C6E06414602B7B017A0079AE752FC1
:104BFA00017D2512001E9000C6EFF0BF84077F8456
:104C0A001214AB80D89000C6E0B485D17F85121407
:104C1A00AB80CA9000C6E0B414197F2D1214AB9071
:104C2A0000AEE0B4AA03123A6F7FFA1200037FFAC9
:034C3A0012000362
:014C3D002254
:105BFE002010077FC81262DDD210900101E0FF1263
:105C0E0014AB7F07125A4C9000E3EFF064F8600576
:105C1E001263A0C210900101E024C76030047058D6
:105C2E009000E3E0B4F004123EF5229000E3E0FFB2
:105C3E00B4E8079001017439F022EFB4D80790014F
:105C4E00017439F022EF64B8702ED20F229000E367
:105C5E00E0B4F004124B2A229000E3E0FFB4E80710
:105C6E009001017438F022EFB4D807900101743816
:085C7E00F022EFB4B802D20FCE
:015C860022FB
:1054E1007527FF7528637529BF2010077FC81262D1
:1054F100DDD2107F07125A4C9000E3EFF064F860A0
:10550100051263A0C210AB27AA28A9291211D190B4
:105511005E7A93FF7D2012007674012529F529E436
:105521003528F528905EC5E493FF7D10120076744E
:10553100012529F529E43528F528AB27FAA92912EF
:1055410011D1905E7A93FF7D0812007674012529AE
:10555100F529E43528F528AB27FAA9291211D190AC
:105561005EA293FF7D0412007674012529F529E4DA
:105571003528F528AB27FAA9291211D1905E7A9323
:10558100FF7D0212007674012529F529E43528F5FD
:1055910028AB27FAA9291211D1905E7A93FF7D01D8
:0C55A1001200769000E3E0B4B802D20FD4
:0155AD0022DB
:102555002010077FC81262DDD210900103E024FC31
:10256500700302261014700302269D1470030227BF
:102575002A1470030227B7240660030228387FF067
:10258500125A4CEF64F0702E1263A0900102742170
:10259500F0C210C20F7F47125A4CBF47F8200308FC
:1025A500200F0512283980F57F47125A4CBF47F88E
:1025B5007F171214AB227FE8125A4CBFE8207F0721
:1025C500125A4CBFF8F89001037404F0C203E4906A
:1025D50000C6F01263A0C2107F151214AB227FD87B
:1025E500125A4CEF64D860030228387F07125A4C00
:1025F500BFF8F89001037407F0C203E49000C6F039
:102605001263A0C2107F181214AB227FF0125A4C2D
:10261500EF64F0702E1263A09001007431F0C210C7
:10262500C20F7F47125A4CBF47F8200308200F05F9
:102635001255AE80F57F47125A4CBF47F87F1512E9
:1026450014AB227FE8125A4CBFE8207F07125A4C80
:10265500BFF8F89001037405F0C203E49000C6F0DA
:102665001263A0C2107F161214AB227FD8125A4CE7
:10267500EF64D860030228387F07125A4CBFF8F878
:102685009001037401F0C203E49000C6F01263A048
:10269500C2107F171214AB227FF0125A4CEF64F070
:1026A500702E1263A09001047440F0C210C20F7F17
:1026B50047125A4CBF47F8200308200F051238BFB0
:1026C50080F57F47125A4CBF47F87F161214AB228C
:1026D5007FE8125A4CBFE8207F07125A4CBFF8F822
:1026E5009001037406F0C203E49000C6F01263A0E3
:1026F500C2107F191214AB227FD8125A4CEF64D83E
:1027050060030228387F07125A4CBFF8F89001037E
:102715007404F0C203E49000C6F01263A0C2107FF7
:10272500151214AB227FF0125A4CEF64F0702E1282
:1027350063A09001017438F0C210C20F7F47125A8E
:102745004CBF47F8200308200F05125BFE80F57F7C
:1027550047125A4CBF47F87F191214AB227FE81273
:102765005A4CBFE8207F07125A4CBFF8F890010376
:102775007407F0C203E49000C6F01263A0C2107F94
:10278500181214AB227FD8125A4CEF64D86003029A
:1027950028387F07125A4CBFF8F89001037405F0EA
:1027A500C203E49000C6F01263A0C2107F16121493
:1027B500AB227FF0125A4CEF64F070281263A0C26E
:1027C50010C20F7F47125A4CBF47F8200308200F4D
:1027D500051254E180F57F47125A4CBF47F87F1820
:1027E5001214AB227FE8125A4CBFE8207F07125A19
:1027F5004CBFF8F89001037401F0C203E49000C6E1
:10280500F01263A0C2107F171214AB227FD8125AA0
:102815004CBFD81F7F07125A4CBFF8F890010374BC
:1028250006F0C203E49000C6F01263A0C2107F193F
:042835001214AB22AC
:105B7400C2109000E0E5E6F0A3E5E7F0A3E5A8F0A5
:105B8400E4F5A8F5A8F5E6F5E77FF0125A4CEF64C2
:105B9400F070507F141262DD7F0F125A4CEF640FC5
:105BA400600B200308125716124E5280EB30033359
:105BB4001263A07F111214AB7F07125A4CBFF8F87E
:105BC400C203E49000C6F090010304F07F1712149E
:105BD400AB20030F7FB8125A4CEF64B8600512254E
:105BE4005580EE1263A0C2039000E0E0F5E6A3E066
:095BF400F5E7A3E0FFF5A88FA876
:015BFD002285
:0A617D00010E04010F0241010608A3
:1062F600E4F584758E02C2A9C28CC28EC28D7589E0
:056306001175840F2257
:10624900AF84758401E4F5C8F5C975CB4CF5CA85E9
:0E625900CBCD85CACCD2CAD2AF43E7018F8429
:016267002214
:10637F00AF84758402E4F5C8F5C975CB4CF5CA8FA7
:01638F008489
:0163900022EA
:10632000E4F584758CFE758A33D28C308DFDC28D78
:0463300075840F223F
:1062DD00E4F584D2AFD2AB758D4CF58B9000C9EF40
:0962ED00F0C203D28E75840F2269
:0B63A000E4F584C2ABC28E75840F22AE
:0B63AB00E4F584C2A9C28C75840F22A7
:10000300A2AFE433FEEF60061263201F80F7126392
:06001300ABEE24FF92AFEA
:0100190022C4
:1062C300900082EFF0AF8475840285CBCD85CACC74
:0962D300D2CAD2AF43E7048F8464
:0162DC00229F
:03001B00026287F7
:10628700C0E0C083C082758D4C758B009000C9E05B
:0E62970014F0E07002D203D082D083D0E03247
:03007300025D0229
:105D0200C0E0C0F0C083C082C0D075D000C000C067
:105D120001C002C003C004C005C006C00730060DA2
:105D2200D50E0AD51004C206D2B3750E0420050D95
:105D32009000B4E004F0B40804E4F0D205300B1C87
:105D42009000AEE0B4AA15900106E014F0700DC206
:105D5200AF120086D2AF9001067408F0C2CFD0070E
:105D6200D006D005D004D003D002D001D000D0D0CC
:095D7200D082D083D0F0D0E032E1
:03008300025C8795
:105C8700C0E0C083C082C0D075D000C006C0071571
:105C97000FE50F7057900082E014F0704C30A51498
:105CA700900085E0FEA3E0FF9000C5E02FF0900094
:105CB700C4E03EF030A615900085E0FEA3E0FFC3E8
:105CC7009000C5E09FF09000C4E09EF0C2CA90002B
:105CD700DAE0FEA3E0FFC39000C5E09FFF9000C499
:105CE700E09E9000BEF0A3EFF0750F02C2CFD00781
:0B5CF700D006D0D0D082D083D0E032A5
:10630B0075840FC2DE000000D2DEC2D8C2D9D2DA49
:05631B00C2DCD2DF220C
:065665008B418A428943DB
:10566B00E4FBFAF547F546F545F544C2AF75840FF3
:10567B0012630BC2DF30DB110BBB00010AD3EB94BF
:10568B0000EA940240EF7FFE22D2DF00C2DA00E490
:10569B00FBEBC394185037AF47AE46AD45AC4478DF
:1056AB00011213E38F478E468D458C4430DD17E591
:1056BB00472401F547E43546F546E43545F545E421
:1056CB003544F544800100D2DC0BC2DC80C3D2DA56
:1056DB00D2AFAF47AE46AD45AC44AB41AA42A943AE
:1056EB001213F6E4FFFEFDFCAB47AA46A945A844FE
:1056FB00C31213BF600F74FFFFFEFD7C00A844C3F1
:0A570B001213BF70037FFE227F2DF2
:015715002271
:105148007B007A007931125665EF642D6005126391
:105158000B80ED85343C85333B85323A8531398582
:105168003438853337853236853135853440853353
:105178003F85323E85313DE4F5307B007A00793158
:10518800125665EF642D600512630B80EDE540252E
:1051980034F540E53F3533F53FE53E3532F53EE53C
:1051A8003D3531F53DAF3CAE3BAD3AAC39AB34AAF9
:1051B80033A932A831D31213BF400E85343C85334E
:1051C8003B85323A8531398022AF38AE37AD36ACBF
:1051D80035AB34AA33A932A831C31213BF500C859A
:1051E80034388533378532368531350530E530C377
:1051F80094114086C3E540953CF540E53F953BF565
:105208003FE53E953AF53EE53D9539F53DC3E54028
:105218009538F540E53F9537F53FE53E9536F53E3F
:10522800E53D9535F53DAF40AE3FAD3EFC78041207
:0252380013D091
:01523A002251
:105329007B007A00792C125665BF2DF4852F3785BD
:105339002E36852D35852C34852F33852E32852DB6
:1053490031852C30852F3B852E3A852D39852C3892
:10535900E4F52B7B007A00792C125665BF2DF4E514
:105369003B252FF53BE53A352EF53AE539352DF54F
:1053790039E538352CF538AF37AE36AD35AC34AB09
:105389002FAA2EA92DA82CD31213BF400E852F3773
:10539900852E36852D35852C348022AF33AE32AD3E
:1053A90031AC30AB2FAA2EA92DA82CC31213BF5094
:1053B9000C852F33852E32852D31852C30052BE533
:1053C9002BC39441408DC3E53B9537F53BE53A95B1
:1053D90036F53AE5399535F539E5389534F538C373
:1053E900E53B9533F53BE53A9532F53AE5399531A3
:1053F900F539E5389530F538AF3BAE3AAD39FC783B
:04540900061213D0A4
:01540D00227C
:105912008F338E328D318C309000D6E0F8A3E0F9CF
:10592200A3E0FAA3E0FB9000A3E0FFE4FCFDFE127B
:10593200127E9000D61214309000D6E0F8A3E0F95F
:10594200A3E0FAA3E0FBC000C001C002C0039000C4
:10595200A3E0FFC374649FFFE49400FEE4FCFDAB8C
:1059620033AA32A931A83012127ED003D002D0015C
:10597200D000EB2FFFEA3EFEE93DFDE83CFC900043
:10598200D61214309000D6E0FCA3E0FDA3E0FEA303
:10599200E0FFE47B64FAF9F81213099000D61214BE
:1059A200309000D6E0FCA3E0FDA3E0FEA3E0FF22DE
:105E4C00125148125912E412101C8F2F8E2E8D2DC8
:105E5C008C2CAB2FAA2EA92DA82CC000C001C002DF
:105E6C00C0039000B5E0FCA3E0FDA3E0FEA3E0FFBF
:105E7C00E412101CD003D002D001D000120E768F89
:105E8C002F8E2E8D2D8C2C7BFF7AFF797F784B12E9
:0D5E9C000F7F8F2F8E2E8D2D8C2C12105A03
:015EA90022D6
:10626800125E4C90009EE0F8A3E0F9A3E0FAA3E0E8
:0E627800FBC3EF9BFFEE9AFEED99FDEC98FC48
:0162860022F5
:10586E001253299000D61214309000D6E0FCA3E01B
:10587E00FDA3E0FEA3E0FFE412101C8F2A8E298DFB
:10588E00288C27AB2AAA29A928A827C000C001C0A6
:10589E0002C0039000B5E0FCA3E0FDA3E0FEA3E090
:1058AE00FFE412101CD003D002D001D000120E76ED
:1058BE008F2A8E298D288C277BFF7AFF797F784B54
:1058CE00120F7F8F2A8E298D288C27C004C005C009
:1058DE0006C00790009EE0FCA3E0FDA3E0FEA3E05F
:1058EE00FFEC12101CA804A905AA06AB07D007D01E
:1058FE0006D005D004120D818F2A8E298D288C2773
:03590E0012105A1A
:015911002273
:10571600126268EC12101C8F2A8E298D288C27ABFA
:105726002AAA29A928A827C000C001C002C0039040
:1057360000A4E0FCA3E0FDA3E0FEA3E0FFE412105A
:105746001CD003D002D001D000120E768F2A8E29EB
:105756008D288C27C004C005C006C0079000C0E095
:10576600FCA3E0FDA3E0FEA3E0FFE412101CA804E6
:10577600A905AA06AB07D007D006D005D004120F9C
:105786007F8F2A8E298D288C27C004C005C006C0AD
:10579600079000AFE0FCA3E0FDEC121021A804A9DD
:1057A60005AA06AB07D007D006D005D004120D8196
:0B57B6008F2A8E298D288C2712105A94
:0157C10022C5
:1057C20012586EEC12101C8F268E258D248C23AB62
:1057D20026AA25A924A823C000C001C002C00390A4
:1057E20000A4E0FCA3E0FDA3E0FEA3E0FFE41210AE
:1057F2001CD003D002D001D000120E768F268E2547
:105802008D248C23C004C005C006C0079000C0E0F0
:10581200FCA3E0FDA3E0FEA3E0FFE412101CA80439
:10582200A905AA06AB07D007D006D005D004120FEF
:105832007F8F268E258D248C23C004C005C006C010
:10584200079000AFE0FCA3E0FDEC121021A804A930
:1058520005AA06AB07D007D006D005D004120D81E9
:0B5862008F268E258D248C2312105AF7
:01586D002218
:05618700C11101080533
:10608200858425E4F584F5C875C908AB07AA06A975
:1060920005A804FF7E807D517C01121309E47B1068
:1060A200FAF9F812130912139B8ECB8FCA85CBCD46
:1060B20085CACCD2CAE4F5847598D0759115C2AC64
:0560C200D29985258440
:0160C70022B6
:1062A5001511A811A607E4F5843099FDC299A81126
:0E62B500E6FFA2D0929BF59975840F05112289
:1061BE00E4FFF5842098062086FA7FA522309811F8
:1061CE00E599A2D0309A01B350027F01121217C284
:0461DE009875840F1D
:0161E200229A
:103A6F00C20EE4F52CF52BF52AF529F52F750C422E
:103A7F00F509750D3290009CE090003CF0A37406A0
:103A8F00F0A374FAF0A37407F0A3741FF0A3742FBC
:103A9F00F0A3741FF0A3742FF0A3741FF0A3742F5F
:103AAF00F0A3741FF0900054E50CF0A3E50DF0A304
:103ABF00E509F0E490006CF0F52D743C252DF582AE
:103ACF00E43400F583E0FF90006CE02FF0052DE566
:103ADF002DB430E6C287E4752C18752B13F52AF533
:103AEF0029782974FF121412EC4D4E4F70F3D287C0
:103AFF00E4F52CF52BF52AF52930861678291214C2
:103B0F00107B007AB079017800C31213BF50EA7F9F
:103B1F00A522E4F52D743C252DF582E43400F583C0
:103B2F00E0FF1262A5052DE52DC3943140E7E4F5C2
:103B3F002CF52BF52AF52920861678291214107BDF
:103B4F00007AB079017800C31213BF50EA7FA52223
:103B5F00E4F52D7400252DF9E43400FA7B01126190
:103B6F00BE8F2EE52E7009052DE52DC3943140E350
:103B7F00E52E6003023AE3F52D7400252DF582E45E
:103B8F003400F583E0252EF52E052DE52DB430E913
:103B9F00900030E0652E6003023AE3900000E0658C
:103BAF00086003023AE3A3E06003023AE3752D02D3
:103BBF007400252DF582E43400F583E0B4AA0705DF
:103BCF002DE52DB430EAE52DB430048011800205C7
:103BDF002FE52FD394145003023AE37F8B22E4F5A1
:103BEF002D7400252DF582E43400F583E4F0052DC6
:073BFF00E52DB43CEC7F2D25
:013C0600229B
:10633400E4FF9000AEE0B4AA0A30B007C2AF123A4C
:036344006FD2AF66
:016347002233
:1060C8009000AEE064AA703B90001FE030E02D9095
:1060D800006CE020E02DE49000AFF0A3F0125E4CDD
:1060E80090009E1214307B017A00799E752F047DF2
:1060F8000212001E90006CE04401F02290006CE057
:0461080054FEF0222F
:105D7B009000AEE064AA70621262688F288E278D45
:105D8B00268C25752900752A00752B25AB29052B2B
:105D9B00E52BAA2A7002052A14F91211D190006E74
:105DAB00F0052BE52BAA2A7002052A14F91211D142
:105DBB0090006FF0052BE52BAA2A7002052A14F927
:105DCB001211D1900070F0052BE52BAA2A70020559
:0A5DDB002A14F91211D1900071F0A2
:015DE500229B
:10008600E4F548F555F554F553F552E50C14F50A23
:10009600E50D14F50BE490003CF07556017557001C
:1000A6007558CCAB560558E558AA57700205571433
:1000B600F91211D190003DF00558E558AA57700283
:1000C600055714F91211D190003EF09000D0E0903F
:1000D600003FF07556017557007558DAAB5605584E
:1000E600E558AA577002055714F91211D19000402D
:1000F600F00558E558AA577002055714F91211D1A0
:10010600900041F09000CBE0900042F075560175EA
:1001160057007558A8AB560558E558AA57700205FA
:100126005714F91211D1900043F00558E558AA5713
:100136007002055714F91211D1900044F09000A2F4
:10014600E0900045F090009DE0900046F075560165
:100156007557007558C7AB560558E558AA5770022B
:10016600055714F91211D1900047F00558E558AA21
:10017600577002055714F91211D1900048F09000FB
:10018600D1E0900049F0755601755700755885AB5A
:10019600560558E558AA577002055714F91211D199
:1001A60090004AF00558E558AA577002055714F909
:1001B6001211D190004BF0900084E090004CF0902A
:1001C60000CAE090004DF07556017557007558B598
:1001D600AB560558E558AA577002055714F912117F
:1001E600D190004EF00558E558AA577002055714ED
:1001F600F91211D190004FF00558E558AA57700230
:10020600055714F91211D1900050F00558E558AA77
:10021600577002055714F91211D1900051F0755616
:10022600017557007558C0AB560558E558AA577062
:1002360002055714F91211D1900052F00558E558ED
:10024600AA577002055714F91211D1900053F00500
:1002560058E558AA577002055714F91211D19000A3
:1002660054F00558E558AA577002055714F91211AB
:10027600D1900055F07556017557007558A4AB56C8
:100286000558E558AA577002055714F91211D1906E
:100296000056F00558E558AA577002055714F9128A
:1002A60011D1900057F00558E558AA577002055726
:1002B60014F91211D1900058F00558E558AA577054
:1002C60002055714F91211D1900059F075560175AF
:1002D600570075589EAB560558E558AA5770020543
:1002E6005714F91211D190005AF00558E558AA573B
:1002F6007002055714F91211D190005BF00558E50C
:1003060058AA577002055714F91211D190005CF0E3
:100316000558E558AA577002055714F91211D190DD
:10032600005DF0E4900060F0A3F020B207A3E04483
:1003360080F08007900062E0547FF020B1099000C1
:1003460062E04440F08007900062E054BFF020B3C2
:1003560009900062E04420F08007900062E054DFDC
:10036600F020B409900062E04410F080079000622B
:10037600E054EFF020B509900062E04408F08007F1
:10038600900062E054F7F075560175570175588074
:10039600AB560558E558AA577002055714F91211BD
:1003A600D1900063F00558E558AA57700205571416
:1003B600F91211D1900064F00558E558AA57700259
:1003C600055714F91211D1900065F00558E558AAA1
:1003D600577002055714F91211D1900066F0755640
:1003E600017557007558B2AB560558E558AA5770AF
:1003F60002055714F91211D1900067F00558E55817
:10040600AA577002055714F91211D1900068F0909E
:1004160000AAE0FCA3E0FDA3E0FEA3E0FFEC33505E
:1004260007E4F54AF54B80048E4A8F4B75560075E6
:10043600570075584AAB560558E558AA5770020535
:100446005714F91211D1900069F00558E558AA57CA
:100456007002055714F91211D190006AF0743C2508
:100466000AF582E43400F583E4F0F548E548C395DF
:100476000A501F743C2548F582E43400F583E0FFFA
:10048600743C250AF582E43400F583E02FF0054834
:1004960080DAE4F555F554F553F552308616785260
:1004A6001214107B007AB079017800C31213BF5082
:1004B600EA7FA522E4F548E548C3950C5014743C40
:1004C6002548F582E43400F583E0FF1262A505486D
:1004D60080E5E4F555F554F553F552208616785225
:1004E6001214107B007AB079017800C31213BF5042
:1004F600EA7FA522E4F548E548C3950D5018740037
:100506002548F9E43400FA7B011261BE8F49E549BA
:100516007004054880E1E5497037F549F548E54836
:10052600C3950B501474002548F582E43400F58316
:10053600E02549F549054880E57400250BF582E478
:100546003400F583E0654960057549FC8003E4F5F0
:1005560049E5496002FF22900020E030E204D2B172
:10056600D2B2900020E030E102D2B590001EE02029
:10057600E00302069190006BE030E00302069875F6
:10058600560075570075584A900001E0FFAB5605B6
:1005960058E558AA577002055714F9EF121217902A
:1005A6000002E0FFAB560558E558AA5770020557FA
:1005B60014F9EF121217C3E54B94F0E54A9455402F
:1005C6006FAE4AAF4BE4FCFD7BE87AFDF9F81213F7
:1005D600A9405D9000C5E0254BFF9000C4E0354A78
:1005E600FE9000CCE0FCA3E0FDC3EF9DFFEE9CFE79
:1005F6009000C4F0A3EFF09000DAE0FCA3E0FDC3A6
:10060600EF9DFFEE9C9000BEF0A3EFF09000CCE5CE
:100616004AF0A3E54BF01511A81176027D007B0187
:100626007A0079CC124A1290005EE054BFF080073F
:1006360090005EE04440F0900003E0D3945A503BB3
:10064600E09000D0F01511A81176017D067B017AA5
:100656000079D0124A129000D0E0FCE41210267BFA
:10066600CD7ACC798C783F120E7612105A9000A370
:10067600EFF090005EE0547FF0800790005EE0446B
:1006860080F090006BE04401F0800790006BE0542E
:10069600FEF090001EE020E10302076D90006BE083
:1006A60030E10302077475560075570075584A9075
:1006B6000004E0FFAB560558E558AA5770020557E7
:1006C60014F9EF121217900005E0FFAB560558E536
:1006D60058AA577002055714F9EF121217C3E54BC3
:1006E6009464E54A9400404AD3E54B9410E54A9455
:1006F60027503F9000DAE54AF0A3E54BF09000DA88
:10070600E0FEA3E0FFC39000C5E09FFF9000C4E0B9
:100716009E9000BEF0A3EFF01511A81176027D079A
:100726007B017A0079DA124A1290005EE054DFF01B
:10073600800790005EE04420F0900006E064AA6026
:1007460004E0B45519900006E09000CBF01511A80E
:100756001176017D097B017A0079CB124A1290004D
:100766006BE04402F0800790006BE054FDF09000CF
:100776001EE020E2030209FB90006BE030E2030278
:100786000A0275560075570075584E900012E0FF24
:10079600AB560558E558AA577002055714F9EF12DB
:1007A6001217900013E0FFAB560558E558AA57708C
:1007B60002055714F9EF121217900014E0FFAB561A
:1007C6000558E558AA577002055714F9EF12121783
:1007D600900015E0FFAB560558E558AA577002057C
:1007E6005714F9EF1212177FA07E867D017C00ABAD
:1007F60051AA50A94FA84EC31213BF60507FF07E76
:10080600497D027C00A84EC31213BF60407F407E24
:100816000D7D037C00A84EC31213BF60307F907E0F
:10082600D07D037C00A84EC31213BF60207FE07EFC
:10083600937D047C00A84EC31213BF60107F307EE8
:10084600577D057C00A84EC31213BF7028AF51AE6A
:1008560050AD4FAC4E9000B51214301511A811765C
:10086600047D157B017A0079B5124A1290005FE08B
:10087600547FF0800790005FE04480F07556007565
:10088600570075584E900016E0FFAB560558E558D0
:10089600AA577002055714F9EF121217900017E0C5
:1008A600FFAB560558E558AA577002055714F9EFDD
:1008B600121217900018E0FFAB560558E558AA57D4
:1008C6007002055714F9EF121217900019E0FFABEA
:1008D600560558E558AA577002055714F9EF121233
:1008E60017E47F387E4AFDFCAB51AA50A94FA84EAB
:1008F600C31213BF4037E47F307EF2FDFCA84ED30F
:100906001213BF5028AF51AE50AD4FAC4E9000C041
:100916001214301511A81176047D207B017A007916
:10092600C0124A1290005FE054EFF0800790005F1B
:10093600E04410F075560075570075584E90001A31
:10094600E0FFAB560558E558AA577002055714F94B
:10095600EF12121790001BE0FFAB560558E558AA98
:10096600577002055714F9EF12121790001CE0FF9A
:10097600AB560558E558AA577002055714F9EF12F9
:10098600121790001DE0FFAB560558E558AA5770A0
:1009960002055714F9EF121217E47F207E4EFDFC74
:1009A600AB51AA50A94FA84EC31213BF4037E47FDC
:1009B600607EEAFDFCA84ED31213BF5028AF51AE9D
:1009C60050AD4FAC4E9000A41214301511A81176FC
:1009D600047D197B017A0079A4124A1290005FE027
:1009E60054F7F0800790005FE04408F090006BE059
:1009F6004404F0800790006BE054FBF090001EE08A
:100A060020E303020B5090006BE030E303020B5728
:100A160075560075570075584C900007E0FFAB56A9
:100A26000558E558AA577002055714F9EF12121720
:100A3600900008E0FFAB560558E558AA5770020526
:100A46005714F9EF121217C3E54D943CE54C648038
:100A56009476406AD3E54D94C4E54C6480948950FD
:100A66005D9000C5E0254DFF9000C4E0354CFE903A
:100A760000A8E0FCA3E0FDC3EF9DFFEE9CFE900006
:100A8600C4F0A3EFF09000DAE0FCA3E0FDC3EF9D15
