:030000000259C1E1
:1059C100787FE4F6D8FD9000007FFF7E01E4F0A32C
:0A59D100DFFCDEFA758158025A1659
:10636A00E4F584D28453E6FD75CFEC75C044758498
:02637A000F22F0
:1046BC001511A811A605151115111511A811A60390
:0C46CC0008A60208A60115111511151111
:1046D800A81108E4F608F6F584C2C3D2C2D2C5A868
:1046E80011F6E5112407F9A811E6C397400302471C
:1046F800D520C31BA811080806E61870010686060F
:10470800D39420EE944E40E9D2C47FFE0247DAAF3C
:10471800C1EF121484473F00474608474E104755DB
:1047280018475F2847C43847634047A54847715032
:1047380047AB58000047CAD2C47F000247DA75C2A7
:10474800A0C2C50247D075C2A1C2C5807BE51124AD
:1047580006F8E6F5C28071D2C5806DE5112407F828
:10476800E664017063C2C2805FE5112403F8860322
:1047780008E6FA08E6F9E5C212122EE5112403F854
:104788000808740126F618E436F6A81106E511247F
:1047980007F8E614A81166702FC2C2802BD2C47F16
:1047A80048802FE5112403F8860308E6FA08E6F99D
:1047B800E5C212122ED2C4A81106800CD2C47F38CA
:1047C8008010D2C4AFC1800AC2C30246EA75840F02
:0247D8007FFD63
:0747DA00E5112408F511228E
:104A21001511A811A605151115111511A811A60327
:0C4A310008A60208A601151115111511A8
:104A3D00A81108E4F608F6C284F584C2C3D2C5A84D
:104A4D0011F6E5112407F8E62401FFE433FEA81161
:104A5D00E6C39FEE6480F87480984003024B1420E7
:104A6D00C31BA811080806E6187001068606D39424
:104A7D0020EE944E40E9D2C47FFE024B32AFC1EF1F
:104A8D0024F8601F24F0602224F8605E24F860246E
:104A9D0024F8605C24F8605E24387060D2C47F0016
:104AAD00024B3275C2A0C2C58058E5112406F8E646
:104ABD00F5C2804EE5112407F9A811E6677005D2FD
:104ACD00C406803EE5112403F8860308E6FA08E6DD
:104ADD00F91211E8F5C2E5112403F808087401264E
:104AED00F618E436F6A811068018D2C47F2080355A
:104AFD00D2C47F30802FD2C47F388029D2C4AFC1B9
:104B0D008023C2C3024A4F75840FA81108764E0840
:104B1D007620A8110808E6161886067001164E7044
:054B2D00F1D2847FFDC0
:074B3200E5112408F5112232
:10637C001511A811A62B1246BCBFFD037F13227F5B
:01638C00838D
:01638D0022ED
:08001E00AC058B2B8A2C892D07
:100026001511A811A62F124A21EF64FD703A151179
:10003600A811A62FFB7A0079301246BCEF64FD703A
:1000460027FFEFC3952F501DAB2BAA2CA92D8F820E
:10005600758300121201FE74302FF8E66E60037F7E
:0A00660085220F80DD7F14227F84C5
:01007000226D
:105EB900C0F9A4B0999282F880908883C6A7A18678
:105EC9008E898BC7ABC8A38CAF87C1BFFFB9F7EF6A
:105ED9000000000000000000407924301912027807
:105EE90000108883C627A1868E898BC7ABC8A38C6F
:105EF900AF87C1BF7FB9F7EF0000000000000000C5
:0C5F09001C1C1C1C1C1C1C1C1C1C1C1C3C
:0C00760075840FED42F88FE853F8C022AB
:084E61008F2A8E298D288C2771
:104E6900E47F9C7EFEFDFCAB2AAA29A928A827D3AA
:104E79001213C040067F011214C2227F787EEC7D96
:104E8900FF7CFFAB2AAA29A928A827C31213C0505F
:104E9900067F021214C222AF2AAE29AD28AC27EC34
:104EA900334004C20D8015D20DAF2AAE29AD28AC0E
:104EB900271213B28F2A8E298D288C27E49000E4BB
:104EC900F0E47B0AFAF9F8AF2AAE29AD28AC27122B
:104ED900611B9000E4E024E5F582E43400F583EBFE
:104EE900F0AF2AAE29AD28AC27E47B0AFAF9F8120B
:104EF900611B8F2A8E298D288C279000E4E004F00D
:104F0900E0B406BD200D0B9000E9E07016741CF0AA
:104F19008011300D089000E9741BF080067F86121D
:104F290014C2229000E6E0905EB993FF7D01120061
:104F3900769000E7E0905EB993FF0D12007690003D
:104F4900E8E0905EE193FF7D041200769000E9E0CD
:0A4F5900905EB993FF7D0812007608
:014F6300222B
:084903008F2E8E2D8D2C8C2BC4
:10490B0043F83F75E8FF53F8C0AF2EAE2DAD2CAC7E
:10491B002BEC334004C20E8015D20EAF2EAE2DAD54
:10492B002CAC2B1213B28F2E8E2D8D2C8C2BE49046
:10493B0000F1F0E47B0AFAF9F8AF2EAE2DAD2CACFA
:10494B002B12611B9000F1E024F2F582E43400F5A8
:10495B0083EBF0AF2EAE2DAD2CAC2BE47B0AFAF92A
:10496B00F812611B8F2E8E2D8D2C8C2B9000F1E06D
:10497B0004F0E0B406BD200E179000F7E0703E90F7
:10498B0000F6E07003741CF09000F7741CF0802D9F
:10499B00300E249000F7E070169000F6E07008746B
:1049AB001BF0A304F080169000F7741BF0800E90A0
:1049BB0000F7741DF080067F861214C2229000F25D
:1049CB00E0905EB993FF7D011200769000F3E090CA
:1049DB005EB993FF0D1200769000F4E0905EB993F0
:1049EB00FF7D041200769000F5E0905EE193FF7D71
:1049FB00081200769000F6E0905EB993FF7D1012DE
:104A0B0000769000F7E0905EB993FF7D2012007660
:054A1B007F0112000301
:014A20002273
:0214C2008F2F6A
:1014C40078F87C007D017BFF7A5F79097E007F06D6
:1014D4001211C2E52F12148415D30115E2021A1653
:1014E4001015EC11160115163116161617166D186F
:1014F400164C191776201932211932221932231960
:101504003224193225193226193227193228193270
:101514002919322A19322B19322C16822D170C2E26
:1015240017312F16BC3116D73216F2331965381914
:10153400653917564017964117BB4217D64317F122
:1015440044180C45182746169B5519B26119B26206
:1015540019B26319B26419B26519CB6619CB67194C
:10156400CB6819CB6919CB6A18FB8018FB8118FB6F
:101574008218FB8318FB8418FB8518FB8618FB87ED
:1015840018FB8818FB8918FB8A18FB8B18FB8C182E
:10159400FB8D18FB8E18FB8F199991199992199943
:1015A400931999941999951999961999971999983C
:1015B4001999991842A01867A1188CA218B1A318F8
:1015C400D6A419E7A516AEAA1A69FF000019FE9061
:1015D40000FB7416F09000FA7413F0021A169000CF
:1015E400FB741DF0021A16229000FD7405F09000A1
:1015F400FC740FF09000FB7419F0021A169000FDB1
:10160400740CF09000FC740AF09000FB7413F00268
:101614001A169000FD7410F09000FC741AF09000FB
:10162400FB7415F09000FA740CF0021A169000FD89
:101634007419F09000FC740FF09000FB7405F090A6
:1016440000FA7419F0021A169000FD740EF090005E
:10165400FC7417F09000FB7405F09000FA740FF01E
:101664009000F97419F0021A169000FD741AF090A3
:1016740000FC740FF09000FB7418F0021A1690002E
:10168400FD7409F09000FC7416F09000FBF09000DB
:10169400FA740EF0021A169000FA7416F09000F91B
:1016A4007410F09000F8F0021A169000F97416F015
:1016B4009000F814F0021A169000FD7405F09000E2
:1016C400FC7417F09000FB740AF09000FA7415F0A3
:1016D400021A169000FD7419F09000FC740AF09040
:1016E40000FB7418F09000FA740FF0021A169000C0
:1016F400FD7409F09000FC04F09000FB741FF0905E
:1017040000FA7415F0021A169000FD740FF09000A0
:10171400FC7418F09000FBF09000FA741BF0900039
:10172400F9740CF09000F87413F0021A169000FD8E
:10173400740FF09000FC7418F09000FBF09000FA25
:10174400741BF09000F97411F09000F87413F00217
:101754001A169000FD741FF09000FC7415F09000B0
:10176400FB7417F09000FA741AF09000F914F00268
:101774001A169000FD7415F09000FC04F09000FB24
:10178400741BF09000FA741FF09000F97415F002C5
:101794001A169000FD7416F09000FC741AF0900074
:1017A400FB14F09000FA7417F09000F9741AF0909A
:1017B40000F814F0021A169000FD740EF09000FC6C
:1017C4007416F09000FB741BF09000FA7401F002A0
:1017D4001A169000FD740EF09000FC7416F0900040
:1017E400FB741BF09000FA7402F0021A169000FDCC
:1017F400740EF09000FC7416F09000FB741BF090D3
:1018040000FA7403F0021A169000FD740EF09000B2
:10181400FC7416F09000FB741BF09000FA7404F052
:10182400021A169000FD740EF09000FC7416F090ED
:1018340000FB741BF09000FA7405F0021A16900075
:10184400FD740FF09000FC7418F09000FBF0900011
:10185400FA741BF09000F97405F09000F87417F016
:10186400021A169000FD740FF09000FC7418F090AA
:1018740000FBF09000FA741BF09000F97413F090E0
:1018840000F87405F0021A169000FD740FF0900031
:10189400FC7418F09000FBF09000FA741BF09000B8
:1018A400F97411F09000F87417F0021A169000FD04
:1018B400740FF09000FC7418F09000FBF09000FAA4
:1018C400741BF09000F97416F09000F87411F00293
:1018D4001A169000FD740FF09000FC7418F090003C
:1018E400FBF09000FA741BF09000F97416F090006D
:1018F400F87413F0021A16E52F2480FBE434FFFA7F
:101904007C007D0AAF03FE1212409000F8EDF07CDB
:10191400007D0AAF03AE02121240A3EFF0A3741BC2
:10192400F0A37418F0A3F0A3740FF0021A16E52FB5
:1019340024E0FBE434FFFA7C007D0AAF03FE1212BC
:10194400409000F9EDF07C007D0AAF03AE02121264
:1019540040A3EFF0A3741EF0A3F0A37410F0021AD6
:1019640016E52F24C9FBE434FFFA7C007D0AAF039B
:10197400FE1212409000F9EDF07C007D0AAF03AE38
:1019840002121240A3EFF0A3741EF0A37417F0A385
:10199400740EF0807D9000F87415F0A304F0A37425
:1019A4001BF0E52F2470A3F0A3741FF08064900053
:1019B400F87415F0A304F0A3741BF0E52F24A0A37E
:1019C400F0A37416F0804B9000F87410F0A3F0A309
:1019D4007416F0A3741BF0E52F249BA3F0A37416D4
:1019E400F0802F9000F87419F0A304F0A37416F09B
:1019F400A3741BF0A37419F080189000F8740FF00E
:101A0400A314F0A37416F0A3740CF0A37416F0A33B
:101A140014F09000F8E0905EB993FF7D0112007617
:101A24009000F9E0905EB993FF0D1200769000FAF1
:101A3400E0905EB993FF7D041200769000FBE09085
:101A44005EB993FF7D081200769000FCE0905EB9C9
:101A540093FF7D101200769000FDE0905EB993FF35
:051A64007D2012007658
:011A6900225A
:1061F2008F2A8E298D288C277F101214C27F641259
:106202000003AF2AAE29AD28AC271249037F6412DE
:0362120000032264
:044F64008E2A8F2BD7
:104F680078E47C007D017BFF7A5F790F7E007F0605
:104F78001211C2E49000E3F09000E3E0FBC3940652
:104F8800502EAE2AAF2B7C007D0A12124074E42BFF
:104F9800F582E43400F583EDF0AE2AAF2B7C007D7A
:104FA8000A1212408E2A8F2B9000E3E004F080C88A
:104FB8009000E9E07003741CF09000E8E0700BA327
:104FC800E0B41C069000E8741CF09000E7E0700B59
:104FD800A3E0B41C069000E7741CF09000E6E070B3
:104FE8000BA3E0B41C069000E6741CF09000E5E00A
:104FF800700BA3E0B41C069000E5741CF09000E46C
:10500800E0905EB993FF7D011200769000E5E09094
:105018005EB993FF0D1200769000E6E0905EB993BA
:10502800FF7D041200769000E7E0905EB993FF7D63
:10503800081200769000E8E0905EB993FF7D1012A8
:1050480000769000E9E0905EB993FF7D201200762B
:055058007F01120003BE
:01505D002230
:025A5B008F2B8F
:105A5D00E49000F2F0E59054F89000F1F0E52B128F
:105A6D0014845A97075AA10F5AA1175AA1275AAE53
:105A7D00375AA1475AC0785AA1875AC0B85AC0D8C8
:105A8D005AC0E85AC0F000005ACB9000F1E0FF6414
:105A9D00F8702E22E52BF4FE9000F1E0FF6E7021E0
:105AAD00229000F1E0FEB4D8037FF822EEB4E811A5
:105ABD007FF8229000F1E0652B60067FF822AF2B76
:105ACD00227F1E1200039000F2E004F0E0C3940464
:105ADD0040837F78120003E52BB407069000F1E0B8
:045AED00FF22AF2BBA
:015AF1002292
:105AF200E49000E3F0E59020E0117F0312000390B0
:105B020000E3E004F0E0C3940440EA9000E3E0B470
:105B120004037F9622E49000E3F0E5A0B4FF037F44
:105B220020227F031200039000E3E004F0E0C3941C
:105B32000440E79000E2E5A0F0E0FE20E0037F9958
:105B420022EE20E1037F98229000E2E0FE20E203B1
:105B52007F9722EE20E3037F94229000E2E0FE2072
:105B6200E4037F9322EE20E5037F91229000E2E09E
:105B7200FE20E6037F9222EE20E7037F95227F201C
:015B82002200
:10615F004400D400000000410083004100CC004106
:10616F0000C4004100B10041008200C101C100C163
:0D617F0002C107C109C10BC106C108C185DD
:102ADE00125DF5E49000AFF0A3F01257259000AF11
:102AEE00EEF0A3EFF0D394ACEE6480948D400E7FA5
:102AFE00A31214C2E49000AFF0A3F0801DC39000A7
:102B0E00B0E094549000AFE064809472500C7FA4B7
:102B1E001214C2E49000AFF0A3F0125B831231974F
:042B2E00D2B1D2B29C
:102B3200126343BFA518900083E004F0E0D394032E
:102B4200400C9000AE7455F09000CC7401F012600D
:102B5200D7125D8A125B83124307123197125725EF
:102B62009000AA12144720A00D905EC6E493FF7D48
:102B720020120076801E9000CCE0600D905EC8E4CA
:102B820093FF7D20120076800B905ED5E493FF7D4B
:102B920020120076905ED5E493FF7D1012007690AD
:102BA20000AAE0F8A3E0F9A3E0FAA3E0FB9000B7E3
:102BB200E0FCA3E0FDA3E0FEA3E0C39BFFEE9AFED0
:102BC200ED99FDEC98FCE47BC8FAF9F8C31213C046
:102BD2005002D2059000B7E0F8A3E0F9A3E0FAA30F
:102BE200E0FB9000AAE0FCA3E0FDA3E0FEA3E0C3AB
:102BF2009BFFEE9AFEED99FDEC98FCE47BC8FAF996
:102C0200F8C31213C05002D20530052C9000AAE07E
:102C1200FCA3E0FDA3E0FEA3E0FF9000B71214477F
:102C22009000B7E0FCA3E0FDA3E0FEA3E0FF124E9C
:102C320061E49000B2F0C205E47F887E13FDFC904F
:102C420000AAE0F8A3E0F9A3E0FAA3E0FBC31213A1
:102C5200C05003022D649000C9E0B4AA3DE47F2075
:102C62007E4EFDFC9000AAE0F8A3E0A3E0A3E0C33F
:102C72001213C05004D2B280219000BCE0FEA3E047
:102C8200FFE4FCFD9000AAE0F8A3E0F9A3E0FAA3B8
:102C9200E0FBC31213C04002C2B29000C3E024485A
:102CA200FF9000C2E034F4FEE4FCFD9000AAE0F8DC
:102CB200A3E0F9A3E0FAA3E0FBD31213C04002C2DF
:102CC2000B9000C2E0FEA3E0FFFBAA06E49000AA7C
:102CD200E0FCA3E0FDA3E0FEA3E0C39BFFEE9AFEAF
:102CE200ED9400FDEC9400FC9000DA121447E47FAE
:102CF200F47E01FDFC9000DAE0F8A3E0F9A3E0FA2B
:102D0200A3E0FBD31213C04006124077022B32E439
:102D12007FC8FEFDFC9000DAE0F8A3E0F9A3E0FA38
:102D2200A3E0FBD31213C040093008061240770219
:102D32002B329000DAE0FCA3E0FDA3E0FEA3E0FF6B
:102D4200EC334016D2089000CDE004F0E06403605A
:102D520003022B32124077022B32E49000CDF002B4
:052D62002B3212524A61
:042D6700022B3222E7
:10524A0030010302533720000302533730A0030210
:10525A0053379000AFE0FFA3E09000DECFF0A3EF5A
:10526A00F0E49000AFF0A3F01257D19000AA121404
:10527A0047E47FAC7E0DFDFC9000AAE0F8A3E0F9BC
:10528A00A3E0FAA3E0FBD31213C050197F547EF2B5
:10529A007DFF7CFF9000AAE0F8A3E0A3E0A3E0C3AF
:1052AA001213C050549000DEE0FFA3E09000AFCF8D
:1052BA00F0A3EFF0E47FAC7E0DFDFC9000AAE0F8CD
:1052CA00A3E0F9A3E0FAA3E0FBD31213C040077FDF
:1052DA00A31214C280527F547EF27DFF7CFF90009D
:1052EA00AAE0F8A3E0F9A3E0FAA3E0FBC31213C013
:1052FA0050367FA41214C2802F905EC5E493FF7DBE
:10530A00201200769000AAE0FCA3E0FDA3E0FEA331
:10531A00E0FF124E619000AAE0A3E0A3E0FFA3E041
:0D532A009000AFCFF0A3EFF0C20030A0FD67
:015337002253
:104077009000CAE0FEA3E0FF7C007D05121240EF2E
:1040870025E0F524EE33F523D205C2B2C2B1D20B37
:10409700E49000CDF0C208905ED593FF7D2012001A
:1040A70076905ED5E493FF7D20120076AE23AF2491
:1040B700E4FCFD9000AAE0F8A3E0F9A3E0FAA3E08E
:1040C700FBC31213C050030241701257259000AA78
:1040D700121447125D8A20A056905EFDE493FF7D7F
:1040E700201200767F0A1262ECC20530A0FD905EB6
:1040F700D5E493FF7D201200769000AAE0A3E0A309
:10410700E0FEA3E0FF9000B1E025E02488F582E41B
:104117003400F583EEF0A3EFF09000B1E004F090E7
:10412700009DE0FF9000B1E0B5070FE4F0800B9031
:104137005ED5E493FF7D20120076905ED5E493FF71
:104147007D101200763005119000AAE0FCA3E0FD77
:10415700A3E0FEA3E0FF124E612003030240B31267
:1041670063AFC203D2050240B3D2B1D2B21263AF7A
:10417700D2009000C8E0B4AA1F900180E0FCA3E041
:10418700FDA3E0FEA3E02401FFE43EFEE43DFDE4E1
:104197003CFC900180121447C2019000CFE0B4AA02
:1041A70009900084E0FF1262D2229000A2E0B4AA34
:0941B7000890009DE0FF12541D68
:0141C00022DC
:10619C0075840F75A49075A50675A7FE759CE075A2
:1061AC009EFF759FFF75E10575E3407590FF75A027
:1061BC00FF75B0FF75C8FF75D8FF75E8FF75F8FF60
:0161CC0022B0
:0963C500C2AF75FFDE75FFAD22C9
:1062380075840F758C67E4FFFE0FBF00010EBE0B5F
:0F624800F8BFB8F5E58C30E7FB759701758A0351
:016257002224
:103C1E007525AA9000AE7455F07B017A0079AE75C9
:103C2E002F017D2512001E90009C7401F0FB7A007E
:103C3E00799CF52F7D2412001E9000CE7450F07BDF
:103C4E00017A0079CE752F017D0612001E9000CAF2
:103C5E0074C3F0A37450F07B017A0079CA752F02F9
:103C6E00E4FD12001E9000B3121453000557307B72
:103C7E00017A0079B3752F047D1512001E9000BED7
:103C8E00121453000086027B017A0079BE752F0450
:103C9E007D2012001E9000A412145300009C407B45
:103CAE00017A0079A4752F047D1912001E90009DD3
:103CBE007405F07B017A00799D752F017D0D120040
:103CCE001E9000C97455F07B017A0079C9752F01D9
:103CDE007D0912001E9000D87413F0A37488F07B37
:103CEE00017A0079D8752F027D0712001EE490002C
:103CFE00A8F0A3F07B017A0079A8752F027D0A1235
:103D0E00001EE49000C5F0A3F07B017A0079C57522
:103D1E002F027D0E12001EE4900085F0A3F07B01B1
:103D2E007A007985752F027D1112001EE4900084B1
:103D3E00F07B017A007984752F017D1312001E909D
:103D4E0000A27455F07B017A0079A2752F017D0CCB
:103D5E0012001E9000CF7455F07B017A0079CF755A
:103D6E002F017D1012001E9000C87455F07B017A51
:103D7E000079C8752F017D1412001E7B007A007920
:093D8E0025752F017DFF12001EB6
:013D97002209
:101E770075262D7B017A0079AE752B017D251263BE
:101E87007C7B017A00799C752B017D2412637C9001
:101E9700009CE0FFD3943C5003EF700A7F8F12142D
:101EA700C2125B8380E9E4F5259000AEE064AA7076
:101EB70021C2AFE526B42D05123A868F26D2AFE5AB
:101EC70026B42D04800C80057F8B1214C2125B830D
:101ED70080D7D20B7B017A0079CE752B017D061254
:101EE700637C9000CEE0D3945A4011743CF07B01A0
:101EF7007A0079CE752F017D0612001E9000CEE084
:101F0700FCE412103D7BCD7ACC798C783F120E8D94
:101F17001210719000A3EFF07B017A0079CA752B3C
:101F270002E4FD12637C9000CAE0FEA3E0FFC394C5
:101F3700F0EE9455400EE4FCFD7BE87AFDF9F812CB
:101F470013C0500A7FA01214C2125B8380D87B0192
:101F57007A0079B3752B047D1512637C7FA07E868A
:101F67007D017C009000B3E0F8A3E0F9A3E0FAA3B9
:101F7700E0FBC31213D6700302200A7FF07E497D6F
:101F8700027C009000B3E0F8A3E0A3E0A3E0C31253
:101F970013D6606F7F407E0D7D037C009000B3E019
:101FA700F8A3E0A3E0A3E0C31213D660567F907EA8
:101FB700D07D037C009000B3E0F8A3E0A3E0A3E0AA
:101FC700C31213D6603D7FE07E937D047C009000B2
:101FD700B3E0F8A3E0A3E0A3E0C31213D660247F25
:101FE700307E577D057C009000B3E0F8A3E0A3E0C6
:101FF700A3E0C31213D6600B7FA11214C2125B8336
:10200700021F637B017A0079BE752B047D20126362
:102017007CE47F387E4AFDFC9000BEE0F8A3E0F93F
:10202700A3E0FAA3E0FBC31213D64018E47F307E87
:10203700F2FDFC9000BEE0F8A3E0A3E0A3E0D3121A
:1020470013D6400A7F811214C2125B8380C37B01BF
:102057007A0079A4752B047D1912637CE47F207EB6
:102067004EFDFC9000A4E0F8A3E0F9A3E0FAA3E09A
:10207700FBC31213D64018E47F607EEAFDFC900094
:10208700A4E0F8A3E0A3E0A3E0D31213D6400A7FAD
:10209700821214C2125B8380C37B017A00799D751B
:1020A7002B017D0D12637C90009DE0FF6005D394AA
:1020B7000A401490009D7405F07B017A00799D75A4
:1020C7002F017D0D12001E7B017A00799E752B046E
:1020D7007D0212637C7B017A0079C9752B017D092A
:1020E70012637C7B017A0079D8752B027D07126316
:1020F7007C9000D8E0FEA3E0FFC39464EE94004018
:1021070009D3EF9410EE9427400A7FA21214C2124B
:102117005B8380DD7B017A0079A8752B027D0A122B
:10212700637C9000A8E0FEA3E0FFC3943CEE6480CC
:102137009476400BD3EF94C4EE64809489400A7F71
:10214700881214C2125B8380D97B017A0079C57526
:102157002B027D0E12637C9000C5E0FEA3E0FFC357
:10216700943CEE64809476400BD3EF94C4EE648085
:102177009489400A7F891214C2125B8380D97B013C
:102187007A007985752B027D1112637CD3900086C6
:10219700E094DC900085E09405400A7F8A1214C21F
:1021A700125B8380E77B017A007984752B017D13AD
:1021B70012637C7B017A0079A2752B017D0C126377
:1021C7007C7B017A0079CF752B017D1012637C909F
:1021D70000A2E0B4AA169000CFE0B4AA0F9000A224
:1021E7007455F09000CFF07F8C1214C27B017A00F7
:1021F70079C8752B017D1412637C9000A8E0FEA3BB
:10220700E0FFC39000CBE09FFF9000CAE09EFE90E6
:1022170000C2F0A3EFF09000D8E0FCA3E0FDC3EF0D
:102227009DFFEE9C9000BCF0A3EFF0E4F525900035
:10223700C5E0FEA3E0FF9000CBE02FFF9000CAE0CF
:102247003EFEE52525E02488F582E43400F583EE9B
:0B225700F0A3EFF00525E525B40AD345
:012262002259
:10635700E4F584E5EF30E10A900180121453000060
:0363670000002211
:105DF5001263C512623812635712619C1263051251
:105E0500636A12631A7F007EC27D017C0012609175
:105E150012625812638E7FF0125A5BBFF005123C76
:105E25001E8003121E77E4F523E523905EB993FFE8
:105E35007D3F120076E49000AFF0A3F0F5241257F1
:105E4500250524E524C3941440F40523E523C394D0
:055E55000A40D6D20155
:015E5A002225
:02541D008F25D9
:10541F009000DE12145300000000E4F526E526C3C9
:10542F00952550399000DEE0F8A3E0F9A3E0FAA348
:10543F00E0FBE52625E02488F582E43400F583E0DF
:10544F00FEA3E0FFE4FCFDEB2FFFEA3EFEED39FD8E
:10545F00EC38FC9000DE121447052680C09000DE69
:10546F00E0FCA3E0FDA3E0FEA3E0FFC007AF25AB88
:10547F0007E4FAF9F8D0071213209000DE12144750
:10548F009000C5E0FEA3E0FF9000CBE02FFF90005F
:10549F00CAE03EFEE49000DEE0F8A3E0F9A3E0FAF4
:1054AF00A3E0FBC3EF9BFFEE9AFEE499FDE498FCAB
:1054BF00E47B02FAF9F81213209000C3E02FF0906A
:1054CF0000C2E03EF09000D8E0FEA3E0FFC39000E2
:1054DF00C3E09FFF9000C2E09E9000BCF0A3EFF0EE
:0154EF00229A
:0763CE00302D3030303800A3
:10430700C20CC2109000DEE5E6F0A3E5E7F0A3E5F6
:10431700A8F0E4F5A8F5A8F5E6F5E77F07125A5BDC
:104327009000E1EFF0BFD804D20C801F9000E1E0CD
:10433700B4E804D20C80149000E0E0FFF5A88FA841
:104347009000DEE0F5E6A3E0F5E7229000CAE0FE84
:10435700A3E0FFE4FCFD124E619000CAE0FFA3E07A
:104367009000E2CFF0A3EFF0300C6B7F07125A5B9F
:104377009000E1EFF0BFD8109000CBE02464F090FC
:1043870000CAE03400F0802A9000E1E0FFB4E810B2
:104397009000CBE0249CF09000CAE034FFF080123C
:1043A700EFB4B804C20C800A2010077F0A1262EC2F
:1043B700D2103003117F07125A5BBFF802C20CC23A
:1043C700101263AFC2039000CAE0FEA3E0FFE4FC53
:1043D700FD124E6180929000CAE0FEA3E0FFE4FC6C
:1043E700FD124E617B017A0079CA752F02E4FD1236
:1043F700001E9000CAE0FEA3E0FF9000C3E02FFF7D
:104407009000C2E03EFE9000E2E0FCA3E0FDC3EFB7
:104417009DFFEE9CFE9000C2F0A3EFF09000D8E065
:10442700FCA3E0FDC3EF9DFFEE9C9000BCF0A3EF63
:10443700F09000DEE0F5E6A3E0F5E7A3E0FFF5A8DE
:024447008FA83C
:014449002250
:10319700C20C9000EAE5E6F0A3E5E7F0A3E5A8F0A6
:1031A700E4F5A8F5A8F5E6F5E77F78125A5BEF6432
:1031B70078600302337A200C077F141262ECD20C7A
:1031C7009000AFE0FEA3E0FFEE3395E0FDFC90003A
:1031D700E6121447E49000AFF0A3F07F87125A5B22
:1031E700EF6487601F20031C1257259000DE12141E
:1031F700479000DEE0FCA3E0FDA3E0FEA3E0FF12A2
:10320700490380D720037CE47FC47E09FDFC90003E
:10321700DEE0F8A3E0F9A3E0FAA3E0FBD31213C0C2
:1032270050197F3C7EF67DFF7CFF9000DEE0F8A31F
:10323700E0A3E0A3E0C31213C050159000E6E0A39B
:10324700E0A3E0FFA3E09000AFCFF0A3EFF080137F
:103257009000DEE0A3E0A3E0FFA3E09000AFCFF093
:10326700A3EFF01257259000DE1214479000DEE01E
:10327700FCA3E0FDA3E0FEA3E0FF1249031263AF46
:1032870002337A1263AFC20C7F87125A5BEF6487EF
:103297006008125E5B12490380EE7F78125A5BEF7B
:1032A70064786035200C077F141262ECD20C30036F
:1032B700E99000E6E0A3E0A3E0FFA3E09000AFCF32
:1032C700F0A3EFF01263AF9000EAE0F5E6A3E0F5B4
:1032D700E7A3E0FFF5A88FA8221263AF7F87125AF2
:1032E7005BBF87F87FB8125A5BEF64B86051200C58
:1032F700077F141262ECD20C3003289000E6E0A39B
:10330700E0A3E0FFA3E09000AFCFF0A3EFF01263DC
:10331700AF9000EAE0F5E6A3E0F5E7A3E0FFF5A844
:103327008FA822125E5B9000E21214479000E2E041
:10333700FCA3E0FDA3E0FEA3E0FF1261F280A5126B
:1033470063AF7F47125A5BBF47F89000E2E0FCA3E8
:10335700E0FDA3E0FEA3E0FF90009E121447E49077
:1033670000AFF0A3F07B017A00799E752F047D02F0
:1033770012001E9000EAE0F5E6A3E0F5E7A3E0FF00
:04338700F5A88FA86E
:01338B00221F
:102D6B00C20CC20DE4F5289000C4F01263AF9000C2
:102D7B00CAE0FEA3E0FF9000E2EEF0A3EFF0E4FC6C
:102D8B00FD1249037F0F125A5BBF0FF8300303028A
:102D9B002EDDE52864B87003022EDD200C077FC8FA
:102DAB001262ECD20C7F07125A5B8F28E528B4F81D
:102DBB0003E4F527E52864D870651263AFC20CE510
:102DCB0027C3942850020527E527C3940A50109077
:102DDB0000CBE004F070069000CAE004F0803CE504
:102DEB0027C3941450109000CBE0240AF09000CA33
:102DFB00E03400F08025E527C3941E50109000CBE3
:102E0B00E02464F09000CAE03400F0800E9000CB18
:102E1B00E024F4F09000CAE03401F0D20D8069E5B3
:102E2B002864E870631263AFC20CE527C394285083
:102E3B00020527E527C3940A50109000CBE024FF2E
:102E4B00F09000CAE034FFF0803CE527C3941450A7
:102E5B00109000CBE024F6F09000CAE034FFF08035
:102E6B0025E527C3941E50109000CBE0249CF090D6
:102E7B0000CAE034FFF0800E9000CBE0240CF09001
:102E8B0000CAE034FEF0D20D9000CAE0FEA3E0FFD2
:102E9B00E4FCFD7BE87AFDF9F8C31213C0500C90EB
:102EAB0000CA7455F0A374F0F08016C39000CBE009
:102EBB0094F09000CAE09455500774FDF0A374E8A9
:102ECB00F09000CAE0FEA3E0FFE4FCFD1249030210
:102EDB002D971263AFC20C7F47125A5BBF47F83076
:102EEB0003109000E2E0FFA3E09000CACFF0A3EF45
:102EFB00F022200D03022F937FC81262EC9000CAC0
:102F0B00E0FEA3E0FF9000C3E02FFF9000C2E03E85
:102F1B00FE9000E2E0FCA3E0FDC3EF9DFFEE9CFE04
:102F2B009000C2F0A3EFF09000D8E0FCA3E0FDC34B
:102F3B00EF9DFFEE9C9000BCF0A3EFF020033390CD
:102F4B0000C4E06414602B7B017A0079CA752F02F0
:102F5B00E4FD12001E9000C4EFF0BF84077F8412C3
:102F6B0014C280D89000C4E0B485D17F851214C2FE
:102F7B0080CA9000C4E0B4140F7F2D1214C27FFAE4
:082F8B001200037FFA1200039B
:012F9300221B
:103D9800C20CC20DE4F5291263AFE49000C4F090A0
:103DA80000CEE0FFF5277E00124F647F0F125A5BAA
:103DB800BF0FF8300303023E84E52964B87003029C
:103DC8003E84200C077FC81262ECD20C7F07125A7F
:103DD8005B8F29E529B4F803E4F528E52964D87050
:103DE800381263AFC20CE528C3942850020528E5B1
:103DF80028C3940A50089000CEE004F08017E52804
:103E0800C3941450099000CEE02402F0800790007B
:103E1800CEE02405F0D20D803CE52964E870361226
:103E280063AFC20CE528C3942850020528E528C3CF
:103E3800940A50089000CEE014F08017E528C39447
:103E48001450099000CEE024FEF080079000CEE0E8
:103E580024FBF0D20D9000CEE0FFD394C840057447
:103E68005AF0800BEFD3945A4005E49000CEF090BE
:103E780000CEE0FF7E00124F64023DBB1263AFC26A
:103E88000C7F47125A5BBF47F83003079000CEE516
:103E980027F022300D6D7FC81262EC20034F90008E
:103EA800C4E0641460479000CEE0FCE412103D7B4F
:103EB800CD7ACC798C783F120E8D1210719000A3B8
:103EC800EFF07B017A0079CE752F017D0612001E76
:103ED8009000C4EFF0BF84077F841214C280BC90A6
:103EE80000C4E0B485B57F851214C280AE9000C4CA
:103EF800E0B4140F7F2D1214C27FFA1200037FFA68
:033F0800120003A1
:013F0B002293
:10338C00C20CC20DE4F5289000D8E0F529A3E0F5B5
:10339C002A1263AFE49000C4F09000D8E0FEA3E0E2
:1033AC00FFE4FCFD1249037F0F125A5BBF0FF8308C
:1033BC0003030234D6E52864B870030234D6200C1B
:1033CC00077FC81262ECD20C7F07125A5B8F28E57C
:1033DC0028B4F803E4F527E52864D870551263AFD8
:1033EC00C20CE527C3941E50020527E527C3940A97
:1033FC0050109000D9E004F070069000D8E004F072
:10340C00802CE527C3941450109000D9E0240AF0C6
:10341C009000D8E03400F08015E527D3941E500EB0
:10342C009000D9E02464F09000D8E03400F0D20D84
:10343C008059E52864E870531263AFC20CE527C3CA
:10344C00941E50020527E527C3940A50109000D90A
:10345C00E024FFF09000D8E034FFF0802CE527C387
:10346C00941450109000D9E024F6F09000D8E03479
:10347C00FFF08015E527D3941E500E9000D9E02460
:10348C009CF09000D8E034FFF0D20D9000D8E0FE14
:10349C00A3E0FFD39410EE9427400B9000D8E4F0F7
:1034AC00A37464F08013C3EF9464EE9400500A90FC
:1034BC0000D87427F0A37410F09000D8E0FEA3E0BD
:1034CC00FFE4FCFD1249030233BB1263AFC20C7F55
:1034DC0047125A5BBF47F830030B9000D8E529F030
:1034EC00A3E52AF022300D6C7FC81262EC20033366
:1034FC009000C4E06414602B7B017A0079D8752F9E
:10350C00027D0712001E9000C4EFF0BF84077F8479
:10351C001214C280D89000C4E0B485D17F851214F7
:10352C00C280CA9000C4E0B4140F7F2D1214C27F65
:10353C00FA1200037FFA1200039000D8E0FEA3E019
:10354C00FFC39000C3E09FFF9000C2E09E9000BCC0
:04355C00F0A3EFF0F9
:013560002248
:104D5C00C20CC20DE4F5279000C9E0F528E49000E0
:104D6C00C4F01263AF9000C9E0FF1214C27F0F129F
:104D7C005A5BBF0FF8200371E52764B8606B200CF9
:104D8C00077FC81262ECD20C7F07125A5B8F27E5A3
:104D9C0027B4D8241263AFC20C9000C9E0FF64AAF8
:104DAC006004EFB45508EFF49000C9F08006900051
:104DBC00C974AAF0D20D8027E527B4E8221263AF9C
:104DCC00C20C9000C9E0FF64556004EFB4AA08EF70
:104DDC00F49000C9F080069000C97455F0D20D9083
:104DEC0000C9E0FF1214C2808C1263AFC20C7F4763
:104DFC00125A5BBF47F83003079000C9E528F02230
:104E0C00300D517FC81262EC2003339000C4E06473
:104E1C0014602B7B017A0079C9752F017D09120072
:104E2C001E9000C4EFF0BF84077F841214C280D898
:104E3C009000C4E0B485D17F851214C280CA900062
:104E4C00C4E0B4140F7F2D1214C27FFA1200037F3A
:044E5C00FA12000343
:014E6000222F
:102F9400C20CC20DE4F5289000A8E0FFA3E0900065
:102FA400E2CFF0A3EFF0E49000C4F01263AF90001E
:102FB400A8E0FEA3E0FFEE3395E0FDFC1249037F99
:102FC4000F125A5BBF0FF83003030230E0E52864A8
:102FD400B870030230E0200C077FC81262ECD20CF8
:102FE4007F07125A5B8F28E528B4F803E4F527E538
:102FF4002864D8704E1263AFC20CE527C3942850DE
:10300400020527E527C3940A50109000A9E004F0B4
:1030140070069000A8E004F08025E527C3941450BE
:10302400109000A9E0240AF09000A8E03400F08099
:103034000E9000A9E02464F09000A8E03400F0D2DF
:103044000D8052E52864E8704C1263AFC20CE5278A
:10305400C3942850020527E527C3940A5010900012
:10306400A9E024FFF09000A8E034FFF08025E527D4
:10307400C3941450109000A9E024F6F09000A8E046
:1030840034FFF0800E9000A9E0249CF09000A8E0AA
:1030940034FFF0D20D9000A8E0FEA3E0FFD394C467
:1030A400EE64809489400C9000A874F6F0A3743CFC
:1030B400F08015C3EF943CEE64809476500A90003F
:1030C400A87409F0A374C4F09000A8E0FEA3E0FF84
:1030D400EE3395E0FDFC124903022FCB1263AFC21D
:1030E4000C7F47125A5BBF47F83003109000E2E0B0
:1030F400FFA3E09000A8CFF0A3EFF022200D03027D
:1031040031967FC81262EC9000A8E0FEA3E0FF9025
:1031140000C3E02FFF9000C2E03EFE9000E2E0FC1E
:10312400A3E0FDC3EF9DFFEE9CFE9000C2F0A3EF71
:10313400F09000D8E0FCA3E0FDC3EF9DFFEE9C906F
:1031440000BCF0A3EFF02003339000C4E0641460EB
:103154002B7B017A0079A8752F027D0A12001E903C
:1031640000C4EFF0BF84077F841214C280D890009B
:10317400C4E0B485D17F851214C280CA9000C4E033
:10318400B4140F7F2D1214C27FFA1200037FFA12B7
:02319400000336
:013196002216
:10444A00C20CC20DE4F5279000A2E0F5281263AF72
:10445A00E49000C4F09000A2E0FF1214C27F0F1291
:10446A005A5BBF0FF8200371E52764B8606B200C14
:10447A00077FC81262ECD20C7F07125A5B8F27E5BE
:10448A0027B4D8241263AFC20C9000A2E0FF64AA3A
:10449A006004EFB45508EFF49000A2F08006900093
:1044AA00A274AAF0D20D8027E527B4E8221263AFDE
:1044BA00C20C9000A2E0FF64556004EFB4AA08EFB2
:1044CA00F49000A2F080069000A27455F0D20D90EC
:1044DA0000A2E0FF1214C2808C1263AFC20C7F47A5
:1044EA00125A5BBF47F83003079000A2E528F02272
:1044FA00200D030245827FC81262EC2003649000FB
:10450A00C4E06414605C9000CF7455F07B017A00BB
:10451A0079A2752F017D0C12001E9000C4EFF0BF26
:10452A0084077F841214C280D29000C4E0B4850745
:10453A007F851214C280C47B017A0079CF752F015E
:10454A007D1012001E9000C4EFF0BF84077F841212
:10455A0014C280A79000C4E0B485A07F851214C25B
:10456A0080999000C4E0B4140F7F2D1214C27FFA10
:08457A001200037FFA12000396
:014582002216
:10505E00C20CC20D90009DE0F527E4F5281263AF57
:10506E00E49000C4F090009DE0FF7E00124F647F3C
:10507E000F125A5BBF0FF8200363E52864B8605D1A
:10508E00200C077FC81262ECD20C7F07125A5B8F7E
:10509E0028E528B4D80F1263AFC20C90009DE0042F
:1050AE00F0D20D8012E528B4E80D1263AFC20C9059
:1050BE00009DE014F0D20D90009DE0FFD394C84007
:1050CE0005740AF0800BEFD3940A4005E490009D1E
:1050DE00F090009DE0FF7E00124F64809A1263AF45
:1050EE00C20C7F47125A5BBF47F830030790009DF2
:1050FE00E527F022300D517FC81262EC2003339069
:10510E0000C4E06414602B7B017A00799D752F0139
:10511E007D0D12001E9000C4EFF0BF84077F841235
:10512E0014C280D89000C4E0B485D17F851214C219
:10513E0080CA9000C4E0B4140F7F2D1214C27FFAFF
:08514E001200037FFA120003B6
:015156002236
:10356100C20CC20DE4F5289000C5E0FFA3E0900075
:10357100E2CFF0A3EFF0E49000C4F01263AF90004B
:10358100C5E0FEA3E0FFEE3395E0FDFC1249037FA9
:103591000F125A5BBF0FF83003030236ADE5286402
:1035A100B870030236AD200C077FC81262ECD20C52
:1035B1007F07125A5B8F28E528B4F803E4F527E565
:1035C1002864D8704E1263AFC20CE527C39428500B
:1035D100020527E527C3940A50109000C6E004F0C5
:1035E10070069000C5E004F08025E527C3941450CF
:1035F100109000C6E0240AF09000C5E03400F0808D
:103601000E9000C6E02464F09000C5E03400F0D2D2
:103611000D8052E52864E8704C1263AFC20CE527B7
:10362100C3942850020527E527C3940A501090003F
:10363100C6E024FFF09000C5E034FFF08025E527C7
:10364100C3941450109000C6E024F6F09000C5E039
:1036510034FFF0800E9000C6E0249CF09000C5E09D
:1036610034FFF0D20D9000C5E0FEA3E0FFD394C477
:10367100EE64809489400C9000C574F6F0A3743C0C
:10368100F08015C3EF943CEE64809476500A90006C
:10369100C57409F0A374C4F09000C5E0FEA3E0FF77
:1036A100EE3395E0FDFC1249030235981263AFC277
:1036B1000C7F47125A5BBF47F83003109000E2E0DD
:1036C100FFA3E09000C5CFF0A3EFF022300D517FB2
:1036D100C81262EC2003339000C4E06414602B7BB9
:1036E100017A0079C5752F027D0E12001E9000C46B
:1036F100EFF0BF84077F841214C280D89000C4E029
:10370100B485D17F851214C280CA9000C4E0B4147C
:103711000F7F2D1214C27FFA1200037FFA120003E9
:013721002285
:10458300C20CC20DE4F5279000CFE0F5281263AF0B
:10459300E49000C4F09000CFE0FF1214C27F0F122A
:1045A3005A5BBF0FF8200371E52764B8606B200CDA
:1045B300077FC81262ECD20C7F07125A5B8F27E584
:1045C30027B4D8241263AFC20C9000CFE0FF64AAD3
:1045D3006004EFB45508EFF49000CFF0800690002C
:1045E300CF74AAF0D20D8027E527B4E8221263AF77
:1045F300C20C9000CFE0FF64556004EFB4AA08EF4B
:10460300F49000CFF080069000CF7455F0D20D9057
:1046130000CFE0FF1214C2808C1263AFC20C7F473D
:10462300125A5BBF47F83003079000CFE528F0220A
:10463300200D030246BB7FC81262EC200364900086
:10464300C4E06414605C9000A27455F07B017A00AE
:1046530079A2752F017D0C12001E9000C4EFF0BFEC
:1046630084077F841214C280D29000C4E0B485070B
:104673007F851214C280C47B017A0079CF752F0124
:104683007D1012001E9000C4EFF0BF84077F8412D8
:1046930014C280A79000C4E0B485A07F851214C221
:1046A30080999000C4E0B4140F7F2D1214C27FFAD6
:0846B3001200037FFA1200035C
:0146BB0022DC
:10372200C20CC20DE4F528900085E0FFA3E09000F2
:10373200E2CFF0A3EFF0E49000C4F01263AF900088
:1037420085E0FEA3E0FFE4FCFD1249037F0F125A5D
:103752005BBF0FF8300303023861E52864B87003D9
:10376200023861200C077FC81262ECD20C7F07126C
:103772005A5B8F28E528B4F803E4F527E52864D8D6
:10378200704E1263AFC20CE527C39428500205277E
:10379200E527C3940A5010900086E004F07006906A
:1037A2000085E004F08025E527C3941450109000B2
:1037B20086E0240AF0900085E03400F0800E90004C
:1037C20086E02464F0900085E03400F0D20D80524F
:1037D200E52864E8704C1263AFC20CE527C3942855
:1037E20050020527E527C3940A5010900086E02472
:1037F200FFF0900085E034FFF08025E527C39414A4
:103802005010900086E024F6F0900085E034FFF03E
:10381200800E900086E0249CF0900085E034FFF05A
:10382200D20D900085E0FEA3E0FFD394ACEE942687
:10383200400C9000857405F0A374DCF08010D3EF87
:1038420094DCEE94054007E4900085F0A3F090002C
:1038520085E0FEA3E0FFE4FCFD12490302375612A5
:1038620063AFC20C7F47125A5BBF47F83003109018
:1038720000E2E0FFA3E0900085CFF0A3EFF022305A
:103882000D517FC81262EC2003339000C4E064142F
:10389200602B7B017A007985752F027D1112001E43
:1038A2009000C4EFF0BF84077F841214C280D890C6
:1038B20000C4E0B485D17F851214C280CA9000C4CE
:1038C200E0B4140F7F2D1214C27FFA1200037FFAA4
:0338D200120003DE
:0138D50022D0
:1041C100C20CC20DE4F528900084E09000E2F0E416
:1041D1009000C4F01263AF900084E0FF7E00124FA4
:1041E100647F0F125A5BBF0FF8300303024299E557
:1041F1002864B87003024299200C077FC81262EC50
:10420100D20C7F07125A5B8F28E528B4F803E4F536
:1042110027E52864D870381263AFC20CE527C39430
:104221002850020527E527C3940A5008900084E02E
:1042310004F08017E527C394145009900084E0240A
:1042410002F08007900084E02404F0D20D803CE568
:104251002864E870361263AFC20CE527C394285076
:10426100020527E527C3940A5008900084E014F062
:104271008017E527C394145009900084E024FEF0D0
:104281008007900084E024FCF0D20D900084E0FFD0
:104291007E00124F640241EA1263AFC20C7F4712E3
:1042A1005A5BBF47F83003099000E2E0900084F0C8
:1042B10022300D517FC81262EC2003339000C4E01C
:1042C1006414602B7B017A007984752F017D1312B0
:1042D100001E9000C4EFF0BF84077F841214C280D7
:1042E100D89000C4E0B485D17F851214C280CA90F1
:1042F10000C4E0B4140F7F2D1214C27FFA12000320
:054301007FFA12000329
:014306002294
:104C4D00C20CC20DE4F5279000C8E0F528E49000F1
:104C5D00C4F01263AF9000C8E0FF1214C27F0F12B0
:104C6D005A5BBF0FF8200371E52764B8606B200C09
:104C7D00077FC81262ECD20C7F07125A5B8F27E5B3
:104C8D0027B4D8241263AFC20C9000C8E0FF64AA09
:104C9D006004EFB45508EFF49000C8F08006900062
:104CAD00C874AAF0D20D8027E527B4E8221263AFAD
:104CBD00C20C9000C8E0FF64556004EFB4AA08EF81
:104CCD00F49000C8F080069000C87455F0D20D9095
:104CDD0000C8E0FF1214C2808C1263AFC20C7F4774
:104CED00125A5BBF47F83003079000C8E528F02241
:104CFD00300D5B7FC81262EC9001801214530000DE
:104D0D0000002003339000C4E06414602B7B017A13
:104D1D000079C8752F017D1412001E9000C4EFF0AC
:104D2D00BF84077F841214C280D89000C4E0B4857C
:104D3D00D17F851214C280CA9000C4E0B4140F7FD5
:0E4D4D002D1214C27FFA1200037FFA12000327
:014D5B002235
:102850002010077FC81262ECD210900100E0FF1236
:1028600014C27F07125A5B9000E1EFF064F8600534
:102870001263AFC2109000E1E0FFB4B803D20F22A0
:10288000900100E024DFB40C004003022ADB902812
:102890009C75F003A4C58325F0C583730228C0028C
:1028A00028EC02291B02294A0229790229A80229B7
:1028B000D7022A06022A35022A63022A8C022AB586
:1028C000EFB4F006122D6B022ADB9000E1E0FFB4BA
:1028D000E8099001007422F0022ADBEF64D860035B
:1028E000022ADB900100742CF0022ADB9000E1E068
:1028F000B4F006123D98022ADB9000E1E0FFB4E854
:10290000099001007423F0022ADBEF64D86003020F
:102910002ADB9001007421F0022ADB9000E1E0B490
:10292000F00612338C022ADB9000E1E0FFB4E809E4
:102930009001007424F0022ADBEF64D86003022ABD
:10294000DB9001007422F0022ADB9000E1E0B4F099
:1029500006124D5C022ADB9000E1E0FFB4E809902A
:1029600001007425F0022ADBEF64D86003022ADB41
:102970009001007423F0022ADB9000E1E0B4F0063D
:10298000122F94022ADB9000E1E0FFB4E8099001E5
:10299000007426F0022ADBEF64D86003022ADB9081
:1029A00001007424F0022ADB9000E1E0B4F006128A
:1029B000444A022ADB9000E1E0FFB4E809900100FC
:1029C0007427F0022ADBEF64D86003022ADB90014F
:1029D000007425F0022ADB9000E1E0B4F00612500A
:1029E0005E022ADB9000E1E0FFB4E8099001007488
:1029F00028F0022ADBEF64D86003022ADB90010092
:102A00007426F0022ADB9000E1E0B4F00612356192
:102A1000022ADB9000E1E0FFB4E80990010074298C
:102A2000F0022ADBEF64D86003022ADB9001007415
:102A300027F0022ADB9000E1E0B4F00612458302A1
:102A40002ADB9000E1E0FFB4E809900100742AF06D
:102A5000022ADBEF64D86003022ADB9001007428AD
:102A6000F080789000E1E0B4F005123722806C909D
:102A700000E1E0FFB4E808900100742BF0805CEF07
:102A800064D870579001007429F0804F9000E1E005
:102A9000B4F0051241C180439000E1E0FFB4E808C2
:102AA000900100742CF08033EF64D8702E900100F8
:102AB000742AF080269000E1E0B4F005124C4D80BD
:102AC0001A9000E1E0FFB4E8089001007421F08062
:0D2AD0000AEFB4D806900100742BF0C20F7D
:012ADD0022D6
:10226300C20CC20DE4F5279000B3E0FCA3E0FDA38C
:10227300E0FEA3E0FF9000E2121447E49000C4F0F4
:102283001263AF9000B3E0FCA3E0FDA3E0FEA3E084
:10229300FF1249037F0F125A5BBF0FF8300303028B
:1022A30024F2E52764B870030224F2200C077FC8E8
:1022B3001262ECD20C7F07125A5B8F27E52764D892
:1022C30060030223CF1263AFC20C7FA07E867D0121
:1022D3007C009000B3E0F8A3E0F9A3E0FAA3E0FBED
:1022E300C31213D6700D9000B31214530005573068
:1022F3000223CA7FF07E497D027C009000B3E0F8A0
:10230300A3E0F9A3E0FAA3E0FBC31213D6700D9088
:1023130000B3121453000186A00223CA7F407E0D2E
:102323007D037C009000B3E0F8A3E0F9A3E0FAA3F7
:10233300E0FBC31213D6700D9000B31214530002C6
:1023430049F00223CA7F907ED07D037C009000B3C6
:10235300E0F8A3E0F9A3E0FAA3E0FBC31213D670FD
:102363000C9000B312145300030D40805A7FE07E9B
:10237300937D047C009000B3E0F8A3E0F9A3E0FAB6
:10238300A3E0FBC31213D6700C9000B312145300D6
:1023930003D09080327F307E577D057C009000B360
:1023A300E0F8A3E0F9A3E0FAA3E0FBC31213D670AD
:1023B3000C9000B3121453000493E0800A9000B30E
:1023C300121453000186A0D20D0224DEE52764E82F
:1023D30060030224DE1263AFC20CC20C7FA07E86B0
:1023E3007D017C009000B3E0F8A3E0F9A3E0FAA339
:1023F300E0FBC31213D6700D9000B3121453000206
:1024030049F00224DC7FF07E497D027C009000B31A
:10241300E0F8A3E0F9A3E0FAA3E0FBC31213D6703C
:102423000D9000B312145300030D400224DC7F40CF
:102433007E0D7D037C009000B3E0F8A3E0F9A3E0F8
:10244300FAA3E0FBC31213D6700D9000B31214531A
:102453000003D0900224DC7F907ED07D037C00902B
:1024630000B3E0F8A3E0F9A3E0FAA3E0FBC312137F
:10247300D6700C9000B3121453000493E0805A7F7B
:10248300E07E937D047C009000B3E0F8A3E0F9A321
:10249300E0FAA3E0FBC31213D6700C9000B312143E
:1024A300530005573080327F307E577D057C009086
:1024B30000B3E0F8A3E0F9A3E0FAA3E0FBC312132F
:1024C300D6700C9000B3121453000186A0800A90BA
:1024D30000B312145300055730D20D9000B3E0FC43
:1024E300A3E0FDA3E0FEA3E0FF12490302229F1233
:1024F30063AFC20C7F47125A5BBF47F83003159096
:1025030000E2E0FCA3E0FDA3E0FEA3E0FF9000B344
:1025130012144722300D517FC81262EC200333900E
:1025230000C4E06414602B7B017A0079B3752F0437
:102533007D1512001E9000C4EFF0BF84077F841244
:1025430014C280D89000C4E0B485D17F851214C230
:1025530080CA9000C4E0B4140F7F2D1214C27FFA16
:082563001200037FFA120003CD
:01256B00224D
:1047E1009000AFE0FEA3E0FFEE3395E0FDFC90000A
:1047F100E212144790009EE0FCA3E0FDA3E0FEA3BB
:10480100E0FF9000E6121447C20C1263AFE490007F
:10481100AFF0A3F07F0F125A5BEF640F6008125ED6
:104821005B12490380EE7FC81262EC2003087F7897
:10483100125A5BBF78F52003397FC81262EC20035E
:10484100087F87125A5BBF87F52003261263AF12D8
:104851005E5B90009E1214477FC81262EC7FB81213
:104861005A5BEF64B8600B2003081257251261F2FE
:1048710080EB3003289000E6E0FCA3E0FDA3E0FE1E
:10488100A3E0FF90009E1214479000E2E0A3E0A392
:10489100E0FFA3E09000AFCFF0A3EFF0227F47123B
:1048A1005A5BBF47F81257251249037F6412000370
:1048B1007FC81262EC2003339000C4E06414602BC3
:1048C1007B017A00799E752F047D0212001E9000F3
:1048D100C4EFF0BF84077F841214C280D89000C453
:1048E100E0B485D17F851214C280CA9000C4E0B4BF
:1048F100140F7F2D1214C27FFA1200037FFA1200E7
:0149010003B2
:014902002292
:101A6A00E49000E4F09000BEE0FCA3E0FDA3E0FEF9
:101A7A00A3E0FF9000E91214479000A4E0FCA3E061
:101A8A00FDA3E0FEA3E0FF9000ED1214471263AF3E
:101A9A00C2039000C474FFF0E49000E2F01262778F
:101AAA009000E2E004F0E0C3941340F17F0F125A71
:101ABA005BBF0FF87FF0125A5BEF64F07003021BF2
:101ACA007F9000C4E07003021B651262779000E504
:101ADA00121447E47F387E4AFDFC9000E5E0F8A343
:101AEA00E0F9A3E0FAA3E0FBC31213D650197F2E44
:101AFA001214C29000C4742EF07FF0125A5BEF6485
:101B0A00F0603D80F48039E47F307EF2FDFC900085
:101B1A00E5E0F8A3E0F9A3E0FAA3E0FBD31213D6B9
:101B2A0040197F2F1214C29000C4742FF07FF01254
:101B3A005A5BEF64F0600980F48005E49000C4F019
:101B4A009000C4E07003021ACB7F0F125A5BEF6455
:101B5A000F7003021ACB80F1021ACB9000E5E0FC69
:101B6A00A3E0FDA3E0FEA3E0FF1249039000C474C2
:101B7A00FFF0021ABE9000E5E0FCA3E0FDA3E0FE40
:101B8A00A3E0FF9000BE1214479000BEE0FCA3E061
:101B9A00FDA3E0FEA3E0FF9000A41214479000A466
:101BAA00E0FCA3E0FDA3E0FEA3E0FF1249037F0FE0
:101BBA00125A5BBF0FF8E49000C4F0300303021D11
:101BCA00D89000E4E064B87003021DD82010077FA3
:101BDA00C81262ECD2107F07125A5B9000E4EFF051
:101BEA00BFF805E49000E3F09000E4E064D86003F5
:101BFA00021CAF1263AFC2109000E3E0C3942850F6
:101C0A0003E004F09000E3E0FBC3940A5021900043
:101C1A00A4E0FCA3E0FDA3E0FEA3E02401FFE43E70
:101C2A00FEE43DFDE43CFC9000A41214478071EBF5
:101C3A00C3941450219000A4E0FCA3E0FDA3E0FEAD
:101C4A00A3E0240AFFE43EFEE43DFDE43CFC9000F0
:101C5A00A4121447804A9000E3E0C3941E502190D6
:101C6A0000A4E0FCA3E0FDA3E0FEA3E02464FFE4FB
:101C7A003EFEE43DFDE43CFC9000A41214478020A3
:101C8A009000A4E0FCA3E0FDA3E0FEA3E024F4FF9F
:101C9A00EE3401FEE43DFDE43CFC9000A41214473E
:101CAA00D20C021D789000E4E064E86003021D781B
:101CBA001263AFC2109000E3E0C394285003E0041B
:101CCA00F09000E3E0FBC3940A50259000A4E0FCE6
:101CDA00A3E0FDA3E0FEA3E0C39401FFEE9400FE9F
:101CEA00ED9400FDEC9400FC9000A4121447807C53
:101CFA00EBC3941450259000A4E0FCA3E0FDA3E0FC
:101D0A00FEA3E0C3940AFFEE9400FEED9400FDECFE
:101D1A009400FC9000A412144780519000E3E0C3A1
:101D2A00941E50259000A4E0FCA3E0FDA3E0FEA3CE
:101D3A00E0C39464FFEE9400FEED9400FDEC940081
:101D4A00FC9000A412144780239000A4E0FCA3E0B6
:101D5A00FDA3E0FEA3E0C394F4FFEE9401FEED942C
:101D6A0000FDEC9400FC9000A4121447D20CE47F0E
:101D7A00607EEAFDFC9000A4E0F8A3E0F9A3E0FA93
:101D8A00A3E0FBD31213D6400C9000A41214530004
:101D9A00004E208025E47F207E4EFDFC9000A4E0CA
:101DAA00F8A3E0F9A3E0FAA3E0FBC31213D6500AA2
:101DBA009000A41214530000EA609000A4E0FCA36F
:101DCA00E0FDA3E0FEA3E0FF124903021BC5126374
:101DDA00AFC2107F47125A5BBF47F8300329900001
:101DEA00EDE0FCA3E0FDA3E0FEA3E0FF9000A41257
:101DFA0014479000E9E0FCA3E0FDA3E0FEA3E0FFA6
:101E0A009000BE12144722300C627FC81262EC2086
:101E1A0003449000C4E06414603C7B017A0079A416
:101E2A00752F047D1912001E9000C4EFF06414602F
:101E3A0007E0FF1214C280D77B017A0079BE752FA2
:101E4A00047D2012001E9000C4EFF0641460C0E00C
:101E5A00FF1214C280B99000C4E0B4140F7F2D128F
:0C1E6A0014C27FFA1200037FFA1200037A
:011E76002249
:1055BD002010077FC81262ECD2109000FEE0FF129F
:1055CD0014C27F07125A5B9000E1EFF064F860059A
:1055DD001263AFC2109000E1E0FFB4B803D20F2206
:1055ED009000FEE024CE602D14605324027075EF00
:1055FD00B4F005122263806C9000E1E0FFB4E8087E
:10560D009000FE7432F0805CEF64D870579000FE0D
:10561D007433F0804F9000E1E0B4F0051247E18063
:10562D00439000E1E0FFB4E8089000FE7433F08091
:10563D0033EF64D8702E9000FE7431F08026900008
:10564D00E1E0B4F005121A6A801A9000E1E0FFB4AF
:10565D00E8089000FE7431F0800AEFB4D80690008F
:06566D00FE7432F0C20FD2
:015673002214
:106215001263AF7F0F125A5BBF0FF87F101214C2C3
:106225007FB8125A5BEF64B86008125AF21214C2B2
:0362350080EE22D6
:0F63A0007F0F125A5BBF0FF89001027442F02278
:105F1500E4F52743B03E7F0F125A5BBF0FF8E52724
:105F250064B8602D7F07125A5B8F27E52764D86018
:105F350005E527B4E80A7F37125A5BBF37F8B2B1D7
:105F450030B1077F661214C280D47F611214C280FB
:0B5F5500CD7F47125A5BBF47F8D2B166
:015F6000221E
:105F6100E4F52743B03E7F0F125A5BBF0FF8E527D8
:105F710064B8602D7F07125A5B8F27E52764D860CC
:105F810005E527B4E80A7F37125A5BBF37F8B2B28A
:105F910030B2077F671214C280D47F621214C280AC
:0B5FA100CD7F47125A5BBF47F8D2B219
:015FAC0022D2
:105FAD00E4F52743B03E7F0F125A5BBF0FF8E5278C
:105FBD0064B8602D7F07125A5B8F27E52764D86080
:105FCD0005E527B4E80A7F37125A5BBF37F8B2B33D
:105FDD0030B3077F681214C280D47F631214C2805D
:0B5FED00CD7F47125A5BBF47F8D2B3CC
:015FF8002286
:105FF900E4F52743B03E7F0F125A5BBF0FF8E52740
:1060090064B8602D7F07125A5B8F27E52764D86033
:1060190005E527B4E80A7F37125A5BBF37F8B2B4EF
:1060290030B4077F691214C280D47F641214C2800D
:0B603900CD7F47125A5BBF47F8D2B47E
:016044002239
:10604500E4F52743B03E7F0F125A5BBF0FF8E527F3
:1060550064B8602D7F07125A5B8F27E52764D860E7
:1060650005E527B4E80A7F37125A5BBF37F8B2B5A2
:1060750030B5077F6A1214C280D47F651214C280BE
:0B608500CD7F47125A5BBF47F8D2B531
:0160900022ED
:1038D6002010077FC81262ECD210900102E0FF129E
:1038E60014C27F07125A5B9000E1EFF064F860059E
:1038F6001263AFC210900102E024C0B40700400377
:10390600023A8590391775F003A4C58325F0C5835F
:103916007302392C02395C02398C0239C00239F43F
:10392600023A25023A569000E1E0B4F0041262151C
:10393600229000E1E0FFB4E8079001027441F02212
:10394600EFB4D8079001027441F022EF64B8600327
:10395600023A85D20F229000E1E0B4F0041263A08F
:10396600229000E1E0FFB4E8079001027440F022E3
:10397600EFB4D8079001027440F022EF64B86003F8
:10398600023A85D20F229000E1E0B4F004125F15EE
:10399600229000E1E0FFB4E8079001027443F022B0
:1039A600EFB4D8079001027446F022EF64B86003C2
:1039B600023A859001027441F0229000E1E0B4F0F1
:1039C60004125F61229000E1E0FFB4E80790010273
:1039D6007444F022EFB4D8079001027442F022EF4B
:1039E60064B86003023A859001027441F0229000A7
:1039F600E1E0B4F004125FAD229000E1E0FFB4E82C
:103A0600079001027445F022EFB4D80790010274C2
:103A160043F022EF64B870679001027441F022907F
:103A260000E1E0B4F004125FF9229000E1E0FFB497
:103A3600E8079001027446F022EFB4D8079001021D
:103A46007444F022EF64B870369001027441F0229B
:103A56009000E1E0B4F004126045229000E1E0FF3E
:103A6600B4E8079001027442F022EFB4D80790013F
:0F3A7600027445F022EFB4B8069001027441F0DB
:013A8500221E
:103F0C00C20CC20DE4F52890009CE09000E2F0E4B5
:103F1C009000C4F01263AF90009CE0FF7E00124F43
:103F2C00647F0F125A5BBF0FF8300303023FFFE5AB
:103F3C002864B87003023FFF200C077FC81262ECA4
:103F4C00D20C7F07125A5B8F28E528B4F803E4F5EE
:103F5C0027E52864D870381263AFC20CE527C394E8
:103F6C002850020527E527C3940A500890009CE0CE
:103F7C0004F08017E527C39414500990009CE024AA
:103F8C0005F0800790009CE0240AF0D20D803CE5FF
:103F9C002864E870361263AFC20CE527C39428502E
:103FAC00020527E527C3940A500890009CE014F002
:103FBC008017E527C39414500990009CE024FBF073
:103FCC00800790009CE024F6F0D20D90009CE0FF5E
:103FDC00D394C84005743CF0800CEFD3943C40065D
:103FEC0090009C7401F090009CE0FF7E00124F64E6
:103FFC00023F351263AFC20C7F47125A5BBF47F8C2
:10400C003003099000E2E090009CF022300D5B7FC1
:10401C00C81262EC2003339000C4E06414602B7B64
:10402C00017A00799C752F017D2412001E9000C42A
:10403C00EFF0BF84077F841214C280D89000C4E0D4
:10404C00B485D17F851214C280CA9000C4E0B41428
:10405C00197F2D1214C29000AEE0B4AA03123A8656
:0A406C007FFA1200037FFA1200032E
:014076002227
:104B3900C20CC20DE4F5279000AEE0F528E4900020
:104B4900C4F01263AF9000AEE0FF1214C27F0F12DF
:104B59005A5BBF0FF8200371E52764B8606B200C1E
:104B6900077FC81262ECD20C7F07125A5B8F27E5C8
:104B790027B4D8241263AFC20C9000AEE0FF64AA38
:104B89006004EFB45508EFF49000AEF08006900091
:104B9900AE74AAF0D20D8027E527B4E8221263AFDC
:104BA900C20C9000AEE0FF64556004EFB4AA08EFB0
:104BB900F49000AEF080069000AE7455F0D20D90DE
:104BC90000AEE0FF1214C2808C1263AFC20C7F47A3
:104BD900125A5BBF47F83003079000AEE528F02270
:104BE900300D60E49000CCF07FC81262EC200333F2
:104BF9009000C4E06414602B7B017A0079AE752FB4
:104C0900017D2512001E9000C4EFF0BF84077F8448
:104C19001214C280D89000C4E0B485D17F851214E3
:104C2900C280CA9000C4E0B414197F2D1214C29036
:104C390000AEE0B4AA03123A867FFA1200037FFAA3
:034C490012000353
:014C4C002245
:105C0D002010077FC81262ECD2109000FFE0FF1247
:105C1D0014C27F07125A5B9000E1EFF064F8600543
:105C2D001263AFC2109000FFE024C76030047058BB
:105C3D009000E1E0B4F004123F0C229000E1E0FF8F
:105C4D00B4E8079000FF7439F022EFB4D807900044
:105C5D00FF7439F022EF64B8702ED20F229000E15C
:105C6D00E0B4F004124B39229000E1E0FFB4E807F4
:105C7D009000FF7438F022EFB4D8079000FF74380D
:085C8D00F022EFB4B802D20FBF
:015C950022EC
:1054F0007527FF7528637529CE2010077FC81262B3
:10550000ECD2107F07125A5B9000E1EFF064F86074
:10551000051263AFC210AB27AA28A9291211E8907F
:105520005E8993FF7D2012007674012529F529E418
:105530003528F528905ED4E493FF7D101200767430
:10554000012529F529E43528F528AB27FAA92912E0
:1055500011E8905E8993FF7D081200767401252979
:10556000F529E43528F528AB27FAA9291211E89086
:105570005EB193FF7D0412007674012529F529E4BC
:105580003528F528AB27FAA9291211E8905E8993EE
:10559000FF7D0212007674012529F529E43528F5EE
:1055A00028AB27FAA9291211E8905E8993FF7D01A3
:0C55B0001200769000E1E0B4B802D20FC7
:0155BC0022CC
:10256C002010077FC81262ECD210900101E024FC0D
:10257C0070030226271470030226B414700302277A
:10258C00411470030227CE2406600302284F7FF00B
:10259C00125A5BEF64F0702E1263AF90010074213D
:1025AC00F0C210C20F7F47125A5BBF47F8200308D6
:1025BC00200F0512285080F57F47125A5BBF47F851
:1025CC007F171214C2227FE8125A5BBFE8207F07E4
:1025DC00125A5BBFF8F89001017404F0C203E49046
:1025EC0000C4F01263AFC2107F151214C2227FD840
:1025FC00125A5BEF64D8600302284F7F07125A5BB4
:10260C00BFF8F89001017407F0C203E49000C4F025
:10261C001263AFC2107F181214C2227FF0125A5BE1
:10262C00EF64F0702E1263AF9000FE7431F0C210A4
:10263C00C20F7F47125A5BBF47F8200308200F05D3
:10264C001255BD80F57F47125A5BBF47F87F1512B4
:10265C0014C2227FE8125A5BBFE8207F07125A5B34
:10266C00BFF8F89001017405F0C203E49000C4F0C7
:10267C001263AFC2107F161214C2227FD8125A5B9B
:10268C00EF64D8600302284F7F07125A5BBFF8F83B
:10269C009001017401F0C203E49000C4F01263AF26
:1026AC00C2107F171214C2227FF0125A5BEF64F033
:1026BC00702E1263AF9001027440F0C210C20F7FF3
:1026CC0047125A5BBF47F8200308200F051238D673
:1026DC0080F57F47125A5BBF47F87F161214C2224F
:1026EC007FE8125A5BBFE8207F07125A5BBFF8F8ED
:1026FC009001017406F0C203E49000C4F01263AFC1
:10270C00C2107F191214C2227FD8125A5BEF64D800
:10271C00600302284F7F07125A5BBFF8F890010143
:10272C007404F0C203E49000C4F01263AFC2107FD3
:10273C00151214C2227FF0125A5BEF64F0702E1245
:10274C0063AF9000FF7438F0C210C20F7F47125A6B
:10275C005BBF47F8200308200F05125C0D80F57F46
:10276C0047125A5BBF47F87F191214C2227FE81236
:10277C005A5BBFE8207F07125A5BBFF8F890010143
:10278C007407F0C203E49000C4F01263AFC2107F70
:10279C00181214C2227FD8125A5BEF64D86003025D
:1027AC00284F7F07125A5BBFF8F89001017405F0AF
:1027BC00C203E49000C4F01263AFC2107F1612146F
:1027CC00C2227FF0125A5BEF64F070281263AFC222
:1027DC0010C20F7F47125A5BBF47F8200308200F27
:1027EC00051254F080F57F47125A5BBF47F87F18EB
:1027FC001214C2227FE8125A5BBFE8207F07125ADC
:10280C005BBFF8F89001017401F0C203E49000C4BE
:10281C00F01263AFC2107F171214C2227FD8125A63
:10282C005BBFD81F7F07125A5BBFF8F89001017489
:10283C0006F0C203E49000C4F01263AFC2107F191B
:04284C001214C2227E
:105B8300C2109000DEE5E6F0A3E5E7F0A3E5A8F098
:105B9300E4F5A8F5A8F5E6F5E77FF0125A5BEF64A4
:105BA300F070507F141262EC7F0F125A5BEF640F98
:105BB300600B200308125725124E6180EB3003332C
:105BC3001263AF7F111214C27F07125A5BBFF8F83A
:105BD300C203E49000C4F090010104F07F17121493
:105BE300C220030F7FB8125A5BEF64B86005122519
:105BF3006C80EE1263AFC2039000DEE0F5E6A3E033
:095C0300F5E7A3E0FFF5A88FA866
:015C0C002275
:0A618C00010E04010F024101040896
:10630500E4F584758E02C2A9C28CC28EC28D7589D0
:056315001175840F2248
:10625800AF84758401E4F5C8F5C975CB4CF5CA85DA
:0E626800CBCD85CACCD2CAD2AF43E7018F841A
:016276002205
:10638E00AF84758402E4F5C8F5C975CB4CF5CA8F98
:01639E00847A
:01639F0022DB
:10632F00E4F584758CFE758A33D28C308DFDC28D69
:04633F0075840F2230
:1062EC00E4F584D2AFD2AB758D4CF58B9000C7EF33
:0962FC00F0C203D28E75840F225A
:0B63AF00E4F584C2ABC28E75840F229F
:0B63BA00E4F584C2A9C28C75840F2298
:10000300A2AFE433FEEF600612632F1F80F7126383
:06001300BAEE24FF92AFDB
:0100190022C4
:1062D200900082EFF0AF8475840285CBCD85CACC65
:0962E200D2CAD2AF43E7048F8455
:0162EB002290
:03001B00026296E8
:10629600C0E0C083C082758D4C758B009000C7E04E
:0E62A60014F0E07002D203D082D083D0E03238
:03007300025D111A
:105D1100C0E0C0F0C083C082C0D075D000C000C058
:105D210001C002C003C004C005C006C00730060D93
:105D3100D50E0AD51004C206D2B3750E0420050D86
:105D41009000B2E004F0B40804E4F0D205300B1C7A
:105D51009000AEE0B4AA15900104E014F0700DC2F9
:105D6100AF120086D2AF9001047408F0C2CFD00701
:105D7100D006D005D004D003D002D001D000D0D0BD
:095D8100D082D083D0F0D0E032D2
:03008300025C9686
:105C9600C0E0C083C082C0D075D000C006C0071562
:105CA6000FE50F7057900082E014F0704C30A51489
:105CB600900085E0FEA3E0FF9000C3E02FF0900087
:105CC600C2E03EF030A615900085E0FEA3E0FFC3DB
:105CD6009000C3E09FF09000C2E09EF0C2CA900020
:105CE600D8E0FEA3E0FFC39000C3E09FFF9000C290
:105CF600E09E9000BCF0A3EFF0750F02C2CFD00774
:0B5D0600D006D0D0D082D083D0E03295
:10631A0075840FC2DE000000D2DEC2D8C2D9D2DA3A
:05632A00C2DCD2DF22FD
:065674008B418A428943CC
:10567A00E4FBFAF547F546F545F544C2AF75840FE4
:10568A0012631AC2DF30DB110BBB00010AD3EB94A1
:10569A0000EA940240EF7FFE22D2DF00C2DA00E481
:1056AA00FBEBC394185037AF47AE46AD45AC4478D0
:1056BA00011213FA8F478E468D458C4430DD17E56B
:1056CA00472401F547E43546F546E43545F545E412
:1056DA003544F544800100D2DC0BC2DC80C3D2DA47
:1056EA00D2AFAF47AE46AD45AC44AB41AA42A9439F
:1056FA0012140DE4FFFEFDFCAB47AA46A945A844D7
:10570A00C31213D6600F74FFFFFEFD7C00A844C3CA
:0A571A001213D670037FFE227F2DCC
:015724002262
:105157007B007A007931125674EF642D6005126373
:105167001A80ED85343C85333B85323A8531398564
:105177003438853337853236853135853440853344
:105187003F85323E85313DE4F5307B007A00793149
:10519700125674EF642D600512631A80EDE5402501
:1051A70034F540E53F3533F53FE53E3532F53EE52D
:1051B7003D3531F53DAF3CAE3BAD3AAC39AB34AAEA
:1051C70033A932A831D31213D6400E85343C853328
:1051D7003B85323A8531398022AF38AE37AD36ACB0
:1051E70035AB34AA33A932A831C31213D6500C8574
:1051F70034388533378532368531350530E530C368
:1052070094114086C3E540953CF540E53F953BF555
:105217003FE53E953AF53EE53D9539F53DC3E54019
:105227009538F540E53F9537F53FE53E9536F53E30
:10523700E53D9535F53DAF40AE3FAD3EFC780412F8
:0252470013E76B
:015249002242
:105338007B007A00792C125674BF2DF4852F37859F
:105348002E36852D35852C34852F33852E32852DA7
:1053580031852C30852F3B852E3A852D39852C3883
:10536800E4F52B7B007A00792C125674BF2DF4E5F6
:105378003B252FF53BE53A352EF53AE539352DF540
:1053880039E538352CF538AF37AE36AD35AC34ABFA
:105398002FAA2EA92DA82CD31213D6400E852F374D
:1053A800852E36852D35852C348022AF33AE32AD2F
:1053B80031AC30AB2FAA2EA92DA82CC31213D6506E
:1053C8000C852F33852E32852D31852C30052BE524
:1053D8002BC39441408DC3E53B9537F53BE53A95A2
:1053E80036F53AE5399535F539E5389534F538C364
:1053F800E53B9533F53BE53A9532F53AE539953194
:10540800F539E5389530F538AF3BAE3AAD39FC782B
:04541800061213E77E
:01541C00226D
:105921008F338E328D318C309000D4E0F8A3E0F9C2
:10593100A3E0FAA3E0FB9000A3E0FFE4FCFDFE126C
:1059410012959000D41214479000D4E0F8A3E0F926
:10595100A3E0FAA3E0FBC000C001C002C0039000B5
:10596100A3E0FFC374649FFFE49400FEE4FCFDAB7D
:1059710033AA32A931A830121295D003D002D00136
:10598100D000EB2FFFEA3EFEE93DFDE83CFC900034
:10599100D41214479000D4E0FCA3E0FDA3E0FEA3E1
:1059A100E0FFE47B64FAF9F81213209000D412149A
:1059B100479000D4E0FCA3E0FDA3E0FEA3E0FF22BA
:105E5B00125157125921E41210338F2F8E2E8D2D84
:105E6B008C2CAB2FAA2EA92DA82CC000C001C002D0
:105E7B00C0039000B3E0FCA3E0FDA3E0FEA3E0FFB2
:105E8B00E4121033D003D002D001D000120E8D8F4C
:105E9B002F8E2E8D2D8C2C7BFF7AFF797F784B12DA
:0D5EAB000F968F2F8E2E8D2D8C2C121071C6
:015EB80022C7
:10627700125E5B90009EE0F8A3E0F9A3E0FAA3E0CA
:0E628700FBC3EF9BFFEE9AFEED99FDEC98FC39
:0162950022E6
:10587D001253389000D41214479000D4E0FCA3E0EA
:10588D00FDA3E0FEA3E0FFE41210338F2A8E298DD5
:10589D00288C27AB2AAA29A928A827C000C001C097
:1058AD0002C0039000B3E0FCA3E0FDA3E0FEA3E083
:1058BD00FFE4121033D003D002D001D000120E8DB0
:1058CD008F2A8E298D288C277BFF7AFF797F784B45
:1058DD00120F968F2A8E298D288C27C004C005C0E3
:1058ED0006C00790009EE0FCA3E0FDA3E0FEA3E050
:1058FD00FFEC121033A804A905AA06AB07D007D0F8
:10590D0006D005D004120D988F2A8E298D288C274C
:03591D00121071F4
:015920002264
:10572500126277EC1210338F2A8E298D288C27ABC5
:105735002AAA29A928A827C000C001C002C0039031
:1057450000A4E0FCA3E0FDA3E0FEA3E0FFE412104B
:1057550033D003D002D001D000120E8D8F2A8E29AE
:105765008D288C27C004C005C006C0079000BEE088
:10577500FCA3E0FDA3E0FEA3E0FFE4121033A804C0
:10578500A905AA06AB07D007D006D005D004120F8D
:10579500968F2A8E298D288C27C004C005C006C087
:1057A500079000AFE0FCA3E0FDEC121038A804A9B7
:1057B50005AA06AB07D007D006D005D004120D9870
:0B57C5008F2A8E298D288C271210716E
:0157D00022B6
:1057D10012587DEC1210338F268E258D248C23AB2D
:1057E10026AA25A924A823C000C001C002C0039095
:1057F10000A4E0FCA3E0FDA3E0FEA3E0FFE412109F
:1058010033D003D002D001D000120E8D8F268E2509
:105811008D248C23C004C005C006C0079000BEE0E3
:10582100FCA3E0FDA3E0FEA3E0FFE4121033A80413
:10583100A905AA06AB07D007D006D005D004120FE0
:10584100968F268E258D248C23C004C005C006C0EA
:10585100079000AFE0FCA3E0FDEC121038A804A90A
:1058610005AA06AB07D007D006D005D004120D98C3
:0B5871008F268E258D248C23121071D1
:01587C002209
:05619600C11101080524
:10609100858425E4F584F5C875C908AB07AA06A966
:1060A10005A804FF7E807D517C01121320E47B1042
:1060B100FAF9F81213201213B28ECB8FCA85CBCD09
:1060C10085CACCD2CAE4F5847598D0759115C2AC55
:0560D100D29985258431
:0160D60022A7
:1062B4001511A811A607E4F5843099FDC299A81117
:0E62C400E6FFA2D0929BF59975840F0511227A
:1061CD00E4FFF5842098062086FA7FA522309811E9
:1061DD00E599A2D0309A01B350027F0112122EC25E
:0461ED009875840F0E
:0161F100228B
:103A8600C20EE4F52CF52BF52AF529F52F750C4217
:103A9600F509750D3290009CE090003CF0A3740689
:103AA600F0A374FAF0A37407F0A3741FF0A3742FA5
:103AB600F0A3741FF0A3742FF0A3741FF0A3742F48
:103AC600F0A3741FF0900054E50CF0A3E50DF0A3ED
:103AD600E509F0E490006CF0F52D743C252DF58297
:103AE600E43400F583E0FF90006CE02FF0052DE54F
:103AF6002DB430E6C287E4752C18752B13F52AF51C
:103B060029782974FF121429EC4D4E4F70F3D28791
:103B1600E4F52CF52BF52AF52930861678291214AA
:103B2600277B007AB079017800C31213D650EA7F5A
:103B3600A522E4F52D743C252DF582E43400F583A9
:103B4600E0FF1262B4052DE52DC3943140E7E4F59C
:103B56002CF52BF52AF52920861678291214277BB1
:103B6600007AB079017800C31213D650EA7FA522F5
:103B7600E4F52D7400252DF9E43400FA7B01126179
:103B8600CD8F2EE52E7009052DE52DC3943140E32A
:103B9600E52E6003023AFAF52D7400252DF582E430
:103BA6003400F583E0252EF52E052DE52DB430E9FC
:103BB600900030E0652E6003023AFA900000E0655E
:103BC600086003023AFAA3E06003023AFA752D028E
:103BD6007400252DF582E43400F583E0B4AA0705C8
:103BE6002DE52DB430EAE52DB430048011800205B0
:103BF6002FE52FD394145003023AFA7F8B22E4F573
:103C06002D7400252DF582E43400F583E4F0052DAE
:073C1600E52DB43CEC7F2D0D
:013C1D002284
:10634300E4FF9000AEE0B4AA0A30B007C2AF123A3D
:0363530086D2AF40
:016356002224
:1060D7009000AEE064AA703B90001FE030E02D9086
:1060E700006CE020E02DE49000AFF0A3F0125E5BBF
:1060F70090009E1214477B017A00799E752F047DCC
:106107000212001E90006CE04401F02290006CE047
:0461170054FEF02220
:105D8A009000AEE064AA70621262778F288E278D27
:105D9A00268C25752900752A00752B25AB29052B1C
:105DAA00E52BAA2A7002052A14F91211E890006E4E
:105DBA00F0052BE52BAA2A7002052A14F91211E81C
:105DCA0090006FF0052BE52BAA2A7002052A14F918
:105DDA001211E8900070F0052BE52BAA2A70020533
:0A5DEA002A14F91211E8900071F07C
:015DF400228C
:10008600E4F548F555F554F553F552E50C14F50A23
:10009600E50D14F50BE490003CF07556017557001C
:1000A6007558CAAB560558E558AA57700205571435
:1000B600F91211E890003DF00558E558AA5770026C
:1000C600055714F91211E890003EF09000CEE0902A
:1000D600003FF07556017557007558D8AB56055850
:1000E600E558AA577002055714F91211E890004016
:1000F600F00558E558AA577002055714F91211E889
:10010600900041F09000C9E0900042F075560175EC
:1001160057007558A8AB560558E558AA57700205FA
:100126005714F91211E8900043F00558E558AA57FC
:100136007002055714F91211E8900044F09000A2DD
:10014600E0900045F090009DE0900046F075560165
:100156007557007558C5AB560558E558AA5770022D
:10016600055714F91211E8900047F00558E558AA0A
:10017600577002055714F91211E8900048F09000E4
:10018600CFE0900049F0755601755700755885AB5C
:10019600560558E558AA577002055714F91211E882
:1001A60090004AF00558E558AA577002055714F909
:1001B6001211E890004BF0900084E090004CF09013
:1001C60000C8E090004DF07556017557007558B39C
:1001D600AB560558E558AA577002055714F912117F
:1001E600E890004EF00558E558AA577002055714D6
:1001F600F91211E890004FF00558E558AA57700219
:10020600055714F91211E8900050F00558E558AA60
:10021600577002055714F91211E8900051F07556FF
:10022600017557007558BEAB560558E558AA577064
:1002360002055714F91211E8900052F00558E558D6
:10024600AA577002055714F91211E8900053F005E9
:1002560058E558AA577002055714F91211E890008C
:1002660054F00558E558AA577002055714F91211AB
:10027600E8900055F07556017557007558A4AB56B1
:100286000558E558AA577002055714F91211E89057
:100296000056F00558E558AA577002055714F9128A
:1002A60011E8900057F00558E558AA57700205570F
:1002B60014F91211E8900058F00558E558AA57703D
:1002C60002055714F91211E8900059F07556017598
:1002D600570075589EAB560558E558AA5770020543
:1002E6005714F91211E890005AF00558E558AA5724
:1002F6007002055714F91211E890005BF00558E5F5
:1003060058AA577002055714F91211E890005CF0CC
:100316000558E558AA577002055714F91211E890C6
:10032600005DF0E4900060F0A3F020B207A3E04483
:1003360080F08007900062E0547FF020B1099000C1
:1003460062E04440F08007900062E054BFF020B3C2
:1003560009900062E04420F08007900062E054DFDC
:10036600F020B409900062E04410F080079000622B
:10037600E054EFF020B509900062E04408F08007F1
:10038600900062E054F7F075560175570175588074
:10039600AB560558E558AA577002055714F91211BD
:1003A600E8900063F00558E558AA577002055714FF
:1003B600F91211E8900064F00558E558AA57700242
:1003C600055714F91211E8900065F00558E558AA8A
:1003D600577002055714F91211E8900066F0900064
:1003E600B1E0FF70067E097F098003EF14FF7E00EF
:1003F60074882FF9EE3400755601F5578958AB56B7
:100406000558E558AA577002055714F91211E890D5
:100416000067F00558E558AA577002055714F912F7
:1004260011E8900068F09000AAE0FCA3E0FDA3E0CC
:10043600FEA3E0FFEC335007E4F54AF54B80048E4B
:100446004A8F4B75560075570075584AAB56055876
:10045600E558AA577002055714F91211E890006979
:10046600F00558E558AA577002055714F91211E815
:1004760090006AF0743C250AF582E43400F583E4C2
:10048600F0F548E548C3950A501F743C2548F582A7
:10049600E43400F583E0FF743C250AF582E4340079
:1004A600F583E02FF0054880DAE4F555F554F55369
:1004B600F55230861678521214277B007AB07901ED
:1004C6007800C31213D650EA7FA522E4F548E54822
:1004D600C3950C5014743C2548F582E43400F5832A
:1004E600E0FF1262B4054880E5E4F555F554F5538E
:1004F600F55220861678521214277B007AB07901BD
:100506007800C31213D650EA7FA522E4F548E548E1
:10051600C3950D501874002548F9E43400FA7B01A0
:100526001261CD8F49E5497004054880E1E54970BF
:1005360037F549F548E548C3950B5014740025482E
:10054600F582E43400F583E02549F549054880E560
:100556007400250BF582E43400F583E065496005F7
:100566007549FC8003E4F549E5496002FF229000E5
:1005760020E030E204D2B1D2B2900020E030E102B5
:10058600D2B590001EE020E0030206A890006BE0C2
:1005960030E0030206AF75560075570075584A904D
:1005A6000001E0FFAB560558E558AA5770020557FB
:1005B60014F9EF12122E900002E0FFAB560558E533
:1005C60058AA577002055714F9EF12122EC3E54BBD
:1005D60094F0E54A9455406FAE4AAF4BE4FCFD7B80
:1005E600E87AFDF9F81213C0405D9000C3E0254B90
:1005F600FF9000C2E0354AFE9000CAE0FCA3E0FD91
:10060600C3EF9DFFEE9CFE9000C2F0A3EFF09000BA
:10061600D8E0FCA3E0FDC3EF9DFFEE9C9000BCF08C
:10062600A3EFF09000CAE54AF0A3E54BF01511A838
:100636001176027D007B017A0079CA124A21900068
:100646005EE054BFF0800790005EE04440F090000A
:1006560003E0D3945A503BE09000CEF01511A81158
:1006660076017D067B017A0079CE124A219000CE72
:10067600E0FCE412103D7BCD7ACC798C783F120EEB
:100686008D1210719000A3EFF090005EE0547FF0A1
:10069600800790005EE04480F090006BE04401F03B
:1006A600800790006BE054FEF090001EE020E1030E
:1006B60002078490006BE030E10302078B75560059
:1006C60075570075584A900004E0FFAB560558E58B
:1006D60058AA577002055714F9EF12122E9000050A
:1006E600E0FFAB560558E558AA577002055714F9AE
:1006F600EF12122EC3E54B9464E54A9400404AD3A8
:10070600E54B9410E54A9427503F9000D8E54AF00F
:10071600A3E54BF09000D8E0FEA3E0FFC39000C332
:10072600E09FFF9000C2E09E9000BCF0A3EFF015A2
:1007360011A81176027D077B017A0079D8124A2129
:1007460090005EE054DFF0800790005EE04420F009
:10075600900006E064AA6004E0B45519900006E033
:100766009000C9F01511A81176017D097B017A0068
:1007760079C9124A2190006BE04402F0800790008C
:100786006BE054FDF090001EE020E203020A129096
:10079600006BE030E203020A1975560075570075C2
:1007A600584E900012E0FFAB560558E558AA577010
:1007B60002055714F9EF12122E900013E0FFAB5604
:1007C6000558E558AA577002055714F9EF12122E6C
:1007D600900014E0FFAB560558E558AA577002057D
:1007E6005714F9EF12122E900015E0FFAB5605587C
:1007F600E558AA577002055714F9EF12122E7FA07A
:100806007E867D017C00AB51AA50A94FA84EC3122B
:1008160013D660507FF07E497D027C00A84EC3123D
:1008260013D660407F407E0D7D037C00A84EC31228
:1008360013D660307F907ED07D037C00A84EC31215
:1008460013D660207FE07E937D047C00A84EC31201
:1008560013D660107F307E577D057C00A84EC312EC
:1008660013D67028AF51AE50AD4FAC4E9000B312B8
:1008760014471511A81176047D157B017A0079B30A
:10088600124A2190005FE0547FF0800790005FE0FD
:100896004480F075560075570075584E900016E066
:1008A600FFAB560558E558AA577002055714F9EFDD
:1008B60012122E900017E0FFAB560558E558AA57BE
:1008C6007002055714F9EF12122E900018E0FFABD4
:1008D600560558E558AA577002055714F9EF121233
:1008E6002E900019E0FFAB560558E558AA5770023E
:1008F600055714F9EF12122EE47F387E4AFDFCAB41
:1009060051AA50A94FA84EC31213D64037E47F30E0
:100916007EF2FDFCA84ED31213D65028AF51AE502E
:10092600AD4FAC4E9000BE1214471511A8117604B7
:100936007D207B017A0079BE124A2190005FE05447
:10094600EFF0800790005FE04410F0755600755791
:100956000075584E90001AE0FFAB560558E558AAA8
:10096600577002055714F9EF12122E90001BE0FF84
:10097600AB560558E558AA577002055714F9EF12F9
:10098600122E90001CE0FFAB560558E558AA57708A
:1009960002055714F9EF12122E90001DE0FFAB5618
:1009A6000558E558AA577002055714F9EF12122E8A
:1009B600E47F207E4EFDFCAB51AA50A94FA84EC342
:1009C6001213D64037E47F607EEAFDFCA84ED312B0
:1009D60013D65028AF51AE50AD4FAC4E9000A41276
:1009E60014471511A81176047D197B017A0079A4A4
:1009F600124A2190005FE054F7F0800790005FE014
:100A06004408F090006BE04404F0800790006BE02F
:100A160054FBF090001EE020E303020B6790006B8E
:100A2600E030E303020B6E75560075570075584C9F
:100A3600900007E0FFAB560558E558AA5770020527
:100A46005714F9EF12122E900008E0FFAB56055826
:100A5600E558AA577002055714F9EF12122EC3E58E
:100A66004D943CE54C64809476406AD3E54D94C43D
:100A7600E54C64809489505D9000C3E0254DFF905D
:100A860000C2E0354CFE9000A8E0FCA3E0FDC3EFF9
