:0300000002599B07
:10599B00787FE4F6D8FD9000007FFF7E01E4F0A352
:0A59AB00DFFCDEFA7581600259F09E
:10637500E4F584D28453E6FD75CFEC75C04475848D
:026385000F22E5
:10469B001511A811A605151115111511A811A603B1
:0C46AB0008A60208A60115111511151132
:1046B700A81108E4F608F6F584C2C3D2C2D2C5A889
:1046C70011F6E5112407F9A811E6C397400302473D
:1046D700B420C31BA811080806E618700106860651
:1046E700D39420EE944E40E9D2C47FFE0247B9AF7F
:1046F700C1EF121484471E00472508472D10473481
:1047070018473E2847A338474240478448475050F8
:10471700478A58000047A9D2C47F000247B975C22B
:10472700A0C2C50247AF75C2A1C2C5807BE51124EF
:1047370006F8E6F5C28071D2C5806DE5112407F849
:10474700E664017063C2C2805FE5112403F8860343
:1047570008E6FA08E6F9E5C212122EE5112403F875
:104767000808740126F618E436F6A81106E51124A0
:1047770007F8E614A81166702FC2C2802BD2C47F37
:1047870048802FE5112403F8860308E6FA08E6F9BE
:10479700E5C212122ED2C4A81106800CD2C47F38EB
:1047A7008010D2C4AFC1800AC2C30246C975840F44
:0247B7007FFD84
:0747B900E5112408F51122AF
:104A00001511A811A605151115111511A811A60348
:0C4A100008A60208A601151115111511C9
:104A1C00A81108E4F608F6C284F584C2C3D2C5A86E
:104A2C0011F6E5112407F8E62401FFE433FEA81182
:104A3C00E6C39FEE6480F87480984003024AF3202A
:104A4C00C31BA811080806E6187001068606D39445
:104A5C0020EE944E40E9D2C47FFE024B11AFC1EF61
:104A6C0024F8601F24F0602224F8605E24F860248F
:104A7C0024F8605C24F8605E24387060D2C47F0037
:104A8C00024B1175C2A0C2C58058E5112406F8E688
:104A9C00F5C2804EE5112407F9A811E6677005D21E
:104AAC00C406803EE5112403F8860308E6FA08E6FE
:104ABC00F91211E8F5C2E5112403F808087401266F
:104ACC00F618E436F6A811068018D2C47F2080357B
:104ADC00D2C47F30802FD2C47F388029D2C4AFC1DA
:104AEC008023C2C3024A2E75840FA81108764E0883
:104AFC007620A8110808E6161886067001164E7066
:054B0C00F1D2847FFDE1
:074B1100E5112408F5112253
:106387001511A811A62B12469BBFFD037F13227F71
:016397008382
:0163980022E2
:08001E00AC058B2B8A2C892D07
:100026001511A811A62F124A00EF64FD703A15119A
:10003600A811A62FFB7A00793012469BEF64FD705B
:1000460027FFEFC3952F501DAB2BAA2CA92D8F820E
:10005600758300121201FE74302FF8E66E60037F7E
:0A00660085220F80DD7F14227F84C5
:01007000226D
:105F0500C0F9A4B0999282F880908883C6A7A1862B
:105F15008E898BC7ABC8A38CAF87C1BFFFB9F7EF1D
:105F250000000000000000004079243019120278BA
:105F350000108883C627A1868E898BC7ABC8A38C22
:105F4500AF87C1BF7FB9F7EF000000000000000078
:0C5F55001C1C1C1C1C1C1C1C1C1C1C1CF0
:0C00760075840FED42F88FE853F8C022AB
:084E3B008F2A8E298D288C2797
:104E4300E47F9C7EFEFDFCAB2AAA29A928A827D3D0
:104E53001213C040067F011214C2227F787EEC7DBC
:104E6300FF7CFFAB2AAA29A928A827C31213C05085
:104E7300067F021214C222AF2AAE29AD28AC27EC5A
:104E8300334004C20D8015D20DAF2AAE29AD28AC34
:104E9300271213B28F2A8E298D288C27E49000E2E3
:104EA300F0E47B0AFAF9F8AF2AAE29AD28AC271251
:104EB30061679000E2E024E3F582E43400F583EBDC
:104EC300F0AF2AAE29AD28AC27E47B0AFAF9F81231
:104ED30061678F2A8E298D288C279000E2E004F0E9
:104EE300E0B406BD200D0B9000E7E07016741CF0D3
:104EF3008011300D089000E7741BF080067F861246
:104F030014C2229000E4E0905F0593FF7D0112003C
:104F1300769000E5E0905F0593FF0D120076900018
:104F2300E6E0905F2D93FF7D041200769000E7E0AA
:0A4F3300905F0593FF7D08120076E1
:014F3D002251
:0848E2008F2E8E2D8D2C8C2BE6
:1048EA0043F83F75E8FF53F8C0AF2EAE2DAD2CACA0
:1048FA002BEC334004C20E8015D20EAF2EAE2DAD76
:10490A002CAC2B1213B28F2E8E2D8D2C8C2BE49067
:10491A0000EFF0E47B0AFAF9F8AF2EAE2DAD2CAC1D
:10492A002B1261679000EFE024F0F582E43400F581
:10493A0083EBF0AF2EAE2DAD2CAC2BE47B0AFAF94B
:10494A00F81261678F2E8E2D8D2C8C2B9000EFE044
:10495A0004F0E0B406BD200E179000F5E0703E901A
:10496A0000F4E07003741CF09000F5741CF0802DC4
:10497A00300E249000F5E070169000F4E070087490
:10498A001BF0A304F080169000F5741BF0800E90C3
:10499A0000F5741DF080067F861214C2229000F082
:1049AA00E0905F0593FF7D011200769000F1E090A0
:1049BA005F0593FF0D1200769000F2E0905F059379
:1049CA00FF7D041200769000F3E0905F2D93FF7D47
:1049DA00081200769000F4E0905F0593FF7D1012B4
:1049EA0000769000F5E0905F0593FF7D2012007637
:0549FA007F0112000323
:0149FF002295
:0214C2008F2F6A
:1014C40078F67C007D017BFF7A5F79557E007F068C
:1014D4001211C2E52F12148415D30115E2021A1653
:1014E4001015EC11160115163116161617166D186F
:1014F400164C191776201932211932221932231960
:101504003224193225193226193227193228193270
:101514002919322A19322B19322C16822D170C2E26
:1015240017312F16BC3116D73216F2331965381914
:10153400653917564017964117BB4217D64317F122
:1015440044180C45182746169B5519B26119B26206
:1015540019B26319B26419B26519CB6619CB67194C
:10156400CB6819CB6919CB6A18FB8018FB8118FB6F
:101574008218FB8318FB8418FB8518FB8618FB87ED
:1015840018FB8818FB8918FB8A18FB8B18FB8C182E
:10159400FB8D18FB8E18FB8F199991199992199943
:1015A400931999941999951999961999971999983C
:1015B4001999991842A01867A1188CA218B1A318F8
:1015C400D6A419E7A516AEAA1A69FF000019FE9061
:1015D40000F97416F09000F87413F0021A169000D3
:1015E400F9741DF0021A16229000FB7405F09000A5
:1015F400FA740FF09000F97419F0021A169000FBB7
:10160400740CF09000FA740AF09000F97413F0026C
:101614001A169000FB7410F09000FA741AF09000FF
:10162400F97415F09000F8740CF0021A169000FB8F
:101634007419F09000FA740FF09000F97405F090AA
:1016440000F87419F0021A169000FB740EF0900062
:10165400FA7417F09000F97405F09000F8740FF024
:101664009000F77419F0021A169000FB741AF090A7
:1016740000FA740FF09000F97418F0021A16900032
:10168400FB7409F09000FA7416F09000F9F09000E1
:10169400F8740EF0021A169000F87416F09000F721
:1016A4007410F09000F6F0021A169000F77416F019
:1016B4009000F614F0021A169000FB7405F09000E6
:1016C400FA7417F09000F9740AF09000F87415F0A9
:1016D400021A169000FB7419F09000FA740AF09044
:1016E40000F97418F09000F8740FF0021A169000C4
:1016F400FB7409F09000FA04F09000F9741FF09064
:1017040000F87415F0021A169000FB740FF09000A4
:10171400FA7418F09000F9F09000F8741BF090003F
:10172400F7740CF09000F67413F0021A169000FB94
:10173400740FF09000FA7418F09000F9F09000F82B
:10174400741BF09000F77411F09000F67413F0021B
:101754001A169000FB741FF09000FA7415F09000B4
:10176400F97417F09000F8741AF09000F714F0026E
:101774001A169000FB7415F09000FA04F09000F92A
:10178400741BF09000F8741FF09000F77415F002C9
:101794001A169000FB7416F09000FA741AF0900078
:1017A400F914F09000F87417F09000F7741AF090A0
:1017B40000F614F0021A169000FB740EF09000FA72
:1017C4007416F09000F9741BF09000F87401F002A4
:1017D4001A169000FB740EF09000FA7416F0900044
:1017E400F9741BF09000F87402F0021A169000FBD2
:1017F400740EF09000FA7416F09000F9741BF090D7
:1018040000F87403F0021A169000FB740EF09000B6
:10181400FA7416F09000F9741BF09000F87404F058
:10182400021A169000FB740EF09000FA7416F090F1
:1018340000F9741BF09000F87405F0021A16900079
:10184400FB740FF09000FA7418F09000F9F0900017
:10185400F8741BF09000F77405F09000F67417F01C
:10186400021A169000FB740FF09000FA7418F090AE
:1018740000F9F09000F8741BF09000F77413F090E6
:1018840000F67405F0021A169000FB740FF0900035
:10189400FA7418F09000F9F09000F8741BF09000BE
:1018A400F77411F09000F67417F0021A169000FB0A
:1018B400740FF09000FA7418F09000F9F09000F8AA
:1018C400741BF09000F77416F09000F67411F00297
:1018D4001A169000FB740FF09000FA7418F0900040
:1018E400F9F09000F8741BF09000F77416F0900073
:1018F400F67413F0021A16E52F2480FBE434FFFA81
:101904007C007D0AAF03FE1212409000F6EDF07CDD
:10191400007D0AAF03AE02121240A3EFF0A3741BC2
:10192400F0A37418F0A3F0A3740FF0021A16E52FB5
:1019340024E0FBE434FFFA7C007D0AAF03FE1212BC
:10194400409000F7EDF07C007D0AAF03AE02121266
:1019540040A3EFF0A3741EF0A3F0A37410F0021AD6
:1019640016E52F24C9FBE434FFFA7C007D0AAF039B
:10197400FE1212409000F7EDF07C007D0AAF03AE3A
:1019840002121240A3EFF0A3741EF0A37417F0A385
:10199400740EF0807D9000F67415F0A304F0A37427
:1019A4001BF0E52F2470A3F0A3741FF08064900053
:1019B400F67415F0A304F0A3741BF0E52F24A0A380
:1019C400F0A37416F0804B9000F67410F0A3F0A30B
:1019D4007416F0A3741BF0E52F249BA3F0A37416D4
:1019E400F0802F9000F67419F0A304F0A37416F09D
:1019F400A3741BF0A37419F080189000F6740FF010
:101A0400A314F0A37416F0A3740CF0A37416F0A33B
:101A140014F09000F6E0905F0593FF7D01120076CC
:101A24009000F7E0905F0593FF0D1200769000F8A8
:101A3400E0905F0593FF7D041200769000F9E0903A
:101A44005F0593FF7D081200769000FAE0905F0531
:101A540093FF7D101200769000FBE0905F0593FFEA
:051A64007D2012007658
:011A6900225A
:106211008F2A8E298D288C277F101214C27F641239
:106221000003AF2AAE29AD28AC271248E27F6412E1
:0362310000032245
:044F3E008E2A8F2BFD
:104F420078E27C007D017BFF7A5F795B7E007F06E1
:104F52001211C2E49000E1F09000E1E0FBC394067C
:104F6200502EAE2AAF2B7C007D0A12124074E22B27
:104F7200F582E43400F583EDF0AE2AAF2B7C007DA0
:104F82000A1212408E2A8F2B9000E1E004F080C8B2
:104F92009000E7E07003741CF09000E6E0700BA351
:104FA200E0B41C069000E6741CF09000E5E0700B83
:104FB200A3E0B41C069000E5741CF09000E4E070DD
:104FC2000BA3E0B41C069000E4741CF09000E3E034
:104FD200700BA3E0B41C069000E3741CF09000E296
:104FE200E0905F0593FF7D011200769000E3E09070
:104FF2005F0593FF0D1200769000E4E0905F059349
:10500200FF7D041200769000E5E0905F0593FF7D3E
:10501200081200769000E6E0905F0593FF7D101283
:1050220000769000E7E0905F0593FF7D2012007606
:055032007F01120003E4
:015037002256
:025A35008F2BB5
:105A3700E49000F0F0E59054F89000EFF0E52B12B9
:105A470014845A71075A7B0F5A7B175A7B275A8837
:105A5700375A7B475A9A785A7B875A9AB85A9AD8AC
:105A67005A9AE85A9AF000005AA59000EFE0FF64AE
:105A7700F8702E22E52BF4FE9000EFE0FF6E702108
:105A8700229000EFE0FEB4D8037FF822EEB4E811CD
:105A97007FF8229000EFE0652B60067FF822AF2B9E
:105AA700227F1E1200039000F0E004F0E0C394048C
:105AB70040837F78120003E52BB407069000EFE0E0
:045AC700FF22AF2BE0
:015ACB0022B8
:105ACC00E49000E1F0E59020E0117F0312000390D8
:105ADC0000E1E004F0E0C3940440EA9000E1E0B49B
:105AEC0004037F9622E49000E1F0E5A0B4FF037F6D
:105AFC0020227F031200039000E1E004F0E0C39445
:105B0C000440E79000E0E5A0F0E0FE20E0037F9980
:105B1C0022EE20E1037F98229000E0E0FE20E203D9
:105B2C007F9722EE20E3037F94229000E0E0FE209A
:105B3C00E4037F9322EE20E5037F91229000E0E0C6
:105B4C00FE20E6037F9222EE20E7037F95227F2042
:015B5C002226
:1061AB004400D2000000004100C3004100B0004198
:1061BB00008200C101C100C102C107C109C10BC1ED
:0561CB0006C108C185BA
:102AED00125E41E49000AEF0A3F01256FF9000AEDE
:102AFD00EEF0A3EFF0D394ACEE6480948D400E7F96
:102B0D00A31214C2E49000AEF0A3F0801DC3900098
:102B1D00AFE094549000AEE064809472500C7FA4AA
:102B2D001214C2E49000AEF0A3F0125B5D12317886
:042B3D00D2B1D2B28D
:102B41001263AB126123125DD6125B5D1242E61273
:102B510031781256FF9000A912144720A00D905F02
:102B610012E493FF7D20120076800B905F21E493A5
:102B7100FF7D20120076905F21E493FF7D1012000B
:102B8100769000A9E0F8A3E0F9A3E0FAA3E0FB90B6
:102B910000B6E0FCA3E0FDA3E0FEA3E0C39BFFEED3
:102BA1009AFEED99FDEC98FCE47BC8FAF9F8C312A2
:102BB10013C05002D2059000B6E0F8A3E0F9A3E0FB
:102BC100FAA3E0FB9000A9E0FCA3E0FDA3E0FEA3D3
:102BD100E0C39BFFEE9AFEED99FDEC98FCE47BC807
:102BE100FAF9F8C31213C05002D20530052C900037
:102BF100A9E0FCA3E0FDA3E0FEA3E0FF9000B61274
:102C010014479000B6E0FCA3E0FDA3E0FEA3E0FFC3
:102C1100124E3BE49000B1F0C205E47F887E13FDC3
:102C2100FC9000A9E0F8A3E0F9A3E0FAA3E0FBC35C
:102C31001213C05003022D459000C8E0B4AA3DE430
:102C41007F207E4EFDFC9000A9E0F8A3E0A3E0A365
:102C5100E0C31213C05004D2B280219000BBE0FE49
:102C6100A3E0FFE4FCFD9000A9E0F8A3E0F9A3E0F4
:102C7100FAA3E0FBC31213C04002C2B29000C2E04B
:102C81002448FF9000C1E034F4FEE4FCFD9000A96B
:102C9100E0F8A3E0F9A3E0FAA3E0FBD31213C040EC
:102CA10002C20B9000C1E0FEA3E0FFFBAA06E49084
:102CB10000A9E0FCA3E0FDA3E0FEA3E0C39BFFEEBF
:102CC1009AFEED9400FDEC9400FC9000D81214479C
:102CD100E47FF47E01FDFC9000D8E0F8A3E0F9A3C5
:102CE100E0FAA3E0FBD31213C04006124058022BB6
:102CF10041E47FC8FEFDFC9000D8E0F8A3E0F9A311
:102D0100E0FAA3E0FBD31213C040093008061240D9
:102D110058022B419000D8E0FCA3E0FDA3E0FEA304
:102D2100E0FFEC334016D2089000CBE004F0E06401
:102D3100036003022B41124058022B41E49000CB67
:072D4100F0022B41125224A5
:042D4800022B4122F7
:1052240030010302531120000302531130A0030282
:1052340053119000AEE0FFA3E09000DCCFF0A3EFA9
:10524400F0E49000AEF0A3F01257AB9000A9121452
:1052540047E47FAC7E0DFDFC9000A9E0F8A3E0F9E3
:10526400A3E0FAA3E0FBD31213C050197F547EF2DB
:105274007DFF7CFF9000A9E0F8A3E0A3E0A3E0C3D6
:105284001213C050549000DCE0FFA3E09000AECFB6
:10529400F0A3EFF0E47FAC7E0DFDFC9000A9E0F8F4
:1052A400A3E0F9A3E0FAA3E0FBD31213C040077F05
:1052B400A31214C280527F547EF27DFF7CFF9000C3
:1052C400A9E0F8A3E0F9A3E0FAA3E0FBC31213C03A
:1052D40050367FA41214C2802F905F11E493FF7D97
:1052E400201200769000A9E0FCA3E0FDA3E0FEA359
:1052F400E0FF124E3B9000A9E0A3E0A3E0FFA3E08F
:0D5304009000AECFF0A3EFF0C20030A0FD8E
:015311002279
:104058009000C9E0FEA3E0FF7C007D05121240EF4E
:1040680025E0F524EE33F523D205C2B2C2B1D20B56
:10407800E4A3F0C208905F2193FF7D2012007690A0
:104088005F21E493FF7D20120076AE23AF24E4FC89
:10409800FD9000A9E0F8A3E0F9A3E0FAA3E0FBC3D0
:1040A8001213C0500302414F1256FF9000A9121478
:1040B80047125DD620A056905F49E493FF7D2012F9
:1040C80000767F0A12630BC20530A0FD905F21E4E1
:1040D80093FF7D201200769000A9E0A3E0A3E0FE04
:1040E800A3E0FF9000B0E025E02487F582E43400E7
:1040F800F583EEF0A3EFF09000B0E004F090009CA0
:10410800E0FF9000B0E0B5070FE4F0800B905F216E
:10411800E493FF7D20120076905F21E493FF7D10E9
:104128001200763005119000A9E0FCA3E0FDA3E0A1
:10413800FEA3E0FF124E3B2003030240921263CC21
:10414800C203D205024092D2B1D2B21263CCD200DD
:104158009000C7E0B4AA1F900180E0FCA3E0FDA393
:10416800E0FEA3E02401FFE43EFEE43DFDE43CFC68
:10417800900180121447C2019000CDE0B4AA0990C2
:104188000083E0FF1262F1229000A1E0B4AA089037
:07419800009CE0FF1253F749
:01419F0022FD
:1061E00075840F75A49075A50675A7FE759CE0755E
:1061F0009EFF759FFF75E10575E3407590FF75A0E3
:10620000FF75B0FF75C8FF75D8FF75E8FF75F8FF1B
:01621000226B
:0963E200C2AF75FFDE75FFAD22AC
:1062570075840F758C67E4FFFE0FBF00010EBE0B40
:0F626700F8BFB8F5E58C30E7FB759701758A0332
:016276002205
:103BFF007525AA9000AD7455F07B017A0079AD75EB
:103C0F002F017D2512001E90009B7401F0FB7A009E
:103C1F00799BF52F7D2412001E9000CC7450F07B01
:103C2F00017A0079CC752F017D0612001E9000C914
:103C3F0074C3F0A37450F07B017A0079C9752F0219
:103C4F00E4FD12001E9000B2121453000557307B92
:103C5F00017A0079B2752F047D1512001E9000BDF8
:103C6F00121453000086027B017A0079BD752F0470
:103C7F007D2012001E9000A312145300009C407B65
:103C8F00017A0079A3752F047D1912001E90009CF4
:103C9F007405F07B017A00799C752F017D0D120060
:103CAF001E9000C87455F07B017A0079C8752F01FA
:103CBF007D0912001E9000D67413F0A37488F07B58
:103CCF00017A0079D6752F027D0712001EE490004D
:103CDF00A7F0A3F07B017A0079A7752F027D0A1256
:103CEF00001EE49000C4F0A3F07B017A0079C47544
:103CFF002F027D0E12001EE4900084F0A3F07B01D2
:103D0F007A007984752F027D1112001EE4900083D2
:103D1F00F07B017A007983752F017D1312001E90BD
:103D2F0000A17455F07B017A0079A1752F017D0CEC
:103D3F0012001E9000CD7455F07B017A0079CD757D
:103D4F002F017D1012001E9000C77455F07B017A71
:103D5F000079C7752F017D1412001E7B007A007940
:093D6F0025752F017DFF12001ED5
:013D78002228
:101E770075262D7B017A0079AD752B017D251263BF
:101E8700877B017A00799B752B017D2412638790EC
:101E9700009BE0FFD3943C5003EF700A7F8F12142E
:101EA700C2125B5D80E9E4F5259000ADE064AA709D
:101EB70030C2AFE526B42D05123A678F26D2AFE5BB
:101EC70026B42D04801B8005AF261214C20525E514
:101ED70025D3941E40069000AD7455F0125B5D80CB
:101EE700C8D20B7B017A0079CC752B017D06126372
:101EF700879000CCE0D3945A4011743CF07B017A70
:101F07000079CC752F017D0612001E9000CCE0FCF5
:101F1700E412103D7BCD7ACC798C783F120E8D126E
:101F270010719000A2EFF07B017A0079C9752B023E
:101F3700E4FD1263879000C9E0FEA3E0FFC394F0BD
:101F4700EE9455400EE4FCFD7BE87AFDF9F8121398
:101F5700C0500A7FA01214C2125B5D80D87B017A41
:101F67000079B2752B047D151263877FA07E867D6D
:101F7700017C009000B2E0F8A3E0F9A3E0FAA3E047
:101F8700FBC31213D670030220197FF07E497D022E
:101F97007C009000B2E0F8A3E0A3E0A3E0C3121333
:101FA700D6606F7F407E0D7D037C009000B2E0F825
:101FB700A3E0A3E0A3E0C31213D660567F907ED0C0
:101FC7007D037C009000B2E0F8A3E0A3E0A3E0C3A8
:101FD7001213D6603D7FE07E937D047C009000B2B3
:101FE700E0F8A3E0A3E0A3E0C31213D660247F3098
:101FF7007E577D057C009000B2E0F8A3E0A3E0A344
:10200700E0C31213D6600B7FA11214C2125B5D02EC
:102017001F727B017A0079BD752B047D20126387BF
:10202700E47F387E4AFDFC9000BDE0F8A3E0F9A309
:10203700E0FAA3E0FBC31213D64018E47F307EF228
:10204700FDFC9000BDE0F8A3E0A3E0A3E0D31213EA
:10205700D6400A7F811214C2125B5D80C37B017A6E
:102067000079A3752B047D19126387E47F207E4EC8
:10207700FDFC9000A3E0F8A3E0F9A3E0FAA3E0FBDE
:10208700C31213D64018E47F607EEAFDFC9000A3DC
:10209700E0F8A3E0A3E0A3E0D31213D6400A7F82BF
:1020A7001214C2125B5D80C37B017A00799C752B89
:1020B700017D0D12638790009CE0FF6005D3940AB1
:1020C700401490009C7405F07B017A00799C752F71
:1020D700017D0D12001E7B017A00799D752B047D11
:1020E700021263877B017A0079C8752B017D09127B
:1020F70063877B017A0079D6752B027D0712638788
:102107009000D6E0FEA3E0FFC39464EE940040097C
:10211700D3EF9410EE9427400A7FA21214C2125BE9
:102127005D80DD7B017A0079A7752B027D0A12633A
:10213700879000A7E0FEA3E0FFC3943CEE64809481
:1021470076400BD3EF94C4EE64809489400A7F886D
:102157001214C2125B5D80D97B017A0079C4752B9A
:10216700027D0E1263879000C4E0FEA3E0FFC394D4
:102177003CEE64809476400BD3EF94C4EE64809475
:1021870089400A7F891214C2125B5D80D97B017A6C
:10219700007984752B027D11126387D3900085E047
:1021A70094DC900084E09405400A7F8A1214C212DE
:1021B7005B5D80E77B017A007983752B017D1312C4
:1021C70063877B017A0079A1752B017D0C126387E8
:1021D7007B017A0079CD752B017D10126387900002
:1021E700A1E0B4AA169000CDE0B4AA0F9000A174A4
:1021F70055F09000CDF07F8C1214C27B017A0079E4
:10220700C7752B017D141263879000A7E0FEA3E03A
:10221700FFC39000CAE09FFF9000C9E09EFE9000B8
:10222700C1F0A3EFF09000D6E0FCA3E0FDC3EF9D63
:10223700FFEE9C9000BBF0A3EFF0E4F5259000C4FF
:10224700E0FEA3E0FF9000CAE02FFF9000C9E03E48
:10225700FEE52525E02487F582E43400F583EEF0DA
:0A226700A3EFF00525E525B40AD326
:01227100224A
:0463F200121E7722DE
:10636200E4F584E5EF30E10A900180121453000055
:0363720000002206
:105E41001263E21262571263621261E0126324125A
:105E510063751263397F007EC27D017C001260DDB3
:105E61001262771263997FF0125A35BFF005123B27
:105E7100FF80031263F2E4F523E523905F0593FFAE
:105E81007D3F120076E49000AEF0A3F0F5241256A7
:105E9100FF0524E524C3941440F40523E523C394AA
:055EA1000A40D6D20109
:015EA60022D9
:0253F7008F2500
:1053F9009000DC12145300000000E4F526E526C3F2
:10540900952550399000DCE0F8A3E0F9A3E0FAA370
:10541900E0FBE52625E02487F582E43400F583E006
:10542900FEA3E0FFE4FCFDEB2FFFEA3EFEED39FDB4
:10543900EC38FC9000DC121447052680C09000DC93
:10544900E0FCA3E0FDA3E0FEA3E0FFC007AF25ABAE
:1054590007E4FAF9F8D0071213209000DC12144778
:105469009000C4E0FEA3E0FF9000CAE02FFF900087
:10547900C9E03EFEE49000DCE0F8A3E0F9A3E0FA1D
:10548900A3E0FBC3EF9BFFEE9AFEE499FDE498FCD1
:10549900E47B02FAF9F81213209000C2E02FF09091
:1054A90000C1E03EF09000D6E0FEA3E0FFC390000B
:1054B900C2E09FFF9000C1E09E9000BBF0A3EFF017
:0154C90022C0
:0763EB00302D303030380086
:1042E600C20CC2109000DCE5E6F0A3E5E7F0A3E51A
:1042F600A8F0E4F5A8F5A8F5E6F5E77F07125A3524
:104306009000DFEFF0BFD804D20C801F9000DFE0F2
:10431600B4E804D20C80149000DEE0FFF5A88FA864
:104326009000DCE0F5E6A3E0F5E7229000C9E0FEA8
:10433600A3E0FFE4FCFD124E3B9000C9E0FFA3E0C2
:104346009000E0CFF0A3EFF0300C6B7F07125A35E8
:104356009000DFEFF0BFD8109000CAE02464F09020
:1043660000C9E03400F0802A9000DFE0FFB4E810D6
:104376009000CAE0249CF09000C9E034FFF080125F
:10438600EFB4B804C20C800A2010077F0A12630B30
:10439600D2103003117F07125A35BFF802C20CC281
:1043A600101263CCC2039000C9E0FEA3E0FFE4FC58
:1043B600FD124E3B80929000C9E0FEA3E0FFE4FCB4
:1043C600FD124E3B7B017A0079C9752F02E4FD127E
:1043D600001E9000C9E0FEA3E0FF9000C2E02FFFA0
:1043E6009000C1E03EFE9000E0E0FCA3E0FDC3EFDC
:1043F6009DFFEE9CFE9000C1F0A3EFF09000D6E08A
:10440600FCA3E0FDC3EF9DFFEE9C9000BBF0A3EF85
:10441600F09000DCE0F5E6A3E0F5E7A3E0FFF5A801
:024426008FA85D
:014428002271
:10317800C20C9000E8E5E6F0A3E5E7F0A3E5A8F0C7
:10318800E4F5A8F5A8F5E6F5E77F78125A35EF6477
:1031980078600302335B200C077F1412630BD20C98
:1031A8009000AEE0FEA3E0FFEE3395E0FDFC90005A
:1031B800E4121447E49000AEF0A3F07F87125A356A
:1031C800EF6487601F20031C1256FF9000DC121466
:1031D800479000DCE0FCA3E0FDA3E0FEA3E0FF12C3
:1031E80048E280D720037CE47FC47E09FDFC900080
:1031F800DCE0F8A3E0F9A3E0FAA3E0FBD31213C0E4
:1032080050197F3C7EF67DFF7CFF9000DCE0F8A340
:10321800E0A3E0A3E0C31213C050159000E4E0A3BC
:10322800E0A3E0FFA3E09000AECFF0A3EFF080139F
:103238009000DCE0A3E0A3E0FFA3E09000AECFF0B5
:10324800A3EFF01256FF9000DC1214479000DCE068
:10325800FCA3E0FDA3E0FEA3E0FF1248E21263CC6A
:1032680002335B1263CCC20C7F87125A35EF648736
:103278006008125EA71248E280EE7F78125A35EF96
:1032880064786035200C077F1412630BD20C30036E
:10329800E99000E4E0A3E0A3E0FFA3E09000AECF54
:1032A800F0A3EFF01263CC9000E8E0F5E6A3E0F5B8
:1032B800E7A3E0FFF5A88FA8221263CC7F87125AF4
:1032C80035BF87F87FB8125A35EF64B86051200CC3
:1032D800077F1412630BD20C3003289000E4E0A39C
:1032E800E0A3E0FFA3E09000AECFF0A3EFF01263FD
:1032F800CC9000E8E0F5E6A3E0F5E7A3E0FFF5A849
:103308008FA822125EA79000E01214479000E0E018
:10331800FCA3E0FDA3E0FEA3E0FF12621180A5126A
:1033280063CC7F47125A35BF47F89000E0E0FCA312
:10333800E0FDA3E0FEA3E0FF90009D121447E49097
:1033480000AEF0A3F07B017A00799D752F047D0211
:1033580012001E9000E8E0F5E6A3E0F5E7A3E0FF21
:04336800F5A88FA88D
:01336C00223E
:102D4C00C20CC20DE4F5289000C3F01263CC9000C5
:102D5C00C9E0FEA3E0FF9000E0EEF0A3EFF0E4FC8E
:102D6C00FD1248E27F0F125A35BF0FF830030302F1
:102D7C002EBEE52864B87003022EBE200C077FC857
:102D8C0012630BD20C7F07125A358F28E528B4F842
:102D9C0003E4F527E52864D870651263CCC20CE512
:102DAC0027C3942850020527E527C3940A50109096
:102DBC0000CAE004F070069000C9E004F0803CE525
:102DCC0027C3941450109000CAE0240AF09000C954
:102DDC00E03400F08025E527C3941E50109000CA03
:102DEC00E02464F09000C9E03400F0800E9000CA3A
:102DFC00E024F4F09000C9E03401F0D20D8069E5D4
:102E0C002864E870631263CCC20CE527C394285085
:102E1C00020527E527C3940A50109000CAE024FF4E
:102E2C00F09000C9E034FFF0803CE527C3941450C7
:102E3C00109000CAE024F6F09000C9E034FFF08056
:102E4C0025E527C3941E50109000CAE0249CF090F6
:102E5C0000C9E034FFF0800E9000CAE0240CF09022
:102E6C0000C9E034FEF0D20D9000C9E0FEA3E0FFF3
:102E7C00E4FCFD7BE87AFDF9F8C31213C0500C900A
:102E8C0000C97455F0A374F0F08016C39000CAE02A
:102E9C0094F09000C9E09455500774FDF0A374E8C9
:102EAC00F09000C9E0FEA3E0FFE4FCFD1248E20252
:102EBC002D781263CCC20C7F47125A35BF47F830BD
:102ECC0003109000E0E0FFA3E09000C9CFF0A3EF67
:102EDC00F022200D03022F747FC812630B9000C9DF
:102EEC00E0FEA3E0FF9000C2E02FFF9000C1E03EA7
:102EFC00FE9000E0E0FCA3E0FDC3EF9DFFEE9CFE26
:102F0C009000C1F0A3EFF09000D6E0FCA3E0FDC36D
:102F1C00EF9DFFEE9C9000BBF0A3EFF020033390ED
:102F2C0000C3E06414602B7B017A0079C9752F0211
:102F3C00E4FD12001E9000C3EFF0BF84077F8412E3
:102F4C0014C280D89000C3E0B485D17F851214C21E
:102F5C0080CA9000C3E0B4140F7F2D1214C27FFA04
:082F6C001200037FFA120003BA
:012F7400223A
:103D7900C20CC20DE4F5291263CCE49000C3F090A3
:103D890000CCE0FFF5277E00124F3E7F0F125A3517
:103D9900BF0FF8300303023E65E52964B8700302DA
:103DA9003E65200C077FC812630BD20C7F07125A9D
:103DB900358F29E529B4F803E4F528E52964D87095
:103DC900381263CCC20CE528C3942850020528E5B3
:103DD90028C3940A50089000CCE004F08017E52825
:103DE900C3941450099000CCE02402F0800790009D
:103DF900CCE02405F0D20D803CE52964E870361248
:103E090063CCC20CE528C3942850020528E528C3D1
:103E1900940A50089000CCE014F08017E528C39468
:103E29001450099000CCE024FEF080079000CCE00B
:103E390024FBF0D20D9000CCE0FFD394C840057468
:103E49005AF0800BEFD3945A4005E49000CCF090DF
:103E590000CCE0FF7E00124F3E023D9C1263CCC2B3
:103E69000C7F47125A35BF47F83003079000CCE55D
:103E790027F022300D6D7FC812630B20034F90008D
:103E8900C3E0641460479000CCE0FCE412103D7B71
:103E9900CD7ACC798C783F120E8D1210719000A2D8
:103EA900EFF07B017A0079CC752F017D0612001E97
:103EB9009000C3EFF0BF84077F841214C280BC90C6
:103EC90000C3E0B485B57F851214C280AE9000C3EB
:103ED900E0B4140F7F2D1214C27FFA1200037FFA87
:033EE900120003C1
:013EEC0022B3
:10336D00C20CC20DE4F5289000D6E0F529A3E0F5D6
:10337D002A1263CCE49000C3F09000D6E0FEA3E0E7
:10338D00FFE4FCFD1248E27F0F125A35BF0FF830F3
:10339D0003030234B7E52864B870030234B7200C78
:1033AD00077FC812630BD20C7F07125A358F28E5A1
:1033BD0028B4F803E4F527E52864D870551263CCDA
:1033CD00C20CE527C3941E50020527E527C3940AB6
:1033DD0050109000D7E004F070069000D6E004F095
:1033ED00802CE527C3941450109000D7E0240AF0E8
:1033FD009000D6E03400F08015E527D3941E500ED2
:10340D009000D7E02464F09000D6E03400F0D20DA7
:10341D008059E52864E870531263CCC20CE527C3CC
:10342D00941E50020527E527C3940A50109000D72B
:10343D00E024FFF09000D6E034FFF0802CE527C3A8
:10344D00941450109000D7E024F6F09000D6E0349C
:10345D00FFF08015E527D3941E500E9000D7E02481
:10346D009CF09000D6E034FFF0D20D9000D6E0FE37
:10347D00A3E0FFD39410EE9427400B9000D6E4F018
:10348D00A37464F08013C3EF9464EE9400500A901B
:10349D0000D67427F0A37410F09000D6E0FEA3E0E0
:1034AD00FFE4FCFD1248E202339C1263CCC20C7F98
:1034BD0047125A35BF47F830030B9000D6E529F077
:1034CD00A3E52AF022300D6C7FC812630B20033365
:1034DD009000C3E06414602B7B017A0079D6752FC0
:1034ED00027D0712001E9000C3EFF0BF84077F849A
:1034FD001214C280D89000C3E0B485D17F85121418
:10350D00C280CA9000C3E0B4140F7F2D1214C27F85
:10351D00FA1200037FFA1200039000D6E0FEA3E03A
:10352D00FFC39000C2E09FFF9000C1E09E9000BBE2
:04353D00F0A3EFF018
:013541002267
:104D3600C20CC20DE4F5279000C8E0F528E4900007
:104D4600C3F01263CC9000C8E0FF1214C27F0F12AA
:104D56005A35BF0FF8200371E52764B8606B200C45
:104D6600077FC812630BD20C7F07125A358F27E5CF
:104D760027B4D8241263CCC20C9000C8E0FF64AA02
:104D86006004EFB45508EFF49000C8F08006900078
:104D9600C874AAF0D20D8027E527B4E8221263CCA6
:104DA600C20C9000C8E0FF64556004EFB4AA08EF97
:104DB600F49000C8F080069000C87455F0D20D90AB
:104DC60000C8E0FF1214C2808C1263CCC20C7F476D
:104DD600125A35BF47F83003079000C8E528F0227D
:104DE600300D517FC812630B2003339000C3E0647B
:104DF60014602B7B017A0079C8752F017D0912009A
:104E06001E9000C3EFF0BF84077F841214C280D8BF
:104E16009000C3E0B485D17F851214C280CA900089
:104E2600C3E0B4140F7F2D1214C27FFA1200037F61
:044E3600FA12000369
:014E3A002255
:102F7500C20CC20DE4F5289000A7E0FFA3E0900085
:102F8500E0CFF0A3EFF0E49000C3F01263CC900023
:102F9500A7E0FEA3E0FFEE3395E0FDFC1248E27FDB
:102FA5000F125A35BF0FF83003030230C1E528640C
:102FB500B870030230C1200C077FC812630BD20C16
:102FC5007F07125A358F28E528B4F803E4F527E57D
:102FD5002864D8704E1263CCC20CE527C3942850E0
:102FE500020527E527C3940A50109000A8E004F0D5
:102FF50070069000A7E004F08025E527C3941450DF
:10300500109000A8E0240AF09000A7E03400F080BA
:103015000E9000A8E02464F09000A7E03400F0D200
:103025000D8052E52864E8704C1263CCC20CE5278C
:10303500C3942850020527E527C3940A5010900031
:10304500A8E024FFF09000A7E034FFF08025E527F5
:10305500C3941450109000A8E024F6F09000A7E067
:1030650034FFF0800E9000A8E0249CF09000A7E0CB
:1030750034FFF0D20D9000A7E0FEA3E0FFD394C487
:10308500EE64809489400C9000A774F6F0A3743C1C
:10309500F08015C3EF943CEE64809476500A90005E
:1030A500A77409F0A374C4F09000A7E0FEA3E0FFA5
:1030B500EE3395E0FDFC1248E2022FAC1263CCC260
:1030C5000C7F47125A35BF47F83003109000E0E0F7
:1030D500FFA3E09000A7CFF0A3EFF022200D03029D
:1030E50031777FC812630B9000A7E0FEA3E0FF9045
:1030F50000C2E02FFF9000C1E03EFE9000E0E0FC42
:10310500A3E0FDC3EF9DFFEE9CFE9000C1F0A3EF91
:10311500F09000D6E0FCA3E0FDC3EF9DFFEE9C9090
:1031250000BBF0A3EFF02003339000C3E06414600C
:103135002B7B017A0079A7752F027D0A12001E905C
:1031450000C3EFF0BF84077F841214C280D89000BB
:10315500C3E0B485D17F851214C280CA9000C3E054
:10316500B4140F7F2D1214C27FFA1200037FFA12D6
:02317500000355
:013177002235
:10442900C20CC20DE4F5279000A1E0F5281263CC77
:10443900E49000C3F09000A1E0FF1214C27F0F12B4
:104449005A35BF0FF8200371E52764B8606B200C5B
:10445900077FC812630BD20C7F07125A358F27E5E5
:1044690027B4D8241263CCC20C9000A1E0FF64AA3F
:104479006004EFB45508EFF49000A1F080069000B5
:10448900A174AAF0D20D8027E527B4E8221263CCE3
:10449900C20C9000A1E0FF64556004EFB4AA08EFD4
:1044A900F49000A1F080069000A17455F0D20D900F
:1044B90000A1E0FF1214C2808C1263CCC20C7F47AA
:1044C900125A35BF47F83003079000A1E528F022BA
:1044D900200D030245617FC812630B20036490001D
:1044E900C3E06414605C9000CD7455F07B017A00E0
:1044F90079A1752F017D0C12001E9000C3EFF0BF4A
:1045090084077F841214C280D29000C3E0B4850767
:104519007F851214C280C47B017A0079CD752F0181
:104529007D1012001E9000C3EFF0BF84077F841234
:1045390014C280A79000C3E0B485A07F851214C27D
:1045490080999000C3E0B4140F7F2D1214C27FFA32
:084559001200037FFA120003B7
:014561002237
:10503800C20CC20D90009CE0F527E4F5281263CC61
:10504800E49000C3F090009CE0FF7E00124F3E7F8A
:105058000F125A35BF0FF8200363E52864B8605D66
:10506800200C077FC812630BD20C7F07125A358FAA
:1050780028E528B4D80F1263CCC20C90009CE00439
:10508800F0D20D8012E528B4E80D1263CCC20C9062
:10509800009CE014F0D20D90009CE0FFD394C8402F
:1050A80005740AF0800BEFD3940A4005E490009C45
:1050B800F090009CE0FF7E00124F3E809A1263CC75
:1050C800C20C7F47125A35BF47F830030790009C3F
:1050D800E527F022300D517FC812630B200333906F
:1050E80000C3E06414602B7B017A00799C752F0162
:1050F8007D0D12001E9000C3EFF0BF84077F84125D
:1051080014C280D89000C3E0B485D17F851214C240
:1051180080CA9000C3E0B4140F7F2D1214C27FFA26
:085128001200037FFA120003DC
:01513000225C
:10354200C20CC20DE4F5289000C4E0FFA3E0900095
:10355200E0CFF0A3EFF0E49000C3F01263CC900050
:10356200C4E0FEA3E0FFEE3395E0FDFC1248E27FEB
:103572000F125A35BF0FF830030302368EE5286466
:10358200B8700302368E200C077FC812630BD20C70
:103592007F07125A358F28E528B4F803E4F527E5AA
:1035A2002864D8704E1263CCC20CE527C39428500D
:1035B200020527E527C3940A50109000C5E004F0E5
:1035C20070069000C4E004F08025E527C3941450EF
:1035D200109000C5E0240AF09000C4E03400F080AE
:1035E2000E9000C5E02464F09000C4E03400F0D2F4
:1035F2000D8052E52864E8704C1263CCC20CE527BA
:10360200C3942850020527E527C3940A501090005E
:10361200C5E024FFF09000C4E034FFF08025E527E8
:10362200C3941450109000C5E024F6F09000C4E05A
:1036320034FFF0800E9000C5E0249CF09000C4E0BE
:1036420034FFF0D20D9000C4E0FEA3E0FFD394C497
:10365200EE64809489400C9000C474F6F0A3743C2C
:10366200F08015C3EF943CEE64809476500A90008B
:10367200C47409F0A374C4F09000C4E0FEA3E0FF98
:10368200EE3395E0FDFC1248E20235791263CCC2BA
:103692000C7F47125A35BF47F83003109000E0E024
:1036A200FFA3E09000C4CFF0A3EFF022300D517FD2
:1036B200C812630B2003339000C3E06414602B7BB9
:1036C200017A0079C4752F027D0E12001E9000C38C
:1036D200EFF0BF84077F841214C280D89000C3E049
:1036E200B485D17F851214C280CA9000C3E0B4149D
:1036F2000F7F2D1214C27FFA1200037FFA12000309
:0137020022A4
:10456200C20CC20DE4F5279000CDE0F5281263CC11
:10457200E49000C3F09000CDE0FF1214C27F0F124E
:104582005A35BF0FF8200371E52764B8606B200C21
:10459200077FC812630BD20C7F07125A358F27E5AB
:1045A20027B4D8241263CCC20C9000CDE0FF64AAD9
:1045B2006004EFB45508EFF49000CDF0800690004F
:1045C200CD74AAF0D20D8027E527B4E8221263CC7D
:1045D200C20C9000CDE0FF64556004EFB4AA08EF6E
:1045E200F49000CDF080069000CD7455F0D20D907D
:1045F20000CDE0FF1214C2808C1263CCC20C7F4744
:10460200125A35BF47F83003079000CDE528F02253
:10461200200D0302469A7FC812630B2003649000A8
:10462200C3E06414605C9000A17455F07B017A00D1
:1046320079A1752F017D0C12001E9000C3EFF0BF0F
:1046420084077F841214C280D29000C3E0B485072D
:104652007F851214C280C47B017A0079CD752F0147
:104662007D1012001E9000C3EFF0BF84077F8412FA
:1046720014C280A79000C3E0B485A07F851214C243
:1046820080999000C3E0B4140F7F2D1214C27FFAF8
:084692001200037FFA1200037D
:01469A0022FD
:10370300C20CC20DE4F528900084E0FFA3E0900012
:10371300E0CFF0A3EFF0E49000C3F01263CC90008D
:1037230084E0FEA3E0FFE4FCFD1248E27F0F125A9F
:1037330035BF0FF8300303023842E52864B870033D
:10374300023842200C077FC812630BD20C7F07128A
:103753005A358F28E528B4F803E4F527E52864D81B
:10376300704E1263CCC20CE527C394285002052780
:10377300E527C3940A5010900085E004F07006908A
:103783000084E004F08025E527C3941450109000D2
:1037930085E0240AF0900084E03400F0800E90006D
:1037A30085E02464F0900084E03400F0D20D805270
:1037B300E52864E8704C1263CCC20CE527C3942857
:1037C30050020527E527C3940A5010900085E02492
:1037D300FFF0900084E034FFF08025E527C39414C4
:1037E3005010900085E024F6F0900084E034FFF060
:1037F300800E900085E0249CF0900084E034FFF07C
:10380300D20D900084E0FEA3E0FFD394ACEE9426A7
:10381300400C9000847405F0A374DCF08010D3EFA7
:1038230094DCEE94054007E4900084F0A3F090004C
:1038330084E0FEA3E0FFE4FCFD1248E20237371206
:1038430063CCC20C7F47125A35BF47F83003109040
:1038530000E0E0FFA3E0900084CFF0A3EFF022307C
:103863000D517FC812630B2003339000C3E064142F
:10387300602B7B017A007984752F027D1112001E63
:103883009000C3EFF0BF84077F841214C280D890E6
:1038930000C3E0B485D17F851214C280CA9000C3EF
:1038A300E0B4140F7F2D1214C27FFA1200037FFAC3
:0338B300120003FD
:0138B60022EF
:1041A000C20CC20DE4F528900083E09000E0F0E43A
:1041B0009000C3F01263CC900083E0FF7E00124FAA
:1041C0003E7F0F125A35BF0FF8300303024278E5E5
:1041D0002864B87003024278200C077FC812630B72
:1041E000D20C7F07125A358F28E528B4F803E4F57E
:1041F00027E52864D870381263CCC20CE527C39435
:104200002850020527E527C3940A5008900083E050
:1042100004F08017E527C394145009900083E0242C
:1042200002F08007900083E02404F0D20D803CE58A
:104230002864E870361263CCC20CE527C39428507A
:10424000020527E527C3940A5008900083E014F084
:104250008017E527C394145009900083E024FEF0F2
:104260008007900083E024FCF0D20D900083E0FFF3
:104270007E00124F3E0241C91263CCC20C7F47122E
:104280005A35BF47F83003099000E0E0900083F012
:1042900022300D517FC812630B2003339000C3E01E
:1042A0006414602B7B017A007983752F017D1312D2
:1042B000001E9000C3EFF0BF84077F841214C280F9
:1042C000D89000C3E0B485D17F851214C280CA9013
:1042D00000C3E0B4140F7F2D1214C27FFA12000342
:0542E0007FFA1200034B
:0142E50022B6
:104B1800C20CC20DE4F5279000C7E0F528E4900028
:104B2800C3F01263CC9000C7E0FF1214C27F0F12CB
:104B38005A35BF0FF8200371E52764B8606B200C65
:104B4800077FC812630BD20C7F07125A358F27E5EF
:104B580027B4D8241263CCC20C9000C7E0FF64AA23
:104B68006004EFB45508EFF49000C7F08006900099
:104B7800C774AAF0D20D8027E527B4E8221263CCC7
:104B8800C20C9000C7E0FF64556004EFB4AA08EFB8
:104B9800F49000C7F080069000C77455F0D20D90CD
:104BA80000C7E0FF1214C2808C1263CCC20C7F478E
:104BB800125A35BF47F83003079000C7E528F0229E
:104BC800300D5B7FC812630B9001801214530000F4
:104BD80000002003339000C3E06414602B7B017A4B
:104BE8000079C7752F017D1412001E9000C3EFF0E5
:104BF800BF84077F841214C280D89000C3E0B485B4
:104C0800D17F851214C280CA9000C3E0B4140F7F0C
:0E4C18002D1214C27FFA1200037FFA1200035D
:014C2600226B
:10285F002010077FC812630BD2109000FEE0FF120A
:10286F0014C27F07125A359000DFEFF064F860054D
:10287F001263CCC2109000DFE0FFB4B803D20F2276
:10288F009000FEE024DFB40C004003022AEA9028F7
:10289F00AB75F003A4C58325F0C583730228CF025F
:1028AF0028FB02292A0229590229880229B702295D
:1028BF00E6022A15022A44022A72022A9B022AC41D
:1028CF00EFB4F006122D4C022AEA9000DFE0FFB4BD
:1028DF00E8099000FE7422F0022AEAEF64D8600340
:1028EF00022AEA9000FE742CF0022AEA9000DFE040
:1028FF00B4F006123D79022AEA9000DFE0FFB4E857
:10290F00099000FE7423F0022AEAEF64D8600302F4
:10291F002AEA9000FE7421F0022AEA9000DFE0B468
:10292F00F00612336D022AEA9000DFE0FFB4E809E7
:10293F009000FE7424F0022AEAEF64D86003022AA2
:10294F00EA9000FE7422F0022AEA9000DFE0B4F071
:10295F0006124D36022AEA9000DFE0FFB4E8099034
:10296F0000FE7425F0022AEAEF64D86003022AEA17
:10297F009000FE7423F0022AEA9000DFE0B4F00624
:10298F00122F75022AEA9000DFE0FFB4E8099000E9
:10299F00FE7426F0022AEAEF64D86003022AEA9056
:1029AF0000FE7424F0022AEA9000DFE0B4F0061271
:1029BF004429022AEA9000DFE0FFB4E8099000FE04
:1029CF007427F0022AEAEF64D86003022AEA900023
:1029DF00FE7425F0022AEA9000DFE0B4F0061250F0
:1029EF0038022AEA9000DFE0FFB4E8099000FE7495
:1029FF0028F0022AEAEF64D86003022AEA9000FE68
:102A0F007426F0022AEA9000DFE0B4F00612354295
:102A1F00022AEA9000DFE0FFB4E8099000FE742973
:102A2F00F0022AEAEF64D86003022AEA9000FE74EB
:102A3F0027F0022AEA9000DFE0B4F00612456202A6
:102A4F002AEA9000DFE0FFB4E8099000FE742AF054
:102A5F00022AEAEF64D86003022AEA9000FE742883
:102A6F00F080789000DFE0B4F005123703806C90AF
:102A7F0000DFE0FFB4E8089000FE742BF0805CEFFD
:102A8F0064D870579000FE7429F0804F9000DFE0FB
:102A9F00B4F0051241A080439000DFE0FFB4E808D6
:102AAF009000FE742CF08033EF64D8702E9000FEEF
:102ABF00742AF080269000DFE0B4F005124B1880E6
:102ACF001A9000DFE0FFB4E8089000FE7421F08058
:0D2ADF000AEFB4D8069000FE742BF0C20F71
:012AEC0022C7
:10227200C20CC20DE4F5279000B2E0FCA3E0FDA37E
:10228200E0FEA3E0FF9000E0121447E49000C3F0E8
:102292001263CC9000B2E0FCA3E0FDA3E0FEA3E059
:1022A200FF1248E27F0F125A35BF0FF830030302C4
:1022B2002501E52764B87003022501200C077FC8B9
:1022C20012630BD20C7F07125A358F27E52764D889
:1022D20060030223DE1263CCC20C7FA07E867D01E6
:1022E2007C009000B2E0F8A3E0F9A3E0FAA3E0FBDF
:1022F200C31213D6700D9000B2121453000557305A
:102302000223D97FF07E497D027C009000B2E0F882
:10231200A3E0F9A3E0FAA3E0FBC31213D6700D9079
:1023220000B2121453000186A00223D97F407E0D11
:102332007D037C009000B2E0F8A3E0F9A3E0FAA3E9
:10234200E0FBC31213D6700D9000B21214530002B8
:1023520049F00223D97F907ED07D037C009000B2A9
:10236200E0F8A3E0F9A3E0FAA3E0FBC31213D670EE
:102372000C9000B212145300030D40805A7FE07E8D
:10238200937D047C009000B2E0F8A3E0F9A3E0FAA8
:10239200A3E0FBC31213D6700C9000B212145300C8
:1023A20003D09080327F307E577D057C009000B252
:1023B200E0F8A3E0F9A3E0FAA3E0FBC31213D6709E
:1023C2000C9000B2121453000493E0800A9000B201
:1023D200121453000186A0D20D0224EDE52764E811
:1023E20060030224ED1263CCC20CC20C7FA07E8675
:1023F2007D017C009000B2E0F8A3E0F9A3E0FAA32B
:10240200E0FBC31213D6700D9000B21214530002F7
:1024120049F00224EB7FF07E497D027C009000B2FD
:10242200E0F8A3E0F9A3E0FAA3E0FBC31213D6702D
:102432000D9000B212145300030D400224EB7F40B2
:102442007E0D7D037C009000B2E0F8A3E0F9A3E0EA
:10245200FAA3E0FBC31213D6700D9000B21214530C
:102462000003D0900224EB7F907ED07D037C00900D
:1024720000B2E0F8A3E0F9A3E0FAA3E0FBC3121371
:10248200D6700C9000B2121453000493E0805A7F6D
:10249200E07E937D047C009000B2E0F8A3E0F9A313
:1024A200E0FAA3E0FBC31213D6700C9000B2121430
:1024B200530005573080327F307E577D057C009077
:1024C20000B2E0F8A3E0F9A3E0FAA3E0FBC3121321
:1024D200D6700C9000B2121453000186A0800A90AC
:1024E20000B212145300055730D20D9000B2E0FC36
:1024F200A3E0FDA3E0FEA3E0FF1248E20222AE1237
:1025020063CCC20C7F47125A35BF47F8300315908F
:1025120000E0E0FCA3E0FDA3E0FEA3E0FF9000B238
:1025220012144722300D517FC812630B20033390DF
:1025320000C3E06414602B7B017A0079B2752F042A
:102542007D1512001E9000C3EFF0BF84077F841236
:1025520014C280D89000C3E0B485D17F851214C222
:1025620080CA9000C3E0B4140F7F2D1214C27FFA08
:082572001200037FFA120003BE
:01257A00223E
:1047C0009000AEE0FEA3E0FFEE3395E0FDFC90002C
:1047D000E012144790009DE0FCA3E0FDA3E0FEA3DF
:1047E000E0FF9000E4121447C20C1263CCE4900086
:1047F000AEF0A3F07F0F125A35EF640F6008125E1F
:10480000A71248E280EE7FC812630B2003087F786E
:10481000125A35BF78F52003397FC812630B200385
:10482000087F87125A35BF87F52003261263CC1202
:104830005EA790009D1214477FC812630B7FB812C9
:104840005A35EF64B8600B2003081256FF1262114C
:1048500080EB3003289000E4E0FCA3E0FDA3E0FE41
:10486000A3E0FF90009D1214479000E0E0A3E0A3B6
:10487000E0FFA3E09000AECFF0A3EFF0227F47125D
:104880005A35BF47F81256FF1248E27F6412000300
:104890007FC812630B2003339000C3E06414602BC5
:1048A0007B017A00799D752F047D0212001E900015
:1048B000C3EFF0BF84077F841214C280D89000C376
:1048C000E0B485D17F851214C280CA9000C3E0B4E1
:1048D000140F7F2D1214C27FFA1200037FFA120008
:0148E00003D4
:0148E10022B4
:101A6A00E49000E2F09000BDE0FCA3E0FDA3E0FEFC
:101A7A00A3E0FF9000E71214479000A3E0FCA3E064
:101A8A00FDA3E0FEA3E0FF9000EB1214471263CC23
:101A9A00C2039000C374FFF0E49000E0F012629673
:101AAA009000E0E004F0E0C3941340F17F0F125A73
:101ABA0035BF0FF87FF0125A35EF64F07003021B3E
:101ACA007F9000C3E07003021B651262969000E3E8
:101ADA00121447E47F387E4AFDFC9000E3E0F8A345
:101AEA00E0F9A3E0FAA3E0FBC31213D650197F2E44
:101AFA001214C29000C3742EF07FF0125A35EF64AC
:101B0A00F0603D80F48039E47F307EF2FDFC900085
:101B1A00E3E0F8A3E0F9A3E0FAA3E0FBD31213D6BB
:101B2A0040197F2F1214C29000C3742FF07FF01255
:101B3A005A35EF64F0600980F48005E49000C3F040
:101B4A009000C3E07003021ACB7F0F125A35EF647C
:101B5A000F7003021ACB80F1021ACB9000E3E0FC6B
:101B6A00A3E0FDA3E0FEA3E0FF1248E29000C374E5
:101B7A00FFF0021ABE9000E3E0FCA3E0FDA3E0FE42
:101B8A00A3E0FF9000BD1214479000BDE0FCA3E063
:101B9A00FDA3E0FEA3E0FF9000A31214479000A368
:101BAA00E0FCA3E0FDA3E0FEA3E0FF1248E27F0F02
:101BBA00125A35BF0FF8E49000C3F0300303021D38
:101BCA00D89000E2E064B87003021DD82010077FA5
:101BDA00C812630BD2107F07125A359000E2EFF059
:101BEA00BFF805E49000E1F09000E2E064D86003F9
:101BFA00021CAF1263CCC2109000E1E0C3942850DB
:101C0A0003E004F09000E1E0FBC3940A5021900045
:101C1A00A3E0FCA3E0FDA3E0FEA3E02401FFE43E71
:101C2A00FEE43DFDE43CFC9000A31214478071EBF6
:101C3A00C3941450219000A3E0FCA3E0FDA3E0FEAE
:101C4A00A3E0240AFFE43EFEE43DFDE43CFC9000F0
:101C5A00A3121447804A9000E1E0C3941E502190D9
:101C6A0000A3E0FCA3E0FDA3E0FEA3E02464FFE4FC
:101C7A003EFEE43DFDE43CFC9000A31214478020A4
:101C8A009000A3E0FCA3E0FDA3E0FEA3E024F4FFA0
:101C9A00EE3401FEE43DFDE43CFC9000A31214473F
:101CAA00D20C021D789000E2E064E86003021D781D
:101CBA001263CCC2109000E1E0C394285003E00400
:101CCA00F09000E1E0FBC3940A50259000A3E0FCE9
:101CDA00A3E0FDA3E0FEA3E0C39401FFEE9400FE9F
:101CEA00ED9400FDEC9400FC9000A3121447807C54
:101CFA00EBC3941450259000A3E0FCA3E0FDA3E0FD
:101D0A00FEA3E0C3940AFFEE9400FEED9400FDECFE
:101D1A009400FC9000A312144780519000E1E0C3A4
:101D2A00941E50259000A3E0FCA3E0FDA3E0FEA3CF
:101D3A00E0C39464FFEE9400FEED9400FDEC940081
:101D4A00FC9000A312144780239000A3E0FCA3E0B8
:101D5A00FDA3E0FEA3E0C394F4FFEE9401FEED942C
:101D6A0000FDEC9400FC9000A3121447D20CE47F0F
:101D7A00607EEAFDFC9000A3E0F8A3E0F9A3E0FA94
:101D8A00A3E0FBD31213D6400C9000A31214530005
:101D9A00004E208025E47F207E4EFDFC9000A3E0CB
:101DAA00F8A3E0F9A3E0FAA3E0FBC31213D6500AA2
:101DBA009000A31214530000EA609000A3E0FCA371
:101DCA00E0FDA3E0FEA3E0FF1248E2021BC5126396
:101DDA00CCC2107F47125A35BF47F830032990000A
:101DEA00EBE0FCA3E0FDA3E0FEA3E0FF9000A3125A
:101DFA0014479000E7E0FCA3E0FDA3E0FEA3E0FFA8
:101E0A009000BD12144722300C627FC812630B2067
:101E1A0003449000C3E06414603C7B017A0079A318
:101E2A00752F047D1912001E9000C3EFF064146030
:101E3A0007E0FF1214C280D77B017A0079BD752FA3
:101E4A00047D2012001E9000C3EFF0641460C0E00D
:101E5A00FF1214C280B99000C3E0B4140F7F2D1290
:0C1E6A0014C27FFA1200037FFA1200037A
:011E76002249
:105597002010077FC812630BD2109000FCE0FF12A7
:1055A70014C27F07125A359000DFEFF064F86005E8
:1055B7001263CCC2109000DFE0FFB4B803D20F2211
:1055C7009000FCE024CE602D14605324027075EF28
:1055D700B4F005122272806C9000DFE0FFB4E80897
:1055E7009000FC7432F0805CEF64D870579000FC38
:1055F7007433F0804F9000DFE0B4F0051247C080AD
:10560700439000DFE0FFB4E8089000FC7433F080BB
:1056170033EF64D8702E9000FC7431F08026900030
:10562700DFE0B4F005121A6A801A9000DFE0FFB4D9
:10563700E8089000FC7431F0800AEFB4D8069000B7
:06564700FC7432F0C20FFA
:01564D00223A
:106234001263CC7F0F125A35BF0FF87F101214C2AD
:106244007FB8125A35EF64B86008125ACC1214C2DF
:0362540080EE22B7
:0F63BD007F0F125A35BF0FF89001007442F02283
:105F6100E4F52743B03E7F0F125A35BF0FF8E527FE
:105F710064B8602D7F07125A358F27E52764D860F2
:105F810005E527B4E80A7F37125A35BF37F8B2B1B1
:105F910030B1077F661214C280D47F611214C280AF
:0B5FA100CD7F47125A35BF47F8D2B140
:015FAC0022D2
:105FAD00E4F52743B03E7F0F125A35BF0FF8E527B2
:105FBD0064B8602D7F07125A358F27E52764D860A6
:105FCD0005E527B4E80A7F37125A35BF37F8B2B264
:105FDD0030B2077F671214C280D47F621214C28060
:0B5FED00CD7F47125A35BF47F8D2B2F3
:015FF8002286
:105FF900E4F52743B03E7F0F125A35BF0FF8E52766
:1060090064B8602D7F07125A358F27E52764D86059
:1060190005E527B4E80A7F37125A35BF37F8B2B316
:1060290030B3077F681214C280D47F631214C28010
:0B603900CD7F47125A35BF47F8D2B3A5
:016044002239
:10604500E4F52743B03E7F0F125A35BF0FF8E52719
:1060550064B8602D7F07125A358F27E52764D8600D
:1060650005E527B4E80A7F37125A35BF37F8B2B4C9
:1060750030B4077F691214C280D47F641214C280C1
:0B608500CD7F47125A35BF47F8D2B458
:0160900022ED
:10609100E4F52743B03E7F0F125A35BF0FF8E527CD
:1060A10064B8602D7F07125A358F27E52764D860C1
:1060B10005E527B4E80A7F37125A35BF37F8B2B57C
:1060C10030B5077F6A1214C280D47F651214C28072
:0B60D100CD7F47125A35BF47F8D2B50B
:0160DC0022A1
:1038B7002010077FC812630BD210900100E0FF129F
:1038C70014C27F07125A359000DFEFF064F86005E5
:1038D7001263CCC210900100E024C0B4070040037B
:1038E700023A669038F875F003A4C58325F0C583BE
:1038F7007302390D02393D02396D0239A10239D5FA
:10390700023A06023A379000DFE0B4F0041262345C
:10391700229000DFE0FFB4E8079001007441F02235
:10392700EFB4D8079001007441F022EF64B8600348
:10393700023A66D20F229000DFE0B4F0041263BDB2
:10394700229000DFE0FFB4E8079001007440F02206
:10395700EFB4D8079001007440F022EF64B8600319
:10396700023A66D20F229000DFE0B4F004125F61E2
:10397700229000DFE0FFB4E8079001007443F022D3
:10398700EFB4D8079001007446F022EF64B86003E3
:10399700023A669001007441F0229000DFE0B4F033
:1039A70004125FAD229000DFE0FFB4E8079001004A
:1039B7007444F022EFB4D8079001007442F022EF6C
:1039C70064B86003023A669001007441F0229000E7
:1039D700DFE0B4F004125FF9229000DFE0FFB4E803
:1039E700079001007445F022EFB4D80790010074E6
:1039F70043F022EF64B870679001007441F02290A1
:103A070000DFE0B4F004126045229000DFE0FFB46D
:103A1700E8079001007446F022EFB4D80790010040
:103A27007444F022EF64B870369001007441F022BC
:103A37009000DFE0B4F004126091229000DFE0FF15
:103A4700B4E8079001007442F022EFB4D807900160
:0F3A5700007445F022EFB4B8069001007441F0FE
:013A6600223D
:103EED00C20CC20DE4F52890009BE09000E0F0E4D8
:103EFD009000C3F01263CC90009BE0FF7E00124F48
:103F0D003E7F0F125A35BF0FF8300303023FE0E535
:103F1D002864B87003023FE0200C077FC812630BC2
:103F2D00D20C7F07125A358F28E528B4F803E4F533
:103F3D0027E52864D870381263CCC20CE527C394EA
:103F4D002850020527E527C3940A500890009BE0EE
:103F5D0004F08017E527C39414500990009BE024CA
:103F6D0005F0800790009BE0240AF0D20D803CE51F
:103F7D002864E870361263CCC20CE527C394285030
:103F8D00020527E527C3940A500890009BE014F022
:103F9D008017E527C39414500990009BE024FBF093
:103FAD00800790009BE024F6F0D20D90009BE0FF7F
:103FBD00D394C84005743CF0800CEFD3943C40067C
:103FCD0090009B7401F090009BE0FF7E00124F3E2D
:103FDD00023F161263CCC20C7F47125A35BF47F809
:103FED003003099000E0E090009BF022300D5B7FE4
:103FFD00C812630B2003339000C3E06414602B7B65
:10400D00017A00799B752F017D2412001E9000C34B
:10401D00EFF0BF84077F841214C280D89000C3E0F4
:10402D00B485D17F851214C280CA9000C3E0B41448
:10403D00197F2D1214C29000ADE0B4AA03123A6795
:0A404D007FFA1200037FFA1200034D
:014057002246
:104C2700C20CC20DE4F5279000ADE0F528E4900032
:104C3700C3F01263CC9000ADE0FF1214C27F0F12D5
:104C47005A35BF0FF8200371E52764B8606B200C55
:104C5700077FC812630BD20C7F07125A358F27E5DF
:104C670027B4D8241263CCC20C9000ADE0FF64AA2D
:104C77006004EFB45508EFF49000ADF080069000A3
:104C8700AD74AAF0D20D8027E527B4E8221263CCD1
:104C9700C20C9000ADE0FF64556004EFB4AA08EFC2
:104CA700F49000ADF080069000AD7455F0D20D90F1
:104CB70000ADE0FF1214C2808C1263CCC20C7F4798
:104CC700125A35BF47F83003079000ADE528F022A8
:104CD700300D5B7FC812630B2003339000C3E06481
:104CE70014602B7B017A0079AD752F017D251200A9
:104CF7001E9000C3EFF0BF84077F841214C280D8D0
:104D07009000C3E0B485D17F851214C280CA900099
:104D1700C3E0B414197F2D1214C29000ADE0B4AAF9
:0E4D270003123A677FFA1200037FFA120003AC
:014D3500225B
:105BE7002010077FC812630BD2109000FDE0FF1250
:105BF70014C27F07125A359000DFEFF064F8600592
:105C07001263CCC2109000FDE024C76030047058C6
:105C17009000DFE0B4F004123EED229000DFE0FFD9
:105C2700B4E8079000FD7439F022EFB4D80790006C
:105C3700FD7439F022EF64B8702ED20F229000DF86
:105C4700E0B4F004124C27229000DFE0FFB4E8072D
:105C57009000FD7438F022EFB4D8079000FD743837
:085C6700F022EFB4B802D20FE5
:015C6F002212
:1054CA007527FF7528637529EB2010077FC81263BB
:1054DA000BD2107F07125A359000DFEFF064F860A4
:1054EA00051263CCC210AB27AA28A9291211E89089
:1054FA005ED593FF7D2012007674012529F529E4F3
:10550A003528F528905F20E493FF7D101200767409
:10551A00012529F529E43528F528AB27FAA9291206
:10552A0011E8905ED593FF7D081200767401252953
:10553A00F529E43528F528AB27FAA9291211E890AC
:10554A005EFD93FF7D0412007674012529F529E496
:10555A003528F528AB27FAA9291211E8905ED593C8
:10556A00FF7D0212007674012529F529E43528F514
:10557A0028AB27FAA9291211E8905ED593FF7D017D
:0C558A001200769000DFE0B4B802D20FEF
:0155960022F2
:10257B002010077FC812630BD2109000FFE024FCE1
:10258B0070030226361470030226C314700302274D
:10259B00501470030227DD2406600302285E7FF0CF
:1025AB00125A35EF64F0702E1263CC9000FE74213A
:1025BB00F0C210C20F7F47125A35BF47F8200308ED
:1025CB00200F0512285F80F57F47125A35BF47F859
:1025DB007F171214C2227FE8125A35BFE8207F07FB
:1025EB00125A35BFF8F89000FF7404F0C203E49060
:1025FB0000C3F01263CCC2107F151214C2227FD815
:10260B00125A35EF64D8600302285E7F07125A35E1
:10261B00BFF8F89000FF7407F0C203E49000C3F01A
:10262B001263CCC2107F181214C2227FF0125A35DB
:10263B00EF64F0702E1263CC9000FC7431F0C2107A
:10264B00C20F7F47125A35BF47F8200308200F05EA
:10265B0012559780F57F47125A35BF47F87F1512F1
:10266B0014C2227FE8125A35BFE8207F07125A3571
:10267B00BFF8F89000FF7405F0C203E49000C3F0BC
:10268B001263CCC2107F161214C2227FD8125A3595
:10269B00EF64D8600302285E7F07125A35BFF8F843
:1026AB009000FF7401F0C203E49000C3F01263CCFE
:1026BB00C2107F171214C2227FF0125A35EF64F04A
:1026CB00702E1263CC9001007440F0C210C20F7FC9
:1026DB0047125A35BF47F8200308200F051238B7A9
:1026EB0080F57F47125A35BF47F87F161214C22266
:1026FB007FE8125A35BFE8207F07125A35BFF8F82A
:10270B009000FF7406F0C203E49000C3F01263CC98
:10271B00C2107F191214C2227FD8125A35EF64D817
:10272B00600302285E7F07125A35BFF8F89000FF4E
:10273B007404F0C203E49000C3F01263CCC2107FA8
:10274B00151214C2227FF0125A35EF64F0702E125C
:10275B0063CC9000FD7438F0C210C20F7F47125A41
:10276B0035BF47F8200308200F05125BE780F57F84
:10277B0047125A35BF47F87F191214C2227FE8124D
:10278B005A35BFE8207F07125A35BFF8F89000FF83
:10279B007407F0C203E49000C3F01263CCC2107F45
:1027AB00181214C2227FD8125A35EF64D860030274
:1027BB00285E7F07125A35BFF8F89000FF7405F0BA
:1027CB00C203E49000C3F01263CCC2107F16121444
:1027DB00C2227FF0125A35EF64F070281263CCC21C
:1027EB0010C20F7F47125A35BF47F8200308200F3E
:1027FB00051254CA80F57F47125A35BF47F87F1828
:10280B001214C2227FE8125A35BFE8207F07125AF2
:10281B0035BFF8F89000FF7401F0C203E49000C3D9
:10282B00F01263CCC2107F171214C2227FD8125A37
:10283B0035BFD81F7F07125A35BFF8F89000FF74C9
:10284B0006F0C203E49000C3F01263CCC2107F19F0
:04285B001214C2226F
:105B5D00C2109000DCE5E6F0A3E5E7F0A3E5A8F0C0
:105B6D00E4F5A8F5A8F5E6F5E77FF0125A35EF64F0
:105B7D00F070507F1412630B7F0F125A35EF640FC4
:105B8D00600B2003081256FF124E3B80EB3003339F
:105B9D001263CC7F111214C27F07125A35BFF8F869
:105BAD00C203E49000C3F09000FF04F07F171214BD
:105BBD00C220030F7FB8125A35EF64B86005122565
:105BCD007B80EE1263CCC2039000DCE0F5E6A3E02F
:095BDD00F5E7A3E0FFF5A88FA88D
:015BE600229C
:0A61D000010E04010F024101020854
:10632400E4F584758E02C2A9C28CC28EC28D7589B1
:056334001175840F2229
:10627700AF84758401E4F5C8F5C975CB4CF5CA85BB
:0E628700CBCD85CACCD2CAD2AF43E7018F84FB
:0162950022E6
:10639900AF84758402E4F5C8F5C975CB4CF5CA8F8D
:0163A900846F
:0163AA0022D0
:10634E00E4F584758CFE758A33D28C308DFDC28D4A
:04635E0075840F2211
:10630B00E4F584D2AFD2AB758D4CF58B9000C6EF14
:09631B00F0C203D28E75840F223A
:0B63CC00E4F584C2ABC28E75840F2282
:0B63D700E4F584C2A9C28C75840F227B
:10000300A2AFE433FEEF600612634E1F80F7126364
:06001300D7EE24FF92AFBE
:0100190022C4
:1062F100900082EFF0AF8475840285CBCD85CACC46
:09630100D2CAD2AF43E7048F8435
:01630A002270
:03001B000262B5C9
:1062B500C0E0C083C082758D4C758B009000C6E030
:0E62C50014F0E07002D203D082D083D0E03219
:03007300025CEB41
:105CEB00C0E0C0F0C083C082C0D075D000C000C07F
:105CFB0001C002C003C004C005C006C00730060DBA
:105D0B00D50E0AD51004C206D2B3750E0420050DAC
:105D1B009000B1E004F0B40804E4F0D205300B1CA1
:105D2B009000ADE0B4AA15900102E014F0700DC222
:105D3B00AF120086D2AF9001027408F0C2CFD00729
:105D4B00D006D005D004D003D002D001D000D0D0E3
:095D5B00D082D083D0F0D0E032F8
:03008300025C70AC
:105C7000C0E0C083C082C0D075D000C006C0071588
:105C80000FE50F7057900082E014F0704C30A514AF
:105C9000900084E0FEA3E0FF9000C2E02FF09000AF
:105CA000C1E03EF030A615900084E0FEA3E0FFC303
:105CB0009000C2E09FF09000C1E09EF0C2CA900048
:105CC000D6E0FEA3E0FFC39000C2E09FFF9000C1BA
:105CD000E09E9000BBF0A3EFF0750F02C2CFD0079B
:0B5CE000D006D0D0D082D083D0E032BC
:1063390075840FC2DE000000D2DEC2D8C2D9D2DA1B
:05634900C2DCD2DF22DE
:06564E008B418A428943F2
:10565400E4FBFAF547F546F545F544C2AF75840F0A
:10566400126339C2DF30DB110BBB00010AD3EB94A8
:1056740000EA940240EF7FFE22D2DF00C2DA00E4A7
:10568400FBEBC394185037AF47AE46AD45AC4478F6
:10569400011213FA8F478E468D458C4430DD17E591
:1056A400472401F547E43546F546E43545F545E438
:1056B4003544F544800100D2DC0BC2DC80C3D2DA6D
:1056C400D2AFAF47AE46AD45AC44AB41AA42A943C5
:1056D40012140DE4FFFEFDFCAB47AA46A945A844FD
:1056E400C31213D6600F74FFFFFEFD7C00A844C3F1
:0A56F4001213D670037FFE227F2DF3
:0156FE002289
:105131007B007A00793112564EEF642D60051263BF
:105141003980ED85343C85333B85323A853139856B
:10515100343885333785323685313585344085336A
:105161003F85323E85313DE4F5307B007A0079316F
:1051710012564EEF642D600512633980EDE540252E
:1051810034F540E53F3533F53FE53E3532F53EE553
:105191003D3531F53DAF3CAE3BAD3AAC39AB34AA10
:1051A10033A932A831D31213D6400E85343C85334E
:1051B1003B85323A8531398022AF38AE37AD36ACD6
:1051C10035AB34AA33A932A831C31213D6500C859A
:1051D10034388533378532368531350530E530C38E
:1051E10094114086C3E540953CF540E53F953BF57C
:1051F1003FE53E953AF53EE53D9539F53DC3E54040
:105201009538F540E53F9537F53FE53E9536F53E56
:10521100E53D9535F53DAF40AE3FAD3EFC7804121E
:0252210013E791
:015223002268
:105312007B007A00792C12564EBF2DF4852F3785EB
:105322002E36852D35852C34852F33852E32852DCD
:1053320031852C30852F3B852E3A852D39852C38A9
:10534200E4F52B7B007A00792C12564EBF2DF4E542
:105352003B252FF53BE53A352EF53AE539352DF566
:1053620039E538352CF538AF37AE36AD35AC34AB20
:105372002FAA2EA92DA82CD31213D6400E852F3773
:10538200852E36852D35852C348022AF33AE32AD55
:1053920031AC30AB2FAA2EA92DA82CC31213D65094
:1053A2000C852F33852E32852D31852C30052BE54A
:1053B2002BC39441408DC3E53B9537F53BE53A95C8
:1053C20036F53AE5399535F539E5389534F538C38A
:1053D200E53B9533F53BE53A9532F53AE5399531BA
:1053E200F539E5389530F538AF3BAE3AAD39FC7852
:0453F200061213E7A5
:0153F6002294
:1058FB008F338E328D318C309000D2E0F8A3E0F9EB
:10590B00A3E0FAA3E0FB9000A2E0FFE4FCFDFE1293
:10591B0012959000D21214479000D2E0F8A3E0F950
:10592B00A3E0FAA3E0FBC000C001C002C0039000DB
:10593B00A2E0FFC374649FFFE49400FEE4FCFDABA4
:10594B0033AA32A931A830121295D003D002D0015C
:10595B00D000EB2FFFEA3EFEE93DFDE83CFC90005A
:10596B00D21214479000D2E0FCA3E0FDA3E0FEA30B
:10597B00E0FFE47B64FAF9F81213209000D21214C2
:10598B00479000D2E0FCA3E0FDA3E0FEA3E0FF22E2
:105EA7001251311258FBE41210338F2F8E2E8D2D85
:105EB7008C2CAB2FAA2EA92DA82CC000C001C00284
:105EC700C0039000B2E0FCA3E0FDA3E0FEA3E0FF67
:105ED700E4121033D003D002D001D000120E8D8F00
:105EE7002F8E2E8D2D8C2C7BFF7AFF797F784B128E
:0D5EF7000F968F2F8E2E8D2D8C2C1210717A
:015F0400227A
:10629600125EA790009DE0F8A3E0F9A3E0FAA3E060
:0E62A600FBC3EF9BFFEE9AFEED99FDEC98FC1A
:0162B40022C7
:105857001253129000D21214479000D2E0FCA3E03A
:10586700FDA3E0FEA3E0FFE41210338F2A8E298DFB
:10587700288C27AB2AAA29A928A827C000C001C0BD
:1058870002C0039000B2E0FCA3E0FDA3E0FEA3E0AA
:10589700FFE4121033D003D002D001D000120E8DD6
:1058A7008F2A8E298D288C277BFF7AFF797F784B6B
:1058B700120F968F2A8E298D288C27C004C005C009
:1058C70006C00790009DE0FCA3E0FDA3E0FEA3E077
:1058D700FFEC121033A804A905AA06AB07D007D01E
:1058E70006D005D004120D988F2A8E298D288C2773
:0358F7001210711B
:0158FA00228B
:1056FF00126296EC1210338F2A8E298D288C27ABCD
:10570F002AAA29A928A827C000C001C002C0039057
:10571F0000A3E0FCA3E0FDA3E0FEA3E0FFE4121072
:10572F0033D003D002D001D000120E8D8F2A8E29D4
:10573F008D288C27C004C005C006C0079000BDE0AF
:10574F00FCA3E0FDA3E0FEA3E0FFE4121033A804E6
:10575F00A905AA06AB07D007D006D005D004120FB3
:10576F00968F2A8E298D288C27C004C005C006C0AD
:10577F00079000AEE0FCA3E0FDEC121038A804A9DE
:10578F0005AA06AB07D007D006D005D004120D9896
:0B579F008F2A8E298D288C2712107194
:0157AA0022DC
:1057AB00125857EC1210338F268E258D248C23AB79
:1057BB0026AA25A924A823C000C001C002C00390BB
:1057CB0000A3E0FCA3E0FDA3E0FEA3E0FFE41210C6
:1057DB0033D003D002D001D000120E8D8F268E2530
:1057EB008D248C23C004C005C006C0079000BDE00B
:1057FB00FCA3E0FDA3E0FEA3E0FFE4121033A8043A
:10580B00A905AA06AB07D007D006D005D004120F06
:10581B00968F268E258D248C23C004C005C006C010
:10582B00079000AEE0FCA3E0FDEC121038A804A931
:10583B0005AA06AB07D007D006D005D004120D98E9
:0B584B008F268E258D248C23121071F7
:01585600222F
:0561DA00C111010805E0
:1060DD00858425E4F584F5C875C908AB07AA06A91A
:1060ED0005A804FF7E807D517C01121320E47B10F6
:1060FD00FAF9F81213201213B28ECB8FCA85CBCDBD
:10610D0085CACCD2CAE4F5847598D0759115C2AC08
:05611D00D299852584E4
:01612200225A
:1062D3001511A811A607E4F5843099FDC299A811F8
:0E62E300E6FFA2D0929BF59975840F0511225B
:065D64008B598A5A895B8D
:105D6A00E4F560F584F55FF55EF55DF55C20983243
:105D7A002086037FA522E55F2401F55FE4355EF501
:105D8A005EE4355DF55DE4355CF55CE4FFFE7D08B7
:105D9A00FCAB5FAA5EA95DA85CD31213D640CE7F86
:105DAA00A522309821E599A2D0309A01B350037503
:105DBA006001AB59AA5AA95B12122EC298E4F55F88
:0B5DCA00F55EF55DF55C75840FAF60C1
:015DD50022AB
:103A6700C20EE4F52CF52BF52AF529F52F750C3246
:103A7700F509750D4290009BE090003CF0A3740699
:103A8700F0A374FAF0A37407F0A3741FF0A3742FC4
:103A9700F0A3741FF0A3742FF0A3741FF0A3742F67
:103AA700F0A3741FF0900054E50CF0A3E50DF0A30C
:103AB700E509F0E490006CF0F52D743C252DF582B6
:103AC700E43400F583E0FF90006CE02FF0052DE56E
:103AD7002DB430E6C287E4752C50752BC3F52AF553
:103AE70029782974FF121429EC4D4E4F70F3D287B1
:103AF700E4F52CF52BF52AF52930861678291214CA
:103B0700277B007AE079107800C31213D650EA7F3A
:103B1700A522E4F52D743C252DF582E43400F583C8
:103B2700E0FF1262D3052DE52DC3943140E7E4F59C
:103B37002CF52BF52AF52920861678291214277BD0
:103B4700007AE079107800C31213D650EA7FA522D5
:103B5700E4F52D7400252DF9E43400FA7B01125D9C
:103B6700648F2EE52E7009052DE52DC3943140E3B2
:103B7700E52E6003023ADBF52D7400252DF582E46E
:103B87003400F583E0252EF52E052DE52DB430E91B
:103B9700900030E0652E6003023ADB900000E0659C
:103BA700086003023ADBA3E06003023ADB752D02EB
:103BB7007400252DF582E43400F583E0B4AA0705E7
:103BC7002DE52DB430EAE52DB430048011800205CF
:103BD7002FE52FD394145003023ADB7F8B22E4F5B1
:103BE7002D7400252DF582E43400F583E4F0052DCE
:073BF700E52DB43CEC7F2D2D
:013BFE0022A4
:1063AB009000ADE0B4AA0A30B007C2AF123A67D280
:0263BB00AF220F
:106123009000ADE064AA703B90001FE030E02D903A
:10613300006CE020E02DE49000AEF0A3F0125EA727
:1061430090009D1214477B017A00799D752F047D81
:106153000212001E90006CE04401F02290006CE0FB
:0461630054FEF022D4
:105DD6009000ADE064AA70621262968F288E278DBD
:105DE600268C25752900752A00752B25AB29052BD0
:105DF600E52BAA2A7002052A14F91211E890006E02
:105E0600F0052BE52BAA2A7002052A14F91211E8CF
:105E160090006FF0052BE52BAA2A7002052A14F9CB
:105E26001211E8900070F0052BE52BAA2A700205E6
:0A5E36002A14F91211E8900071F02F
:015E4000223F
:10008600E4F548F555F554F553F552E50C14F50A23
:10009600E50D14F50BE490003CF07556017557001C
:1000A6007558C9AB560558E558AA57700205571436
:1000B600F91211E890003DF00558E558AA5770026C
:1000C600055714F91211E890003EF09000CCE0902C
:1000D600003FF07556017557007558D6AB56055852
:1000E600E558AA577002055714F91211E890004016
:1000F600F00558E558AA577002055714F91211E889
:10010600900041F09000C8E0900042F075560175ED
:1001160057007558A7AB560558E558AA57700205FB
:100126005714F91211E8900043F00558E558AA57FC
:100136007002055714F91211E8900044F09000A1DE
:10014600E0900045F090009CE0900046F075560166
:100156007557007558C4AB560558E558AA5770022E
:10016600055714F91211E8900047F00558E558AA0A
:10017600577002055714F91211E8900048F09000E4
:10018600CDE0900049F0755601755700755884AB5F
:10019600560558E558AA577002055714F91211E882
:1001A60090004AF00558E558AA577002055714F909
:1001B6001211E890004BF0900083E090004CF09014
:1001C60000C7E090004DF07556017557007558B29E
:1001D600AB560558E558AA577002055714F912117F
:1001E600E890004EF00558E558AA577002055714D6
:1001F600F91211E890004FF00558E558AA57700219
:10020600055714F91211E8900050F00558E558AA60
:10021600577002055714F91211E8900051F07556FF
:10022600017557007558BDAB560558E558AA577065
:1002360002055714F91211E8900052F00558E558D6
:10024600AA577002055714F91211E8900053F005E9
:1002560058E558AA577002055714F91211E890008C
:1002660054F00558E558AA577002055714F91211AB
:10027600E8900055F07556017557007558A3AB56B2
:100286000558E558AA577002055714F91211E89057
:100296000056F00558E558AA577002055714F9128A
:1002A60011E8900057F00558E558AA57700205570F
:1002B60014F91211E8900058F00558E558AA57703D
:1002C60002055714F91211E8900059F07556017598
:1002D600570075589DAB560558E558AA5770020544
:1002E6005714F91211E890005AF00558E558AA5724
:1002F6007002055714F91211E890005BF00558E5F5
:1003060058AA577002055714F91211E890005CF0CC
:100316000558E558AA577002055714F91211E890C6
:10032600005DF0E4900060F0A3F020B207A3E04483
:1003360080F08007900062E0547FF020B1099000C1
:1003460062E04440F08007900062E054BFF020B3C2
:1003560009900062E04420F08007900062E054DFDC
:10036600F020B409900062E04410F080079000622B
:10037600E054EFF020B509900062E04408F08007F1
:10038600900062E054F7F075560175570175588074
:10039600AB560558E558AA577002055714F91211BD
:1003A600E8900063F00558E558AA577002055714FF
:1003B600F91211E8900064F00558E558AA57700242
:1003C600055714F91211E8900065F00558E558AA8A
:1003D600577002055714F91211E8900066F0900064
:1003E600B0E0FF70067E097F098003EF14FF7E00F0
:1003F60074872FF9EE3400755601F5578958AB56B8
:100406000558E558AA577002055714F91211E890D5
:100416000067F00558E558AA577002055714F912F7
:1004260011E8900068F09000A9E0FCA3E0FDA3E0CD
:10043600FEA3E0FFEC335007E4F54AF54B80048E4B
:100446004A8F4B75560075570075584AAB56055876
:10045600E558AA577002055714F91211E890006979
:10046600F00558E558AA577002055714F91211E815
:1004760090006AF0743C250AF582E43400F583E4C2
:10048600F0F548E548C3950B501F743C2548F582A6
:10049600E43400F583E0FF743C250BF582E4340078
:1004A600F583E02FF0054880DAE4F555F554F55369
:1004B600F55230861678521214277B007AE07910AE
:1004C6007800C31213D650EA7FA522E4F548E54822
:1004D600C3950D5014743C2548F582E43400F58329
:1004E600E0FF1262D3054880E5E4F555F554F5536F
:1004F600F55220861678521214277B007AE079107E
:100506007800C31213D650EA7FA522E4F548E548E1
:10051600C3950C501874002548F9E43400FA7B01A1
:10052600125D648F49E5497004054880E1E549702C
:1005360037F549F548E548C3950A5014740025482F
:10054600F582E43400F583E02549F549054880E560
:100556007400250AF582E43400F583E065496005F8
:100566007549FC8003E4F549E5496002FF229000E5
:1005760020E030E204D2B1D2B2900020E030E102B5
:10058600D2B590001EE020E0030206A890006BE0C2
:1005960030E0030206AF75560075570075584A904D
:1005A6000001E0FFAB560558E558AA5770020557FB
:1005B60014F9EF12122E900002E0FFAB560558E533
:1005C60058AA577002055714F9EF12122EC3E54BBD
:1005D60094F0E54A9455406FAE4AAF4BE4FCFD7B80
:1005E600E87AFDF9F81213C0405D9000C2E0254B91
:1005F600FF9000C1E0354AFE9000C9E0FCA3E0FD93
:10060600C3EF9DFFEE9CFE9000C1F0A3EFF09000BB
:10061600D6E0FCA3E0FDC3EF9DFFEE9C9000BBF08F
:10062600A3EFF09000C9E54AF0A3E54BF01511A839
:100636001176027D007B017A0079C9124A0090008A
:100646005EE054BFF0800790005EE04440F090000A
:1006560003E0D3945A503BE09000CCF01511A8115A
:1006660076017D067B017A0079CC124A009000CC97
:10067600E0FCE412103D7BCD7ACC798C783F120EEB
:100686008D1210719000A2EFF090005EE0547FF0A2
:10069600800790005EE04480F090006BE04401F03B
:1006A600800790006BE054FEF090001EE020E1030E
:1006B60002078490006BE030E10302078B75560059
:1006C60075570075584A900004E0FFAB560558E58B
:1006D60058AA577002055714F9EF12122E9000050A
:1006E600E0FFAB560558E558AA577002055714F9AE
:1006F600EF12122EC3E54B9464E54A9400404AD3A8
:10070600E54B9410E54A9427503F9000D6E54AF011
:10071600A3E54BF09000D6E0FEA3E0FFC39000C235
:10072600E09FFF9000C1E09E9000BBF0A3EFF015A4
:1007360011A81176027D077B017A0079D6124A004C
:1007460090005EE054DFF0800790005EE04420F009
:10075600900006E064AA6004E0B45519900006E033
:100766009000C8F01511A81176017D097B017A0069
:1007760079C8124A0090006BE04402F080079000AE
:100786006BE054FDF090001EE020E203020A129096
:10079600006BE030E203020A1975560075570075C2
:1007A600584E900012E0FFAB560558E558AA577010
:1007B60002055714F9EF12122E900013E0FFAB5604
:1007C6000558E558AA577002055714F9EF12122E6C
:1007D600900014E0FFAB560558E558AA577002057D
:1007E6005714F9EF12122E900015E0FFAB5605587C
:1007F600E558AA577002055714F9EF12122E7FA07A
:100806007E867D017C00AB51AA50A94FA84EC3122B
:1008160013D660507FF07E497D027C00A84EC3123D
:1008260013D660407F407E0D7D037C00A84EC31228
:1008360013D660307F907ED07D037C00A84EC31215
:1008460013D660207FE07E937D047C00A84EC31201
:1008560013D660107F307E577D057C00A84EC312EC
:1008660013D67028AF51AE50AD4FAC4E9000B212B9
:1008760014471511A81176047D157B017A0079B20B
:10088600124A0090005FE0547FF0800790005FE01E
:100896004480F075560075570075584E900016E066
:1008A600FFAB560558E558AA577002055714F9EFDD
:1008B60012122E900017E0FFAB560558E558AA57BE
:1008C6007002055714F9EF12122E900018E0FFABD4
:1008D600560558E558AA577002055714F9EF121233
:1008E6002E900019E0FFAB560558E558AA5770023E
:1008F600055714F9EF12122EE47F387E4AFDFCAB41
:1009060051AA50A94FA84EC31213D64037E47F30E0
:100916007EF2FDFCA84ED31213D65028AF51AE502E
:10092600AD4FAC4E9000BD1214471511A8117604B8
:100936007D207B017A0079BD124A0090005FE05469
:10094600EFF0800790005FE04410F0755600755791
:100956000075584E90001AE0FFAB560558E558AAA8
:10096600577002055714F9EF12122E90001BE0FF84
:10097600AB560558E558AA577002055714F9EF12F9
:10098600122E90001CE0FFAB560558E558AA57708A
:1009960002055714F9EF12122E90001DE0FFAB5618
:1009A6000558E558AA577002055714F9EF12122E8A
:1009B600E47F207E4EFDFCAB51AA50A94FA84EC342
:1009C6001213D64037E47F607EEAFDFCA84ED312B0
:1009D60013D65028AF51AE50AD4FAC4E9000A31277
:1009E60014471511A81176047D197B017A0079A3A5
:1009F600124A0090005FE054F7F0800790005FE035
:100A06004408F090006BE04404F0800790006BE02F
:100A160054FBF090001EE020E303020B6790006B8E
:100A2600E030E303020B6E75560075570075584C9F
:100A3600900007E0FFAB560558E558AA5770020527
:100A46005714F9EF12122E900008E0FFAB56055826
:100A5600E558AA577002055714F9EF12122EC3E58E
:100A66004D943CE54C64809476406AD3E54D94C43D
