:030000000259A6FC
:1059A600787FE4F6D8FD9000007FFF7E01E4F0A347
:0A59B600DFFCDEFA7581580259FB90
:03645100C28322E1
:03645400D28322CE
:03645700C28222DC
:03645A00D28222C9
:0D00760012645A126454126457126451222D
:0A64400012645412645712645A22C9
:1063C800EF6005126457800312645A126454126411
:0263D800512250
:1063FE007F01126451126454308202E41F12645100
:01640E00226B
:10625B00E4FEEFA806088002C333D8FC30E7051232
:10626B00645A80031264571264541264510EBE08B0
:01627B00E141
:01627C0022FF
:10633100E4FF12645AFE126454EF25E0FF3082013B
:086341000F1264510EBE08EEBC
:016349002231
:03645D00D28422C4
:105C7B001511A811A605151115111511A811A603BB
:105C8B0008A60208A601C2847F0A1200031200763E
:105C9B007FA012625B1263FEEF7003FF8050E51171
:105CAB002403F8E6FF12625B1263FEEF7003FF80C2
:105CBB003DE5112404F8E6602EA811860308E6FAE8
:105CCB0008E6F91211D1FF12625B1263FEEF70034B
:105CDB00FF801BA8110808740126F618E436F6E5B8
:105CEB00112404F81680CA126440D2847FFDE5119A
:055CFB002405F5112253
:1057B8001511A811A605151115111511A811A60383
:1057C80008A60208A601E5112404F8161200767F3F
:1057D800A012625B1263FEEF7004FEFF8075E51194
:1057E8002403F8E6FF12625B1263FEEF7004FEFF0B
:1057F80080611200767FA112625B1263FEEF700473
:10580800FEFF804FE5112404F8E6602A126331A8F0
:1058180011860308E6FA08E6F9EF121217A811082C
:1058280008740126F618E436F6E5112404F8167F04
:10583800011263C880CE126331A811860308E6FA04
:1058480008E6F9EF121217E4FF1263C81264407EEB
:0A585800007FFDE5112405F5112283
:1063DA001511A811A62B1257B8BFFD037F13227FF0
:0163EA00832F
:0163EB00228F
:1055B3001511A811A605151115111511A811A6038A
:0C55C30008A60208A601E51124F7F51166
:1055CF00240DF8E61511A811F6E511240DF8E6FDE6
:1055DF00E511240AF8860308E6FA08E6F9125C7B5F
:1055EF00EF64FD7063E511240DF8E61511A811F6AF
:1055FF00E511240DF8E6FD7B00A91109097A0012C7
:10560F0057B8EF64FD4E7040A811F6E511240DF95F
:10561F00A811E6C397502DE5112409F8860308E673
:10562F00FA08E6F9A811E6FFF5827583001211EA70
:10563F00FEA81108E82FF8E66E60047F85800BA89E
:0A564F00110680C77F1480027F84DB
:07565900E511240EF51122FA
:105F2300C0F9A4B0999282F880908883C6A7A1860D
:105F33008E898BC7ABC8A38CAF87C1BFFFB9F7EFFF
:105F4300000000000000000040792430191202789C
:105F530000108883C627A1868E898BC7ABC8A38C04
:105F6300AF87C1BF7FB9F7EF00000000000000005A
:0C5F73001C1C1C1C1C1C1C1C1C1C1C1CD2
:0C641E0075840FED42F88FE853F8C0229F
:084CE1008F2A8E298D288C27F3
:104CE900E47F9C7EFEFDFCAB2AAA29A928A827D32C
:104CF9001213A940067F011214AB227F787EEC7D46
:104D0900FF7CFFAB2AAA29A928A827C31213A950F7
:104D1900067F021214AB22AF2AAE29AD28AC27ECCC
:104D2900334004C20C8015D20CAF2AAE29AD28AC91
:104D39002712139B8F2A8E298D288C27E49000E84F
:104D4900F0E47B0AFAF9F8AF2AAE29AD28AC2712AC
:104D5900613C9000E8E024E9F582E43400F583EB56
:104D6900F0AF2AAE29AD28AC27E47B0AFAF9F8128C
:104D7900613C8F2A8E298D288C279000E8E004F069
:104D8900E0B406BD200C0B9000EDE07016741CF029
:104D99008011300C089000ED741BF080067F86129C
:104DA90014AB229000EAE0905F2393FF7D01126427
:104DB9001E9000EBE0905F2393FF0D12641E90009C
:104DC900ECE0905F4B93FF7D0412641E9000EDE0D0
:0A4DD900905F2393FF7D0812641E13
:014DE30022AD
:084892008F2E8E2D8D2C8C2B36
:10489A0043F83F75E8FF53F8C0AF2EAE2DAD2CACF0
:1048AA002BEC334004C20D8015D20DAF2EAE2DADC8
:1048BA002CAC2B12139B8F2E8E2D8D2C8C2BE490CF
:1048CA0000F5F0E47B0AFAF9F8AF2EAE2DAD2CAC68
:1048DA002B12613C9000F5E024F6F582E43400F5F1
:1048EA0083EBF0AF2EAE2DAD2CAC2BE47B0AFAF99C
:1048FA00F812613C8F2E8E2D8D2C8C2B9000F5E0BA
:10490A0004F0E0B406BD200D179000FBE0703E9065
:10491A0000FAE07003741CF09000FB741CF0802D08
:10492A00300D249000FBE070169000FAE0700874D5
:10493A001BF0A304F080169000FB741BF0800E900D
:10494A0000FB741DF080067F861214AB229000F6DD
:10495A00E0905F2393FF7D0112641E9000F7E090C0
:10496A005F2393FF0D12641E9000F8E0905F23937B
:10497A00FF7D0412641E9000F9E0905F4B93FF7D67
:10498A000812641E9000FAE0905F2393FF7D1012D4
:10499A00641E9000FBE0905F2393FF7D2012641E4B
:0549AA007F0112000373
:0149AF0022E5
:0214AB008F2F81
:1014AD0078FC7C007D017BFF7A5F79737E007F067F
:1014BD001211ABE52F12146D15BC0115CB0219FFDE
:1014CD001015D51115EA15161A1615FF17165618FB
:1014DD00163519175F20191B21191B22191B2319EA
:1014ED001B24191B25191B26191B27191B28191B12
:1014FD0029191B2A191B2B191B2C166B2D16F52EB2
:10150D00171A2F16A53116C03216DB33194E38199E
:10151D004E39173F40177F4117A44217BF4317DAC3
:10152D004417F545181046168455199B61199B6291
:10153D00199B63199B64199B6519B46619B46719D6
:10154D00B46819B46919B46A18E48018E48118E410
:10155D008218E48318E48418E48518E48618E48777
:10156D0018E48818E48918E48A18E48B18E48C18B8
:10157D00E48D18E48E18E48F1982911982921982E4
:10158D0093198294198295198296198297198298C6
:10159D00198299182BA01850A11875A2189AA31882
:1015AD00BFA419D0A51697AA1A52FF000019E790EB
:1015BD0000FF7416F09000FE7413F00219FF9000F6
:1015CD00FF741DF00219FF229001017405F09001C6
:1015DD0000740FF09000FF7419F00219FF900101D3
:1015ED00740CF0900100740AF09000FF7413F00277
:1015FD0019FF9001017410F0900100741AF0900021
:10160D00FF7415F09000FE740CF00219FF900101AB
:10161D007419F0900100740FF09000FF7405F090B4
:10162D0000FE7419F00219FF900101740EF0900183
:10163D00007417F09000FF7405F09000FE740FF029
:10164D009000FD7419F00219FF900101741AF090C9
:10165D000100740FF09000FF7418F00219FF900153
:10166D00017409F09001007416F09000FFF09000E5
:10167D00FE740EF00219FF9000FE7416F09000FD3E
:10168D007410F09000FCF00219FF9000FD7416F03C
:10169D009000FC14F00219FF9001017405F0900107
:1016AD00007417F09000FF740AF09000FE7415F0AE
:1016BD000219FF9001017419F0900100740AF09065
:1016CD0000FF7418F09000FE740FF00219FF9001E6
:1016DD00017409F090010004F09000FF741FF09068
:1016ED0000FE7415F00219FF900101740FF09001C6
:1016FD00007418F09000FFF09000FE741BF0900045
:10170D00FD740CF09000FC7413F00219FF900101B0
:10171D00740FF09001007418F09000FFF09000FE2F
:10172D00741BF09000FD7411F09000FC7413F00226
:10173D0019FF900101741FF09001007415F09000D5
:10174D00FF7417F09000FE741AF09000FD14F00273
:10175D0019FF9001017415F090010004F09000FF45
:10176D00741BF09000FE741FF09000FD7415F002D4
:10177D0019FF9001017416F0900100741AF0900099
:10178D00FF14F09000FE7417F09000FD741AF090A5
:10179D0000FC14F00219FF900101740EF09001008D
:1017AD007416F09000FF741BF09000FE7401F002AF
:1017BD0019FF900101740EF09001007416F0900065
:1017CD00FF741BF09000FE7402F00219FF900101EE
:1017DD00740EF09001007416F09000FF741BF090E1
:1017ED0000FE7403F00219FF900101740EF09001D8
:1017FD00007416F09000FF741BF09000FE7404F05E
:10180D000219FF900101740EF09001007416F09012
:10181D0000FF741BF09000FE7405F00219FF90019B
:10182D0001740FF09001007418F09000FFF090001B
:10183D00FE741BF09000FD7405F09000FC7417F021
:10184D000219FF900101740FF09001007418F090CF
:10185D0000FFF09000FE741BF09000FD7413F090EB
:10186D0000FC7405F00219FF900101740FF0900156
:10187D00007418F09000FFF09000FE741BF09000C3
:10188D00FD7411F09000FC7417F00219FF90010126
:10189D00740FF09001007418F09000FFF09000FEAE
:1018AD00741BF09000FD7416F09000FC7411F002A2
:1018BD0019FF900101740FF09001007418F0900061
:1018CD00FFF09000FE741BF09000FD7416F0900078
:1018DD00FC7413F00219FFE52F2480FBE434FFFAAA
:1018ED007C007D0AAF03FE1212299000FCEDF07C06
:1018FD00007D0AAF03AE02121229A3EFF0A3741BF1
:10190D00F0A37418F0A3F0A3740FF00219FFE52FE4
:10191D0024E0FBE434FFFA7C007D0AAF03FE1212D3
:10192D00299000FDEDF07C007D0AAF03AE0212128E
:10193D0029A3EFF0A3741EF0A3F0A37410F0021905
:10194D00FFE52F24C9FBE434FFFA7C007D0AAF03C9
:10195D00FE1212299000FDEDF07C007D0AAF03AE62
:10196D0002121229A3EFF0A3741EF0A37417F0A3B3
:10197D00740EF0807D9000FC7415F0A304F0A37438
:10198D001BF0E52F2470A3F0A3741FF0806490006A
:10199D00FC7415F0A304F0A3741BF0E52F24A0A391
:1019AD00F0A37416F0804B9000FC7410F0A3F0A31C
:1019BD007416F0A3741BF0E52F249BA3F0A37416EB
:1019CD00F0802F9000FC7419F0A304F0A37416F0AE
:1019DD00A3741BF0A37419F080189000FC740FF021
:1019ED00A314F0A37416F0A3740CF0A37416F0A353
:1019FD0014F09000FCE0905F2393FF7D0112641EB4
:101A0D009000FDE0905F2393FF0D12641E9000FE89
:101A1D00E0905F2393FF7D0412641E9000FFE09021
:101A2D005F2393FF7D0812641E900100E0905F23F9
:101A3D0093FF7D1012641E900101E0905F2393FFD0
:051A4D007D2012641E63
:011A52002271
:106215008F2A8E298D288C277F101214AB7F64124C
:106225000003AF2AAE29AD28AC271248927F64122D
:0362350000032241
:044EE0008E2A8F2B5C
:104EE40078E87C007D017BFF7A5F79797E007F061C
:104EF4001211ABE49000E7F09000E7E0FBC39406E6
:104F0400502EAE2AAF2B7C007D0A12122974E82B96
:104F1400F582E43400F583EDF0AE2AAF2B7C007DFE
:104F24000A1212298E2A8F2B9000E7E004F080C821
:104F34009000EDE07003741CF09000ECE0700BA3A3
:104F4400E0B41C069000EC741CF09000EBE0700BD5
:104F5400A3E0B41C069000EB741CF09000EAE0702F
:104F64000BA3E0B41C069000EA741CF09000E9E086
:104F7400700BA3E0B41C069000E9741CF09000E8E8
:104F8400E0905F2393FF7D0112641E9000E9E0909E
:104F94005F2393FF0D12641E9000EAE0905F239359
:104FA400FF7D0412641E9000EBE0905F2393FF7D6D
:104FB4000812641E9000ECE0905F2393FF7D1012B2
:104FC400641E9000EDE0905F2393FF7D2012641E29
:054FD4007F0112000343
:014FD90022B5
:025A40008F2BAA
:105A4200E49000F6F0E59054F89000F5F0E52B12A2
:105A5200146D5A7C075A860F5A86175A86275A930C
:105A6200375A86475AA5785A86875AA5B85AA5D86A
:105A72005AA5E85AA5F000005AB09000F5E0FF647C
:105A8200F8702E22E52BF4FE9000F5E0FF6E7021F7
:105A9200229000F5E0FEB4D8037FF822EEB4E811BC
:105AA2007FF8229000F5E0652B60067FF822AF2B8D
:105AB200227F1E1200039000F6E004F0E0C394047B
:105AC20040837F78120003E52BB407069000F5E0CF
:045AD200FF22AF2BD5
:015AD60022AD
:105AD700E49000E7F0E59020E0117F0312000390C7
:105AE70000E7E004F0E0C3940440EA9000E7E0B484
:105AF70004037F9622E49000E7F0E5A0B4FF037F5C
:105B070020227F031200039000E7E004F0E0C39433
:105B17000440E79000E6E5A0F0E0FE20E0037F996F
:105B270022EE20E1037F98229000E6E0FE20E203C8
:105B37007F9722EE20E3037F94229000E6E0FE2089
:105B4700E4037F9322EE20E5037F91229000E6E0B5
:105B5700FE20E6037F9222EE20E7037F95227F2037
:015B6700221B
:106180004400D8000000004100C8004100830041E5
:1061900000D0004100C7004100B20041008200C1B0
:0F61A00001C100C106C108C10AC105C107C18400
:10284800125E5FE49000B0F0A3F01256609000B002
:10285800EEF0A3EFF0D394ACEE6480948D400E7F3D
:10286800A31214ABE49000B0F0A3F0801DC3900055
:10287800B1E094549000B0E064809472500C7FA44E
:102888001214ABE49000B0F0A3F0125B681231D9D7
:04289800D2B1D2B235
:10289C001263A1BFA518900083E004F0E0D3940369
:1028AC00400C9000AF7455F09000D07401F01260A1
:1028BC00AF125DF4125B681243A71231D912566045
:1028CC009000AB12143020A72E9000C8E0B4010D7C
:1028DC00905F30E493FF7D2012641E80129000C83C
:1028EC00E0B4020B905F67E493FF7D2012641E90AE
:1028FC0000A27401F080419000D0E0600D905F3236
:10290C00E493FF7D2012641E802E905F3FE493FFC2
:10291C007D2012641E9000A2E0B4011C9000C8E05F
:10292C00FFB401057402F0800AEFB402069000C8EF
:10293C007401F0E49000A2F0905F3FE493FF7D10EF
:10294C0012641E9000ABE0F8A3E0F9A3E0FAA3E058
:10295C00FB9000BAE0FCA3E0FDA3E0FEA3E0C39B68
:10296C00FFEE9AFEED99FDEC98FCE47BC8FAF9F8C1
:10297C00C31213A95002D2049000BAE0F8A3E0F9F4
:10298C00A3E0FAA3E0FB9000ABE0FCA3E0FDA3E026
:10299C00FEA3E0C39BFFEE9AFEED99FDEC98FCE4E0
:1029AC007BC8FAF9F8C31213A95002D20430042CD4
:1029BC009000ABE0FCA3E0FDA3E0FEA3E0FF9000E1
:1029CC00BA1214309000BAE0FCA3E0FDA3E0FEA321
:1029DC00E0FF124CE1E49000B5F0C204E47F887E85
:1029EC0013FDFC9000ABE0F8A3E0F9A3E0FAA3E040
:1029FC00FBC31213A95003022B129000CDE0B4AA12
:102A0C003DE47F207E4EFDFC9000ABE0F8A3E0A3FC
:102A1C00E0A3E0C31213A95004D2B280219000BFEE
:102A2C00E0FEA3E0FFE4FCFD9000ABE0F8A3E0F9CE
:102A3C00A3E0FAA3E0FBC31213A94002C2B29000B8
:102A4C00C6E02448FF9000C5E034F4FEE4FCFD90A1
:102A5C0000ABE0F8A3E0F9A3E0FAA3E0FBD3121378
:102A6C00A94002C20A9000C5E0FEA3E0FFFBAA0643
:102A7C00E49000ABE0FCA3E0FDA3E0FEA3E0C39B6D
:102A8C00FFEE9AFEED9400FDEC9400FC9000DE123B
:102A9C001430E47FF47E01FDFC9000DEE0F8A3E04E
:102AAC00F9A3E0FAA3E0FBD31213A94006124101EB
:102ABC0002289CE47FC8FEFDFC9000DEE0F8A3E059
:102ACC00F9A3E0FAA3E0FBD31213A94009300706DF
:102ADC0012410102289C9000DEE0FCA3E0FDA3E083
:102AEC00FEA3E0FFEC334016D2079000D1E004F0D7
:102AFC00E06403600302289C12410102289CE490CC
:092B0C0000D1F002289C124FDAFE
:042B150002289C22D4
:104FDA003001030250D22000030250D230A703024C
:104FEA0050D29000B0E0FFA3E09000E2CFF0A3EF30
:104FFA00F0E49000B0F0A3F012570C9000AB12143A
:10500A0030E47FAC7E0DFDFC9000ABE0F8A3E0F944
:10501A00A3E0FAA3E0FBD31213A950197F547EF23E
:10502A007DFF7CFF9000ABE0F8A3E0A3E0A3E0C320
:10503A001213A950549000E2E0FFA3E09000B0CF11
:10504A00F0A3EFF0E47FAC7E0DFDFC9000ABE0F83E
:10505A00A3E0F9A3E0FAA3E0FBD31213A940077F68
:10506A00A31214AB80527F547EF27DFF7CFF900026
:10507A00ABE0F8A3E0F9A3E0FAA3E0FBC31213A99B
:10508A0050367FA41214AB802F905F2FE493FF7DDC
:10509A002012641E9000ABE0FCA3E0FDA3E0FEA397
:1050AA00E0FF124CE19000ABE0A3E0A3E0FFA3E035
:1050BA009000B0CFF0A3EFF0C20030A7FD9000C877
:0850CA007402F0E49000A2F072
:0150D20022BB
:104101009000CEE0FEA3E0FF7C007D05121229EFB6
:1041110025E0F524EE33F523D204C2B2C2B1D20AAE
:10412100E49000D1F0C207905F3F93FF7D201264BD
:104131001E905F3FE493FF7D2012641EAE23AF24E7
:10414100E4FCFD9000ABE0F8A3E0F9A3E0FAA3E002
:10415100FBC31213A950030242021256609000AB36
:10416100121430125DF420A75E905F67E493FF7D27
:104171002012641E7F0A12634AC20430A7FD905FB9
:104181003FE493FF7D2012641E9000ABE0A3E0A307
:10419100E0FEA3E0FF9000B3EEF0A3EFF09000B2D9
:1041A100E025E02488F582E43400F583EEF0A3EF06
:1041B100F09000B2E004F090009DE0FF9000B2E0CA
:1041C100B5070FE4F0800B905F3FE493FF7D201271
:1041D100641E905F3FE493FF7D1012641E30041152
:1041E1009000ABE0FCA3E0FDA3E0FEA3E0FF124CD6
:1041F100E120020302413D12642AC202D2040241BB
:104201003D9000C87401F0E49000A2F0D2B1D2B2A6
:1042110012642AD2009000CCE0B4AA1F900180E081
:10422100FCA3E0FDA3E0FEA3E02401FFE43EFEE4E5
:104231003DFDE43CFC900180121430C2019000D39A
:10424100E0B4AA09900084E0FF126317229000A352
:0C425100E0B4AA0890009DE0FF1252AB00
:01425D00223E
:1061BF0075840F75A49075A50675A7FE759CE0757F
:1061CF009EFF759FFF75E10475E3407590FF75A005
:1061DF00FF75B0FF75C8FF75D8FF75E8FF75F8FF3D
:0161EF00228D
:09006A00C2AF75FFDE75FFAD2287
:10627D0075840F758C67E4FFFE0FBF00010EBE0B1A
:0F628D00F8BFB8F5E58C30E7FB759701758A030C
:01629C0022DF
:103924007525AA9000AF7455F01511A81176017D84
:10393400257B017A0079AF1255B390009C7401F095
:103944001511A811F67D24FB7A00799C1255B390C9
:1039540000D27450F01511A81176017D067B017A0E
:103964000079D21255B39000CE74C3F0A37450F012
:103974001511A81176027D007B017A0079CE1255CB
:10398400B39000B612143C000557301511A81176F7
:10399400047D157B017A0079B61255B39000C112EB
:1039A400143C000086021511A81176047D207B01C9
:1039B4007A0079C11255B39000A512143C00009C02
:1039C400401511A81176047D197B017A0079A5129E
:1039D40055B390009D7405F01511A81176017D0D65
:1039E4007B017A00799D1255B39000CD7455F01582
:1039F40011A81176017D097B017A0079CD1255B3A6
:103A04009000DC7413F0A37488F01511A8117602E9
:103A14007D077B017A0079DC1255B3E49000A9F0AC
:103A2400A3F01511A81176027D0A7B017A0079A909
:103A34001255B3E49000C9F0A3F01511A811760251
:103A44007D0E7B017A0079C91255B3E4900085F0AC
:103A5400A3F01511A81176027D117B017A007985F6
:103A64001255B3E4900084F01511A81176017D136A
:103A74007B017A0079841255B39000A37455F01534
:103A840011A81176017D0C7B017A0079A31255B33C
:103A94009000D37455F01511A81176017D107B01A7
:103AA4007A0079D31255B39000CC7455F01511A84F
:103AB4001176017D147B017A0079CC1255B315116E
:0F3AC400A81176017DFF7B007A0079251255B39A
:013AD30022D0
:101E660075262D7B017A0079AF752B017D251263CE
:101E7600DA7B017A00799C752B017D241263DA9056
:101E8600009CE0FFD3943C5003EF700A7F8F12143E
:101E9600AB125B6880E9E4F5259000AFE064AA70B8
:101EA60021C2AFE526B42D05123C848F26D2AFE5BC
:101EB60026B42D04800C80057F8B1214AB125B6850
:101EC60080D7D20A7B017A0079D2752B017D061262
:101ED60063DA9000D2E0D3945A4014743CF01511A2
:101EE600A81176017D067B017A0079D21255B3904E
:101EF60000D2E0FCE41210267BCD7ACC798C783FB8
:101F0600120E7612105A9000A4EFF07B017A007937
:101F1600CE752B02E4FD1263DA9000CEE0FEA3E05C
:101F2600FFC394F0EE9455400EE4FCFD7BE87AFD89
:101F3600F9F81213A9500A7FA01214AB125B68803D
:101F4600D87B017A0079B6752B047D151263DA7F8A
:101F5600A07E867D017C009000B6E0F8A3E0F9A3A0
:101F6600E0FAA3E0FBC31213BF7003021FFC7FF06D
:101F76007E497D027C009000B6E0F8A3E0A3E0A3D2
:101F8600E0C31213BF606F7F407E0D7D037C00901F
:101F960000B6E0F8A3E0A3E0A3E0C31213BF6056C7
:101FA6007F907ED07D037C009000B6E0F8A3E0A38E
:101FB600E0A3E0C31213BF603D7FE07E937D047C07
:101FC600009000B6E0F8A3E0A3E0A3E0C31213BFBD
:101FD60060247F307E577D057C009000B6E0F8A334
:101FE600E0A3E0A3E0C31213BF600B7FA11214AB02
:101FF600125B68021F557B017A0079C1752B047D3F
:10200600201263DAE47F387E4AFDFC9000C1E0F8D6
:10201600A3E0F9A3E0FAA3E0FBC31213BF4018E460
:102026007F307EF2FDFC9000C1E0F8A3E0A3E0A3C0
:10203600E0D31213BF400A7F811214AB125B688093
:10204600C37B017A0079A5752B047D191263DAE446
:102056007F207E4EFDFC9000A5E0F8A3E0F9A3E00A
:10206600FAA3E0FBC31213BF4018E47F607EEAFDCB
:10207600FC9000A5E0F8A3E0A3E0A3E0D31213BF11
:10208600400A7F821214AB125B6880C37B017A0020
:10209600799D752B017D0D1263DA90009DE0FF603E
:1020A60005D3940A401790009D7405F01511A811E8
:1020B60076017D0D7B017A00799D1255B37B017AFD
:1020C60000799E752B047D021263DA7B017A007912
:1020D600CD752B017D091263DA7B017A0079DC75F7
:1020E6002B027D071263DA9000DCE0FEA3E0FFC35B
:1020F6009464EE94004009D3EF9410EE9427400ABE
:102106007FA21214AB125B6880DD7B017A0079A98D
:10211600752B027D0A1263DA9000A9E0FEA3E0FFA8
:10212600C3943CEE64809476400BD3EF94C4EE6483
:10213600809489400A7F881214AB125B6880D97B31
:10214600017A0079C9752B027D0E1263DA9000C9F7
:10215600E0FEA3E0FFC3943CEE64809476400BD38C
:10216600EF94C4EE64809489400A7F891214AB12FE
:102176005B6880D97B017A007985752B027D111207
:1021860063DAD3900086E094DC900085E094054005
:102196000A7F8A1214AB125B6880E77B017A0079AA
:1021A60084752B017D131263DA7B017A0079A3759E
:1021B6002B017D0C1263DA7B017A0079D3752B0132
:1021C6007D101263DA9000A3E0B4AA169000D3E063
:1021D600B4AA0F9000A37455F09000D3F07F8C1230
:1021E60014AB7B017A0079CC752B017D141263DA6E
:1021F6009000A9E0FEA3E0FFC39000CFE09FFF9010
:1022060000CEE09EFE9000C5F0A3EFF09000DCE06B
:10221600FCA3E0FDC3EF9DFFEE9C9000BFF0A3EF93
:10222600F0E4F5259000C9E0FEA3E0FF9000CFE0C2
:102236002FFF9000CEE03EFEE52525E02488F582BE
:10224600E43400F583EEF0A3EFF00525E525B40AA6
:01225600D3B4
:012257002264
:1063B500E4F584E5EF30E10A90018012143C000019
:0363C500000022B3
:105E5F0012006A12627D1263B51261BF1263631280
:105E6F00645D1263787F007EC27D017C001260F654
:105E7F0012629D1263EC7FF0125A40BFF005123987
:105E8F00248003121E66E4F523E523905F2393FF1E
:105E9F007D3F12641EE49000B0F0A3F0F52412567B
:105EAF00600524E524C3941440F40523E523C3942B
:055EBF000A40D6D201EB
:015EC40022BB
:0252AB008F254D
:1052AD009000E212143C00000000E4F526E526C350
:1052BD00952550399000E2E0F8A3E0F9A3E0FAA3B8
:1052CD00E0FBE52625E02488F582E43400F583E053
:1052DD00FEA3E0FFE4FCFDEB2FFFEA3EFEED39FD02
:1052ED00EC38FC9000E2121430052680C09000E2EC
:1052FD00E0FCA3E0FDA3E0FEA3E0FFC007AF25ABFC
:10530D0007E4FAF9F8D0071213099000E2121430ED
:10531D009000C9E0FEA3E0FF9000CFE02FFF9000CA
:10532D00CEE03EFEE49000E2E0F8A3E0F9A3E0FA5F
:10533D00A3E0FBC3EF9BFFEE9AFEE499FDE498FC1E
:10534D00E47B02FAF9F81213099000C6E02FF090F1
:10535D0000C5E03EF09000DCE0FEA3E0FFC390004E
:10536D00C6E09FFF9000C5E09E9000BFF0A3EFF058
:01537D00220D
:07644A00302D31303030002D
:1043A700C20BC20F9000E2E5E6F0A3E5E7F0A3E554
:1043B700A8F0E4F5A8F5A8F5E6F5E77F07125A4057
:1043C7009000E5EFF0BFD804D20B801F9000E5E026
:1043D700B4E804D20B80149000E4E0FFF5A88FA89E
:1043E7009000E2E0F5E6A3E0F5E7229000CEE0FEDC
:1043F700A3E0FFE4FCFD124CE19000CEE0FFA3E058
:104407009000E6CFF0A3EFF0300B6B7F07125A4016
:104417009000E5EFF0BFD8109000CFE02464F09053
:1044270000CEE03400F0802A9000E5E0FFB4E81009
:104437009000CFE0249CF09000CEE034FFF0801293
:10444700EFB4B804C20B800A200F077F0A12634A31
:10445700D20F3002117F07125A40BFF802C20BC2B7
:104467000F12642AC2029000CEE0FEA3E0FFE4FC34
:10447700FD124CE180929000CEE0FEA3E0FFE4FC49
:10448700FD124CE11511A81176027D007B017A001F
:1044970079CE1255B39000CEE0FEA3E0FF9000C6A0
:1044A700E02FFF9000C5E03EFE9000E6E0FCA3E0B1
:1044B700FDC3EF9DFFEE9CFE9000C5F0A3EFF090CB
:1044C70000DCE0FCA3E0FDC3EF9DFFEE9C9000BF86
:1044D700F0A3EFF09000E2E0F5E6A3E0F5E7A3E054
:0544E700FFF5A88FA8FD
:0144EC0022AD
:1031D900C20B9000EEE5E6F0A3E5E7F0A3E5A8F061
:1031E900E4F5A8F5A8F5E6F5E77F78125A40EF640B
:1031F9007860030233BF200B077F1412634AD20B96
:103209009000B0E0FEA3E0FFEE3395E0FDFC9000F6
:10321900EA121430E49000B0F0A3F07F87125A400C
:10322900EF6487601F20021C1256609000E212149E
:10323900309000E2E0FCA3E0FDA3E0FEA3E0FF1272
:10324900489280D720027CE47FC47E09FDFC90006F
:10325900E2E0F8A3E0F9A3E0FAA3E0FBD31213A993
:1032690050197F3C7EF67DFF7CFF9000E2E0F8A3D9
:10327900E0A3E0A3E0C31213A950159000EAE0A36C
:10328900E0A3E0FFA3E09000B0CFF0A3EFF080133C
:103299009000E2E0A3E0A3E0FFA3E09000B0CFF04C
:1032A900A3EFF01256609000E21214309000E2E0B1
:1032B900FCA3E0FDA3E0FEA3E0FF12489212642AFA
:1032C9000233BF12642AC20B7F87125A40EF648708
:1032D9006008125EC512489280EE7F78125A40EF5C
:1032E90064786035200B077F1412634AD20B3002D1
:1032F900E99000EAE0A3E0A3E0FFA3E09000B0CFEB
:10330900F0A3EFF012642A9000EEE0F5E6A3E0F5F1
:10331900E7A3E0FFF5A88FA82212642A7F87125A33
:1033290040BF87F87FB8125A40EF64B86051200B4C
:10333900077F1412634AD20B3002289000EAE0A3F7
:10334900E0A3E0FFA3E09000B0CFF0A3EFF0126498
:103359002A9000EEE0F5E6A3E0F5E7A3E0FFF5A883
:103369008FA822125EC59000E61214309000E6E0A4
:10337900FCA3E0FDA3E0FEA3E0FF12621580A51205
:10338900642A7F47125A40BF47F89000E6E0FCA341
:10339900E0FDA3E0FEA3E0FF90009E121430E4904C
:1033A90000B0F0A3F01511A81176047D027B017A13
:1033B90000799E1255B39000EEE0F5E6A3E0F5E73B
:0733C900A3E0FFF5A88FA8A7
:0133D00022DA
:102DA700C20BC20CE4F5289000C7F012642A900009
:102DB700CEE0FEA3E0FF9000E6EEF0A3EFF0E4FC28
:102DC700FD1248927F0F125A40BF0FF830020302DC
:102DD7002F19E52864B87003022F19200B077FC845
:102DE70012634AD20B7F07125A408F28E528B4F89E
:102DF70003E4F527E52864D8706512642AC20BE559
:102E070027C3942850020527E527C3940A5010903A
:102E170000CFE004F070069000CEE004F0803CE5BF
:102E270027C3941450109000CFE0240AF09000CEEE
:102E3700E03400F08025E527C3941E50109000CFA2
:102E4700E02464F09000CEE03400F0800E9000CFD4
:102E5700E024F4F09000CEE03401F0D20C8069E574
:102E67002864E8706312642AC20BE527C3942850CC
:102E7700020527E527C3940A50109000CFE024FFEE
:102E8700F09000CEE034FFF0803CE527C394145067
:102E9700109000CFE024F6F09000CEE034FFF080F1
:102EA70025E527C3941E50109000CFE0249CF09096
:102EB70000CEE034FFF0800E9000CFE0240CF090BD
:102EC70000CEE034FEF0D20C9000CEE0FEA3E0FF8F
:102ED700E4FCFD7BE87AFDF9F8C31213A9500C90C6
:102EE70000CE7455F0A374F0F08016C39000CFE0C5
:102EF70094F09000CEE09455500774FDF0A374E869
:102F0700F09000CEE0FEA3E0FFE4FCFD1248920241
:102F17002DD312642AC20B7F47125A40BF47F8309D
:102F270002109000E6E0FFA3E09000CECFF0A3EF01
:102F3700F022200C03022FD27FC812634A9000CEE2
:102F4700E0FEA3E0FF9000C6E02FFF9000C5E03E43
:102F5700FE9000E6E0FCA3E0FDC3EF9DFFEE9CFEC4
:102F67009000C5F0A3EFF09000DCE0FCA3E0FDC308
:102F7700EF9DFFEE9C9000BFF0A3EFF0200236908C
:102F870000C7E06414602E1511A81176027D007B3E
:102F9700017A0079CE1255B39000C7EFF0BF8407CE
:102FA7007F841214AB80D59000C7E0B485CE7F85AF
:102FB7001214AB80C79000C7E0B4140F7F2D121412
:0B2FC700AB7FFA1200037FFA12000338
:012FD20022DC
:103E1C00C20BC20CE4F52912642AE49000C7F0909E
:103E2C0000D2E0FFF5277E00124EE07F0F125A40C1
:103E3C00BF0FF8300203023F08E52964B870030293
:103E4C003F08200B077FC812634AD20B7F07125A18
:103E5C00408F29E529B4F803E4F528E52964D870E6
:103E6C003812642AC20BE528C3942850020528E5B1
:103E7C0028C3940A50089000D2E004F08017E5287B
:103E8C00C3941450099000D2E02402F080079000F3
:103E9C00D2E02405F0D20C803CE52964E87036129F
:103EAC00642AC20BE528C3942850020528E528C3D0
:103EBC00940A50089000D2E014F08017E528C394BF
:103ECC001450099000D2E024FEF080079000D2E05C
:103EDC0024FBF0D20C9000D2E0FFD394C8400574C0
:103EEC005AF0800BEFD3945A4005E49000D2F09036
:103EFC0000D2E0FF7E00124EE0023E3F12642AC266
:103F0C000B7F47125A40BF47F83002079000D2E5AA
:103F1C0027F022300C707FC812634A2002529000A6
:103F2C00C7E06414604A9000D2E0FCE41210267BD7
:103F3C00CD7ACC798C783F120E7612105A9000A460
:103F4C00EFF01511A81176017D067B017A0079D26C
:103F5C001255B39000C7EFF0BF84077F841214ABE7
:103F6C0080B99000C7E0B485B27F851214AB80ABEA
:103F7C009000C7E0B4140F7F2D1214AB7FFA12001F
:063F8C00037FFA1200039E
:013F9200220C
:1033D100C20BC20CE4F5289000DCE0F529A3E0F56E
:1033E1002A12642AE49000C7F09000DCE0FEA3E01A
:1033F100FFE4FCFD1248927F0F125A40BF0FF830D4
:10340100020302351BE52864B8700302351B200B4B
:10341100077FC812634AD20B7F07125A408F28E5F3
:1034210028B4F803E4F527E52864D8705512642A16
:10343100C20BE527C3941E50020527E527C3940A52
:1034410050109000DDE004F070069000DCE004F024
:10345100802CE527C3941450109000DDE0240AF07D
:103461009000DCE03400F08015E527D3941E500E67
:103471009000DDE02464F09000DCE03400F0D20C38
:103481008059E52864E8705312642AC20BE527C30A
:10349100941E50020527E527C3940A50109000DDC1
:1034A100E024FFF09000DCE034FFF0802CE527C33E
:1034B100941450109000DDE024F6F09000DCE0342C
:1034C100FFF08015E527D3941E500E9000DDE02417
:1034D1009CF09000DCE034FFF0D20C9000DCE0FEC8
:1034E100A3E0FFD39410EE9427400B9000DCE4F0AE
:1034F100A37464F08013C3EF9464EE9400500A90B7
:1035010000DC7427F0A37410F09000DCE0FEA3E06F
:10351100FFE4FCFD12489202340012642AC20B7FC0
:1035210047125A40BF47F830020B9000DCE529F002
:10353100A3E52AF022300C6F7FC812634A200236BD
:103541009000C7E06414602E1511A81176027D0762
:103551007B017A0079DC1255B39000C7EFF0BF848C
:10356100077F841214AB80D59000C7E0B485CE7F6D
:10357100851214AB80C79000C7E0B4140F7F2D12E1
:1035810014AB7FFA1200037FFA1200039000DCE013
:10359100FEA3E0FFC39000C6E09FFF9000C5E09E40
:0735A1009000BFF0A3EFF062
:0135A8002200
:104BD900C20BC20CE4F5279000CDE0F528E4900063
:104BE900C7F012642A9000CDE0FF1214AB7F0F12B8
:104BF9005A40BF0FF8200271E52764B8606B200B9B
:104C0900077FC812634AD20B7F07125A408F27E5E4
:104C190027B4D82412642AC20B9000CDE0FF64AAFD
:104C29006004EFB45508EFF49000CDF080069000D1
:104C3900CD74AAF0D20C8027E527B4E82212642AA1
:104C4900C20B9000CDE0FF64556004EFB4AA08EFF1
:104C5900F49000CDF080069000CD7455F0D20C9000
:104C690000CDE0FF1214AB808C12642AC20B7F477F
:104C7900125A40BF47F83002079000CDE528F022CC
:104C8900300C547FC812634A2002369000C7E06492
:104C990014602E1511A81176017D097B017A00791E
:104CA900CD1255B39000C7EFF0BF84077F8412146B
:104CB900AB80D59000C7E0B485CE7F851214AB8058
:104CC900C79000C7E0B4140F7F2D1214AB7FFA12FE
:074CD90000037FFA12000343
:014CE00022B1
:102FD300C20BC20CE4F5289000A9E0FFA3E0900027
:102FE300E6CFF0A3EFF0E49000C7F012642A90005C
:102FF300A9E0FEA3E0FFEE3395E0FDFC1248927FCB
:103003000F125A40BF0FF830020302311FE5286444
:10301300B8700302311F200B077FC812634AD20B1B
:103023007F07125A408F28E528B4F803E4F527E513
:103033002864D8704E12642AC20BE527C394285023
:10304300020527E527C3940A50109000AAE004F074
:1030530070069000A9E004F08025E527C39414507E
:10306300109000AAE0240AF09000A9E03400F08058
:103073000E9000AAE02464F09000A9E03400F0D29E
:103083000C8052E52864E8704C12642AC20BE527D1
:10309300C3942850020527E527C3940A50109000D3
:1030A300AAE024FFF09000A9E034FFF08025E52793
:1030B300C3941450109000AAE024F6F09000A9E005
:1030C30034FFF0800E9000AAE0249CF09000A9E069
:1030D30034FFF0D20C9000A9E0FEA3E0FFD394C428
:1030E300EE64809489400C9000A974F6F0A3743CBC
:1030F300F08015C3EF943CEE64809476500A900000
:10310300A97409F0A374C4F09000A9E0FEA3E0FF42
:10311300EE3395E0FDFC12489202300A12642AC293
:103123000B7F47125A40BF47F83002109000E6E089
:10313300FFA3E09000A9CFF0A3EFF022200C03023D
:1031430031D87FC812634A9000A9E0FEA3E0FF9044
:1031530000C6E02FFF9000C5E03EFE9000E6E0FCD5
:10316300A3E0FDC3EF9DFFEE9CFE9000C5F0A3EF2F
:10317300F09000DCE0FCA3E0FDC3EF9DFFEE9C902C
:1031830000BFF0A3EFF02002369000C7E0641460A4
:103193002E1511A81176027D0A7B017A0079A912F6
:1031A30055B39000C7EFF0BF84077F841214AB8040
:1031B300D59000C7E0B485CE7F851214AB80C7904D
:1031C30000C7E0B4140F7F2D1214AB7FFA12000373
:0531D3007FFA12000369
:0131D80022D4
:1044ED00C20BC20CE4F5279000A3E0F52812642A54
:1044FD00E49000C7F09000A3E0FF1214AB7F0F1201
:10450D005A40BF0FF8200271E52764B8606B200B8D
:10451D00077FC812634AD20B7F07125A408F27E5D7
:10452D0027B4D82412642AC20B9000A3E0FF64AA1A
:10453D006004EFB45508EFF49000A3F080069000EE
:10454D00A374AAF0D20C8027E527B4E82212642ABE
:10455D00C20B9000A3E0FF64556004EFB4AA08EF0E
:10456D00F49000A3F080069000A37455F0D20C9047
:10457D0000A3E0FF1214AB808C12642AC20B7F479C
:10458D00125A40BF47F83002079000A3E528F022E9
:10459D00200C0302462C7FC812634A20026B900048
:1045AD00C7E0641460639000D37455F01511A81121
:1045BD0076017D0C7B017A0079A31255B39000C76B
:1045CD00EFF0BF84077F841214AB80CF9000C7E05B
:1045DD00B485077F851214AB80C11511A811760122
:1045ED007D107B017A0079D31255B39000C7EFF09F
:1045FD00BF84077F841214AB80A19000C7E064854F
:10460D0070997F851214AB80929000C7E0B4140F9F
:0F461D007F2D1214AB7FFA1200037FFA120003F5
:01462C00226B
:104DE400C20BC20C90009DE0F527E4F52812642A5A
:104DF400E49000C7F090009DE0FF7E00124EE07F3B
:104E04000F125A40BF0FF8200263E52864B8605DB2
:104E1400200B077FC812634AD20B7F07125A408FB8
:104E240028E528B4D80F12642AC20B90009DE00430
:104E3400F0D20C8012E528B4E80D12642AC20B905B
:104E4400009DE014F0D20C90009DE0FFD394C84084
:104E540005740AF0800BEFD3940A4005E490009D9A
:104E6400F090009DE0FF7E00124EE0809A12642ACA
:104E7400C20B7F47125A40BF47F830020790009D8B
:104E8400E527F022300C547FC812634A2002369082
:104E940000C7E06414602E1511A81176017D0D7B06
:104EA400017A00799D1255B39000C7EFF0BF8407D3
:104EB4007F841214AB80D59000C7E0B485CE7F8583
:104EC4001214AB80C79000C7E0B4140F7F2D1214E6
:0B4ED400AB7FFA1200037FFA1200030C
:014EDF0022B0
:1035A900C20BC20CE4F5289000C9E0FFA3E090002B
:1035B900E6CFF0A3EFF0E49000C7F012642A900080
:1035C900C9E0FEA3E0FFEE3395E0FDFC1248927FCF
:1035D9000F125A40BF0FF83002030236F5E528648E
:1035E900B870030236F5200B077FC812634AD20B65
:1035F9007F07125A408F28E528B4F803E4F527E538
:103609002864D8704E12642AC20BE527C394285047
:10361900020527E527C3940A50109000CAE004F078
:1036290070069000C9E004F08025E527C394145082
:10363900109000CAE0240AF09000C9E03400F0803C
:103649000E9000CAE02464F09000C9E03400F0D282
:103659000C8052E52864E8704C12642AC20BE527F5
:10366900C3942850020527E527C3940A50109000F7
:10367900CAE024FFF09000C9E034FFF08025E52777
:10368900C3941450109000CAE024F6F09000C9E0E9
:1036990034FFF0800E9000CAE0249CF09000C9E04D
:1036A90034FFF0D20C9000C9E0FEA3E0FFD394C42C
:1036B900EE64809489400C9000C974F6F0A3743CC0
:1036C900F08015C3EF943CEE64809476500A900024
:1036D900C97409F0A374C4F09000C9E0FEA3E0FF27
:1036E900EE3395E0FDFC1248920235E012642AC2DD
:1036F9000B7F47125A40BF47F83002109000E6E0AE
:10370900FFA3E09000C9CFF0A3EFF022300C547F63
:10371900C812634A2002369000C7E06414602E156F
:1037290011A81176027D0E7B017A0079C91255B371
:103739009000C7EFF0BF84077F841214AB80D59047
:1037490000C7E0B485CE7F851214AB80C79000C74F
:10375900E0B4140F7F2D1214AB7FFA1200037FFA25
:0337690012000348
:01376C00223A
:10462D00C20BC20CE4F5279000D3E0F52812642AE2
:10463D00E49000C7F09000D3E0FF1214AB7F0F128F
:10464D005A40BF0FF8200271E52764B8606B200B4C
:10465D00077FC812634AD20B7F07125A408F27E596
:10466D0027B4D82412642AC20B9000D3E0FF64AAA9
:10467D006004EFB45508EFF49000D3F0800690007D
:10468D00D374AAF0D20C8027E527B4E82212642A4D
:10469D00C20B9000D3E0FF64556004EFB4AA08EF9D
:1046AD00F49000D3F080069000D37455F0D20C90A6
:1046BD0000D3E0FF1214AB808C12642AC20B7F472B
:1046CD00125A40BF47F83002079000D3E528F02278
:1046DD00200C0302476C7FC812634A20026B9000C6
:1046ED00C7E0641460639000A37455F01511A81110
:1046FD0076017D0C7B017A0079A31255B39000C72A
:10470D00EFF0BF84077F841214AB80CF9000C7E019
:10471D00B485077F851214AB80C11511A8117601E0
:10472D007D107B017A0079D31255B39000C7EFF05D
:10473D00BF84077F841214AB80A19000C7E064850D
:10474D0070997F851214AB80929000C7E0B4140F5E
:0F475D007F2D1214AB7FFA1200037FFA120003B4
:01476C00222A
:10376D00C20BC20CE4F528900085E0FFA3E09000A9
:10377D00E6CFF0A3EFF0E49000C7F012642A9000BA
:10378D0085E0FEA3E0FFE4FCFD1248927F0F125A84
:10379D0040BF0FF83002030238ACE52864B870035F
:1037AD000238AC200B077FC812634AD20B7F071279
:1037BD005A408F28E528B4F803E4F527E52864D8A6
:1037CD00704E12642AC20BE527C3942850020527B8
:1037DD00E527C3940A5010900086E004F07006901F
:1037ED000085E004F08025E527C394145010900067
:1037FD0086E0240AF0900085E03400F0800E900001
:10380D0086E02464F0900085E03400F0D20C805204
:10381D00E52864E8704C12642AC20BE527C394288E
:10382D0050020527E527C3940A5010900086E02426
:10383D00FFF0900085E034FFF08025E527C3941458
:10384D005010900086E024F6F0900085E034FFF0F3
:10385D00800E900086E0249CF0900085E034FFF00F
:10386D00D20C900085E0FEA3E0FFD394ACEE94263D
:10387D00400C9000857405F0A374DCF08010D3EF3C
:10388D0094DCEE94054007E4900085F0A3F09000E1
:10389D0085E0FEA3E0FFE4FCFD1248920237A11281
:1038AD00642AC20B7F47125A40BF47F8300210906E
:1038BD0000E6E0FFA3E0900085CFF0A3EFF022300B
:1038CD000C547FC812634A2002369000C7E064147E
:1038DD00602E1511A81176027D117B017A00798574
:1038ED001255B39000C7EFF0BF84077F841214AB5D
:1038FD0080D59000C7E0B485CE7F851214AB80C70C
:10390D009000C7E0B4140F7F2D1214AB7FFA120094
:06391D00037FFA12000313
:013923002281
:10425E00C20BC20CE4F528900084E09000E6F0E476
:10426E009000C7F012642A900084E0FF7E00124E88
:10427E00E07F0F125A40BF0FF8300203024336E5BB
:10428E002864B87003024336200B077FC812634AB6
:10429E00D20B7F07125A408F28E528B4F803E4F5B5
:1042AE0027E52864D8703812642AC20BE527C39418
:1042BE002850020527E527C3940A5008900084E091
:1042CE0004F08017E527C394145009900084E0246D
:1042DE0002F08007900084E02404F0D20C803CE5CC
:1042EE002864E8703612642AC20BE527C39428505E
:1042FE00020527E527C3940A5008900084E014F0C5
:10430E008017E527C394145009900084E024FEF032
:10431E008007900084E024FCF0D20C900084E0FF33
:10432E007E00124EE002428712642AC20B7F4712B1
:10433E005A40BF47F83002099000E6E0900084F042
:10434E0022300C547FC812634A2002369000C7E018
:10435E006414602E1511A81176017D137B017A006D
:10436E0079841255B39000C7EFF0BF84077F841293
:10437E0014AB80D59000C7E0B485CE7F851214AB08
:10438E0080C79000C7E0B4140F7F2D1214AB7FFAD4
:08439E001200037FFA12000374
:0143A60022F4
:104AC700C20BC20CE4F5279000CCE0F528E4900077
:104AD700C7F012642A9000CCE0FF1214AB7F0F12CC
:104AE7005A40BF0FF8200271E52764B8606B200BAE
:104AF700077FC812634AD20B7F07125A408F27E5F8
:104B070027B4D82412642AC20B9000CCE0FF64AA11
:104B17006004EFB45508EFF49000CCF080069000E5
:104B2700CC74AAF0D20C8027E527B4E82212642AB5
:104B3700C20B9000CCE0FF64556004EFB4AA08EF05
:104B4700F49000CCF080069000CC7455F0D20C9015
:104B570000CCE0FF1214AB808C12642AC20B7F4793
:104B6700125A40BF47F83002079000CCE528F022E0
:104B7700300C5E7FC812634A90018012143C00001B
:104B870000002002369000C7E06414602E1511A8BB
:104B97001176017D147B017A0079CC1255B3900010
:104BA700C7EFF0BF84077F841214AB80D59000C78E
:104BB700E0B485CE7F851214AB80C79000C7E0B400
:104BC700140F7F2D1214AB7FFA1200037FFA120025
:014BD70003DA
:014BD80022BA
:102B1900200F077FC812634AD20F900104E0FF1209
:102B290014AB7F07125A409000E5EFF064F8600596
:102B390012642AC20F9000E5E0FFB4B803D20E2256
:102B4900900104E024DFB40C004003022DA4902B73
:102B59006575F003A4C58325F0C58373022B89022B
:102B69002BB5022BE4022C13022C42022C71022CED
:102B7900A0022CCF022CFE022D2C022D55022D7EF7
:102B8900EFB4F006122DA7022DA49000E5E0FFB4E2
:102B9900E8099001047422F0022DA4EF64D86003BF
:102BA900022DA4900104742CF0022DA49000E5E0FC
:102BB900B4F006123E1C022DA49000E5E0FFB4E833
:102BC900099001047423F0022DA4EF64D860030274
:102BD9002DA49001047421F0022DA49000E5E0B425
:102BE900F0061233D1022DA49000E5E0FFB4E80904
:102BF9009001047424F0022DA4EF64D86003022D1F
:102C0900A49001047422F0022DA49000E5E0B4F030
:102C190006124BD9022DA49000E5E0FFB4E8099013
:102C290001047425F0022DA4EF64D86003022DA4D9
:102C39009001047423F0022DA49000E5E0B4F0069D
:102C4900122FD3022DA49000E5E0FFB4E80990010A
:102C5900047426F0022DA4EF64D86003022DA49019
:102C690001047424F0022DA49000E5E0B4F00612EA
:102C790044ED022DA49000E5E0FFB4E809900104B9
:102C89007427F0022DA4EF64D86003022DA49001EB
:102C9900047425F0022DA49000E5E0B4F006124D6D
:102CA900E4022DA49000E5E0FFB4E8099001047462
:102CB90028F0022DA4EF64D86003022DA49001042A
:102CC9007426F0022DA49000E5E0B4F0061235A9AF
:102CD900022DA49000E5E0FFB4E8099001047429ED
:102CE900F0022DA4EF64D86003022DA490010474AE
:102CF90027F0022DA49000E5E0B4F00612462D025B
:102D09002DA49000E5E0FFB4E809900104742AF0CD
:102D1900022DA4EF64D86003022DA4900104742845
:102D2900F080789000E5E0B4F00512376D806C9082
:102D390000E5E0FFB4E808900104742BF0805CEF33
:102D490064D870579001047429F0804F9000E5E031
:102D5900B4F00512425E80439000E5E0FFB4E80854
:102D6900900104742CF08033EF64D8702E90010424
:102D7900742AF080269000E5E0B4F005124AC78075
:102D89001A9000E5E0FFB4E8089001047421F0808E
:0D2D99000AEFB4D806900104742BF0C20EAE
:012DA600220A
:10225800C20BC20CE4F5279000B6E0FCA3E0FDA396
:10226800E0FEA3E0FF9000E6121430E49000C7F00F
:1022780012642A9000B6E0FCA3E0FDA3E0FEA3E010
:10228800FF1248927F0F125A40BF0FF83002030224
:1022980024E7E52764B870030224E7200B077FC80A
:1022A80012634AD20B7F07125A408F27E52764D85A
:1022B80060030223C412642AC20B7FA07E867D01BC
:1022C8007C009000B6E0F8A3E0F9A3E0FAA3E0FBF5
:1022D800C31213BF700D9000B612143C000557309E
:1022E8000223BF7FF07E497D027C009000B6E0F8B3
:1022F800A3E0F9A3E0FAA3E0FBC31213BF700D90AB
:1023080000B612143C000186A00223BF7F407E0D58
:102318007D037C009000B6E0F8A3E0F9A3E0FAA3FF
:10232800E0FBC31213BF700D9000B612143C0002FC
:1023380049F00223BF7F907ED07D037C009000B6D9
:10234800E0F8A3E0F9A3E0FAA3E0FBC31213BF701F
:102358000C9000B612143C00030D40805A7FE07EBA
:10236800937D047C009000B6E0F8A3E0F9A3E0FABE
:10237800A3E0FBC31213BF700C9000B612143C000C
:1023880003D09080327F307E577D057C009000B668
:10239800E0F8A3E0F9A3E0FAA3E0FBC31213BF70CF
:1023A8000C9000B612143C000493E0800A9000B62A
:1023B80012143C000186A0D20C0224D3E52764E85D
:1023C80060030224D312642AC20BC20B7FA07E864C
:1023D8007D017C009000B6E0F8A3E0F9A3E0FAA341
:1023E800E0FBC31213BF700D9000B612143C00023C
:1023F80049F00224D17FF07E497D027C009000B62E
:10240800E0F8A3E0F9A3E0FAA3E0FBC31213BF705E
:102418000D9000B612143C00030D400224D17F40F9
:102428007E0D7D037C009000B6E0F8A3E0F9A3E000
:10243800FAA3E0FBC31213BF700D9000B612143C50
:102448000003D0900224D17F907ED07D037C009041
:1024580000B6E0F8A3E0F9A3E0FAA3E0FBC3121387
:10246800BF700C9000B612143C000493E0805A7FB1
:10247800E07E937D047C009000B6E0F8A3E0F9A329
:10248800E0FAA3E0FBC31213BF700C9000B612145D
:102498003C0005573080327F307E577D057C0090A8
:1024A80000B6E0F8A3E0F9A3E0FAA3E0FBC3121337
:1024B800BF700C9000B612143C000186A0800A90F0
:1024C80000B612143C00055730D20C9000B6E0FC60
:1024D800A3E0FDA3E0FEA3E0FF12489202229412BB
:1024E800642AC20B7F47125A40BF47F83002159042
:1024F80000E6E0FCA3E0FDA3E0FEA3E0FF9000B649
:1025080012143022300C547FC812634A20023690CD
:1025180000C7E06414602E1511A81176047D157BA0
:10252800017A0079B61255B39000C7EFF0BF84075F
:102538007F841214AB80D59000C7E0B485CE7F8528
:102548001214AB80C79000C7E0B4140F7F2D12148B
:0B255800AB7FFA1200037FFA120003B1
:012563002255
:10476D009000B0E0FEA3E0FFEE3395E0FDFC90007D
:10477D00E612143090009EE0FCA3E0FDA3E0FEA342
:10478D00E0FF9000EA121430C20B12642AE490008C
:10479D00B0F0A3F07F0F125A40EF640F6008125E65
:1047AD00C512489280EE7FC812634A2002087F78B6
:1047BD00125A40BF78F52002397FC812634A200291
:1047CD00087F87125A40BF87F520022612642A12ED
:1047DD005EC590009E1214307FC812634A7FB812D6
:1047ED005A40EF64B8600B20020812566012621531
:1047FD0080EB3002289000EAE0FCA3E0FDA3E0FE90
:10480D00A3E0FF90009E1214309000E6E0A3E0A319
:10481D00E0FFA3E09000B0CFF0A3EFF0227F4712AE
:10482D005A40BF47F81256601248927F6412000337
:10483D007FC812634A2002369000C7E06414602ED0
:10484D001511A81176047D027B017A00799E12550F
:10485D00B39000C7EFF0BF84077F841214AB80D5EF
:10486D009000C7E0B485CE7F851214AB80C7900051
:10487D00C7E0B4140F7F2D1214AB7FFA1200037F23
:04488D00FA12000318
:014891002204
:101A5300E49000E8F09000C1E0FCA3E0FDA3E0FE09
:101A6300A3E0FF9000ED1214309000A5E0FCA3E08A
:101A7300FDA3E0FEA3E0FF9000F112143012642AEC
:101A8300C2029000C774FFF0E49000E6F01262BC5B
:101A93009000E6E004F0E0C3941340F17F0F125A84
:101AA30040BF0FF87FF0125A40EF64F07003021B3F
:101AB300689000C7E07003021B4E1262BC9000E9FD
:101AC300121430E47F387E4AFDFC9000E9E0F8A36D
:101AD300E0F9A3E0FAA3E0FBC31213BF50197F2E72
:101AE3001214AB9000C7742EF07FF0125A40EF64CB
:101AF300F0603D80F48039E47F307EF2FDFC90009D
:101B0300E9E0F8A3E0F9A3E0FAA3E0FBD31213BFE3
:101B130040197F2F1214AB9000C7742FF07FF0127F
:101B23005A40EF64F0600980F48005E49000C7F048
:101B33009000C7E07003021AB47F0F125A40EF649B
:101B43000F7003021AB480F1021AB49000E9E0FCAA
:101B5300A3E0FDA3E0FEA3E0FF1248929000C77448
:101B6300FFF0021AA79000E9E0FCA3E0FDA3E0FE6A
:101B7300A3E0FF9000C11214309000C1E0FCA3E089
:101B8300FDA3E0FEA3E0FF9000A51214309000A592
:101B9300E0FCA3E0FDA3E0FEA3E0FF1248927F0F69
:101BA300125A40BF0FF8E49000C7F0300203021D41
:101BB300C19000E8E064B87003021DC1200F077FE5
:101BC300C812634AD20F7F07125A409000E8EFF021
:101BD300BFF805E49000E7F09000E8E064D8600304
:101BE300021C9812642AC20F9000E7E0C3942850A5
:101BF30003E004F09000E7E0FBC3940A5021900057
:101C0300A5E0FCA3E0FDA3E0FEA3E02401FFE43E86
:101C1300FEE43DFDE43CFC9000A51214308071EB22
:101C2300C3941450219000A5E0FCA3E0FDA3E0FEC3
:101C3300A3E0240AFFE43EFEE43DFDE43CFC900007
:101C4300A5121430804A9000E7E0C3941E502190FF
:101C530000A5E0FCA3E0FDA3E0FEA3E02464FFE411
:101C63003EFEE43DFDE43CFC9000A51214308020D0
:101C73009000A5E0FCA3E0FDA3E0FEA3E024F4FFB5
:101C8300EE3401FEE43DFDE43CFC9000A51214306B
:101C9300D20B021D619000E8E064E86003021D615D
:101CA30012642AC20F9000E7E0C394285003E004B3
:101CB300F09000E7E0FBC3940A50259000A5E0FCF8
:101CC300A3E0FDA3E0FEA3E0C39401FFEE9400FEB6
:101CD300ED9400FDEC9400FC9000A5121430807C80
:101CE300EBC3941450259000A5E0FCA3E0FDA3E012
:101CF300FEA3E0C3940AFFEE9400FEED9400FDEC16
:101D03009400FC9000A512143080519000E7E0C3CA
:101D1300941E50259000A5E0FCA3E0FDA3E0FEA3E4
:101D2300E0C39464FFEE9400FEED9400FDEC940098
:101D3300FC9000A512143080239000A5E0FCA3E0E2
:101D4300FDA3E0FEA3E0C394F4FFEE9401FEED9443
:101D530000FDEC9400FC9000A5121430D20BE47F3C
:101D6300607EEAFDFC9000A5E0F8A3E0F9A3E0FAA9
:101D7300A3E0FBD31213BF400C9000A512143C0048
:101D8300004E208025E47F207E4EFDFC9000A5E0E0
:101D9300F8A3E0F9A3E0FAA3E0FBC31213BF500AD0
:101DA3009000A512143C0000EA609000A5E0FCA39B
:101DB300E0FDA3E0FEA3E0FF124892021BAE126413
:101DC3002AC20F7F47125A40BF47F83002299000BA
:101DD300F1E0FCA3E0FDA3E0FEA3E0FF9000A51269
:101DE30014309000EDE0FCA3E0FDA3E0FEA3E0FFD0
:101DF3009000C112143022300B687FC812634A204E
:101E0300024A9000C7E0641460421511A8117604D9
:101E13007D197B017A0079A51255B39000C7EFF0C5
:101E230064146007E0FF1214AB80D41511A8117677
:101E3300047D207B017A0079C11255B39000C7EF6E
:101E4300F0641460BAE0FF1214AB80B39000C7E0F3
:101E5300B4140F7F2D1214AB7FFA1200037FFA1212
:021E630000037A
:011E6500225A
:10544B00200F077FC812634AD20F900102E0FF12B0
:10545B0014AB7F07125A409000E5EFF064F860053B
:10546B0012642AC20F9000E5E0FFB4B803D20E22FB
:10547B00900102E024CE602D14605324027075EF6E
:10548B00B4F005122258806C9000E5E0FFB4E808F8
:10549B009001027432F0805CEF64D8705790010277
:1054AB007433F0804F9000E5E0B4F00512476D8047
:1054BB00439000E5E0FFB4E8089001027433F080FC
:1054CB0033EF64D8702E9001027431F08026900077
:1054DB00E5E0B4F005121A53801A9000E5E0FFB432
:1054EB00E8089001027431F0800AEFB4D8069001FD
:0654FB00027432F0C20E43
:015501002287
:1062380012642A7F0F125A40BF0FF87F101214AB56
:106248007FB8125A40EF64B86008125AD71214ABDC
:0362580080EE22B3
:0F640F007F0F125A40BF0FF89001067442F0221F
:10001E00E4F52743B03E7F0F125A40BF0FF8E52795
:10002E0064B8602D7F07125A408F27E52764D86089
:10003E0005E527B4E80A7F37125A40BF37F8B2B148
:10004E0030B1077F661214AB80D47F611214AB807F
:0B005E00CD7F47125A40BF47F8D2B1D7
:010069002274
:105F7F00E4F52743B03E7F0F125A40BF0FF8E527D5
:105F8F0064B8602D7F07125A408F27E52764D860C9
:105F9F0005E527B4E80A7F37125A40BF37F8B2B287
:105FAF0030B2077F671214AB80D47F621214AB80BC
:0B5FBF00CD7F47125A40BF47F8D2B216
:015FCA0022B4
:105FCB00E4F52743B03E7F0F125A40BF0FF8E52789
:105FDB0064B8602D7F07125A408F27E52764D8607D
:105FEB0005E527B4E80A7F37125A40BF37F8B2B33A
:105FFB0030B3077F681214AB80D47F631214AB806D
:0B600B00CD7F47125A40BF47F8D2B3C8
:016016002267
:10601700E4F52743B03E7F0F125A40BF0FF8E5273C
:1060270064B8602D7F07125A408F27E52764D86030
:1060370005E527B4E80A7F37125A40BF37F8B2B4EC
:1060470030B4077F691214AB80D47F641214AB801D
:0B605700CD7F47125A40BF47F8D2B47B
:01606200221B
:10606300E4F52743B03E7F0F125A40BF0FF8E527F0
:1060730064B8602D7F07125A408F27E52764D860E4
:1060830005E527B4E80A7F37125A40BF37F8B2B59F
:1060930030B5077F6A1214AB80D47F651214AB80CE
:0B60A300CD7F47125A40BF47F8D2B52E
:0160AE0022CF
:103AD400200F077FC812634AD20F900106E0FF123D
:103AE40014AB7F07125A409000E5EFF064F86005CC
:103AF40012642AC20F900106E024C0B407004003F8
:103B0400023C83903B1575F003A4C58325F0C5835F
:103B140073023B2A023B5A023B8A023BBE023BF23F
:103B2400023C23023C549000E5E0B4F004126238F5
:103B3400229000E5E0FFB4E8079001067441F0220A
:103B4400EFB4D8079001067441F022EF64B8600323
:103B5400023C83D20E229000E5E0B4F00412640F1C
:103B6400229000E5E0FFB4E8079001067440F022DB
:103B7400EFB4D8079001067440F022EF64B86003F4
:103B8400023C83D20E229000E5E0B4F00412001E41
:103B9400229000E5E0FFB4E8079001067443F022A8
:103BA400EFB4D8079001067446F022EF64B86003BE
:103BB400023C839001067441F0229000E5E0B4F0E9
:103BC40004125F7F229000E5E0FFB4E8079001064D
:103BD4007444F022EFB4D8079001067442F022EF47
:103BE40064B86003023C839001067441F0229000A3
:103BF400E5E0B4F004125FCB229000E5E0FFB4E806
:103C0400079001067445F022EFB4D80790010674BA
:103C140043F022EF64B870679001067441F022907B
:103C240000E5E0B4F004126017229000E5E0FFB470
:103C3400E8079001067446F022EFB4D80790010615
:103C44007444F022EF64B870369001067441F02297
:103C54009000E5E0B4F004126063229000E5E0FF18
:103C6400B4E8079001067442F022EFB4D80790013B
:0F3C7400067445F022EFB4B8069001067441F0D3
:013C8300221E
:103F9300C20BC20CE4F52890009CE09000E6F0E42C
:103FA3009000C7F012642A90009CE0FF7E00124E3E
:103FB300E07F0F125A40BF0FF8300203024086E53C
:103FC3002864B87003024086200B077FC812634A37
:103FD300D20B7F07125A408F28E528B4F803E4F583
:103FE30027E52864D8703812642AC20BE527C394E6
:103FF3002850020527E527C3940A500890009CE047
:1040030004F08017E527C39414500990009CE02422
:1040130005F0800790009CE0240AF0D20C803CE578
:104023002864E8703612642AC20BE527C39428502B
:10403300020527E527C3940A500890009CE014F07A
:104043008017E527C39414500990009CE024FBF0EB
:10405300800790009CE024F6F0D20C90009CE0FFD7
:10406300D394C84005743CF0800CEFD3943C4006D5
:1040730090009C7401F090009CE0FF7E00124EE0E3
:10408300023FBC12642AC20B7F47125A40BF47F853
:104093003002099000E6E090009CF022300C5E7F35
:1040A300C812634A2002369000C7E06414602E15DC
:1040B30011A81176017D247B017A00799C1255B3F6
:1040C3009000C7EFF0BF84077F841214AB80D590B4
:1040D30000C7E0B485CE7F851214AB80C79000C7BC
:1040E300E0B414197F2D1214AB9000AFE0B4AA030F
:0D40F300123C847FFA1200037FFA120003D2
:01410000229C
:1049B000C20BC20CE4F5279000AFE0F528E49000AC
:1049C000C7F012642A9000AFE0FF1214AB7F0F1201
:1049D0005A40BF0FF8200271E52764B8606B200BC6
:1049E000077FC812634AD20B7F07125A408F27E510
:1049F00027B4D82412642AC20B9000AFE0FF64AA47
:104A00006004EFB45508EFF49000AFF0800690001A
:104A1000AF74AAF0D20C8027E527B4E82212642AEA
:104A2000C20B9000AFE0FF64556004EFB4AA08EF3A
:104A3000F49000AFF080069000AF7455F0D20C9067
:104A400000AFE0FF1214AB808C12642AC20B7F47C8
:104A5000125A40BF47F83002079000AFE528F02215
:104A6000300C63E49000D0F07FC812634A20023615
:104A70009000C7E06414602E1511A81176017D2501
:104A80007B017A0079AF1255B39000C7EFF0BF8475
:104A9000077F841214AB80D59000C7E0B485CE7F29
:104AA000851214AB80C79000C7E0B414197F2D1293
:104AB00014AB9000AFE0B4AA03123C847FFA12005A
:064AC000037FFA1200035F
:014AC60022CD
:105BF200200F077FC812634AD20F900103E0FF1201
:105C020014AB7F07125A409000E5EFF064F860058C
:105C120012642AC20F900103E024C7603004705856
:105C22009000E5E0B4F004123F93229000E5E0FF1B
:105C3200B4E8079001037439F022EFB4D807900159
:105C4200037439F022EF64B8702ED20E229000E570
:105C5200E0B4F0041249B0229000E5E0FFB4E80796
:105C62009001037438F022EFB4D80790010374381E
:085C7200F022EFB4B802D20EDB
:015C7A002207
:10537E007527FF75286475294A200F077FC81263A9
:10538E004AD20F7F07125A409000E5EFF064F860A2
:10539E000512642AC20FAB27AA28A9291211D1908F
:1053AE005EF393FF7D2012641E74012529F529E416
:1053BE003528F528905F3EE493FF7D1012641E742D
:1053CE00012529F529E43528F528AB27FAA9291254
:1053DE0011D1905EF393FF7D0812641E740125298E
:1053EE00F529E43528F528AB27FAA9291211D19011
:1053FE005F1B93FF7D0412641E74012529F529E4B9
:10540E003528F528AB27FAA9291211D1905EF3930E
:10541E00FF7D0212641E74012529F529E43528F555
:10542E0028AB27FAA9291211D1905EF393FF7D01C3
:0C543E0012641E9000E5E0B4B802D20E2B
:01544A00223F
:10256400200F077FC812634AD20F900105E024FCB4
:10257400700302261F1470030226AC147003022792
:10258400391470030227C6240660030228477FF02B
:10259400125A40EF64F0702E12642A9001047421E0
:1025A400F0C20FC20E7F47125A40BF47F8200208FC
:1025B400200E05122B1980F57F47125A40BF47F8A9
:1025C4007F171214AB227FE8125A40BFE8207F071E
:1025D400125A40BFF8F89001057404F0C202E49066
:1025E40000C7F012642AC20F7F151214AB227FD8E1
:1025F400125A40EF64D860030228477F07125A40FA
:10260400BFF8F89001057407F0C202E49000C7F027
:1026140012642AC20F7F181214AB227FF0125A40A0
:10262400EF64F0702E12642A9001027431F0C20F2C
:10263400C20E7F47125A40BF47F8200208200E05F9
:1026440012544B80F57F47125A40BF47F87F15124A
:1026540014AB227FE8125A40BFE8207F07125A4089
:10266400BFF8F89001057405F0C202E49000C7F0C9
:1026740012642AC20F7F161214AB227FD8125A405A
:10268400EF64D860030228477F07125A40BFF8F866
:102694009001057401F0C202E49000C7F012642AAC
:1026A400C20F7F171214AB227FF0125A40EF64F06E
:1026B400702E12642A9001067440F0C20FC20E7F7D
:1026C40047125A40BF47F8200208200E05123AD498
:1026D40080F57F47125A40BF47F87F161214AB2289
:1026E4007FE8125A40BFE8207F07125A40BFF8F82B
:1026F4009001057406F0C202E49000C7F012642A47
:10270400C20F7F191214AB227FD8125A40EF64D83B
:1027140060030228477F07125A40BFF8F89001056A
:102724007404F0C202E49000C7F012642AC20F7F5E
:10273400151214AB227FF0125A40EF64F0702E127F
:10274400642A9001037438F0C20FC20E7F47125AF4
:1027540040BF47F8200208200E05125BF280F57F87
:1027640047125A40BF47F87F191214AB227FE81270
:102774005A40BFE8207F07125A40BFF8F89001057D
:102784007407F0C202E49000C7F012642AC20F7FFB
:10279400181214AB227FD8125A40EF64D860030297
:1027A40028477F07125A40BFF8F89001057405F0D6
:1027B400C202E49000C7F012642AC20F7F161214FA
:1027C400AB227FF0125A40EF64F0702812642AC2E0
:1027D4000FC20E7F47125A40BF47F8200208200E4E
:1027E4000512537E80F57F47125A40BF47F87F1881
:1027F4001214AB227FE8125A40BFE8207F07125A16
:1028040040BFF8F89001057401F0C202E49000C7DB
:10281400F012642AC20F7F171214AB227FD8125A07
:1028240040BFD81F7F07125A40BFF8F890010574C3
:1028340006F0C202E49000C7F012642AC20F7F19A6
:042844001214AB229D
:105B6800C20F9000E2E5E6F0A3E5E7F0A3E5A8F0B0
:105B7800E4F5A8F5A8F5E6F5E77FF0125A40EF64DA
:105B8800F070507F1412634A7F0F125A40EF640F6F
:105B9800600B200208125660124CE180EB30023391
:105BA80012642A7F111214AB7F07125A40BFF8F80B
:105BB800C202E49000C7F090010504F07F171214A8
:105BC800AB20020F7FB8125A40EF64B86005122567
:105BD8006480EE12642AC2029000E2E0F5E6A3E0D7
:095BE800F5E7A3E0FFF5A88FA882
:015BF1002291
:0A61AF00010E04010F02410108086F
:10636300E4F584758E02C2A9C28CC28EC28D758972
:056373001175840F22EA
:10629D00AF84758401E4F5C8F5C975CB4CF5CA8595
:0E62AD00CBCD85CACCD2CAD2AF43E7018F84D5
:0162BB0022C0
:1063EC00AF84758402E4F5C8F5C975CB4CF5CA8F3A
:0163FC00841C
:0163FD00227D
:10638D00E4F584758CFE758A33D28C308DFDC28D0B
:04639D0075840F22D2
:10634A00E4F584D2AFD2AB758D4CF58B9000CBEFD0
:09635A00F0C202D28E75840F22FC
:0B642A00E4F584C2ABC28E75840F2223
:0B643500E4F584C2A9C28C75840F221C
:10000300A2AFE433FEEF600612638D1F80F7126424
:0600130035EE24FF92AF60
:0100190022C4
:10631700900082EFF0AF8475840285CBCD85CACC1F
:09632700D2CAD2AF43E7048F840F
:01633000224A
:03001B000262DBA3
:1062DB00C0E0C083C082758D4C758B009000CBE005
:0E62EB0014F0E07002D202D082D083D0E032F4
:03007300025D7BB0
:105D7B00C0E0C0F0C083C082C0D075D000C000C0EE
:105D8B0001C002C003C004C005C006C00730050D2A
:105D9B00D50E0AD51004C205D2B3750E0420040D1E
:105DAB009000B5E004F0B40804E4F0D204300A1C0F
:105DBB009000AFE0B4AA15900108E014F0700DC28A
:105DCB00AF120086D2AF9001087408F0C2CFD00793
:105DDB00D006D005D004D003D002D001D000D0D053
:095DEB00D082D083D0F0D0E03268
:03008300025D001B
:105D0000C0E0C083C082C0D075D000C006C00715F7
:105D10000FE50F7057900082E014F0704C30A5141E
:105D2000900085E0FEA3E0FF9000C6E02FF0900019
:105D3000C5E03EF030A415900085E0FEA3E0FFC36F
:105D40009000C6E09FF09000C5E09EF0C2CA9000AF
:105D5000DCE0FEA3E0FFC39000C6E09FFF9000C51B
:105D6000E09E9000BFF0A3EFF0750F02C2CFD00706
:0B5D7000D006D0D0D082D083D0E0322B
:1063780075840FC2DE000000D2DEC2D8C2D9D2DADC
:05638800C2DCD2DF229F
:065502008B418A4289433F
:10550800E4FBFAF547F546F545F544C2AF75840F57
:10551800126378C2DF30DB110BBB00010AD3EB94B6
:1055280000EA940240EF7FFE22D2DF00C2DA00E4F4
:10553800FBEBC394185037AF47AE46AD45AC447843
:10554800011213E38F478E468D458C4430DD17E5F5
:10555800472401F547E43546F546E43545F545E485
:105568003544F544800100D2DC0BC2DC80C3D2DABA
:10557800D2AFAF47AE46AD45AC44AB41AA42A94312
:105588001213F6E4FFFEFDFCAB47AA46A945A84462
:10559800C31213BF600F74FFFFFEFD7C00A844C355
:0A55A8001213BF70037FFE227F2D57
:0155B20022D6
:1050D3007B007A007931125502EF642D600512636B
:1050E3007880ED85343C85333B85323A853139858B
:1050F30034388533378532368531358534408533C9
:105103003F85323E85313DE4F5307B007A007931CD
:10511300125502EF642D600512637880EDE540259A
:1051230034F540E53F3533F53FE53E3532F53EE5B1
:105133003D3531F53DAF3CAE3BAD3AAC39AB34AA6E
:1051430033A932A831D31213BF400E85343C8533C3
:105153003B85323A8531398022AF38AE37AD36AC34
:1051630035AB34AA33A932A831C31213BF500C850F
:1051730034388533378532368531350530E530C3EC
:1051830094114086C3E540953CF540E53F953BF5DA
:105193003FE53E953AF53EE53D9539F53DC3E5409E
:1051A3009538F540E53F9537F53FE53E9536F53EB5
:1051B300E53D9535F53DAF40AE3FAD3EFC7804127D
:0251C30013D007
:0151C50022C7
:1051C6007B007A00792C125502BF2DF4852F378586
:1051D6002E36852D35852C34852F33852E32852D1B
:1051E60031852C30852F3B852E3A852D39852C38F7
:1051F600E4F52B7B007A00792C125502BF2DF4E5DD
:105206003B252FF53BE53A352EF53AE539352DF5B3
:1052160039E538352CF538AF37AE36AD35AC34AB6D
:105226002FAA2EA92DA82CD31213BF400E852F37D7
:10523600852E36852D35852C348022AF33AE32ADA2
:1052460031AC30AB2FAA2EA92DA82CC31213BF50F8
:105256000C852F33852E32852D31852C30052BE597
:105266002BC39441408DC3E53B9537F53BE53A9515
:1052760036F53AE5399535F539E5389534F538C3D7
:10528600E53B9533F53BE53A9532F53AE539953107
:10529600F539E5389530F538AF3BAE3AAD39FC789F
:0452A600061213D009
:0152AA0022E1
:105906008F338E328D318C309000D8E0F8A3E0F9D9
:10591600A3E0FAA3E0FB9000A4E0FFE4FCFDFE1286
:10592600127E9000D81214309000D8E0F8A3E0F967
:10593600A3E0FAA3E0FBC000C001C002C0039000D0
:10594600A4E0FFC374649FFFE49400FEE4FCFDAB97
:1059560033AA32A931A83012127ED003D002D00168
:10596600D000EB2FFFEA3EFEE93DFDE83CFC90004F
:10597600D81214309000D8E0FCA3E0FDA3E0FEA30B
:10598600E0FFE47B64FAF9F81213099000D81214C8
:10599600309000D8E0FCA3E0FDA3E0FEA3E0FF22E8
:105EC5001250D3125906E412101C8F2F8E2E8D2DD1
:105ED5008C2CAB2FAA2EA92DA82CC000C001C00266
:105EE500C0039000B6E0FCA3E0FDA3E0FEA3E0FF45
:105EF500E412101CD003D002D001D000120E768F10
:105F05002F8E2E8D2D8C2C7BFF7AFF797F784B126F
:0D5F15000F7F8F2F8E2E8D2D8C2C12105A89
:015F2200225C
:1062BC00125EC590009EE0F8A3E0F9A3E0FAA3E01B
:0E62CC00FBC3EF9BFFEE9AFEED99FDEC98FCF4
:0162DA0022A1
:105862001251C69000D81214309000D8E0FCA3E088
:10587200FDA3E0FEA3E0FFE412101C8F2A8E298D07
:10588200288C27AB2AAA29A928A827C000C001C0B2
:1058920002C0039000B6E0FCA3E0FDA3E0FEA3E09B
:1058A200FFE412101CD003D002D001D000120E76F9
:1058B2008F2A8E298D288C277BFF7AFF797F784B60
:1058C200120F7F8F2A8E298D288C27C004C005C015
:1058D20006C00790009EE0FCA3E0FDA3E0FEA3E06B
:1058E200FFEC12101CA804A905AA06AB07D007D02A
:1058F20006D005D004120D818F2A8E298D288C277F
:0359020012105A26
:01590500227F
:105660001262BCEC12101C8F2A8E298D288C27AB5D
:105670002AAA29A928A827C000C001C002C00390F7
:1056800000A5E0FCA3E0FDA3E0FEA3E0FFE4121010
:105690001CD003D002D001D000120E768F2A8E29A2
:1056A0008D288C27C004C005C006C0079000C1E04B
:1056B000FCA3E0FDA3E0FEA3E0FFE412101CA8049D
:1056C000A905AA06AB07D007D006D005D004120F53
:1056D0007F8F2A8E298D288C27C004C005C006C064
:1056E000079000B0E0FCA3E0FDEC121021A804A993
:1056F00005AA06AB07D007D006D005D004120D814D
:0B5700008F2A8E298D288C2712105A4A
:01570B00227B
:10570C00125862EC12101C8F268E258D248C23AB24
:10571C0026AA25A924A823C000C001C002C003905A
:10572C0000A5E0FCA3E0FDA3E0FEA3E0FFE4121063
:10573C001CD003D002D001D000120E768F268E25FD
:10574C008D248C23C004C005C006C0079000C1E0A6
:10575C00FCA3E0FDA3E0FEA3E0FFE412101CA804F0
:10576C00A905AA06AB07D007D006D005D004120FA6
:10577C007F8F268E258D248C23C004C005C006C0C7
:10578C00079000B0E0FCA3E0FDEC121021A804A9E6
:10579C0005AA06AB07D007D006D005D004120D81A0
:0B57AC008F268E258D248C2312105AAE
:0157B70022CF
:0561B900C11001080502
:1060F600858425E4F584F5C875C908AB07AA06A901
:1061060005A804FF7E807D517C01121309E47B10F3
:10611600FAF9F812130912139B8ECB8FCA85CBCDD1
:1061260085CACCD2CAE4F5847598D0759115C2ACEF
:05613600D299852584CB
:01613B002241
:1062F9001511A811A607E4F5843099FDC299A811D2
:0E630900E6FFA2D0929BF59975840F05112234
:1061F000E4FFF5842098062086FA7FA522309811C6
:10620000E599A2D0309A01B350027F01121217C251
:046210009875840FEA
:016214002267
:103C8400C20DE4F52CF52BF52AF529F52F750C4218
:103C9400F509750D3290009CE090003CF0A3740689
:103CA400F0A374FAF0A37407F0A3741FF0A3742FA5
:103CB400F0A3741FF0A3742FF0A3741FF0A3742F48
:103CC400F0A3741FF0900054E50CF0A3E50DF0A3ED
:103CD400E509F0E490006CF0F52D743C252DF58297
:103CE400E43400F583E0FF90006CE02FF0052DE54F
:103CF4002DB430E6C287E4752C18752B13F52AF51C
:103D040029782974FF121412EC4D4E4F70F3D287A8
:103D1400E4F52CF52BF52AF52930861678291214AA
:103D2400107B007AB079017800C31213BF50EA7F88
:103D3400A522E4F52D743C252DF582E43400F583A9
:103D4400E0FF1262F9052DE52DC3943140E7E4F557
:103D54002CF52BF52AF52920861678291214107BC8
:103D6400007AB079017800C31213BF50EA7FA5220C
:103D7400E4F52D7400252DF9E43400FA7B01126179
:103D8400F08F2EE52E7009052DE52DC3943140E307
:103D9400E52E6003023CF8F52D7400252DF582E430
:103DA4003400F583E0252EF52E052DE52DB430E9FC
:103DB400900030E0652E6003023CF8900000E0655E
:103DC400086003023CF8A3E06003023CF8752D028E
:103DD4007400252DF582E43400F583E0B4AA0705C8
:103DE4002DE52DB430EAE52DB430048011800205B0
:103DF4002FE52FD394145003023CF87F8B22E4F573
:103E04002D7400252DF582E43400F583E4F0052DAE
:073E1400E52DB43CEC7F2D0D
:013E1B002284
:1063A100E4FF9000AFE0B4AA0A30B007C2AF123CDC
:0363B10084D2AFE4
:0163B40022C6
:1060AF009000AFE064AA703E90001FE030E03090A7
:1060BF00006CE020E030E49000B0F0A3F0125EC579
:1060CF0090009E1214301511A81176047D027B01E9
:1060DF007A00799E1255B390006CE04401F0229043
:0760EF00006CE054FEF022FA
:105DF4009000AFE064AA70621262BC8F288E278D77
:105E0400268C25752900752A00752B25AB29052BB1
:105E1400E52BAA2A7002052A14F91211D190006EFA
:105E2400F0052BE52BAA2A7002052A14F91211D1C8
:105E340090006FF0052BE52BAA2A7002052A14F9AD
:105E44001211D1900070F0052BE52BAA2A700205DF
:0A5E54002A14F91211D1900071F028
:015E5E002221
:10008600E4F548F555F554F553F552E50C14F50A23
:10009600E50D14F50BE490003CF07556017557001C
:1000A6007558CEAB560558E558AA57700205571431
:1000B600F91211D190003DF00558E558AA57700283
:1000C600055714F91211D190003EF09000D2E0903D
:1000D600003FF07556017557007558DCAB5605584C
:1000E600E558AA577002055714F91211D19000402D
:1000F600F00558E558AA577002055714F91211D1A0
:10010600900041F09000CDE0900042F075560175E8
:1001160057007558A9AB560558E558AA57700205F9
:100126005714F91211D1900043F00558E558AA5713
:100136007002055714F91211D1900044F09000A3F3
:10014600E0900045F090009DE0900046F075560165
:100156007557007558C9AB560558E558AA57700229
:10016600055714F91211D1900047F00558E558AA21
:10017600577002055714F91211D1900048F09000FB
:10018600D3E0900049F0755601755700755885AB58
:10019600560558E558AA577002055714F91211D199
:1001A60090004AF00558E558AA577002055714F909
:1001B6001211D190004BF0900084E090004CF0902A
:1001C60000CCE090004DF07556017557007558B695
:1001D600AB560558E558AA577002055714F912117F
:1001E600D190004EF00558E558AA577002055714ED
:1001F600F91211D190004FF00558E558AA57700230
:10020600055714F91211D1900050F00558E558AA77
:10021600577002055714F91211D1900051F0755616
:10022600017557007558C1AB560558E558AA577061
:1002360002055714F91211D1900052F00558E558ED
:10024600AA577002055714F91211D1900053F00500
:1002560058E558AA577002055714F91211D19000A3
:1002660054F00558E558AA577002055714F91211AB
:10027600D1900055F07556017557007558A5AB56C7
:100286000558E558AA577002055714F91211D1906E
:100296000056F00558E558AA577002055714F9128A
:1002A60011D1900057F00558E558AA577002055726
:1002B60014F91211D1900058F00558E558AA577054
:1002C60002055714F91211D1900059F075560175AF
:1002D600570075589EAB560558E558AA5770020543
:1002E6005714F91211D190005AF00558E558AA573B
:1002F6007002055714F91211D190005BF00558E50C
:1003060058AA577002055714F91211D190005CF0E3
:100316000558E558AA577002055714F91211D190DD
:10032600005DF0E4900060F0A3F020B207A3E04483
:1003360080F08007900062E0547FF020B1099000C1
:1003460062E04440F08007900062E054BFF020B3C2
:1003560009900062E04420F08007900062E054DFDC
:10036600F020B409900062E04410F080079000622B
:10037600E054EFF020B509900062E04408F08007F1
:10038600900062E054F7F075560175570175588074
:10039600AB560558E558AA577002055714F91211BD
:1003A600D1900063F00558E558AA57700205571416
:1003B600F91211D1900064F00558E558AA57700259
:1003C600055714F91211D1900065F00558E558AAA1
:1003D600577002055714F91211D1900066F0755640
:1003E600017557007558B3AB560558E558AA5770AE
:1003F60002055714F91211D1900067F00558E55817
:10040600AA577002055714F91211D1900068F0909E
:1004160000ABE0FCA3E0FDA3E0FEA3E0FFEC33505D
:1004260007E4F54AF54B80048E4A8F4B75560075E6
:10043600570075584AAB560558E558AA5770020535
:100446005714F91211D1900069F00558E558AA57CA
:100456007002055714F91211D190006AF0743C2508
:100466000AF582E43400F583E4F0F548E548C395DF
:100476000A501F743C2548F582E43400F583E0FFFA
:10048600743C250AF582E43400F583E02FF0054834
:1004960080DAE4F555F554F553F552308616785260
:1004A6001214107B007AB079017800C31213BF5082
:1004B600EA7FA522E4F548E548C3950C5014743C40
:1004C6002548F582E43400F583E0FF1262F9054819
:1004D60080E5E4F555F554F553F552208616785225
:1004E6001214107B007AB079017800C31213BF5042
:1004F600EA7FA522E4F548E548C3950D5018740037
:100506002548F9E43400FA7B011261F08F49E54988
:100516007004054880E1E5497037F549F548E54836
:10052600C3950B501474002548F582E43400F58316
:10053600E02549F549054880E57400250BF582E478
:100546003400F583E0654960057549FC8003E4F5F0
:1005560049E5496002FF22900020E030E204D2B172
:10056600D2B2900020E030E102D2B590001EE02029
:10057600E00302069190006BE030E00302069875F6
:10058600560075570075584A900001E0FFAB5605B6
:1005960058E558AA577002055714F9EF121217902A
:1005A6000002E0FFAB560558E558AA5770020557FA
:1005B60014F9EF121217C3E54B94F0E54A9455402F
:1005C6006FAE4AAF4BE4FCFD7BE87AFDF9F81213F7
:1005D600A9405D9000C6E0254BFF9000C5E0354A76
:1005E600FE9000CEE0FCA3E0FDC3EF9DFFEE9CFE77
:1005F6009000C5F0A3EFF09000DCE0FCA3E0FDC3A3
:10060600EF9DFFEE9C9000BFF0A3EFF09000CEE5CB
:100616004AF0A3E54BF01511A81176027D007B0187
:100626007A0079CE125C7B90005EE054BFF08007C2
:1006360090005EE04440F0900003E0D3945A503BB3
:10064600E09000D2F01511A81176017D067B017AA3
:100656000079D2125C7B9000D2E0FCE41210267B7B
:10066600CD7ACC798C783F120E7612105A9000A46F
:10067600EFF090005EE0547FF0800790005EE0446B
:1006860080F090006BE04401F0800790006BE0542E
:10069600FEF090001EE020E10302076D90006BE083
:1006A60030E10302077475560075570075584A9075
:1006B6000004E0FFAB560558E558AA5770020557E7
:1006C60014F9EF121217900005E0FFAB560558E536
:1006D60058AA577002055714F9EF121217C3E54BC3
:1006E6009464E54A9400404AD3E54B9410E54A9455
:1006F60027503F9000DCE54AF0A3E54BF09000DC84
:10070600E0FEA3E0FFC39000C6E09FFF9000C5E0B7
:100716009E9000BFF0A3EFF01511A81176027D0799
:100726007B017A0079DC125C7B90005EE054DFF09E
:10073600800790005EE04420F0900006E064AA6026
:1007460004E0B45519900006E09000CDF01511A80C
:100756001176017D097B017A0079CD125C7B9000D0
:100766006BE04402F0800790006BE054FDF09000CF
:100776001EE020E2030209FB90006BE030E2030278
:100786000A0275560075570075584E900012E0FF24
:10079600AB560558E558AA577002055714F9EF12DB
:1007A6001217900013E0FFAB560558E558AA57708C
:1007B60002055714F9EF121217900014E0FFAB561A
:1007C6000558E558AA577002055714F9EF12121783
:1007D600900015E0FFAB560558E558AA577002057C
:1007E6005714F9EF1212177FA07E867D017C00ABAD
:1007F60051AA50A94FA84EC31213BF60507FF07E76
:10080600497D027C00A84EC31213BF60407F407E24
:100816000D7D037C00A84EC31213BF60307F907E0F
:10082600D07D037C00A84EC31213BF60207FE07EFC
:10083600937D047C00A84EC31213BF60107F307EE8
:10084600577D057C00A84EC31213BF7028AF51AE6A
:1008560050AD4FAC4E9000B61214301511A811765B
:10086600047D157B017A0079B6125C7B90005FE00F
:10087600547FF0800790005FE04480F07556007565
:10088600570075584E900016E0FFAB560558E558D0
:10089600AA577002055714F9EF121217900017E0C5
:1008A600FFAB560558E558AA577002055714F9EFDD
:1008B600121217900018E0FFAB560558E558AA57D4
:1008C6007002055714F9EF121217900019E0FFABEA
:1008D600560558E558AA577002055714F9EF121233
:1008E60017E47F387E4AFDFCAB51AA50A94FA84EAB
:1008F600C31213BF4037E47F307EF2FDFCA84ED30F
:100906001213BF5028AF51AE50AD4FAC4E9000C140
:100916001214301511A81176047D207B017A007916
:10092600C1125C7B90005FE054EFF0800790005F9F
:10093600E04410F075560075570075584E90001A31
:10094600E0FFAB560558E558AA577002055714F94B
:10095600EF12121790001BE0FFAB560558E558AA98
:10096600577002055714F9EF12121790001CE0FF9A
:10097600AB560558E558AA577002055714F9EF12F9
:10098600121790001DE0FFAB560558E558AA5770A0
:1009960002055714F9EF121217E47F207E4EFDFC74
:1009A600AB51AA50A94FA84EC31213BF4037E47FDC
:1009B600607EEAFDFCA84ED31213BF5028AF51AE9D
:1009C60050AD4FAC4E9000A51214301511A81176FB
:1009D600047D197B017A0079A5125C7B90005FE0AB
