:030000000259A5FD
:1059A500787FE4F6D8FD9000007FFF7E01E4F0A348
:0A59B500DFFCDEFA7581580259FA92
:03645000C28322E2
:03645300D28322CF
:03645600C28222DD
:03645900D28222CA
:0D0076001264591264531264561264502231
:0A643F0012645312645612645922CD
:1063C700EF60051264568003126459126453126415
:0263D700502252
:1063FD007F01126450126453308202E41F12645004
:01640D00226C
:10625A00E4FEEFA806088002C333D8FC30E7051233
:10626A00645980031264561264531264500EBE08B5
:01627A00E142
:01627B002200
:10633000E4FF126459FE126453EF25E0FF3082013E
:086340000F1264500EBE08EEBE
:016348002232
:03645C00D28422C5
:105C7A001511A811A605151115111511A811A603BC
:105C8A0008A60208A601C2847F0A1200031200763F
:105C9A007FA012625A1263FDEF7003FF8050E51174
:105CAA002403F8E6FF12625A1263FDEF7003FF80C5
:105CBA003DE5112404F8E6602EA811860308E6FAE9
:105CCA0008E6F91211D1FF12625A1263FDEF70034E
:105CDA00FF801BA8110808740126F618E436F6E5B9
:105CEA00112404F81680CA12643FD2847FFDE5119C
:055CFA002405F5112254
:1057B7001511A811A605151115111511A811A60384
:1057C70008A60208A601E5112404F8161200767F40
:1057D700A012625A1263FDEF7004FEFF8075E51197
:1057E7002403F8E6FF12625A1263FDEF7004FEFF0E
:1057F70080611200767FA112625A1263FDEF700476
:10580700FEFF804FE5112404F8E6602A126330A8F2
:1058170011860308E6FA08E6F9EF121217A811082D
:1058270008740126F618E436F6E5112404F8167F05
:10583700011263C780CE126330A811860308E6FA07
:1058470008E6F9EF121217E4FF1263C712643F7EEE
:0A585700007FFDE5112405F5112284
:1063D9001511A811A62B1257B7BFFD037F13227FF2
:0163E9008330
:0163EA002290
:1055B2001511A811A605151115111511A811A6038B
:0C55C20008A60208A601E51124F7F51167
:1055CE00240DF8E61511A811F6E511240DF8E6FDE7
:1055DE00E511240AF8860308E6FA08E6F9125C7A61
:1055EE00EF64FD7063E511240DF8E61511A811F6B0
:1055FE00E511240DF8E6FD7B00A91109097A0012C8
:10560E0057B7EF64FD4E7040A811F6E511240DF961
:10561E00A811E6C397502DE5112409F8860308E674
:10562E00FA08E6F9A811E6FFF5827583001211EA71
:10563E00FEA81108E82FF8E66E60047F85800BA89F
:0A564E00110680C77F1480027F84DC
:07565800E511240EF51122FB
:105F2200C0F9A4B0999282F880908883C6A7A1860E
:105F32008E898BC7ABC8A38CAF87C1BFFFB9F7EF00
:105F4200000000000000000040792430191202789D
:105F520000108883C627A1868E898BC7ABC8A38C05
:105F6200AF87C1BF7FB9F7EF00000000000000005B
:0C5F72001C1C1C1C1C1C1C1C1C1C1C1CD3
:0C641D0075840FED42F88FE853F8C022A0
:084CE0008F2A8E298D288C27F4
:104CE800E47F9C7EFEFDFCAB2AAA29A928A827D32D
:104CF8001213A940067F011214AB227F787EEC7D47
:104D0800FF7CFFAB2AAA29A928A827C31213A950F8
:104D1800067F021214AB22AF2AAE29AD28AC27ECCD
:104D2800334004C20C8015D20CAF2AAE29AD28AC92
:104D38002712139B8F2A8E298D288C27E49000E850
:104D4800F0E47B0AFAF9F8AF2AAE29AD28AC2712AD
:104D5800613B9000E8E024E9F582E43400F583EB58
:104D6800F0AF2AAE29AD28AC27E47B0AFAF9F8128D
:104D7800613B8F2A8E298D288C279000E8E004F06B
:104D8800E0B406BD200C0B9000EDE07016741CF02A
:104D98008011300C089000ED741BF080067F86129D
:104DA80014AB229000EAE0905F2293FF7D01126429
:104DB8001D9000EBE0905F2293FF0D12641D9000A0
:104DC800ECE0905F4A93FF7D0412641D9000EDE0D3
:0A4DD800905F2293FF7D0812641D16
:014DE20022AE
:084891008F2E8E2D8D2C8C2B37
:1048990043F83F75E8FF53F8C0AF2EAE2DAD2CACF1
:1048A9002BEC334004C20D8015D20DAF2EAE2DADC9
:1048B9002CAC2B12139B8F2E8E2D8D2C8C2BE490D0
:1048C90000F5F0E47B0AFAF9F8AF2EAE2DAD2CAC69
:1048D9002B12613B9000F5E024F6F582E43400F5F3
:1048E90083EBF0AF2EAE2DAD2CAC2BE47B0AFAF99D
:1048F900F812613B8F2E8E2D8D2C8C2B9000F5E0BC
:1049090004F0E0B406BD200D179000FBE0703E9066
:1049190000FAE07003741CF09000FB741CF0802D09
:10492900300D249000FBE070169000FAE0700874D6
:104939001BF0A304F080169000FB741BF0800E900E
:1049490000FB741DF080067F861214AB229000F6DE
:10495900E0905F2293FF7D0112641D9000F7E090C3
:104969005F2293FF0D12641D9000F8E0905F22937F
:10497900FF7D0412641D9000F9E0905F4A93FF7D6A
:104989000812641D9000FAE0905F2293FF7D1012D7
:10499900641D9000FBE0905F2293FF7D2012641D4F
:0549A9007F0112000374
:0149AE0022E6
:0214AB008F2F81
:1014AD0078FC7C007D017BFF7A5F79727E007F0680
:1014BD001211ABE52F12146D15BC0115CB0219FFDE
:1014CD001015D51115EA15161A1615FF17165618FB
:1014DD00163519175F20191B21191B22191B2319EA
:1014ED001B24191B25191B26191B27191B28191B12
:1014FD0029191B2A191B2B191B2C166B2D16F52EB2
:10150D00171A2F16A53116C03216DB33194E38199E
:10151D004E39173F40177F4117A44217BF4317DAC3
:10152D004417F545181046168455199B61199B6291
:10153D00199B63199B64199B6519B46619B46719D6
:10154D00B46819B46919B46A18E48018E48118E410
:10155D008218E48318E48418E48518E48618E48777
:10156D0018E48818E48918E48A18E48B18E48C18B8
:10157D00E48D18E48E18E48F1982911982921982E4
:10158D0093198294198295198296198297198298C6
:10159D00198299182BA01850A11875A2189AA31882
:1015AD00BFA419D0A51697AA1A52FF000019E790EB
:1015BD0000FF7416F09000FE7413F00219FF9000F6
:1015CD00FF741DF00219FF229001017405F09001C6
:1015DD0000740FF09000FF7419F00219FF900101D3
:1015ED00740CF0900100740AF09000FF7413F00277
:1015FD0019FF9001017410F0900100741AF0900021
:10160D00FF7415F09000FE740CF00219FF900101AB
:10161D007419F0900100740FF09000FF7405F090B4
:10162D0000FE7419F00219FF900101740EF0900183
:10163D00007417F09000FF7405F09000FE740FF029
:10164D009000FD7419F00219FF900101741AF090C9
:10165D000100740FF09000FF7418F00219FF900153
:10166D00017409F09001007416F09000FFF09000E5
:10167D00FE740EF00219FF9000FE7416F09000FD3E
:10168D007410F09000FCF00219FF9000FD7416F03C
:10169D009000FC14F00219FF9001017405F0900107
:1016AD00007417F09000FF740AF09000FE7415F0AE
:1016BD000219FF9001017419F0900100740AF09065
:1016CD0000FF7418F09000FE740FF00219FF9001E6
:1016DD00017409F090010004F09000FF741FF09068
:1016ED0000FE7415F00219FF900101740FF09001C6
:1016FD00007418F09000FFF09000FE741BF0900045
:10170D00FD740CF09000FC7413F00219FF900101B0
:10171D00740FF09001007418F09000FFF09000FE2F
:10172D00741BF09000FD7411F09000FC7413F00226
:10173D0019FF900101741FF09001007415F09000D5
:10174D00FF7417F09000FE741AF09000FD14F00273
:10175D0019FF9001017415F090010004F09000FF45
:10176D00741BF09000FE741FF09000FD7415F002D4
:10177D0019FF9001017416F0900100741AF0900099
:10178D00FF14F09000FE7417F09000FD741AF090A5
:10179D0000FC14F00219FF900101740EF09001008D
:1017AD007416F09000FF741BF09000FE7401F002AF
:1017BD0019FF900101740EF09001007416F0900065
:1017CD00FF741BF09000FE7402F00219FF900101EE
:1017DD00740EF09001007416F09000FF741BF090E1
:1017ED0000FE7403F00219FF900101740EF09001D8
:1017FD00007416F09000FF741BF09000FE7404F05E
:10180D000219FF900101740EF09001007416F09012
:10181D0000FF741BF09000FE7405F00219FF90019B
:10182D0001740FF09001007418F09000FFF090001B
:10183D00FE741BF09000FD7405F09000FC7417F021
:10184D000219FF900101740FF09001007418F090CF
:10185D0000FFF09000FE741BF09000FD7413F090EB
:10186D0000FC7405F00219FF900101740FF0900156
:10187D00007418F09000FFF09000FE741BF09000C3
:10188D00FD7411F09000FC7417F00219FF90010126
:10189D00740FF09001007418F09000FFF09000FEAE
:1018AD00741BF09000FD7416F09000FC7411F002A2
:1018BD0019FF900101740FF09001007418F0900061
:1018CD00FFF09000FE741BF09000FD7416F0900078
:1018DD00FC7413F00219FFE52F2480FBE434FFFAAA
:1018ED007C007D0AAF03FE1212299000FCEDF07C06
:1018FD00007D0AAF03AE02121229A3EFF0A3741BF1
:10190D00F0A37418F0A3F0A3740FF00219FFE52FE4
:10191D0024E0FBE434FFFA7C007D0AAF03FE1212D3
:10192D00299000FDEDF07C007D0AAF03AE0212128E
:10193D0029A3EFF0A3741EF0A3F0A37410F0021905
:10194D00FFE52F24C9FBE434FFFA7C007D0AAF03C9
:10195D00FE1212299000FDEDF07C007D0AAF03AE62
:10196D0002121229A3EFF0A3741EF0A37417F0A3B3
:10197D00740EF0807D9000FC7415F0A304F0A37438
:10198D001BF0E52F2470A3F0A3741FF0806490006A
:10199D00FC7415F0A304F0A3741BF0E52F24A0A391
:1019AD00F0A37416F0804B9000FC7410F0A3F0A31C
:1019BD007416F0A3741BF0E52F249BA3F0A37416EB
:1019CD00F0802F9000FC7419F0A304F0A37416F0AE
:1019DD00A3741BF0A37419F080189000FC740FF021
:1019ED00A314F0A37416F0A3740CF0A37416F0A353
:1019FD0014F09000FCE0905F2293FF7D0112641DB6
:101A0D009000FDE0905F2293FF0D12641D9000FE8B
:101A1D00E0905F2293FF7D0412641D9000FFE09023
:101A2D005F2293FF7D0812641D900100E0905F22FC
:101A3D0093FF7D1012641D900101E0905F2293FFD2
:051A4D007D2012641D64
:011A52002271
:106214008F2A8E298D288C277F101214AB7F64124D
:106224000003AF2AAE29AD28AC271248917F64122F
:0362340000032242
:044EDF008E2A8F2B5D
:104EE30078E87C007D017BFF7A5F79787E007F061E
:104EF3001211ABE49000E7F09000E7E0FBC39406E7
:104F0300502EAE2AAF2B7C007D0A12122974E82B97
:104F1300F582E43400F583EDF0AE2AAF2B7C007DFF
:104F23000A1212298E2A8F2B9000E7E004F080C822
:104F33009000EDE07003741CF09000ECE0700BA3A4
:104F4300E0B41C069000EC741CF09000EBE0700BD6
:104F5300A3E0B41C069000EB741CF09000EAE07030
:104F63000BA3E0B41C069000EA741CF09000E9E087
:104F7300700BA3E0B41C069000E9741CF09000E8E9
:104F8300E0905F2293FF7D0112641D9000E9E090A1
:104F93005F2293FF0D12641D9000EAE0905F22935D
:104FA300FF7D0412641D9000EBE0905F2293FF7D70
:104FB3000812641D9000ECE0905F2293FF7D1012B5
:104FC300641D9000EDE0905F2293FF7D2012641D2D
:054FD3007F0112000344
:014FD80022B6
:025A3F008F2BAB
:105A4100E49000F6F0E59054F89000F5F0E52B12A3
:105A5100146D5A7B075A850F5A85175A85275A9212
:105A6100375A85475AA4785A85875AA4B85AA4D870
:105A71005AA4E85AA4F000005AAF9000F5E0FF6480
:105A8100F8702E22E52BF4FE9000F5E0FF6E7021F8
:105A9100229000F5E0FEB4D8037FF822EEB4E811BD
:105AA1007FF8229000F5E0652B60067FF822AF2B8E
:105AB100227F1E1200039000F6E004F0E0C394047C
:105AC10040837F78120003E52BB407069000F5E0D0
:045AD100FF22AF2BD6
:015AD50022AE
:105AD600E49000E7F0E59020E0117F0312000390C8
:105AE60000E7E004F0E0C3940440EA9000E7E0B485
:105AF60004037F9622E49000E7F0E5A0B4FF037F5D
:105B060020227F031200039000E7E004F0E0C39434
:105B16000440E79000E6E5A0F0E0FE20E0037F9970
:105B260022EE20E1037F98229000E6E0FE20E203C9
:105B36007F9722EE20E3037F94229000E6E0FE208A
:105B4600E4037F9322EE20E5037F91229000E6E0B6
:105B5600FE20E6037F9222EE20E7037F95227F2038
:015B6600221C
:10617F004400D8000000004100C8004100830041E6
:10618F0000D0004100C7004100B20041008200C1B1
:0F619F0001C100C106C108C10AC105C107C18401
:10284800125E5EE49000B0F0A3F012565F9000B004
:10285800EEF0A3EFF0D394ACEE6480948D400E7F3D
:10286800A31214ABE49000B0F0A3F0801DC3900055
:10287800B1E094549000B0E064809472500C7FA44E
:102888001214ABE49000B0F0A3F0125B671231D9D8
:04289800D2B1D2B235
:10289C001263A0BFA518900083E004F0E0D394036A
:1028AC00400C9000AF7455F09000D07401F01260A1
:1028BC00AE125DF3125B671243A61231D912565F4A
:1028CC009000AB12143020A02E9000C8E0B4010D83
:1028DC00905F2FE493FF7D2012641D80129000C83E
:1028EC00E0B4020B905F66E493FF7D2012641D90B0
:1028FC0000A27401F080419000D0E0600D905F3137
:10290C00E493FF7D2012641D802E905F3EE493FFC4
:10291C007D2012641D9000A2E0B4011C9000C8E060
:10292C00FFB401057402F0800AEFB402069000C8EF
:10293C007401F0E49000A2F0905F3EE493FF7D10F0
:10294C0012641D9000ABE0F8A3E0F9A3E0FAA3E059
:10295C00FB9000BAE0FCA3E0FDA3E0FEA3E0C39B68
:10296C00FFEE9AFEED99FDEC98FCE47BC8FAF9F8C1
:10297C00C31213A95002D2049000BAE0F8A3E0F9F4
:10298C00A3E0FAA3E0FB9000ABE0FCA3E0FDA3E026
:10299C00FEA3E0C39BFFEE9AFEED99FDEC98FCE4E0
:1029AC007BC8FAF9F8C31213A95002D20430042CD4
:1029BC009000ABE0FCA3E0FDA3E0FEA3E0FF9000E1
:1029CC00BA1214309000BAE0FCA3E0FDA3E0FEA321
:1029DC00E0FF124CE0E49000B5F0C204E47F887E86
:1029EC0013FDFC9000ABE0F8A3E0F9A3E0FAA3E040
:1029FC00FBC31213A95003022B129000CDE0B4AA12
:102A0C003DE47F207E4EFDFC9000ABE0F8A3E0A3FC
:102A1C00E0A3E0C31213A95004D2B280219000BFEE
:102A2C00E0FEA3E0FFE4FCFD9000ABE0F8A3E0F9CE
:102A3C00A3E0FAA3E0FBC31213A94002C2B29000B8
:102A4C00C6E02448FF9000C5E034F4FEE4FCFD90A1
:102A5C0000ABE0F8A3E0F9A3E0FAA3E0FBD3121378
:102A6C00A94002C20A9000C5E0FEA3E0FFFBAA0643
:102A7C00E49000ABE0FCA3E0FDA3E0FEA3E0C39B6D
:102A8C00FFEE9AFEED9400FDEC9400FC9000DE123B
:102A9C001430E47FF47E01FDFC9000DEE0F8A3E04E
:102AAC00F9A3E0FAA3E0FBD31213A94006124101EB
:102ABC0002289CE47FC8FEFDFC9000DEE0F8A3E059
:102ACC00F9A3E0FAA3E0FBD31213A94009300706DF
:102ADC0012410102289C9000DEE0FCA3E0FDA3E083
:102AEC00FEA3E0FFEC334016D2079000D1E004F0D7
:102AFC00E06403600302289C12410102289CE490CC
:092B0C0000D1F002289C124FD9FF
:042B150002289C22D4
:104FD9003001030250D12000030250D130A0030256
:104FE90050D19000B0E0FFA3E09000E2CFF0A3EF32
:104FF900F0E49000B0F0A3F012570B9000AB12143C
:1050090030E47FAC7E0DFDFC9000ABE0F8A3E0F945
:10501900A3E0FAA3E0FBD31213A950197F547EF23F
:105029007DFF7CFF9000ABE0F8A3E0A3E0A3E0C321
:105039001213A950549000E2E0FFA3E09000B0CF12
:10504900F0A3EFF0E47FAC7E0DFDFC9000ABE0F83F
:10505900A3E0F9A3E0FAA3E0FBD31213A940077F69
:10506900A31214AB80527F547EF27DFF7CFF900027
:10507900ABE0F8A3E0F9A3E0FAA3E0FBC31213A99C
:1050890050367FA41214AB802F905F2EE493FF7DDE
:105099002012641D9000ABE0FCA3E0FDA3E0FEA399
:1050A900E0FF124CE09000ABE0A3E0A3E0FFA3E037
:1050B9009000B0CFF0A3EFF0C20030A0FD9000C87F
:0850C9007402F0E49000A2F073
:0150D10022BC
:104101009000CEE0FEA3E0FF7C007D05121229EFB6
:1041110025E0F524EE33F523D204C2B2C2B1D20AAE
:10412100E49000D1F0C207905F3E93FF7D201264BE
:104131001D905F3EE493FF7D2012641DAE23AF24EA
:10414100E4FCFD9000ABE0F8A3E0F9A3E0FAA3E002
:10415100FBC31213A9500302420C12565F9000AB2D
:10416100121430125DF320A068905F66E493FF7D26
:104171002012641D7F0A126349C20430A0FD900021
:10418100C87401F0E49000A2F0905F3E93FF7D209F
:1041910012641D9000ABE0A3E0A3E0FEA3E0FF905A
:1041A10000B3EEF0A3EFF09000B2E025E02488F533
:1041B10082E43400F583EEF0A3EFF09000B2E00466
:1041C100F090009DE0FF9000B2E0B5070FE4F080B1
:1041D1000B905F3EE493FF7D2012641D905F3EE4EF
:1041E10093FF7D1012641D3004119000ABE0FCA31D
:1041F100E0FDA3E0FEA3E0FF124CE0200203024138
:104201003D126429C202D20402413DD2B1D2B2129E
:104211006429D2009000CCE0B4AA1F900180E0FC98
:10422100A3E0FDA3E0FEA3E02401FFE43EFEE43DA4
:10423100FDE43CFC900180121430C2019000D3E0F7
:10424100B4AA09900084E0FF126316229000A3E053
:0B425100B4AA0890009DE0FF1252AAE2
:01425C00223F
:1061BE0075840F75A49075A50675A7FE759CE07580
:1061CE009EFF759FFF75E10475E3407590FF75A006
:1061DE00FF75B0FF75C8FF75D8FF75E8FF75F8FF3E
:0161EE00228E
:09006A00C2AF75FFDE75FFAD2287
:10627C0075840F758C67E4FFFE0FBF00010EBE0B1B
:0F628C00F8BFB8F5E58C30E7FB759701758A030D
:01629B0022E0
:103924007525AA9000AF7455F01511A81176017D84
:10393400257B017A0079AF1255B290009C7401F096
:103944001511A811F67D24FB7A00799C1255B290CA
:1039540000D27450F01511A81176017D067B017A0E
:103964000079D21255B29000CE74C3F0A37450F013
:103974001511A81176027D007B017A0079CE1255CB
:10398400B29000B612143C000557301511A81176F8
:10399400047D157B017A0079B61255B29000C112EC
:1039A400143C000086021511A81176047D207B01C9
:1039B4007A0079C11255B29000A512143C00009C03
:1039C400401511A81176047D197B017A0079A5129E
:1039D40055B290009D7405F01511A81176017D0D66
:1039E4007B017A00799D1255B29000CD7455F01583
:1039F40011A81176017D097B017A0079CD1255B2A7
:103A04009000DC7413F0A37488F01511A8117602E9
:103A14007D077B017A0079DC1255B2E49000A9F0AD
:103A2400A3F01511A81176027D0A7B017A0079A909
:103A34001255B2E49000C9F0A3F01511A811760252
:103A44007D0E7B017A0079C91255B2E4900085F0AD
:103A5400A3F01511A81176027D117B017A007985F6
:103A64001255B2E4900084F01511A81176017D136B
:103A74007B017A0079841255B29000A37455F01535
:103A840011A81176017D0C7B017A0079A31255B23D
:103A94009000D37455F01511A81176017D107B01A7
:103AA4007A0079D31255B29000CC7455F01511A850
:103AB4001176017D147B017A0079CC1255B215116F
:0F3AC400A81176017DFF7B007A0079251255B29B
:013AD30022D0
:101E660075262D7B017A0079AF752B017D251263CE
:101E7600D97B017A00799C752B017D241263D99058
:101E8600009CE0FFD3943C5003EF700A7F8F12143E
:101E9600AB125B6780E9E4F5259000AFE064AA70B9
:101EA60021C2AFE526B42D05123C848F26D2AFE5BC
:101EB60026B42D04800C80057F8B1214AB125B6751
:101EC60080D7D20A7B017A0079D2752B017D061262
:101ED60063D99000D2E0D3945A4014743CF01511A3
:101EE600A81176017D067B017A0079D21255B2904F
:101EF60000D2E0FCE41210267BCD7ACC798C783FB8
:101F0600120E7612105A9000A4EFF07B017A007937
:101F1600CE752B02E4FD1263D99000CEE0FEA3E05D
:101F2600FFC394F0EE9455400EE4FCFD7BE87AFD89
:101F3600F9F81213A9500A7FA01214AB125B67803E
:101F4600D87B017A0079B6752B047D151263D97F8B
:101F5600A07E867D017C009000B6E0F8A3E0F9A3A0
:101F6600E0FAA3E0FBC31213BF7003021FFC7FF06D
:101F76007E497D027C009000B6E0F8A3E0A3E0A3D2
:101F8600E0C31213BF606F7F407E0D7D037C00901F
:101F960000B6E0F8A3E0A3E0A3E0C31213BF6056C7
:101FA6007F907ED07D037C009000B6E0F8A3E0A38E
:101FB600E0A3E0C31213BF603D7FE07E937D047C07
:101FC600009000B6E0F8A3E0A3E0A3E0C31213BFBD
:101FD60060247F307E577D057C009000B6E0F8A334
:101FE600E0A3E0A3E0C31213BF600B7FA11214AB02
:101FF600125B67021F557B017A0079C1752B047D40
:10200600201263D9E47F387E4AFDFC9000C1E0F8D7
:10201600A3E0F9A3E0FAA3E0FBC31213BF4018E460
:102026007F307EF2FDFC9000C1E0F8A3E0A3E0A3C0
:10203600E0D31213BF400A7F811214AB125B678094
:10204600C37B017A0079A5752B047D191263D9E447
:102056007F207E4EFDFC9000A5E0F8A3E0F9A3E00A
:10206600FAA3E0FBC31213BF4018E47F607EEAFDCB
:10207600FC9000A5E0F8A3E0A3E0A3E0D31213BF11
:10208600400A7F821214AB125B6780C37B017A0021
:10209600799D752B017D0D1263D990009DE0FF603F
:1020A60005D3940A401790009D7405F01511A811E8
:1020B60076017D0D7B017A00799D1255B27B017AFE
:1020C60000799E752B047D021263D97B017A007913
:1020D600CD752B017D091263D97B017A0079DC75F8
:1020E6002B027D071263D99000DCE0FEA3E0FFC35C
:1020F6009464EE94004009D3EF9410EE9427400ABE
:102106007FA21214AB125B6780DD7B017A0079A98E
:10211600752B027D0A1263D99000A9E0FEA3E0FFA9
:10212600C3943CEE64809476400BD3EF94C4EE6483
:10213600809489400A7F881214AB125B6780D97B32
:10214600017A0079C9752B027D0E1263D99000C9F8
:10215600E0FEA3E0FFC3943CEE64809476400BD38C
:10216600EF94C4EE64809489400A7F891214AB12FE
:102176005B6780D97B017A007985752B027D111208
:1021860063D9D3900086E094DC900085E094054006
:102196000A7F8A1214AB125B6780E77B017A0079AB
:1021A60084752B017D131263D97B017A0079A3759F
:1021B6002B017D0C1263D97B017A0079D3752B0133
:1021C6007D101263D99000A3E0B4AA169000D3E064
:1021D600B4AA0F9000A37455F09000D3F07F8C1230
:1021E60014AB7B017A0079CC752B017D141263D96F
:1021F6009000A9E0FEA3E0FFC39000CFE09FFF9010
:1022060000CEE09EFE9000C5F0A3EFF09000DCE06B
:10221600FCA3E0FDC3EF9DFFEE9C9000BFF0A3EF93
:10222600F0E4F5259000C9E0FEA3E0FF9000CFE0C2
:102236002FFF9000CEE03EFEE52525E02488F582BE
:10224600E43400F583EEF0A3EFF00525E525B40AA6
:01225600D3B4
:012257002264
:1063B400E4F584E5EF30E10A90018012143C00001A
:0363C400000022B4
:105E5E0012006A12627C1263B41261BE1263621285
:105E6E00645C1263777F007EC27D017C001260F558
:105E7E0012629C1263EB7FF0125A3FBFF00512398B
:105E8E00248003121E66E4F523E523905F2293FF20
:105E9E007D3F12641DE49000B0F0A3F0F52412567D
:105EAE005F0524E524C3941440F40523E523C3942D
:055EBE000A40D6D201EC
:015EC30022BC
:0252AA008F254E
:1052AC009000E212143C00000000E4F526E526C351
:1052BC00952550399000E2E0F8A3E0F9A3E0FAA3B9
:1052CC00E0FBE52625E02488F582E43400F583E054
:1052DC00FEA3E0FFE4FCFDEB2FFFEA3EFEED39FD03
:1052EC00EC38FC9000E2121430052680C09000E2ED
:1052FC00E0FCA3E0FDA3E0FEA3E0FFC007AF25ABFD
:10530C0007E4FAF9F8D0071213099000E2121430EE
:10531C009000C9E0FEA3E0FF9000CFE02FFF9000CB
:10532C00CEE03EFEE49000E2E0F8A3E0F9A3E0FA60
:10533C00A3E0FBC3EF9BFFEE9AFEE499FDE498FC1F
:10534C00E47B02FAF9F81213099000C6E02FF090F2
:10535C0000C5E03EF09000DCE0FEA3E0FFC390004F
:10536C00C6E09FFF9000C5E09E9000BFF0A3EFF059
:01537C00220E
:07644900302D303031360028
:1043A600C20BC20F9000E2E5E6F0A3E5E7F0A3E555
:1043B600A8F0E4F5A8F5A8F5E6F5E77F07125A3F59
:1043C6009000E5EFF0BFD804D20B801F9000E5E027
:1043D600B4E804D20B80149000E4E0FFF5A88FA89F
:1043E6009000E2E0F5E6A3E0F5E7229000CEE0FEDD
:1043F600A3E0FFE4FCFD124CE09000CEE0FFA3E05A
:104406009000E6CFF0A3EFF0300B6B7F07125A3F18
:104416009000E5EFF0BFD8109000CFE02464F09054
:1044260000CEE03400F0802A9000E5E0FFB4E8100A
:104436009000CFE0249CF09000CEE034FFF0801294
:10444600EFB4B804C20B800A200F077F0A12634933
:10445600D20F3002117F07125A3FBFF802C20BC2B9
:104466000F126429C2029000CEE0FEA3E0FFE4FC36
:10447600FD124CE080929000CEE0FEA3E0FFE4FC4B
:10448600FD124CE01511A81176027D007B017A0021
:1044960079CE1255B29000CEE0FEA3E0FF9000C6A2
:1044A600E02FFF9000C5E03EFE9000E6E0FCA3E0B2
:1044B600FDC3EF9DFFEE9CFE9000C5F0A3EFF090CC
:1044C60000DCE0FCA3E0FDC3EF9DFFEE9C9000BF87
:1044D600F0A3EFF09000E2E0F5E6A3E0F5E7A3E055
:0544E600FFF5A88FA8FE
:0144EB0022AE
:1031D900C20B9000EEE5E6F0A3E5E7F0A3E5A8F061
:1031E900E4F5A8F5A8F5E6F5E77F78125A3FEF640C
:1031F9007860030233BF200B077F14126349D20B97
:103209009000B0E0FEA3E0FFEE3395E0FDFC9000F6
:10321900EA121430E49000B0F0A3F07F87125A3F0D
:10322900EF6487601F20021C12565F9000E212149F
:10323900309000E2E0FCA3E0FDA3E0FEA3E0FF1272
:10324900489180D720027CE47FC47E09FDFC900070
:10325900E2E0F8A3E0F9A3E0FAA3E0FBD31213A993
:1032690050197F3C7EF67DFF7CFF9000E2E0F8A3D9
:10327900E0A3E0A3E0C31213A950159000EAE0A36C
:10328900E0A3E0FFA3E09000B0CFF0A3EFF080133C
:103299009000E2E0A3E0A3E0FFA3E09000B0CFF04C
:1032A900A3EFF012565F9000E21214309000E2E0B2
:1032B900FCA3E0FDA3E0FEA3E0FF124891126429FC
:1032C9000233BF126429C20B7F87125A3FEF64870A
:1032D9006008125EC412489180EE7F78125A3FEF5F
:1032E90064786035200B077F14126349D20B3002D2
:1032F900E99000EAE0A3E0A3E0FFA3E09000B0CFEB
:10330900F0A3EFF01264299000EEE0F5E6A3E0F5F2
:10331900E7A3E0FFF5A88FA8221264297F87125A34
:103329003FBF87F87FB8125A3FEF64B86051200B4E
:10333900077F14126349D20B3002289000EAE0A3F8
:10334900E0A3E0FFA3E09000B0CFF0A3EFF0126498
:10335900299000EEE0F5E6A3E0F5E7A3E0FFF5A884
:103369008FA822125EC49000E61214309000E6E0A5
:10337900FCA3E0FDA3E0FEA3E0FF12621480A51206
:1033890064297F47125A3FBF47F89000E6E0FCA343
:10339900E0FDA3E0FEA3E0FF90009E121430E4904C
:1033A90000B0F0A3F01511A81176047D027B017A13
:1033B90000799E1255B29000EEE0F5E6A3E0F5E73C
:0733C900A3E0FFF5A88FA8A7
:0133D00022DA
:102DA700C20BC20CE4F5289000C7F012642990000A
:102DB700CEE0FEA3E0FF9000E6EEF0A3EFF0E4FC28
:102DC700FD1248917F0F125A3FBF0FF830020302DE
:102DD7002F19E52864B87003022F19200B077FC845
:102DE700126349D20B7F07125A3F8F28E528B4F8A0
:102DF70003E4F527E52864D87065126429C20BE55A
:102E070027C3942850020527E527C3940A5010903A
:102E170000CFE004F070069000CEE004F0803CE5BF
:102E270027C3941450109000CFE0240AF09000CEEE
:102E3700E03400F08025E527C3941E50109000CFA2
:102E4700E02464F09000CEE03400F0800E9000CFD4
:102E5700E024F4F09000CEE03401F0D20C8069E574
:102E67002864E87063126429C20BE527C3942850CD
:102E7700020527E527C3940A50109000CFE024FFEE
:102E8700F09000CEE034FFF0803CE527C394145067
:102E9700109000CFE024F6F09000CEE034FFF080F1
:102EA70025E527C3941E50109000CFE0249CF09096
:102EB70000CEE034FFF0800E9000CFE0240CF090BD
:102EC70000CEE034FEF0D20C9000CEE0FEA3E0FF8F
:102ED700E4FCFD7BE87AFDF9F8C31213A9500C90C6
:102EE70000CE7455F0A374F0F08016C39000CFE0C5
:102EF70094F09000CEE09455500774FDF0A374E869
:102F0700F09000CEE0FEA3E0FFE4FCFD1248910242
:102F17002DD3126429C20B7F47125A3FBF47F8309F
:102F270002109000E6E0FFA3E09000CECFF0A3EF01
:102F3700F022200C03022FD27FC81263499000CEE3
:102F4700E0FEA3E0FF9000C6E02FFF9000C5E03E43
:102F5700FE9000E6E0FCA3E0FDC3EF9DFFEE9CFEC4
:102F67009000C5F0A3EFF09000DCE0FCA3E0FDC308
:102F7700EF9DFFEE9C9000BFF0A3EFF0200236908C
:102F870000C7E06414602E1511A81176027D007B3E
:102F9700017A0079CE1255B29000C7EFF0BF8407CF
:102FA7007F841214AB80D59000C7E0B485CE7F85AF
:102FB7001214AB80C79000C7E0B4140F7F2D121412
:0B2FC700AB7FFA1200037FFA12000338
:012FD20022DC
:103E1C00C20BC20CE4F529126429E49000C7F0909F
:103E2C0000D2E0FFF5277E00124EDF7F0F125A3FC3
:103E3C00BF0FF8300203023F08E52964B870030293
:103E4C003F08200B077FC8126349D20B7F07125A19
:103E5C003F8F29E529B4F803E4F528E52964D870E7
:103E6C0038126429C20BE528C3942850020528E5B2
:103E7C0028C3940A50089000D2E004F08017E5287B
:103E8C00C3941450099000D2E02402F080079000F3
:103E9C00D2E02405F0D20C803CE52964E87036129F
:103EAC006429C20BE528C3942850020528E528C3D1
:103EBC00940A50089000D2E014F08017E528C394BF
:103ECC001450099000D2E024FEF080079000D2E05C
:103EDC0024FBF0D20C9000D2E0FFD394C8400574C0
:103EEC005AF0800BEFD3945A4005E49000D2F09036
:103EFC0000D2E0FF7E00124EDF023E3F126429C268
:103F0C000B7F47125A3FBF47F83002079000D2E5AB
:103F1C0027F022300C707FC81263492002529000A7
:103F2C00C7E06414604A9000D2E0FCE41210267BD7
:103F3C00CD7ACC798C783F120E7612105A9000A460
:103F4C00EFF01511A81176017D067B017A0079D26C
:103F5C001255B29000C7EFF0BF84077F841214ABE8
:103F6C0080B99000C7E0B485B27F851214AB80ABEA
:103F7C009000C7E0B4140F7F2D1214AB7FFA12001F
:063F8C00037FFA1200039E
:013F9200220C
:1033D100C20BC20CE4F5289000DCE0F529A3E0F56E
:1033E1002A126429E49000C7F09000DCE0FEA3E01B
:1033F100FFE4FCFD1248917F0F125A3FBF0FF830D6
:10340100020302351BE52864B8700302351B200B4B
:10341100077FC8126349D20B7F07125A3F8F28E5F5
:1034210028B4F803E4F527E52864D8705512642917
:10343100C20BE527C3941E50020527E527C3940A52
:1034410050109000DDE004F070069000DCE004F024
:10345100802CE527C3941450109000DDE0240AF07D
:103461009000DCE03400F08015E527D3941E500E67
:103471009000DDE02464F09000DCE03400F0D20C38
:103481008059E52864E87053126429C20BE527C30B
:10349100941E50020527E527C3940A50109000DDC1
:1034A100E024FFF09000DCE034FFF0802CE527C33E
:1034B100941450109000DDE024F6F09000DCE0342C
:1034C100FFF08015E527D3941E500E9000DDE02417
:1034D1009CF09000DCE034FFF0D20C9000DCE0FEC8
:1034E100A3E0FFD39410EE9427400B9000DCE4F0AE
:1034F100A37464F08013C3EF9464EE9400500A90B7
:1035010000DC7427F0A37410F09000DCE0FEA3E06F
:10351100FFE4FCFD124891023400126429C20B7FC2
:1035210047125A3FBF47F830020B9000DCE529F003
:10353100A3E52AF022300C6F7FC8126349200236BE
:103541009000C7E06414602E1511A81176027D0762
:103551007B017A0079DC1255B29000C7EFF0BF848D
:10356100077F841214AB80D59000C7E0B485CE7F6D
:10357100851214AB80C79000C7E0B4140F7F2D12E1
:1035810014AB7FFA1200037FFA1200039000DCE013
:10359100FEA3E0FFC39000C6E09FFF9000C5E09E40
:0735A1009000BFF0A3EFF062
:0135A8002200
:104BD800C20BC20CE4F5279000CDE0F528E4900064
:104BE800C7F01264299000CDE0FF1214AB7F0F12BA
:104BF8005A3FBF0FF8200271E52764B8606B200B9D
:104C0800077FC8126349D20B7F07125A3F8F27E5E7
:104C180027B4D824126429C20B9000CDE0FF64AAFF
:104C28006004EFB45508EFF49000CDF080069000D2
:104C3800CD74AAF0D20C8027E527B4E822126429A3
:104C4800C20B9000CDE0FF64556004EFB4AA08EFF2
:104C5800F49000CDF080069000CD7455F0D20C9001
:104C680000CDE0FF1214AB808C126429C20B7F4781
:104C7800125A3FBF47F83002079000CDE528F022CE
:104C8800300C547FC81263492002369000C7E06494
:104C980014602E1511A81176017D097B017A00791F
:104CA800CD1255B29000C7EFF0BF84077F8412146D
:104CB800AB80D59000C7E0B485CE7F851214AB8059
:104CC800C79000C7E0B4140F7F2D1214AB7FFA12FF
:074CD80000037FFA12000344
:014CDF0022B2
:102FD300C20BC20CE4F5289000A9E0FFA3E0900027
:102FE300E6CFF0A3EFF0E49000C7F012642990005D
:102FF300A9E0FEA3E0FFEE3395E0FDFC1248917FCC
:103003000F125A3FBF0FF830020302311FE5286445
:10301300B8700302311F200B077FC8126349D20B1C
:103023007F07125A3F8F28E528B4F803E4F527E514
:103033002864D8704E126429C20BE527C394285024
:10304300020527E527C3940A50109000AAE004F074
:1030530070069000A9E004F08025E527C39414507E
:10306300109000AAE0240AF09000A9E03400F08058
:103073000E9000AAE02464F09000A9E03400F0D29E
:103083000C8052E52864E8704C126429C20BE527D2
:10309300C3942850020527E527C3940A50109000D3
:1030A300AAE024FFF09000A9E034FFF08025E52793
:1030B300C3941450109000AAE024F6F09000A9E005
:1030C30034FFF0800E9000AAE0249CF09000A9E069
:1030D30034FFF0D20C9000A9E0FEA3E0FFD394C428
:1030E300EE64809489400C9000A974F6F0A3743CBC
:1030F300F08015C3EF943CEE64809476500A900000
:10310300A97409F0A374C4F09000A9E0FEA3E0FF42
:10311300EE3395E0FDFC12489102300A126429C295
:103123000B7F47125A3FBF47F83002109000E6E08A
:10313300FFA3E09000A9CFF0A3EFF022200C03023D
:1031430031D87FC81263499000A9E0FEA3E0FF9045
:1031530000C6E02FFF9000C5E03EFE9000E6E0FCD5
:10316300A3E0FDC3EF9DFFEE9CFE9000C5F0A3EF2F
:10317300F09000DCE0FCA3E0FDC3EF9DFFEE9C902C
:1031830000BFF0A3EFF02002369000C7E0641460A4
:103193002E1511A81176027D0A7B017A0079A912F6
:1031A30055B29000C7EFF0BF84077F841214AB8041
:1031B300D59000C7E0B485CE7F851214AB80C7904D
:1031C30000C7E0B4140F7F2D1214AB7FFA12000373
:0531D3007FFA12000369
:0131D80022D4
:1044EC00C20BC20CE4F5279000A3E0F52812642956
:1044FC00E49000C7F09000A3E0FF1214AB7F0F1202
:10450C005A3FBF0FF8200271E52764B8606B200B8F
:10451C00077FC8126349D20B7F07125A3F8F27E5DA
:10452C0027B4D824126429C20B9000A3E0FF64AA1C
:10453C006004EFB45508EFF49000A3F080069000EF
:10454C00A374AAF0D20C8027E527B4E822126429C0
:10455C00C20B9000A3E0FF64556004EFB4AA08EF0F
:10456C00F49000A3F080069000A37455F0D20C9048
:10457C0000A3E0FF1214AB808C126429C20B7F479E
:10458C00125A3FBF47F83002079000A3E528F022EB
:10459C00200C0302462B7FC812634920026B90004B
:1045AC00C7E0641460639000D37455F01511A81122
:1045BC0076017D0C7B017A0079A31255B29000C76D
:1045CC00EFF0BF84077F841214AB80CF9000C7E05C
:1045DC00B485077F851214AB80C11511A811760123
:1045EC007D107B017A0079D31255B29000C7EFF0A1
:1045FC00BF84077F841214AB80A19000C7E0648550
:10460C0070997F851214AB80929000C7E0B4140FA0
:0F461C007F2D1214AB7FFA1200037FFA120003F6
:01462B00226C
:104DE300C20BC20C90009DE0F527E4F5281264295C
:104DF300E49000C7F090009DE0FF7E00124EDF7F3D
:104E03000F125A3FBF0FF8200263E52864B8605DB4
:104E1300200B077FC8126349D20B7F07125A3F8FBB
:104E230028E528B4D80F126429C20B90009DE00432
:104E3300F0D20C8012E528B4E80D126429C20B905D
:104E4300009DE014F0D20C90009DE0FFD394C84085
:104E530005740AF0800BEFD3940A4005E490009D9B
:104E6300F090009DE0FF7E00124EDF809A126429CD
:104E7300C20B7F47125A3FBF47F830020790009D8D
:104E8300E527F022300C547FC81263492002369084
:104E930000C7E06414602E1511A81176017D0D7B07
:104EA300017A00799D1255B29000C7EFF0BF8407D5
:104EB3007F841214AB80D59000C7E0B485CE7F8584
:104EC3001214AB80C79000C7E0B4140F7F2D1214E7
:0B4ED300AB7FFA1200037FFA1200030D
:014EDE0022B1
:1035A900C20BC20CE4F5289000C9E0FFA3E090002B
:1035B900E6CFF0A3EFF0E49000C7F0126429900081
:1035C900C9E0FEA3E0FFEE3395E0FDFC1248917FD0
:1035D9000F125A3FBF0FF83002030236F5E528648F
:1035E900B870030236F5200B077FC8126349D20B66
:1035F9007F07125A3F8F28E528B4F803E4F527E539
:103609002864D8704E126429C20BE527C394285048
:10361900020527E527C3940A50109000CAE004F078
:1036290070069000C9E004F08025E527C394145082
:10363900109000CAE0240AF09000C9E03400F0803C
:103649000E9000CAE02464F09000C9E03400F0D282
:103659000C8052E52864E8704C126429C20BE527F6
:10366900C3942850020527E527C3940A50109000F7
:10367900CAE024FFF09000C9E034FFF08025E52777
:10368900C3941450109000CAE024F6F09000C9E0E9
:1036990034FFF0800E9000CAE0249CF09000C9E04D
:1036A90034FFF0D20C9000C9E0FEA3E0FFD394C42C
:1036B900EE64809489400C9000C974F6F0A3743CC0
:1036C900F08015C3EF943CEE64809476500A900024
:1036D900C97409F0A374C4F09000C9E0FEA3E0FF27
:1036E900EE3395E0FDFC1248910235E0126429C2DF
:1036F9000B7F47125A3FBF47F83002109000E6E0AF
:10370900FFA3E09000C9CFF0A3EFF022300C547F63
:10371900C81263492002369000C7E06414602E1570
:1037290011A81176027D0E7B017A0079C91255B272
:103739009000C7EFF0BF84077F841214AB80D59047
:1037490000C7E0B485CE7F851214AB80C79000C74F
:10375900E0B4140F7F2D1214AB7FFA1200037FFA25
:0337690012000348
:01376C00223A
:10462C00C20BC20CE4F5279000D3E0F528126429E4
:10463C00E49000C7F09000D3E0FF1214AB7F0F1290
:10464C005A3FBF0FF8200271E52764B8606B200B4E
:10465C00077FC8126349D20B7F07125A3F8F27E599
:10466C0027B4D824126429C20B9000D3E0FF64AAAB
:10467C006004EFB45508EFF49000D3F0800690007E
:10468C00D374AAF0D20C8027E527B4E8221264294F
:10469C00C20B9000D3E0FF64556004EFB4AA08EF9E
:1046AC00F49000D3F080069000D37455F0D20C90A7
:1046BC0000D3E0FF1214AB808C126429C20B7F472D
:1046CC00125A3FBF47F83002079000D3E528F0227A
:1046DC00200C0302476B7FC812634920026B9000C9
:1046EC00C7E0641460639000A37455F01511A81111
:1046FC0076017D0C7B017A0079A31255B29000C72C
:10470C00EFF0BF84077F841214AB80CF9000C7E01A
:10471C00B485077F851214AB80C11511A8117601E1
:10472C007D107B017A0079D31255B29000C7EFF05F
:10473C00BF84077F841214AB80A19000C7E064850E
:10474C0070997F851214AB80929000C7E0B4140F5F
:0F475C007F2D1214AB7FFA1200037FFA120003B5
:01476B00222B
:10376D00C20BC20CE4F528900085E0FFA3E09000A9
:10377D00E6CFF0A3EFF0E49000C7F01264299000BB
:10378D0085E0FEA3E0FFE4FCFD1248917F0F125A85
:10379D003FBF0FF83002030238ACE52864B8700360
:1037AD000238AC200B077FC8126349D20B7F07127A
:1037BD005A3F8F28E528B4F803E4F527E52864D8A7
:1037CD00704E126429C20BE527C3942850020527B9
:1037DD00E527C3940A5010900086E004F07006901F
:1037ED000085E004F08025E527C394145010900067
:1037FD0086E0240AF0900085E03400F0800E900001
:10380D0086E02464F0900085E03400F0D20C805204
:10381D00E52864E8704C126429C20BE527C394288F
:10382D0050020527E527C3940A5010900086E02426
:10383D00FFF0900085E034FFF08025E527C3941458
:10384D005010900086E024F6F0900085E034FFF0F3
:10385D00800E900086E0249CF0900085E034FFF00F
:10386D00D20C900085E0FEA3E0FFD394ACEE94263D
:10387D00400C9000857405F0A374DCF08010D3EF3C
:10388D0094DCEE94054007E4900085F0A3F09000E1
:10389D0085E0FEA3E0FFE4FCFD1248910237A11282
:1038AD006429C20B7F47125A3FBF47F83002109070
:1038BD0000E6E0FFA3E0900085CFF0A3EFF022300B
:1038CD000C547FC81263492002369000C7E064147F
:1038DD00602E1511A81176027D117B017A00798574
:1038ED001255B29000C7EFF0BF84077F841214AB5E
:1038FD0080D59000C7E0B485CE7F851214AB80C70C
:10390D009000C7E0B4140F7F2D1214AB7FFA120094
:06391D00037FFA12000313
:013923002281
:10425D00C20BC20CE4F528900084E09000E6F0E477
:10426D009000C7F0126429900084E0FF7E00124E8A
:10427D00DF7F0F125A3FBF0FF8300203024335E5BF
:10428D002864B87003024335200B077FC8126349B9
:10429D00D20B7F07125A3F8F28E528B4F803E4F5B7
:1042AD0027E52864D87038126429C20BE527C3941A
:1042BD002850020527E527C3940A5008900084E092
:1042CD0004F08017E527C394145009900084E0246E
:1042DD0002F08007900084E02404F0D20C803CE5CD
:1042ED002864E87036126429C20BE527C394285060
:1042FD00020527E527C3940A5008900084E014F0C6
:10430D008017E527C394145009900084E024FEF033
:10431D008007900084E024FCF0D20C900084E0FF34
:10432D007E00124EDF024286126429C20B7F4712B5
:10433D005A3FBF47F83002099000E6E0900084F044
:10434D0022300C547FC81263492002369000C7E01A
:10435D006414602E1511A81176017D137B017A006E
:10436D0079841255B29000C7EFF0BF84077F841295
:10437D0014AB80D59000C7E0B485CE7F851214AB09
:10438D0080C79000C7E0B4140F7F2D1214AB7FFAD5
:08439D001200037FFA12000375
:0143A50022F5
:104AC600C20BC20CE4F5279000CCE0F528E4900078
:104AD600C7F01264299000CCE0FF1214AB7F0F12CE
:104AE6005A3FBF0FF8200271E52764B8606B200BB0
:104AF600077FC8126349D20B7F07125A3F8F27E5FB
:104B060027B4D824126429C20B9000CCE0FF64AA13
:104B16006004EFB45508EFF49000CCF080069000E6
:104B2600CC74AAF0D20C8027E527B4E822126429B7
:104B3600C20B9000CCE0FF64556004EFB4AA08EF06
:104B4600F49000CCF080069000CC7455F0D20C9016
:104B560000CCE0FF1214AB808C126429C20B7F4795
:104B6600125A3FBF47F83002079000CCE528F022E2
:104B7600300C5E7FC812634990018012143C00001D
:104B860000002002369000C7E06414602E1511A8BC
:104B96001176017D147B017A0079CC1255B2900012
:104BA600C7EFF0BF84077F841214AB80D59000C78F
:104BB600E0B485CE7F851214AB80C79000C7E0B401
:104BC600140F7F2D1214AB7FFA1200037FFA120026
:014BD60003DB
:014BD70022BB
:102B1900200F077FC8126349D20F900104E0FF120A
:102B290014AB7F07125A3F9000E5EFF064F8600597
:102B3900126429C20F9000E5E0FFB4B803D20E2257
:102B4900900104E024DFB40C004003022DA4902B73
:102B59006575F003A4C58325F0C58373022B89022B
:102B69002BB5022BE4022C13022C42022C71022CED
:102B7900A0022CCF022CFE022D2C022D55022D7EF7
:102B8900EFB4F006122DA7022DA49000E5E0FFB4E2
:102B9900E8099001047422F0022DA4EF64D86003BF
:102BA900022DA4900104742CF0022DA49000E5E0FC
:102BB900B4F006123E1C022DA49000E5E0FFB4E833
:102BC900099001047423F0022DA4EF64D860030274
:102BD9002DA49001047421F0022DA49000E5E0B425
:102BE900F0061233D1022DA49000E5E0FFB4E80904
:102BF9009001047424F0022DA4EF64D86003022D1F
:102C0900A49001047422F0022DA49000E5E0B4F030
:102C190006124BD8022DA49000E5E0FFB4E8099014
:102C290001047425F0022DA4EF64D86003022DA4D9
:102C39009001047423F0022DA49000E5E0B4F0069D
:102C4900122FD3022DA49000E5E0FFB4E80990010A
:102C5900047426F0022DA4EF64D86003022DA49019
:102C690001047424F0022DA49000E5E0B4F00612EA
:102C790044EC022DA49000E5E0FFB4E809900104BA
:102C89007427F0022DA4EF64D86003022DA49001EB
:102C9900047425F0022DA49000E5E0B4F006124D6D
:102CA900E3022DA49000E5E0FFB4E8099001047463
:102CB90028F0022DA4EF64D86003022DA49001042A
:102CC9007426F0022DA49000E5E0B4F0061235A9AF
:102CD900022DA49000E5E0FFB4E8099001047429ED
:102CE900F0022DA4EF64D86003022DA490010474AE
:102CF90027F0022DA49000E5E0B4F00612462C025C
:102D09002DA49000E5E0FFB4E809900104742AF0CD
:102D1900022DA4EF64D86003022DA4900104742845
:102D2900F080789000E5E0B4F00512376D806C9082
:102D390000E5E0FFB4E808900104742BF0805CEF33
:102D490064D870579001047429F0804F9000E5E031
:102D5900B4F00512425D80439000E5E0FFB4E80855
:102D6900900104742CF08033EF64D8702E90010424
:102D7900742AF080269000E5E0B4F005124AC68076
:102D89001A9000E5E0FFB4E8089001047421F0808E
:0D2D99000AEFB4D806900104742BF0C20EAE
:012DA600220A
:10225800C20BC20CE4F5279000B6E0FCA3E0FDA396
:10226800E0FEA3E0FF9000E6121430E49000C7F00F
:102278001264299000B6E0FCA3E0FDA3E0FEA3E011
:10228800FF1248917F0F125A3FBF0FF83002030226
:1022980024E7E52764B870030224E7200B077FC80A
:1022A800126349D20B7F07125A3F8F27E52764D85C
:1022B80060030223C4126429C20B7FA07E867D01BD
:1022C8007C009000B6E0F8A3E0F9A3E0FAA3E0FBF5
:1022D800C31213BF700D9000B612143C000557309E
:1022E8000223BF7FF07E497D027C009000B6E0F8B3
:1022F800A3E0F9A3E0FAA3E0FBC31213BF700D90AB
:1023080000B612143C000186A00223BF7F407E0D58
:102318007D037C009000B6E0F8A3E0F9A3E0FAA3FF
:10232800E0FBC31213BF700D9000B612143C0002FC
:1023380049F00223BF7F907ED07D037C009000B6D9
:10234800E0F8A3E0F9A3E0FAA3E0FBC31213BF701F
:102358000C9000B612143C00030D40805A7FE07EBA
:10236800937D047C009000B6E0F8A3E0F9A3E0FABE
:10237800A3E0FBC31213BF700C9000B612143C000C
:1023880003D09080327F307E577D057C009000B668
:10239800E0F8A3E0F9A3E0FAA3E0FBC31213BF70CF
:1023A8000C9000B612143C000493E0800A9000B62A
:1023B80012143C000186A0D20C0224D3E52764E85D
:1023C80060030224D3126429C20BC20B7FA07E864D
:1023D8007D017C009000B6E0F8A3E0F9A3E0FAA341
:1023E800E0FBC31213BF700D9000B612143C00023C
:1023F80049F00224D17FF07E497D027C009000B62E
:10240800E0F8A3E0F9A3E0FAA3E0FBC31213BF705E
:102418000D9000B612143C00030D400224D17F40F9
:102428007E0D7D037C009000B6E0F8A3E0F9A3E000
:10243800FAA3E0FBC31213BF700D9000B612143C50
:102448000003D0900224D17F907ED07D037C009041
:1024580000B6E0F8A3E0F9A3E0FAA3E0FBC3121387
:10246800BF700C9000B612143C000493E0805A7FB1
:10247800E07E937D047C009000B6E0F8A3E0F9A329
:10248800E0FAA3E0FBC31213BF700C9000B612145D
:102498003C0005573080327F307E577D057C0090A8
:1024A80000B6E0F8A3E0F9A3E0FAA3E0FBC3121337
:1024B800BF700C9000B612143C000186A0800A90F0
:1024C80000B612143C00055730D20C9000B6E0FC60
:1024D800A3E0FDA3E0FEA3E0FF12489102229412BC
:1024E8006429C20B7F47125A3FBF47F83002159044
:1024F80000E6E0FCA3E0FDA3E0FEA3E0FF9000B649
:1025080012143022300C547FC812634920023690CE
:1025180000C7E06414602E1511A81176047D157BA0
:10252800017A0079B61255B29000C7EFF0BF840760
:102538007F841214AB80D59000C7E0B485CE7F8528
:102548001214AB80C79000C7E0B4140F7F2D12148B
:0B255800AB7FFA1200037FFA120003B1
:012563002255
:10476C009000B0E0FEA3E0FFEE3395E0FDFC90007E
:10477C00E612143090009EE0FCA3E0FDA3E0FEA343
:10478C00E0FF9000EA121430C20B126429E490008E
:10479C00B0F0A3F07F0F125A3FEF640F6008125E67
:1047AC00C412489180EE7FC81263492002087F78BA
:1047BC00125A3FBF78F52002397FC8126349200294
:1047CC00087F87125A3FBF87F520022612642912F0
:1047DC005EC490009E1214307FC81263497FB812D9
:1047EC005A3FEF64B8600B20020812565F12621435
:1047FC0080EB3002289000EAE0FCA3E0FDA3E0FE91
:10480C00A3E0FF90009E1214309000E6E0A3E0A31A
:10481C00E0FFA3E09000B0CFF0A3EFF0227F4712AF
:10482C005A3FBF47F812565F1248917F641200033B
:10483C007FC81263492002369000C7E06414602ED2
:10484C001511A81176047D027B017A00799E125510
:10485C00B29000C7EFF0BF84077F841214AB80D5F1
:10486C009000C7E0B485CE7F851214AB80C7900052
:10487C00C7E0B4140F7F2D1214AB7FFA1200037F24
:04488C00FA12000319
:014890002205
:101A5300E49000E8F09000C1E0FCA3E0FDA3E0FE09
:101A6300A3E0FF9000ED1214309000A5E0FCA3E08A
:101A7300FDA3E0FEA3E0FF9000F1121430126429ED
:101A8300C2029000C774FFF0E49000E6F01262BB5C
:101A93009000E6E004F0E0C3941340F17F0F125A84
:101AA3003FBF0FF87FF0125A3FEF64F07003021B41
:101AB300689000C7E07003021B4E1262BB9000E9FE
:101AC300121430E47F387E4AFDFC9000E9E0F8A36D
:101AD300E0F9A3E0FAA3E0FBC31213BF50197F2E72
:101AE3001214AB9000C7742EF07FF0125A3FEF64CC
:101AF300F0603D80F48039E47F307EF2FDFC90009D
:101B0300E9E0F8A3E0F9A3E0FAA3E0FBD31213BFE3
:101B130040197F2F1214AB9000C7742FF07FF0127F
:101B23005A3FEF64F0600980F48005E49000C7F049
:101B33009000C7E07003021AB47F0F125A3FEF649C
:101B43000F7003021AB480F1021AB49000E9E0FCAA
:101B5300A3E0FDA3E0FEA3E0FF1248919000C77449
:101B6300FFF0021AA79000E9E0FCA3E0FDA3E0FE6A
:101B7300A3E0FF9000C11214309000C1E0FCA3E089
:101B8300FDA3E0FEA3E0FF9000A51214309000A592
:101B9300E0FCA3E0FDA3E0FEA3E0FF1248917F0F6A
:101BA300125A3FBF0FF8E49000C7F0300203021D42
:101BB300C19000E8E064B87003021DC1200F077FE5
:101BC300C8126349D20F7F07125A3F9000E8EFF023
:101BD300BFF805E49000E7F09000E8E064D8600304
:101BE300021C98126429C20F9000E7E0C3942850A6
:101BF30003E004F09000E7E0FBC3940A5021900057
:101C0300A5E0FCA3E0FDA3E0FEA3E02401FFE43E86
:101C1300FEE43DFDE43CFC9000A51214308071EB22
:101C2300C3941450219000A5E0FCA3E0FDA3E0FEC3
:101C3300A3E0240AFFE43EFEE43DFDE43CFC900007
:101C4300A5121430804A9000E7E0C3941E502190FF
:101C530000A5E0FCA3E0FDA3E0FEA3E02464FFE411
:101C63003EFEE43DFDE43CFC9000A51214308020D0
:101C73009000A5E0FCA3E0FDA3E0FEA3E024F4FFB5
:101C8300EE3401FEE43DFDE43CFC9000A51214306B
:101C9300D20B021D619000E8E064E86003021D615D
:101CA300126429C20F9000E7E0C394285003E004B4
:101CB300F09000E7E0FBC3940A50259000A5E0FCF8
:101CC300A3E0FDA3E0FEA3E0C39401FFEE9400FEB6
:101CD300ED9400FDEC9400FC9000A5121430807C80
:101CE300EBC3941450259000A5E0FCA3E0FDA3E012
:101CF300FEA3E0C3940AFFEE9400FEED9400FDEC16
:101D03009400FC9000A512143080519000E7E0C3CA
:101D1300941E50259000A5E0FCA3E0FDA3E0FEA3E4
:101D2300E0C39464FFEE9400FEED9400FDEC940098
:101D3300FC9000A512143080239000A5E0FCA3E0E2
:101D4300FDA3E0FEA3E0C394F4FFEE9401FEED9443
:101D530000FDEC9400FC9000A5121430D20BE47F3C
:101D6300607EEAFDFC9000A5E0F8A3E0F9A3E0FAA9
:101D7300A3E0FBD31213BF400C9000A512143C0048
:101D8300004E208025E47F207E4EFDFC9000A5E0E0
:101D9300F8A3E0F9A3E0FAA3E0FBC31213BF500AD0
:101DA3009000A512143C0000EA609000A5E0FCA39B
:101DB300E0FDA3E0FEA3E0FF124891021BAE126414
:101DC30029C20F7F47125A3FBF47F83002299000BC
:101DD300F1E0FCA3E0FDA3E0FEA3E0FF9000A51269
:101DE30014309000EDE0FCA3E0FDA3E0FEA3E0FFD0
:101DF3009000C112143022300B687FC8126349204F
:101E0300024A9000C7E0641460421511A8117604D9
:101E13007D197B017A0079A51255B29000C7EFF0C6
:101E230064146007E0FF1214AB80D41511A8117677
:101E3300047D207B017A0079C11255B29000C7EF6F
:101E4300F0641460BAE0FF1214AB80B39000C7E0F3
:101E5300B4140F7F2D1214AB7FFA1200037FFA1212
:021E630000037A
:011E6500225A
:10544A00200F077FC8126349D20F900102E0FF12B2
:10545A0014AB7F07125A3F9000E5EFF064F860053D
:10546A00126429C20F9000E5E0FFB4B803D20E22FD
:10547A00900102E024CE602D14605324027075EF6F
:10548A00B4F005122258806C9000E5E0FFB4E808F9
:10549A009001027432F0805CEF64D8705790010278
:1054AA007433F0804F9000E5E0B4F00512476C8049
:1054BA00439000E5E0FFB4E8089001027433F080FD
:1054CA0033EF64D8702E9001027431F08026900078
:1054DA00E5E0B4F005121A53801A9000E5E0FFB433
:1054EA00E8089001027431F0800AEFB4D8069001FE
:0654FA00027432F0C20E44
:015500002288
:106237001264297F0F125A3FBF0FF87F101214AB59
:106247007FB8125A3FEF64B86008125AD61214ABDF
:0362570080EE22B4
:0F640E007F0F125A3FBF0FF89001067442F02221
:10001E00E4F52743B03E7F0F125A3FBF0FF8E52796
:10002E0064B8602D7F07125A3F8F27E52764D8608A
:10003E0005E527B4E80A7F37125A3FBF37F8B2B149
:10004E0030B1077F661214AB80D47F611214AB807F
:0B005E00CD7F47125A3FBF47F8D2B1D8
:010069002274
:105F7E00E4F52743B03E7F0F125A3FBF0FF8E527D7
:105F8E0064B8602D7F07125A3F8F27E52764D860CB
:105F9E0005E527B4E80A7F37125A3FBF37F8B2B289
:105FAE0030B2077F671214AB80D47F621214AB80BD
:0B5FBE00CD7F47125A3FBF47F8D2B218
:015FC90022B5
:105FCA00E4F52743B03E7F0F125A3FBF0FF8E5278B
:105FDA0064B8602D7F07125A3F8F27E52764D8607F
:105FEA0005E527B4E80A7F37125A3FBF37F8B2B33C
:105FFA0030B3077F681214AB80D47F631214AB806E
:0B600A00CD7F47125A3FBF47F8D2B3CA
:016015002268
:10601600E4F52743B03E7F0F125A3FBF0FF8E5273E
:1060260064B8602D7F07125A3F8F27E52764D86032
:1060360005E527B4E80A7F37125A3FBF37F8B2B4EE
:1060460030B4077F691214AB80D47F641214AB801E
:0B605600CD7F47125A3FBF47F8D2B47D
:01606100221C
:10606200E4F52743B03E7F0F125A3FBF0FF8E527F2
:1060720064B8602D7F07125A3F8F27E52764D860E6
:1060820005E527B4E80A7F37125A3FBF37F8B2B5A1
:1060920030B5077F6A1214AB80D47F651214AB80CF
:0B60A200CD7F47125A3FBF47F8D2B530
:0160AD0022D0
:103AD400200F077FC8126349D20F900106E0FF123E
:103AE40014AB7F07125A3F9000E5EFF064F86005CD
:103AF400126429C20F900106E024C0B407004003F9
:103B0400023C83903B1575F003A4C58325F0C5835F
:103B140073023B2A023B5A023B8A023BBE023BF23F
:103B2400023C23023C549000E5E0B4F004126237F6
:103B3400229000E5E0FFB4E8079001067441F0220A
:103B4400EFB4D8079001067441F022EF64B8600323
:103B5400023C83D20E229000E5E0B4F00412640E1D
:103B6400229000E5E0FFB4E8079001067440F022DB
:103B7400EFB4D8079001067440F022EF64B86003F4
:103B8400023C83D20E229000E5E0B4F00412001E41
:103B9400229000E5E0FFB4E8079001067443F022A8
:103BA400EFB4D8079001067446F022EF64B86003BE
:103BB400023C839001067441F0229000E5E0B4F0E9
:103BC40004125F7E229000E5E0FFB4E8079001064E
:103BD4007444F022EFB4D8079001067442F022EF47
:103BE40064B86003023C839001067441F0229000A3
:103BF400E5E0B4F004125FCA229000E5E0FFB4E807
:103C0400079001067445F022EFB4D80790010674BA
:103C140043F022EF64B870679001067441F022907B
:103C240000E5E0B4F004126016229000E5E0FFB471
:103C3400E8079001067446F022EFB4D80790010615
:103C44007444F022EF64B870369001067441F02297
:103C54009000E5E0B4F004126062229000E5E0FF19
:103C6400B4E8079001067442F022EFB4D80790013B
:0F3C7400067445F022EFB4B8069001067441F0D3
:013C8300221E
:103F9300C20BC20CE4F52890009CE09000E6F0E42C
:103FA3009000C7F012642990009CE0FF7E00124E3F
:103FB300DF7F0F125A3FBF0FF8300203024086E53E
:103FC3002864B87003024086200B077FC812634938
:103FD300D20B7F07125A3F8F28E528B4F803E4F584
:103FE30027E52864D87038126429C20BE527C394E7
:103FF3002850020527E527C3940A500890009CE047
:1040030004F08017E527C39414500990009CE02422
:1040130005F0800790009CE0240AF0D20C803CE578
:104023002864E87036126429C20BE527C39428502C
:10403300020527E527C3940A500890009CE014F07A
:104043008017E527C39414500990009CE024FBF0EB
:10405300800790009CE024F6F0D20C90009CE0FFD7
:10406300D394C84005743CF0800CEFD3943C4006D5
:1040730090009C7401F090009CE0FF7E00124EDFE4
:10408300023FBC126429C20B7F47125A3FBF47F855
:104093003002099000E6E090009CF022300C5E7F35
:1040A300C81263492002369000C7E06414602E15DD
:1040B30011A81176017D247B017A00799C1255B2F7
:1040C3009000C7EFF0BF84077F841214AB80D590B4
:1040D30000C7E0B485CE7F851214AB80C79000C7BC
:1040E300E0B414197F2D1214AB9000AFE0B4AA030F
:0D40F300123C847FFA1200037FFA120003D2
:01410000229C
:1049AF00C20BC20CE4F5279000AFE0F528E49000AD
:1049BF00C7F01264299000AFE0FF1214AB7F0F1203
:1049CF005A3FBF0FF8200271E52764B8606B200BC8
:1049DF00077FC8126349D20B7F07125A3F8F27E513
:1049EF0027B4D824126429C20B9000AFE0FF64AA49
:1049FF006004EFB45508EFF49000AFF0800690001C
:104A0F00AF74AAF0D20C8027E527B4E822126429EC
:104A1F00C20B9000AFE0FF64556004EFB4AA08EF3B
:104A2F00F49000AFF080069000AF7455F0D20C9068
:104A3F0000AFE0FF1214AB808C126429C20B7F47CA
:104A4F00125A3FBF47F83002079000AFE528F02217
:104A5F00300C63E49000D0F07FC812634920023617
:104A6F009000C7E06414602E1511A81176017D2502
:104A7F007B017A0079AF1255B29000C7EFF0BF8477
:104A8F00077F841214AB80D59000C7E0B485CE7F2A
:104A9F00851214AB80C79000C7E0B414197F2D1294
:104AAF0014AB9000AFE0B4AA03123C847FFA12005B
:064ABF00037FFA12000360
:014AC50022CE
:105BF100200F077FC8126349D20F900103E0FF1203
:105C010014AB7F07125A3F9000E5EFF064F860058E
:105C1100126429C20F900103E024C7603004705858
:105C21009000E5E0B4F004123F93229000E5E0FF1C
:105C3100B4E8079001037439F022EFB4D80790015A
:105C4100037439F022EF64B8702ED20E229000E571
:105C5100E0B4F0041249AF229000E5E0FFB4E80798
:105C61009001037438F022EFB4D80790010374381F
:085C7100F022EFB4B802D20EDC
:015C79002208
:10537D007527FF752864752949200F077FC81263AB
:10538D0049D20F7F07125A3F9000E5EFF064F860A5
:10539D0005126429C20FAB27AA28A9291211D19091
:1053AD005EF293FF7D2012641D74012529F529E419
:1053BD003528F528905F3DE493FF7D1012641D7430
:1053CD00012529F529E43528F528AB27FAA9291255
:1053DD0011D1905EF293FF7D0812641D7401252991
:1053ED00F529E43528F528AB27FAA9291211D19012
:1053FD005F1A93FF7D0412641D74012529F529E4BC
:10540D003528F528AB27FAA9291211D1905EF29310
:10541D00FF7D0212641D74012529F529E43528F557
:10542D0028AB27FAA9291211D1905EF293FF7D01C5
:0C543D0012641D9000E5E0B4B802D20E2D
:015449002240
:10256400200F077FC8126349D20F900105E024FCB5
:10257400700302261F1470030226AC147003022792
:10258400391470030227C6240660030228477FF02B
:10259400125A3FEF64F0702E1264299001047421E2
:1025A400F0C20FC20E7F47125A3FBF47F8200208FD
:1025B400200E05122B1980F57F47125A3FBF47F8AA
:1025C4007F171214AB227FE8125A3FBFE8207F071F
:1025D400125A3FBFF8F89001057404F0C202E49067
:1025E40000C7F0126429C20F7F151214AB227FD8E2
:1025F400125A3FEF64D860030228477F07125A3FFC
:10260400BFF8F89001057407F0C202E49000C7F027
:10261400126429C20F7F181214AB227FF0125A3FA2
:10262400EF64F0702E1264299001027431F0C20F2D
:10263400C20E7F47125A3FBF47F8200208200E05FA
:1026440012544A80F57F47125A3FBF47F87F15124C
:1026540014AB227FE8125A3FBFE8207F07125A3F8B
:10266400BFF8F89001057405F0C202E49000C7F0C9
:10267400126429C20F7F161214AB227FD8125A3F5C
:10268400EF64D860030228477F07125A3FBFF8F867
:102694009001057401F0C202E49000C7F0126429AD
:1026A400C20F7F171214AB227FF0125A3FEF64F06F
:1026B400702E1264299001067440F0C20FC20E7F7E
:1026C40047125A3FBF47F8200208200E05123AD499
:1026D40080F57F47125A3FBF47F87F161214AB228A
:1026E4007FE8125A3FBFE8207F07125A3FBFF8F82D
:1026F4009001057406F0C202E49000C7F012642948
:10270400C20F7F191214AB227FD8125A3FEF64D83C
:1027140060030228477F07125A3FBFF8F89001056B
:102724007404F0C202E49000C7F0126429C20F7F5F
:10273400151214AB227FF0125A3FEF64F0702E1280
:1027440064299001037438F0C20FC20E7F47125AF5
:102754003FBF47F8200208200E05125BF180F57F89
:1027640047125A3FBF47F87F191214AB227FE81271
:102774005A3FBFE8207F07125A3FBFF8F89001057F
:102784007407F0C202E49000C7F0126429C20F7FFC
:10279400181214AB227FD8125A3FEF64D860030298
:1027A40028477F07125A3FBFF8F89001057405F0D7
:1027B400C202E49000C7F0126429C20F7F161214FB
:1027C400AB227FF0125A3FEF64F07028126429C2E2
:1027D4000FC20E7F47125A3FBF47F8200208200E4F
:1027E4000512537D80F57F47125A3FBF47F87F1883
:1027F4001214AB227FE8125A3FBFE8207F07125A17
:102804003FBFF8F89001057401F0C202E49000C7DC
:10281400F0126429C20F7F171214AB227FD8125A08
:102824003FBFD81F7F07125A3FBFF8F890010574C5
:1028340006F0C202E49000C7F0126429C20F7F19A7
:042844001214AB229D
:105B6700C20F9000E2E5E6F0A3E5E7F0A3E5A8F0B1
:105B7700E4F5A8F5A8F5E6F5E77FF0125A3FEF64DC
:105B8700F070507F141263497F0F125A3FEF640F72
:105B9700600B20020812565F124CE080EB30023394
:105BA7001264297F111214AB7F07125A3FBFF8F80E
:105BB700C202E49000C7F090010504F07F171214A9
:105BC700AB20020F7FB8125A3FEF64B86005122569
:105BD7006480EE126429C2029000E2E0F5E6A3E0D9
:095BE700F5E7A3E0FFF5A88FA883
:015BF0002292
:0A61AE00010E04010F024101080870
:10636200E4F584758E02C2A9C28CC28EC28D758973
:056372001175840F22EB
:10629C00AF84758401E4F5C8F5C975CB4CF5CA8596
:0E62AC00CBCD85CACCD2CAD2AF43E7018F84D6
:0162BA0022C1
:1063EB00AF84758402E4F5C8F5C975CB4CF5CA8F3B
:0163FB00841D
:0163FC00227E
:10638C00E4F584758CFE758A33D28C308DFDC28D0C
:04639C0075840F22D3
:10634900E4F584D2AFD2AB758D4CF58B9000CBEFD1
:09635900F0C202D28E75840F22FD
:0B642900E4F584C2ABC28E75840F2224
:0B643400E4F584C2A9C28C75840F221D
:10000300A2AFE433FEEF600612638C1F80F7126425
:0600130034EE24FF92AF61
:0100190022C4
:10631600900082EFF0AF8475840285CBCD85CACC20
:09632600D2CAD2AF43E7048F8410
:01632F00224B
:03001B000262DAA4
:1062DA00C0E0C083C082758D4C758B009000CBE006
:0E62EA0014F0E07002D202D082D083D0E032F5
:03007300025D7AB1
:105D7A00C0E0C0F0C083C082C0D075D000C000C0EF
:105D8A0001C002C003C004C005C006C00730050D2B
:105D9A00D50E0AD51004C205D2B3750E0420040D1F
:105DAA009000B5E004F0B40804E4F0D204300A1C10
:105DBA009000AFE0B4AA15900108E014F0700DC28B
:105DCA00AF120086D2AF9001087408F0C2CFD00794
:105DDA00D006D005D004D003D002D001D000D0D054
:095DEA00D082D083D0F0D0E03269
:03008300025CFF1D
:105CFF00C0E0C083C082C0D075D000C006C00715F9
:105D0F000FE50F7057900082E014F0704C30A5141F
:105D1F00900085E0FEA3E0FF9000C6E02FF090001A
:105D2F00C5E03EF030A615900085E0FEA3E0FFC36E
:105D3F009000C6E09FF09000C5E09EF0C2CA9000B0
:105D4F00DCE0FEA3E0FFC39000C6E09FFF9000C51C
:105D5F00E09E9000BFF0A3EFF0750F02C2CFD00707
:0B5D6F00D006D0D0D082D083D0E0322C
:1063770075840FC2DE000000D2DEC2D8C2D9D2DADD
:05638700C2DCD2DF22A0
:065501008B418A42894340
:10550700E4FBFAF547F546F545F544C2AF75840F58
:10551700126377C2DF30DB110BBB00010AD3EB94B8
:1055270000EA940240EF7FFE22D2DF00C2DA00E4F5
:10553700FBEBC394185037AF47AE46AD45AC447844
:10554700011213E38F478E468D458C4430DD17E5F6
:10555700472401F547E43546F546E43545F545E486
:105567003544F544800100D2DC0BC2DC80C3D2DABB
:10557700D2AFAF47AE46AD45AC44AB41AA42A94313
:105587001213F6E4FFFEFDFCAB47AA46A945A84463
:10559700C31213BF600F74FFFFFEFD7C00A844C356
:0A55A7001213BF70037FFE227F2D58
:0155B10022D7
:1050D2007B007A007931125501EF642D600512636D
:1050E2007780ED85343C85333B85323A853139858D
:1050F20034388533378532368531358534408533CA
:105102003F85323E85313DE4F5307B007A007931CE
:10511200125501EF642D600512637780EDE540259D
:1051220034F540E53F3533F53FE53E3532F53EE5B2
:105132003D3531F53DAF3CAE3BAD3AAC39AB34AA6F
:1051420033A932A831D31213BF400E85343C8533C4
:105152003B85323A8531398022AF38AE37AD36AC35
:1051620035AB34AA33A932A831C31213BF500C8510
:1051720034388533378532368531350530E530C3ED
:1051820094114086C3E540953CF540E53F953BF5DB
:105192003FE53E953AF53EE53D9539F53DC3E5409F
:1051A2009538F540E53F9537F53FE53E9536F53EB6
:1051B200E53D9535F53DAF40AE3FAD3EFC7804127E
:0251C20013D008
:0151C40022C8
:1051C5007B007A00792C125501BF2DF4852F378588
:1051D5002E36852D35852C34852F33852E32852D1C
:1051E50031852C30852F3B852E3A852D39852C38F8
:1051F500E4F52B7B007A00792C125501BF2DF4E5DF
:105205003B252FF53BE53A352EF53AE539352DF5B4
:1052150039E538352CF538AF37AE36AD35AC34AB6E
:105225002FAA2EA92DA82CD31213BF400E852F37D8
:10523500852E36852D35852C348022AF33AE32ADA3
:1052450031AC30AB2FAA2EA92DA82CC31213BF50F9
:105255000C852F33852E32852D31852C30052BE598
:105265002BC39441408DC3E53B9537F53BE53A9516
:1052750036F53AE5399535F539E5389534F538C3D8
:10528500E53B9533F53BE53A9532F53AE539953108
:10529500F539E5389530F538AF3BAE3AAD39FC78A0
:0452A500061213D00A
:0152A90022E2
:105905008F338E328D318C309000D8E0F8A3E0F9DA
:10591500A3E0FAA3E0FB9000A4E0FFE4FCFDFE1287
:10592500127E9000D81214309000D8E0F8A3E0F968
:10593500A3E0FAA3E0FBC000C001C002C0039000D1
:10594500A4E0FFC374649FFFE49400FEE4FCFDAB98
:1059550033AA32A931A83012127ED003D002D00169
:10596500D000EB2FFFEA3EFEE93DFDE83CFC900050
:10597500D81214309000D8E0FCA3E0FDA3E0FEA30C
:10598500E0FFE47B64FAF9F81213099000D81214C9
:10599500309000D8E0FCA3E0FDA3E0FEA3E0FF22E9
:105EC4001250D2125905E412101C8F2F8E2E8D2DD4
:105ED4008C2CAB2FAA2EA92DA82CC000C001C00267
:105EE400C0039000B6E0FCA3E0FDA3E0FEA3E0FF46
:105EF400E412101CD003D002D001D000120E768F11
:105F04002F8E2E8D2D8C2C7BFF7AFF797F784B1270
:0D5F14000F7F8F2F8E2E8D2D8C2C12105A8A
:015F2100225D
:1062BB00125EC490009EE0F8A3E0F9A3E0FAA3E01D
:0E62CB00FBC3EF9BFFEE9AFEED99FDEC98FCF5
:0162D90022A2
:105861001251C59000D81214309000D8E0FCA3E08A
:10587100FDA3E0FEA3E0FFE412101C8F2A8E298D08
:10588100288C27AB2AAA29A928A827C000C001C0B3
:1058910002C0039000B6E0FCA3E0FDA3E0FEA3E09C
:1058A100FFE412101CD003D002D001D000120E76FA
:1058B1008F2A8E298D288C277BFF7AFF797F784B61
:1058C100120F7F8F2A8E298D288C27C004C005C016
:1058D10006C00790009EE0FCA3E0FDA3E0FEA3E06C
:1058E100FFEC12101CA804A905AA06AB07D007D02B
:1058F10006D005D004120D818F2A8E298D288C2780
:0359010012105A27
:015904002280
:10565F001262BBEC12101C8F2A8E298D288C27AB5F
:10566F002AAA29A928A827C000C001C002C00390F8
:10567F0000A5E0FCA3E0FDA3E0FEA3E0FFE4121011
:10568F001CD003D002D001D000120E768F2A8E29A3
:10569F008D288C27C004C005C006C0079000C1E04C
:1056AF00FCA3E0FDA3E0FEA3E0FFE412101CA8049E
:1056BF00A905AA06AB07D007D006D005D004120F54
:1056CF007F8F2A8E298D288C27C004C005C006C065
:1056DF00079000B0E0FCA3E0FDEC121021A804A994
:1056EF0005AA06AB07D007D006D005D004120D814E
:0B56FF008F2A8E298D288C2712105A4C
:01570A00227C
:10570B00125861EC12101C8F268E258D248C23AB26
:10571B0026AA25A924A823C000C001C002C003905B
:10572B0000A5E0FCA3E0FDA3E0FEA3E0FFE4121064
:10573B001CD003D002D001D000120E768F268E25FE
:10574B008D248C23C004C005C006C0079000C1E0A7
:10575B00FCA3E0FDA3E0FEA3E0FFE412101CA804F1
:10576B00A905AA06AB07D007D006D005D004120FA7
:10577B007F8F268E258D248C23C004C005C006C0C8
:10578B00079000B0E0FCA3E0FDEC121021A804A9E7
:10579B0005AA06AB07D007D006D005D004120D81A1
:0B57AB008F268E258D248C2312105AAF
:0157B60022D0
:0561B800C11001080503
:1060F500858425E4F584F5C875C908AB07AA06A902
:1061050005A804FF7E807D517C01121309E47B10F4
:10611500FAF9F812130912139B8ECB8FCA85CBCDD2
:1061250085CACCD2CAE4F5847598D0759115C2ACF0
:05613500D299852584CC
:01613A002242
:1062F8001511A811A607E4F5843099FDC299A811D3
:0E630800E6FFA2D0929BF59975840F05112235
:1061EF00E4FFF5842098062086FA7FA522309811C7
:1061FF00E599A2D0309A01B350027F01121217C253
:04620F009875840FEB
:016213002268
:103C8400C20DE4F52CF52BF52AF529F52F750C4218
:103C9400F509750D3290009CE090003CF0A3740689
:103CA400F0A374FAF0A37407F0A3741FF0A3742FA5
:103CB400F0A3741FF0A3742FF0A3741FF0A3742F48
:103CC400F0A3741FF0900054E50CF0A3E50DF0A3ED
:103CD400E509F0E490006CF0F52D743C252DF58297
:103CE400E43400F583E0FF90006CE02FF0052DE54F
:103CF4002DB430E6C287E4752C18752B13F52AF51C
:103D040029782974FF121412EC4D4E4F70F3D287A8
:103D1400E4F52CF52BF52AF52930861678291214AA
:103D2400107B007AB079017800C31213BF50EA7F88
:103D3400A522E4F52D743C252DF582E43400F583A9
:103D4400E0FF1262F8052DE52DC3943140E7E4F558
:103D54002CF52BF52AF52920861678291214107BC8
:103D6400007AB079017800C31213BF50EA7FA5220C
:103D7400E4F52D7400252DF9E43400FA7B01126179
:103D8400EF8F2EE52E7009052DE52DC3943140E308
:103D9400E52E6003023CF8F52D7400252DF582E430
:103DA4003400F583E0252EF52E052DE52DB430E9FC
:103DB400900030E0652E6003023CF8900000E0655E
:103DC400086003023CF8A3E06003023CF8752D028E
:103DD4007400252DF582E43400F583E0B4AA0705C8
:103DE4002DE52DB430EAE52DB430048011800205B0
:103DF4002FE52FD394145003023CF87F8B22E4F573
:103E04002D7400252DF582E43400F583E4F0052DAE
:073E1400E52DB43CEC7F2D0D
:013E1B002284
:1063A000E4FF9000AFE0B4AA0A30B007C2AF123CDD
:0363B00084D2AFE5
:0163B30022C7
:1060AE009000AFE064AA703E90001FE030E03090A8
:1060BE00006CE020E030E49000B0F0A3F0125EC47B
:1060CE0090009E1214301511A81176047D027B01EA
:1060DE007A00799E1255B290006CE04401F0229045
:0760EE00006CE054FEF022FB
:105DF3009000AFE064AA70621262BB8F288E278D79
:105E0300268C25752900752A00752B25AB29052BB2
:105E1300E52BAA2A7002052A14F91211D190006EFB
:105E2300F0052BE52BAA2A7002052A14F91211D1C9
:105E330090006FF0052BE52BAA2A7002052A14F9AE
:105E43001211D1900070F0052BE52BAA2A700205E0
:0A5E53002A14F91211D1900071F029
:015E5D002222
:10008600E4F548F555F554F553F552E50C14F50A23
:10009600E50D14F50BE490003CF07556017557001C
:1000A6007558CEAB560558E558AA57700205571431
:1000B600F91211D190003DF00558E558AA57700283
:1000C600055714F91211D190003EF09000D2E0903D
:1000D600003FF07556017557007558DCAB5605584C
:1000E600E558AA577002055714F91211D19000402D
:1000F600F00558E558AA577002055714F91211D1A0
:10010600900041F09000CDE0900042F075560175E8
:1001160057007558A9AB560558E558AA57700205F9
:100126005714F91211D1900043F00558E558AA5713
:100136007002055714F91211D1900044F09000A3F3
:10014600E0900045F090009DE0900046F075560165
:100156007557007558C9AB560558E558AA57700229
:10016600055714F91211D1900047F00558E558AA21
:10017600577002055714F91211D1900048F09000FB
:10018600D3E0900049F0755601755700755885AB58
:10019600560558E558AA577002055714F91211D199
:1001A60090004AF00558E558AA577002055714F909
:1001B6001211D190004BF0900084E090004CF0902A
:1001C60000CCE090004DF07556017557007558B695
:1001D600AB560558E558AA577002055714F912117F
:1001E600D190004EF00558E558AA577002055714ED
:1001F600F91211D190004FF00558E558AA57700230
:10020600055714F91211D1900050F00558E558AA77
:10021600577002055714F91211D1900051F0755616
:10022600017557007558C1AB560558E558AA577061
:1002360002055714F91211D1900052F00558E558ED
:10024600AA577002055714F91211D1900053F00500
:1002560058E558AA577002055714F91211D19000A3
:1002660054F00558E558AA577002055714F91211AB
:10027600D1900055F07556017557007558A5AB56C7
:100286000558E558AA577002055714F91211D1906E
:100296000056F00558E558AA577002055714F9128A
:1002A60011D1900057F00558E558AA577002055726
:1002B60014F91211D1900058F00558E558AA577054
:1002C60002055714F91211D1900059F075560175AF
:1002D600570075589EAB560558E558AA5770020543
:1002E6005714F91211D190005AF00558E558AA573B
:1002F6007002055714F91211D190005BF00558E50C
:1003060058AA577002055714F91211D190005CF0E3
:100316000558E558AA577002055714F91211D190DD
:10032600005DF0E4900060F0A3F020B207A3E04483
:1003360080F08007900062E0547FF020B1099000C1
:1003460062E04440F08007900062E054BFF020B3C2
:1003560009900062E04420F08007900062E054DFDC
:10036600F020B409900062E04410F080079000622B
:10037600E054EFF020B509900062E04408F08007F1
:10038600900062E054F7F075560175570175588074
:10039600AB560558E558AA577002055714F91211BD
:1003A600D1900063F00558E558AA57700205571416
:1003B600F91211D1900064F00558E558AA57700259
:1003C600055714F91211D1900065F00558E558AAA1
:1003D600577002055714F91211D1900066F0755640
:1003E600017557007558B3AB560558E558AA5770AE
:1003F60002055714F91211D1900067F00558E55817
:10040600AA577002055714F91211D1900068F0909E
:1004160000ABE0FCA3E0FDA3E0FEA3E0FFEC33505D
:1004260007E4F54AF54B80048E4A8F4B75560075E6
:10043600570075584AAB560558E558AA5770020535
:100446005714F91211D1900069F00558E558AA57CA
:100456007002055714F91211D190006AF0743C2508
:100466000AF582E43400F583E4F0F548E548C395DF
:100476000A501F743C2548F582E43400F583E0FFFA
:10048600743C250AF582E43400F583E02FF0054834
:1004960080DAE4F555F554F553F552308616785260
:1004A6001214107B007AB079017800C31213BF5082
:1004B600EA7FA522E4F548E548C3950C5014743C40
:1004C6002548F582E43400F583E0FF1262F805481A
:1004D60080E5E4F555F554F553F552208616785225
:1004E6001214107B007AB079017800C31213BF5042
:1004F600EA7FA522E4F548E548C3950D5018740037
:100506002548F9E43400FA7B011261EF8F49E54989
:100516007004054880E1E5497037F549F548E54836
:10052600C3950B501474002548F582E43400F58316
:10053600E02549F549054880E57400250BF582E478
:100546003400F583E0654960057549FC8003E4F5F0
:1005560049E5496002FF22900020E030E204D2B172
:10056600D2B2900020E030E102D2B590001EE02029
:10057600E00302069190006BE030E00302069875F6
:10058600560075570075584A900001E0FFAB5605B6
:1005960058E558AA577002055714F9EF121217902A
:1005A6000002E0FFAB560558E558AA5770020557FA
:1005B60014F9EF121217C3E54B94F0E54A9455402F
:1005C6006FAE4AAF4BE4FCFD7BE87AFDF9F81213F7
:1005D600A9405D9000C6E0254BFF9000C5E0354A76
:1005E600FE9000CEE0FCA3E0FDC3EF9DFFEE9CFE77
:1005F6009000C5F0A3EFF09000DCE0FCA3E0FDC3A3
:10060600EF9DFFEE9C9000BFF0A3EFF09000CEE5CB
:100616004AF0A3E54BF01511A81176027D007B0187
:100626007A0079CE125C7A90005EE054BFF08007C3
:1006360090005EE04440F0900003E0D3945A503BB3
:10064600E09000D2F01511A81176017D067B017AA3
:100656000079D2125C7A9000D2E0FCE41210267B7C
:10066600CD7ACC798C783F120E7612105A9000A46F
:10067600EFF090005EE0547FF0800790005EE0446B
:1006860080F090006BE04401F0800790006BE0542E
:10069600FEF090001EE020E10302076D90006BE083
:1006A60030E10302077475560075570075584A9075
:1006B6000004E0FFAB560558E558AA5770020557E7
:1006C60014F9EF121217900005E0FFAB560558E536
:1006D60058AA577002055714F9EF121217C3E54BC3
:1006E6009464E54A9400404AD3E54B9410E54A9455
:1006F60027503F9000DCE54AF0A3E54BF09000DC84
:10070600E0FEA3E0FFC39000C6E09FFF9000C5E0B7
:100716009E9000BFF0A3EFF01511A81176027D0799
:100726007B017A0079DC125C7A90005EE054DFF09F
:10073600800790005EE04420F0900006E064AA6026
:1007460004E0B45519900006E09000CDF01511A80C
:100756001176017D097B017A0079CD125C7A9000D1
:100766006BE04402F0800790006BE054FDF09000CF
:100776001EE020E2030209FB90006BE030E2030278
:100786000A0275560075570075584E900012E0FF24
:10079600AB560558E558AA577002055714F9EF12DB
:1007A6001217900013E0FFAB560558E558AA57708C
:1007B60002055714F9EF121217900014E0FFAB561A
:1007C6000558E558AA577002055714F9EF12121783
:1007D600900015E0FFAB560558E558AA577002057C
:1007E6005714F9EF1212177FA07E867D017C00ABAD
:1007F60051AA50A94FA84EC31213BF60507FF07E76
:10080600497D027C00A84EC31213BF60407F407E24
:100816000D7D037C00A84EC31213BF60307F907E0F
:10082600D07D037C00A84EC31213BF60207FE07EFC
:10083600937D047C00A84EC31213BF60107F307EE8
:10084600577D057C00A84EC31213BF7028AF51AE6A
:1008560050AD4FAC4E9000B61214301511A811765B
:10086600047D157B017A0079B6125C7A90005FE010
:10087600547FF0800790005FE04480F07556007565
:10088600570075584E900016E0FFAB560558E558D0
:10089600AA577002055714F9EF121217900017E0C5
:1008A600FFAB560558E558AA577002055714F9EFDD
:1008B600121217900018E0FFAB560558E558AA57D4
:1008C6007002055714F9EF121217900019E0FFABEA
:1008D600560558E558AA577002055714F9EF121233
:1008E60017E47F387E4AFDFCAB51AA50A94FA84EAB
:1008F600C31213BF4037E47F307EF2FDFCA84ED30F
:100906001213BF5028AF51AE50AD4FAC4E9000C140
:100916001214301511A81176047D207B017A007916
:10092600C1125C7A90005FE054EFF0800790005FA0
:10093600E04410F075560075570075584E90001A31
:10094600E0FFAB560558E558AA577002055714F94B
:10095600EF12121790001BE0FFAB560558E558AA98
:10096600577002055714F9EF12121790001CE0FF9A
:10097600AB560558E558AA577002055714F9EF12F9
:10098600121790001DE0FFAB560558E558AA5770A0
:1009960002055714F9EF121217E47F207E4EFDFC74
:1009A600AB51AA50A94FA84EC31213BF4037E47FDC
:1009B600607EEAFDFCA84ED31213BF5028AF51AE9D
:1009C60050AD4FAC4E9000A51214301511A81176FB
:1009D600047D197B017A0079A5125C7A90005FE0AC
